:1000000000000120910100007F0300008103000037
:100010008303000085030000870300000000000048
:100020000000000000000000000000008903000044
:100030008B030000000000008D0300008F03000010
:100040009103000093030000E10C0000FD0C000090
:10005000990300009B0300009D0300009F03000024
:10006000A1030000A3030000A5030000A7030000F4
:10007000A9030000AB0300006D180000AF030000EF
:10008000B1030000B3030000B5030000F105000058
:10009000B9030000BB030000BD030000BF03000064
:1000A000C1030000C3030000C5030000BD0D000034
:1000B000650E0000CB030000CD030000CF0300005D
:1000C000D1030000D3030000D50300009D180000F9
:1000D00021190000DB030000DD030000DF03000046
:1000E000E1030000E3030000E5030000E703000074
:1000F000E9030000EB030000ED030000EF03000044
:10010000F1030000F3030000F5030000F703000013
:10011000F9030000FB030000FD030000FF030000E3
:1001200001040000030400000504000007040000AF
:10013000090400000B0400000D0400000F0400007F
:10014000110400001304000015040000170400004F
:10015000190400001B0400001D0400001F0400001F
:1001600021040000230400002504000027040000EF
:10017000290400002B0400002D0400002F040000BF
:100180003104000033040000000000000000000003
:100190004FF0000BDFF8BE020068DFF8B612096806
:1001A00001F0030100F01C00142801D14BF0020BF8
:1001B000002901D04BF0010BBBF1000F05D0A7487F
:1001C000A749DFF8722200F09FF8A64880470BF09D
:1001D000020ABAF1000F0CD0DFF86E02DFF86E12DF
:1001E00002680B680FB44FF000024FF0FF0302608B
:1001F0000B609D4800220123022808D1DFF83E123F
:100200000A60DFF842120A60DFF836120B6001283C
:1002100008D1DFF82E120A60DFF82A120A60DFF830
:100220001E120B609148002809D191489149924AC9
:1002300000F032F891489249924A00F02DF8924825
:100240009249934A00F028F892489349DFF8E62152
:1002500000F05AF8BBF1000F12D090489049DFF837
:10026000DA2100F051F80BF0020ABAF1000F07D0C2
:100270000FBC02600B6000BFAFF30080AFF30080E3
:10028000DFF820020FF2030E00474FF000004FF09E
:100290000001DFF814F2FEE72DE9F841884225D08D
:1002A000B2EB010200D5FEE740EA010313F00303BD
:1002B00002D000F01DF819E04FF000039046121133
:1002C000F7D09A421CBFF0C8F0C103F10103F8D186
:1002D00008F00F08B8F1000F08D004780C7000F196
:1002E000010001F10101B8F10108F6D1BDE8F88182
:1002F00008B54FF0000303780B7000F1010001F125
:100300000101013AF7D108BD884237D000F0030659
:10031000002E14D04FF00405A5EB06044FF008079B
:1003200007FB06F8914669FA08F9002C07D080F817
:10033000009069FA07F900F10100013CF5E74FF080
:1003400000060F46091A88460911914614461546BB
:10035000B14206D018BFA0E8340206F10106B1424E
:10036000F8D108F00F08B8F1000F07D002704FEA7B
:10037000322200F10100B8F10108F4E77047FEE70E
:10038000FEE7FEE7FEE7FEE7FEE7FEE7FEE7FEE745
:10039000FEE7FEE7FEE7FEE7FEE7FEE7FEE7FEE735
:1003A000FEE7FEE7FEE7FEE7FEE7FEE7FEE7FEE725
:1003B000FEE7FEE7FEE7FEE7FEE7FEE7FEE7FEE715
:1003C000FEE7FEE7FEE7FEE7FEE7FEE7FEE7FEE705
:1003D000FEE7FEE7FEE7FEE7FEE7FEE7FEE7FEE7F5
:1003E000FEE7FEE7FEE7FEE7FEE7FEE7FEE7FEE7E5
:1003F000FEE7FEE7FEE7FEE7FEE7FEE7FEE7FEE7D5
:10040000FEE7FEE7FEE7FEE7FEE7FEE7FEE7FEE7C4
:10041000FEE7FEE7FEE7FEE7FEE7FEE7FEE7FEE7B4
:10042000FEE7FEE7FEE7FEE7FEE7FEE7FEE7FEE7A4
:10043000FEE7FEE7704700000000A2A2A2A2008033
:100440000340088003401080034030800340348024
:1004500003403880034018080240000000F00020EC
:1004600000000120891400000000000000000000CE
:10047000000000000000000090010000B004000037
:10048000B0040000E01B0000E01B000000000020A2
:100490005004002050040020000600200006002028
:1004A00000F00020A5190000B915000000000000B0
:1004B00010B5054C237833B9044B13B10448AFF39E
:1004C00000800123237010BD5004002000000000B4
:1004D000BC1B00000C4B43B10C4810B50C49AFF3EA
:1004E00000800C48036823B910BD0A48036833B97B
:1004F0007047094B002BF7D0BDE810401847064B5A
:10050000002BF5D0184700BF00000000BC1B000006
:10051000540400200000002000000000016070472B
:10052000006870470EB503FA01F303EA020301689D
:100530006FEA020201EA020141EA030101600EBD15
:10054000006800EA020020FA01F07047018070475D
:10055000008870470EB503FA01F303EA020301882D
:100560006FEA020201EA020141EA030101800EBDC5
:10057000008800EA020020FA01F07047017070471D
:10058000007870470EB503FA01F303EA020301781D
:100590006FEA020201EA020141EA030101700EBDA5
:1005A000007800EA020020FA01F070470B4B10B50A
:1005B0000B4C198823683BB10A4A89B210689847E6
:1005C0000023094A23601370084B1A46196841F04A
:1005D000010119601368DB07FCD410BD8C040020F6
:1005E0007404002084040020910400200060014075
:1005F000924BF0B55C689A68E4B21440A10785B0EC
:100600001FD4E10701D405B0F0BD8D4D2B78022B2E
:1006100000F09480052B2AD0012B57D0874A894CB3
:10062000936823F00103936023683BB1864A00215D
:10063000106898470023854A2360137000232B70AD
:10064000E1E77F4D1A692B78D0B2052B00F250817B
:10065000DFE813F0CB00D700D700DF00A00089004F
:100660007B4B1A68002A40F0C980E207CBD5794C51
:100670002368002B00F0FC802368002B6BD06F49AF
:1006800026680B68744823F0040307680B604B6806
:1006900003F001030393039A92B1002E00F06781E7
:1006A00000227D1E01E096420AD015F8013F01327A
:1006B0000B614B6803F001030393039B002BF2D102
:1006C000236817449A1A076022609CE7634E3388B8
:1006D0009BB2002B37D0594934880B68DFF88CE186
:1006E00023F00403DEF800700B604B68A4B203F043
:1006F00001030193019A92B1002C00F03C81002289
:10070000781E01E094420AD010F8013F01320B61DB
:100710004B6803F001030193019B002BF2D1338856
:100720009BB2934200F2ED8000224A4B32801B685C
:10073000002B00F0EE8002232B7064E7454C236809
:10074000002B40F0A880414B1B78002B3FF45BAF9F
:10075000FFF72CFF57E70321384A936823F0010382
:10076000936029704FE716043FF57AAF364B354E4C
:100770001A683368507033B110460221984700233D
:10078000324A3360137000232B70E3073FF546AF06
:1007900005B0F0BD17042DD4314A2B4913880E68DB
:1007A0009BB2334413F8013CF12B00F0BD802D497E
:1007B000138809889BB28B4206D217881388BFB270
:1007C00001339BB2F055138013889BB29942DCD160
:1007D0001C4F13883A6899B2002AD4D0304690470B
:1007E00000231A4A3B601370CDE71204CDD5F128DF
:1007F00000F0AB80164B1A68002AC6D01B689847D9
:10080000FFE615047FF5FDAE114B1A68002AF5D1FD
:10081000F7E61304B9D5144B1B789842EAD10023AC
:1008200004210F4A297013801188074E13883668F7
:10083000013389B29BB213807054A6E70060014077
:1008400090040020740400208404002091040020FF
:100850006C04002078040020800400207204002032
:100860008C0400208E040020700400207C040020F2
:10087000424B1B68002B4FD04148984720602368AB
:10088000002B7FF4F9AE03213E4A936823F0010365
:1008900093602970F0E63B4927680B68384823F0DD
:1008A0000403D0F800E00B604B6803F001030293EF
:1008B000029A92B1002F5CD000220EF1FF3601E0C7
:1008C00097420AD016F8013F01320B614B6803F0E2
:1008D00001030293029B002BF2D1236893427FF61F
:1008E0003AAF21680EEB02038A1A036022608AE69F
:1008F000254E3368002B3FF446AF244A0021106890
:100900003CE7338817449A1A92B2CEF800703280CE
:1009100079E603232B7076E61D4B1B78002B3FF402
:10092000ABAEFFF743FEA7E61A4F11881388D7F83E
:1009300000E08AB29BB2B054013BBEF1000F3FF41D
:1009400022AF3A68F05C90471DE700260422124B64
:100950002A701E8019881A8889B2013292B21A80D0
:100960000A4A1B8812689BB25054D6540DE732468F
:10097000A6E63A46B1E72246D1E600BF8804002049
:1009800080040020006001407404002084040020E2
:10099000910400206C0400208C0400202A4A036883
:1009A00090422DE9F04F1C68D3F81880D3F804C0AA
:1009B000D3F828E01F6B5E6BDD692CD04FF0030B82
:1009C0004FF0080A214A22491346D1F8489080F88E
:1009D00004B002601F4849F48069C1F84890C0F82B
:1009E00080A1886C20F480608864116821F0004147
:1009F000116024F001041C60C3F81880C3F804C01F
:100A00001A6842F001021A60C3F828E01F635E63AF
:100A1000DD61BDE8F08F02234FF004090C490E4A56
:100A200003718B6C02600B4843F400738B64C0F855
:100A30008091886C134620F400708864116821F05E
:100A400000411160D5E700BF3C05002000100140C7
:100A50000080034000E100E0001000400268F0B4B4
:100A60009368DD053FD40369C768BB4211D285682E
:100A70002B44EE1901E09E420BD013F8011B51618B
:100A80009468591BE4050161F5D58F4201D9F0BC8A
:100A900070479368DB0511D4C3698569AB4225D2E1
:100AA00046693344354401E09D4207D013F8011BE9
:100AB000516191689C1BC461CC05F5D5436A002B3C
:100AC000E5D0C16983699942E1D3906810F48070E0
:100AD000DDD1202301E0013BD9D050619168C905E7
:100AE000F9D5F0BC70470169C768CEE7436A002BAF
:100AF000EBD1CCE710B590F8803082B0022B0CD04F
:100B0000012B18D003689A68520604D41A6900921F
:100B10009A685206FAD502B010BD0446236803E075
:100B20001969626F00911AB99A685106F8D5F2E70F
:100B300000989047F2E7026893685C06EBD4036B79
:100B4000C16A14699942019404D9826A0199D15405
:100B5000036B02689168013349060363F0D502B064
:100B600010BD00BF70B5036882B01A6A04469207D0
:100B70001D460ED590F88020022A36D0012A9A68A8
:100B800003D190E01A6901929A685206FAD50222BE
:100B9000DA602A6AD60709D594F88020022A28D07C
:100BA0002046FFF75BFF23680122DA602A6AD0063D
:100BB00048D42A6A51075CD42A6A12070BD5DA6A2C
:100BC00094F8801042F008020229DA625CD0012910
:100BD0007FD00822DA602B6A9B060DD402B070BD6C
:100BE0001969626F0191002A59D19A685606F7D5A2
:100BF000CDE7A26F5A61D7E72046FFF77BFF236A54
:100C0000256B002B63D00022102123686262626191
:100C1000A261E261D9609A6A0A439A620026DA6A9E
:100C2000204642F00C022661DA62FFF717FFE36FFD
:100C3000266313B12946A06A984720222368DA6008
:100C400002B070BD2046FFF755FF236A2BB1A06AA2
:100C5000216B98472046FFF701FF012210212368EE
:100C600062629A6A22F010029A62D9602A6A510777
:100C7000A2D5DA6A204642F00402DA62FFF78EFE5D
:100C800004222368DA6097E71A68A16F22F47F02D2
:100C900022F47F4242F480721A60596199E7019808
:100CA00090472368A1E750063FF571AF226BE16AD8
:100CB00018699142019004D9A36A01999954226B51
:100CC00023689968013249062263F0D55FE72368FB
:100CD000A4E7002320462361FFF7C0FE236878E7DE
:100CE000684620F007018D4601B50348FFF73AFF3B
:100CF000BDE80140854670473C050020684620F06D
:100D000007018D4601B50348FFF72CFFBDE8014000
:100D100085467047B8040020F0B5264CB2F5803FF8
:100D200027684FEA870404EB07054FEAC5164FEA28
:100D3000850506F1844605F1402E0EF5803E06F548
:100D40002016C6F8C431CEF80400CEF80810DEF83C
:100D50000C604FEA16464FEA0646CEF80C601ED8E5
:100D60000021DEF80C0092B2134B0243CEF80C20A7
:100D7000196101250020E3199A0002F1402202F5D1
:100D80008032D168DB0103F1844303F5201341F481
:100D9000E001D160C3F8C051C3F8CC01F0BD064BEF
:100DA000A2F5803201F5803100F580301A61D960FA
:100DB0009860DEE7980400209C040020684620F03C
:100DC00007018D4631B50124224D23492A6802EBE3
:100DD00082039B0002F5287003F1402341F8204074
:100DE00003F58033D9682244042A21F4E001D96054
:100DF00008BF0023194C18BF2A60226908BF2B6066
:100E00007AB11749A0680B68042B0CBF002301338B
:100E10000B60237DE168FFF77FFFBDE83140854629
:100E200070472B6803EB83039B0003F1402303F51A
:100E30008033DB6813F4E003EFD1012008496268D6
:100E40002B6020700B60002AE7D09047BDE831404E
:100E50008546704794040020000028429C0400202E
:100E600098040020684620F007018D46264B31B5D6
:100E70001B6813F4706F1CD0244C21688B005A1827
:100E8000D20102F1844202F52012D2F808223AB1CE
:100E900002201F4A5568107015B1A84721688B00C1
:100EA0000B44DB0103F1844303F52013D3F80C3228
:100EB0000BBB154B1B6813F4704F05D00420144B6B
:100EC0005A68187002B19047BDE831400123114AB9
:100ED0001149C2F8C8318546C2F8803AC2F8483490
:100EE000C1F8803AC2F8C836C1F8843AC2F8483925
:100EF000C1F8883A70470320054B5A681870002AD9
:100F0000D7D09047D5E700BF0040014094040020AF
:100F10009C040020000028420400284220B1072B36
:100F200002D8B2F5005F00D37047F0B50F46154602
:100F30001E46044683B0D1B207F10800FFF71EFB3E
:100F40006A1102F4FF6242EA060107F10C00FFF7A2
:100F500015FB276007F11000FFF712FB82070CD585
:100F600020680430FFF70CFB23688DF8070003F1BD
:100F70001000FFF705FB8307F2D40023237103B0B1
:100F8000F0BD00BF98B191B18AB170B504460D466D
:100F90008E1820681030FFF7F3FAC307F9D515F85B
:100FA000011B2068FFF7EAFAB542F2D170BD704725
:100FB000F8B508B101B112B900242046F8BD0546C4
:100FC0000068174610300E46FFF7DAFAC207F3D56D
:100FD0000024013E01E0A742EFD016F8011F286867
:100FE000FFF7CCFA286801341030FFF7C9FAC307BD
:100FF000E3D5F0E7F8B508B101B112B900252846EC
:10100000F8BD04460068174610300E46FFF7B8FAE0
:101010002379820743EA00032371EFD50025013EBF
:1010200001E0AF42EBD0206801350430FFF7A8FAA9
:1010300006F8010F20681030FFF7A2FA2379034366
:1010400023718307EDD42846F8BD00BF28B10022E4
:1010500003790271C3F382007047FF20704700BF1D
:1010600038B5104B082905465C5C00680CD90C307B
:10107000FFF786FA2B6844EA0001C9B203F10C00BD
:10108000BDE83840FFF77ABA0830FFF779FA2B68E5
:1010900044EA0001C9B203F10800BDE83840FFF797
:1010A0006DBA00BF141B000038B5104B0829054667
:1010B0005C5C00680CD90C30FFF762FA2B6820EA00
:1010C0000401C9B203F10C00BDE83840FFF756BA7D
:1010D0000830FFF755FA2B6820EA0401C9B203F182
:1010E0000800BDE83840FFF749BA00BF141B0000F4
:1010F00070B5044616461D46016001F10800002146
:10110000FFF73CFA206800210C30FFF737FA314630
:101110002068FFF703FA206829460430FFF7FEF93C
:10112000206800211030FFF7F9F9206800211830FD
:10113000FFF7F4F9206800212030FFF7EFF920686D
:1011400000212830FFF7EAF9206800213030FFF74E
:10115000E5F9206800213830FFF7E0F92068002128
:101160004030FFF7DBF9206800214830FFF7D6F95F
:10117000206800215030FFF7D1F920680021583055
:10118000FFF7CCF9206800216030FFF7C7F920682D
:1011900000216830FFF7C2F9206800217030FFF7A6
:1011A000BDF9206800217830FFF7B8F920680021E8
:1011B0008030FFF7B3F920680021BDE87040883027
:1011C000FFF7ACB970B54C1E0F2C1DD8C2B1054647
:1011D0000C4616460D4B006853F821300021184488
:1011E000FFF79CF90A4B286853F82430314618441D
:1011F000FFF794F921462846BDE87040FFF730BF5D
:10120000BDE87040FFF750BF70BD00BF6C1B000011
:10121000281B000070B506460C46027101F18005DE
:101220003160204600210434FFF7A8F9AC42F8D120
:101230003379012B21D00AD3022B07D130684FF02C
:10124000FF31BDE870408030FFF768B970BD30688D
:10125000FF218030FFF792F93068FF218430FFF7DB
:101260008DF93068FF218830FFF788F93068FF2159
:10127000BDE870408C30FFF781B930684FF6FF71E0
:101280008030FFF763F930684FF6FF71BDE87040BA
:101290008430FFF75BB900BF1F290B4600D97047A8
:1012A0000068114600EB8300FFF738B9037970B589
:1012B000012B044624D009D3022B05D1BDE8704090
:1012C0000068A030FFF72CB9002070BD0068A03086
:1012D000FFF73EF905462068A430FFF739F90646C6
:1012E0002068A830FFF734F92368000440EA062498
:1012F00003F1AC00FFF72CF92C4344EA006070BD09
:101300000068A030FFF724F905462068A430FFF7F5
:101310001FF945EA004070BDF8B504790646012C76
:101320000D46174628D011D3022C0ED10068A030EC
:10133000FFF7F6F80121A940002F42D001433068A1
:10134000BDE8F840A030FFF7E9B8F8BD0368CE0863
:10135000A03303EB86063046FFF712F905F00705C8
:1013600001212FB301FA05F545EA0001C9B2304663
:10137000BDE8F840FFF702B903680E09A03303EB9C
:1013800086063046FFF7E4F805F00F0104FA01F194
:1013900037B1014389B23046BDE8F840FFF7D6B80F
:1013A00020EA010189B23046BDE8F840FFF7CEB827
:1013B000A94020EA0101C9B23046BDE8F840FFF774
:1013C000DDB820EA01013068BDE8F840A030FFF741
:1013D000A5B800BF1F2900D9704710B5046804EBF9
:1013E00081042046FFF7CCF840F00801C9B220463E
:1013F000BDE81040FFF7C2B81F2900D9704710B5EB
:10140000046804EB81042046FFF7BAF820F00801D5
:101410002046BDE81040FFF7B1B800BF38B5012441
:1014200003790546012B04FA01F420D009D3022BDD
:1014300006D100682146BDE838408030FFF76EB81D
:1014400038BD006821468030FFF798F82868210AE7
:101450008430FFF793F82868210C8830FFF78EF866
:101460002868210E8C30BDE83840FFF787B8006847
:1014700021468030FFF76AF82868210C8430BDE8E7
:101480003840FFF763B800BF4FF602020B4BD3F8AA
:101490004C1191420BD1D3F8982042F48072C3F8DA
:1014A0009820D3F8982022F08062C3F89820044A4C
:1014B000536943F400735361FEF7BCBF00800340DF
:1014C00000ED00E0F0B42E4A82B0D2F8983013F06C
:1014D000806324D1D2F89810C9043AD5012403219D
:1014E00002208DF806108DF807108DF800308DF869
:1014F00002308DF801408DF803408DF804008DF81E
:101500000500D2F89C3002A9C3F382130B4413F8F0
:10151000083CA34231D002D31A491B4B08E0D2F851
:1015200050111A4A11F0040F194B18BF13461549F0
:101530000B60184F184E194D194C1A481A4A1B497E
:101540003B6033602B6023600360116002B0F0BC2D
:101550007047174B0B4A0F4913600B600E4F104E2C
:10156000104D1148114C0D4A12493B6033602B60FD
:101570000460116002B0F0BC70474FF40043D6E73E
:10158000008003400400002040420F0080F0FA0277
:1015900040787D0114000020180000200800002081
:1015A0000C000020100000201C000020C00E1602BD
:1015B000003B5808801D2C042DE9F04140F2F31344
:1015C00086B0FA224FF0A0419E48FFF791FD00231C
:1015D0000193019A9C4B9A4205DC019A01320192D7
:1015E000019A9A42F9DD002401233922974998484B
:1015F000FFF794FC03940494ADF81440FFF762FFE6
:10160000022294499448FFF705FE2146052292489C
:10161000FFF742FE052201218F48FFF73DFE05221C
:1016200002218D48FFF738FE052203218A48FFF783
:1016300033FE052204218848FFF72EFE0522864846
:101640001146FFF729FE052206218348FFF724FEF5
:10165000052207218048FFF71FFE214643227E48CE
:10166000FFF71AFE432201217B48FFF715FE4322B4
:1016700002217948FFF710FE432203217648FFF745
:101680000BFE432204217448FFF706FE4322052186
:101690007148FFF701FE432206216F48FFF7FCFD6A
:1016A000432207216C48FFF7F7FD214601226A48D3
:1016B000FFF732FE012268481146FFF72DFE012296
:1016C00002216548FFF728FE012203216248FFF747
:1016D00023FE012204216048FFF71EFE012205219E
:1016E0005D48FFF719FE012206215B48FFF714FE53
:1016F000012207215848FFF70FFE5748FFF7D6FD94
:10170000224601214F48FFF75DFD012202214D488D
:10171000FFF758FD022203214A48FFF753FD2146F7
:101720004D48FFF757FE01214B48FFF753FE4FF09E
:10173000080E1022602750214FF480404FF04026C1
:101740000125464BDFF8FC80C3F804E05A60444AA8
:1017500083F82373DFF810E183F824131168C3F8CA
:101760008000DEF848703F4A27F0400701EB810116
:10177000CEF848707465384FC2F88041C2F888418D
:10178000C2F884413561C3F880017160C2F88051AC
:10179000C2F888512E4D0DF1150618602846FFF746
:1017A00055FC04460028F9D10A2203A92846FFF770
:1017B00021FC0028F2D09DF80C302A2BEED14FF6F8
:1017C000E7520294029B934205DC029B0133029391
:1017D000029B9342F9DD0DF10D0403E0312B15D08E
:1017E000B442DBD014F8013B302BF7D123784F2BD8
:1017F00017D0462BF4D1404600220221FFF7E2FC2D
:10180000012200213846FFF787FDE9E723784F2BB7
:1018100012D0462BE4D1012238461146FFF77CFD59
:10182000DEE74046FF220221FFF7CCFC00223846CB
:101830001146FFF771FDD3E7002201213846FFF77B
:101840006BFDCDE7D00500201FD61300002000500F
:10185000C805002000100030C005002000E100E0B5
:1018600014000020000008420080034038B5094DF4
:10187000094C294620460122FFF79AFB29460246D9
:101880002046FFF77FFB4FF0402301221A61BFF390
:101890004F8F38BDB4040020C8050020F0B50025E6
:1018A0001B4C83B029462046FFF7A6FD20460121A8
:1018B000FFF7A2FD174B184E1B6801A91F0C3046FD
:1018C0000322ADF804308DF80670FFF771FB032298
:1018D00001A93046FFF756FB204629468DF80450F3
:1018E0008DF805508DF80650FFF798FD2046012130
:1018F000FFF794FD0822094B29462046C3F88421AE
:10190000FFF768FD20460121FFF764FD03B0F0BD3D
:10191000C0050020B01B0000C805002000E100E069
:10192000F0B500251B4C83B029462046FFF764FD27
:1019300020460121FFF760FD174B184E1B6801A9D7
:101940001F0C30460322ADF804308DF80670FFF707
:101950002FFB032201A93046FFF714FB204629463E
:101960008DF804508DF805508DF80650FFF756FDA0
:1019700020460121FFF752FD0822094B2946204647
:10198000C3F88421FFF726FD20460121FFF722FD41
:1019900003B0F0BDC0050020B41B0000C805002046
:1019A00000E100E070B50F4E0F4D761BB61018BF6A
:1019B000002405D0013455F8043B9847A642F9D1DC
:1019C0000A4E0B4D00F0FAF8761BB61018BF002433
:1019D00006D0013455F8043B9847A642F9D170BDB2
:1019E00070BD00BFD41B0000D41B0000DC1B000036
:1019F000D41B0000024B13B1024800F005B8704739
:101A000000000000151A0000002301461A4618467F
:101A100000F01EB838B50A4C0A4D641BA4100AD059
:101A200004F18043013B05EB8305013C55F8043983
:101A30009847002CF9D1BDE8384000F0C5B800BF88
:101A4000E01B0000DC1B0000704700BF704700BFB8
:101A50002DE9F8432C4D0646286898460F469146D6
:101A6000FFF7F2FF294B1C68D4F84831002B3ED019
:101A70005A681F2A1CDC02F1010E76B1012103EB2A
:101A80008204C4F88890D3F8880191400843022E5C
:101A9000C3F88801C4F8088123D00232C3F804E0F7
:101AA000286843F82270FFF7D1FF0020BDE8F883D3
:101AB000174B0BB34FF4C870AFF300800346D8B197
:101AC0000020D4F848114FF0010E5860196002460A
:101AD000C4F84831C3F88801C3F88C01002EDCD06B
:101AE000CCE7D3F88C010143C3F88C11D5E704F59A
:101AF000A673C4F84831BBE72868FFF7A7FF4FF08B
:101B0000FF30BDE8F88300BF48040020B81B000088
:101B100000000000000102040810204080010204BF
:101B200008102040800000000000000014000000A9
:101B30001C000000240000002C0000003400000005
:101B40003C000000440000004C0000005400000075
:101B50005C000000640000006C00000074000000E5
:101B60007C000000840000008C00000000000000E9
:101B700010000000180000002000000028000000F5
:101B80003000000038000000400000004800000065
:101B900050000000580000006000000068000000D5
:101BA0007000000078000000800000008800000045
:101BB000423100004232000020000020F8B500BF92
:101BC000F8BC08BC9E467047F8B500BFF8BC08BC1E
:101BD0009E467047F5190000D5040000B1040000CE
:101BE00000000000003B5808801D2C04003B5808F2
:101BF000003B5808003B5808003B5808C00E16022E
:101C0000000000000C03002074030020DC0300200F
:101C100000000000000000000000000000000000C4
:101C200000000000000000000000000000000000B4
:101C300000000000000000000000000000000000A4
:101C40000000000000000000000000000000000094
:101C50000000000000000000000000000000000084
:101C60000000000000000000000000000000000074
:101C70000000000000000000000000000000000064
:101C80000000000000000000000000000000000054
:101C90000000000000000000000000000000000044
:101CA0000000000000000000010000000000000033
:101CB0000E33CDAB34126DE6ECDE05000B000000F8
:101CC0000000000000000000000000000000000014
:101CD0000000000000000000000000000000000004
:101CE00000000000000000000000000000000000F4
:101CF00000000000000000000000000000000000E4
:102020000000000000000000D405002000000000B7
:040000030000019167
:00000001FF
