:020000042000DA
:1000000000000120910100207F03002081030020D7
:1000100083030020850300208703002000000000E8
:100020000000000000000000000000008903002024
:100030008B030020000000008D0300208F030020B0
:1000400091030020930300201D1000204110002088
:10005000990300209B0300209D0300209F030020A4
:10006000A1030020A3030020A5030020A703002074
:10007000A9030020AB0300202D260020AF030020A1
:10008000B1030020B3030020B5030020AD0500201C
:10009000B9030020BB030020BD030020BF030020E4
:1000A000C1030020C3030020C5030020B5110020B8
:1000B000AD120020CB030020CD030020CF03002091
:1000C000D1030020D3030020D50300206D2600209B
:1000D00019270020DB030020DD030020DF030020C0
:1000E000E1030020E3030020E5030020E7030020F4
:1000F000E9030020EB030020ED030020EF030020C4
:10010000F1030020F3030020F5030020F703002093
:10011000F9030020FB030020FD030020FF03002063
:10012000010400200304002005040020070400202F
:10013000090400200B0400200D0400200F040020FF
:1001400011040020130400201504002017040020CF
:10015000190400201B0400201D0400201F0400209F
:10016000210400202304002025040020270400206F
:10017000290400202B0400202D0400202F0400203F
:1001800031040020330400200000000000000000C3
:100190004FF0000BDFF8BE020068DFF8B612096806
:1001A00001F0030100F01C00142801D14BF0020BF8
:1001B000002901D04BF0010BBBF1000F05D0A7487F
:1001C000A749DFF8722200F09FF8A64880470BF09D
:1001D000020ABAF1000F0CD0DFF86E02DFF86E12DF
:1001E00002680B680FB44FF000024FF0FF0302608B
:1001F0000B609D4800220123022808D1DFF83E123F
:100200000A60DFF842120A60DFF836120B6001283C
:1002100008D1DFF82E120A60DFF82A120A60DFF830
:100220001E120B609148002809D191489149924AC9
:1002300000F032F891489249924A00F02DF8924825
:100240009249934A00F028F892489349DFF8E62152
:1002500000F05AF8BBF1000F12D090489049DFF837
:10026000DA2100F051F80BF0020ABAF1000F07D0C2
:100270000FBC02600B6000BFAFF30080AFF30080E3
:10028000DFF820020FF2030E00474FF000004FF09E
:100290000001DFF814F2FEE72DE9F841884225D08D
:1002A000B2EB010200D5FEE740EA010313F00303BD
:1002B00002D000F01DF819E04FF000039046121133
:1002C000F7D09A421CBFF0C8F0C103F10103F8D186
:1002D00008F00F08B8F1000F08D004780C7000F196
:1002E000010001F10101B8F10108F6D1BDE8F88182
:1002F00008B54FF0000303780B7000F1010001F125
:100300000101013AF7D108BD884237D000F0030659
:10031000002E14D04FF00405A5EB06044FF008079B
:1003200007FB06F8914669FA08F9002C07D080F817
:10033000009069FA07F900F10100013CF5E74FF080
:1003400000060F46091A88460911914614461546BB
:10035000B14206D018BFA0E8340206F10106B1424E
:10036000F8D108F00F08B8F1000F07D002704FEA7B
:10037000322200F10100B8F10108F4E77047FEE70E
:10038000FEE7FEE7FEE7FEE7FEE7FEE7FEE7FEE745
:10039000FEE7FEE7FEE7FEE7FEE7FEE7FEE7FEE735
:1003A000FEE7FEE7FEE7FEE7FEE7FEE7FEE7FEE725
:1003B000FEE7FEE7FEE7FEE7FEE7FEE7FEE7FEE715
:1003C000FEE7FEE7FEE7FEE7FEE7FEE7FEE7FEE705
:1003D000FEE7FEE7FEE7FEE7FEE7FEE7FEE7FEE7F5
:1003E000FEE7FEE7FEE7FEE7FEE7FEE7FEE7FEE7E5
:1003F000FEE7FEE7FEE7FEE7FEE7FEE7FEE7FEE7D5
:10040000FEE7FEE7FEE7FEE7FEE7FEE7FEE7FEE7C4
:10041000FEE7FEE7FEE7FEE7FEE7FEE7FEE7FEE7B4
:10042000FEE7FEE7FEE7FEE7FEE7FEE7FEE7FEE7A4
:10043000FEE7FEE7704700000000A2A2A2A2008033
:100440000340088003401080034030800340348024
:1004500003403880034018080240000000F00020EC
:1004600000000120C51E0020000000000000000068
:10047000000000200000002090010020B0040020B7
:10048000B0040020B85C0020C05C0020C05C0020EC
:10049000A0660020A066002040690020406900207E
:1004A00000F0002001280020C522002000000000EC
:1004B00010B5054C237833B9044B13B10448AFF39E
:1004C00000800123237010BDA06600200000000002
:1004D0008C5C00200C4B43B10C4810B50C49AFF3B9
:1004E00000800C48036823B910BD0A48036833B97B
:1004F0007047094B002BF7D0BDE810401847064B5A
:10050000002BF5D0184700BF000000008C5C0020D5
:10051000A4660020C05C002000000000016070475D
:10052000006870470EB503FA01F303EA020301689D
:100530006FEA020201EA020141EA030101600EBD15
:10054000006800EA020020FA01F07047018070475D
:10055000008870470EB503FA01F303EA020301882D
:100560006FEA020201EA020141EA030101800EBDC5
:10057000008800EA020020FA01F07047017070471D
:10058000007870470EB503FA01F303EA020301781D
:100590006FEA020201EA020141EA030101700EBDA5
:1005A000007800EA020020FA01F0704780B582B0BE
:1005B00000AF0F4B5B68FB710D4B9B68DAB2FB79A8
:1005C0001340FB71FB7903F00203BB71BB79002B75
:1005D00001D000F0E5F8FB7903F001037B717B7932
:1005E000002B01D000F006F800BF0837BD4680BDE3
:1005F0000060014080B584B000AF624B1B78022BD5
:100600003DD0052B68D0012B40F0AA805E4B1B88A3
:100610009BB2002B2FD05D4B1A685B4B1B889BB2A3
:100620001946104600F00AFAF860574B1B889BB237
:100630001A46FB689A420FD9534B1B889AB2FB6843
:100640009BB2D31A9AB2504B1A80504B1A68FB686F
:1006500013444E4A136090E04B4B00221A804C4BDF
:100660001B68002B03D0474B02221A7085E0454BD4
:1006700003221A7081E000BE00F0BAF97DE0444B1D
:100680001B68002B24D0434B1A68414B1B6819464A
:10069000104600F0D3F9B8603D4B1B68BA689A4227
:1006A0000CD23B4B1A68BB68D31A394A1360394BDA
:1006B0001A68BB681344374A13605EE0364A364B0B
:1006C0009B6823F0010393602E4B03221A7054E0C1
:1006D00000BE00F08DF950E02D4B1B68002B1BD1A4
:1006E0002E4B1B68002B14D02C4B1B6829489847B5
:1006F0000246274B1A60264B1B68002B0CD1264A5A
:10070000254B9B6823F0010393601E4B03221A7054
:1007100002E000BE00F06CF91D4B1B68002B09D1F4
:100720001D4A1D4B9B6823F001039360154B032268
:100730001A7022E0174B1A68154B1B6819461046B1
:1007400000F07CF97860124B1A687B68D31A104A63
:100750001360104B1A687B6813440E4A13600CE058
:100760000D4A0D4B9B6823F001039360002000F0BD
:100770001FF9044B00221A7000BF00BF1037BD469E
:1007800080BD00BFE1660020C4660020C066002076
:10079000CC660020C866002000600140DC660020B6
:1007A00080B584B000AF7C4B1B69FB81FB8923F4CF
:1007B000FF4323F07F03BB81FB89FB72774B1B78E0
:1007C000052B00F2D68001A252F823F0E5070020A5
:1007D0005F0900205F0900203D0800208B080020F1
:1007E00033090020BB89002B00F0CA80FB7AF12B73
:1007F00006D0FB7ABB72BB7A184600F04FF9BFE017
:10080000674B00221A80674B1B68654A128892B2B8
:100810001344FA7A1A70624B1B889BB201339AB266
:100820005F4B1A805F4B1B685D4A128892B213447B
:1008300000221A70594B04221A70A1E0BB89002BC8
:1008400000F0A080FB7A7B72574B1B78DBB27A7A80
:100850009A4215D1524B00221A80524B1B68504AC3
:10086000128892B213447A7A1A704D4B1B889BB24D
:1008700001339AB24A4B1A80484B04221A7081E025
:100880007B7A184600F00AF97CE0BB89002B06D081
:10089000FB7A3B723B7A184600F000F974E0414B5A
:1008A0001A683F4B1B889BB2013B13441B78F12B0A
:1008B00016D13C4B1B683A4A128892B21344FA7A1A
:1008C0001A70384B1A68364B1B889BB2013B134495
:1008D0001B78184600F0E2F8304B00221A7053E003
:1008E0002F4B1B889AB2314B1B889A4210D2FB7A4D
:1008F000FB712C4B1B682A4A128892B21344FA7976
:100900001A70274B1B889BB201339AB2244B1A8072
:10091000234B1B889AB2254B1B889A4234D1204B1B
:100920001B889BB2184600F043F81C4B00221A703B
:100930002AE0BB89002B0BD11A4B1B680133FA7AD2
:100940001A70022000F034F8144B00221A701EE0D6
:10095000FB7ABB71BB79184600F0A0F817E0BB89A1
:10096000002B13D0FB7A7B717B79184600F096F848
:100970000CE0002000F01CF8084B00221A7006E082
:1009800000BF04E000BF02E000BF00E000BF00BF06
:100990001037BD4680BD00BF00600140E166002009
:1009A000D6660020D0660020BC660020D4660020F9
:1009B00080B582B000AF0346FB800A4B1B68002B5A
:1009C0000CD0084B1B68084A1268F98810469847F3
:1009D000044B00221A60054B00221A7000BF083732
:1009E000BD4680BDD8660020D0660020E0660020AD
:1009F00080B582B000AF0E4B1B78DBB2002B13D05A
:100A00000C4B1B889BB21846FFF7D2FF0A4A0A4BD1
:100A10001B6843F001031360074B1B6803F00103DD
:100A20007B607B68002BF7D100BF0837BD4680BDD7
:100A3000E0660020D66600200060014080B485B0EA
:100A400000AF78603960144A134B1B6823F004032D
:100A500013600023FB60104B5B6803F00103BB6075
:100A60000DE00D497A68FB6813441B780B61FB6845
:100A70000133FB60084B5B6803F00103BB60BB689C
:100A8000002B03D0FA683B689A42EAD3FB68184609
:100A90001437BD4680BC70470060014080B582B00D
:100AA00000AF0346FB71064B1B68002B04D0044BC0
:100AB0001B68FA791046984700BF0837BD4680BDCD
:100AC000E466002080B483B000AF0346FB7109499F
:100AD00097F907305B09FA7902F01F02012000FA4A
:100AE00002F2603341F8232000BF0C37BD4680BCC2
:100AF000704700BF00E100E080B58AB000AF7860C9
:100B00007B681B681B687B627B681B689B693B6218
:100B10007B681B685B68FB617B681B689B6ABB61C9
:100B20007B681B681B6B7B617B681B685B6B3B6135
:100B30007B681B68DB69FB607B68354A93421DD18B
:100B40007B68344A1A607B6802221A71324A324B3F
:100B50009B6C43F4007393640220FFF7B3FF2E4AAB
:100B60002D4B9B6C23F4007393647B681B687A683D
:100B70001268126822F000421A601CE07B68274A63
:100B80001A607B6803221A71234A234B9B6C43F43F
:100B9000806393640320FFF795FF1F4A1E4B9B6CF5
:100BA00023F4806393647B681B687A681268126818
:100BB00022F000421A607B6A23F001037B627B68AB
:100BC0001B687A6A1A607B681B683A6A9A617B685C
:100BD0001B68FA695A607B681B687A681268126839
:100BE00042F001021A607B681B68BA699A627B68EE
:100BF0001B687A691A637B681B683A695A637B6869
:100C00001B68FA68DA6100BF2837BD4680BD00BFA7
:100C10007468002000100040008003400010014074
:100C200080B485B000AF78600023FB600DE07B6886
:100C30001B687A6891687A6812690A4412785A6166
:100C40007B681B695A1C7B681A617B681B689B6800
:100C500003F48073002B05D17B681A697B68DB681D
:100C60009A42E4D37B681A697B68DB689A421BD39B
:100C70000DE07B681B687A6851697A68D2690A441A
:100C800012785A617B68DB695A1C7B68DA617B6881
:100C90001B689B6803F48073002B05D17B68DA69BD
:100CA0007B689B699A42E4D37B685B6A002B1DD00A
:100CB0007B681A697B68DB689A4217D37B68DA69BC
:100CC0007B689B699A4211D306E07B681B6800220F
:100CD0005A61FB680133FB607B681B689B6803F407
:100CE0008073002B02D1FB681F2BEED900BF143795
:100CF000BD4680BC704780B584B000AF78607B682B
:100D000093F88030022B15D10CE07B681B681B69BF
:100D1000FB607B685B6F002B04D07B685B6FFA68BD
:100D2000104698477B681B689B6803F04003002BC4
:100D3000EBD02FE07B6893F88030012B23D116E0B5
:100D40007B681B681B69FB607B681A6B7B68DB6ACE
:100D50009A4207D27B689A6A7B681B6B1344FA68D5
:100D6000D2B21A707B681B6B5A1C7B681A637B6853
:100D70001B689B6803F04003002BE1D00AE07B680E
:100D80001B681B69FB607B681B689B6803F0400362
:100D9000002BF4D000BF1037BD4680BD80B586B0B3
:100DA00000AF78607B681B6820337B617B686B4A8F
:100DB000934204D07B686A4A934200D000BE7B69AC
:100DC0001B6803F00203002B4ED07B6893F8803041
:100DD000022B15D10CE07B681B681B69FB607B68EC
:100DE0005B6F002B04D07B685B6FFA6810469847F6
:100DF0007B681B689B6803F04003002BEBD02FE05F
:100E00007B6893F88030012B23D116E07B681B6848
:100E10001B69FB607B681A6B7B68DB6A9A4207D2AE
:100E20007B689A6A7B681B6B1344FA68D2B21A70AB
:100E30007B681B6B5A1C7B681A637B681B689B680A
:100E400003F04003002BE1D00AE07B681B681B69BC
:100E5000FB607B681B689B6803F04003002BF4D0A9
:100E60007B681B680222DA607B691B6803F0010360
:100E7000002B11D07B6893F88030022B05D17B6862
:100E80001B687A68926F5A6102E07868FFF7C8FEC3
:100E90007B681B680122DA607B691B6803F0100322
:100EA000002B20D07868FFF726FF7B681B6A002B99
:100EB0000AD07B681B6A7A68906A7A68126B11465E
:100EC00098477868FFF7ACFE7B6801225A627B681E
:100ED0001B687A681268926A22F010029A627B6834
:100EE0001B681022DA607B691B6803F00403002B87
:100EF0000ED07B681B687A681268D26A42F00402DE
:100F0000DA627868FFF7F8FD7B681B680422DA6014
:100F10007B691B6803F00803002B32D07B681B68D9
:100F20007A681268D26A42F00802DA627B6893F843
:100F30008030022B16D17B681A687B681B681B689F
:100F400023F47F0323F47F4343F4807313607B68AF
:100F50001B687A68926F5A610FE000BF74680020C6
:100F6000F06700207B6893F88030012B05D17B6807
:100F700000221A617868FFF753FE7B681B6808221D
:100F8000DA607B691B6803F02003002B41D078688E
:100F9000FFF7B1FE7B681B6B3B617B681B6A002B14
:100FA00017D07B6800225A627B6800225A617B68F6
:100FB00000229A617B680022DA617B681B6810223C
:100FC000DA607B681B687A681268926A42F01002E5
:100FD0009A627B6800221A617B681B687A681268D3
:100FE000D26A42F00C02DA627868FFF719FE7B6879
:100FF00000221A637B68DB6F002B06D07B68DB6FF7
:101000007A68926A3969104698477B681B68202283
:10101000DA6000BF1837BD4680BD00BF684620F0CB
:1010200007018D4689B500AF0448FFF7B7FE00BF42
:10103000BD46BDE889408546704700BF7468002002
:10104000684620F007018D4689B500AF0448FFF7D8
:10105000A5FE00BFBD46BDE889408546704700BF7C
:10106000F067002090B484B000AFF860B9607A6097
:10107000FB704C484C4B1A68F97813469B0013449C
:10108000DB01034403F5E27319604849464B1A68D3
:1010900013469B0013449B000B440433FA681A6008
:1010A0004249414B1A6813469B0013449B000B4472
:1010B0000833BA681A603D483B4B19683B4C3A4BC1
:1010C0001A6813469B0013449B0023440C331B688F
:1010D0001A0C12040B469B000B449B0003440C3378
:1010E0001A607B68B3F5803F0FD97B68A3F5803326
:1010F0002F4A1361BB6803F580332D4AD360FB6828
:1011000003F580332A4A936019E02848264B1A6871
:10111000264C254B19680B469B000B449B0023442F
:101120000C331B68796889B2194313469B0013443A
:101130009B0003440C3319601D4B00221A611B48AD
:10114000194B1A68194C184B19680B469B000B4435
:101150009B0023440C331B6843F4E00113469B00BF
:1011600013449B0003440C3319600E490E4B1A685C
:1011700013469B001344DB010B4403F5E07301228B
:101180001A600849084B1A6813469B001344DB0198
:101190000B4403F5E67300221A6000BF1037BD460A
:1011A00090BC7047000028420067002000400140CA
:1011B000E8660020684620F007018D4691B500AF33
:1011C000354A364B1B6803F52873012142F823107A
:1011D0003348324B1A68324C304B19680B469B002F
:1011E0000B449B0023440C331B6823F4E00113469B
:1011F0009B0013449B0003440C331960274B1B686E
:101200000133264A1360254B1B68042B02D1234B64
:1012100000221A60234B1B69002B17D0224B1B683E
:10122000042B03D1204B00221A6004E01E4B1B68E4
:1012300001331D4A13601B4B98681A4BD968194B30
:101240001A69184B1B7DFFF70DFF1EE01449134B65
:101250001A6813469B0013449B000B440C331B6815
:1012600003F4E003002B10D10C4B00221A600E4B4C
:1012700000221A600B4B01221A700A4B5B68002B8C
:1012800003D0084B5B680120984700BFBD46BDE80E
:1012900091408546704700BF000028420467002047
:1012A00000400140E866002000670020684620F00A
:1012B00007018D4681B583B000AF384B1B683B609A
:1012C0003B6803F470633B603B68002B2FD03449CC
:1012D000344B1A6813469B001344DB010B4403F59F
:1012E00002731B68002B0AD02F4B02221A702E4B60
:1012F0005B68002B03D02C4B5B6802209847284981
:10130000284B1A6813469B001344DB010B4403F57A
:1013100003731B68002B0AD0234B03221A70224B45
:101320005B68002B03D0204B5B68032098471B4B66
:101330001B683B603B6803F470433B603B68002BD9
:101340000AD0194B04221A70174B5B68002B03D08C
:10135000154B5B680420984700237B6014E010491C
:101360007A6813469B001344DB010B4403F5E473D6
:1013700001221A600A4A7B6803F52873012142F8AA
:1013800023107B6801337B607B68032BE7D900BFA8
:101390000C37BD46BDE8814085467047004001409E
:1013A0000000284204670020E866002080B586B06F
:1013B00000AFF860B96011461A460B46FB80134631
:1013C0007B71FB68002B00D100BE7B79072B00D915
:1013D00000BEFB88B3F5005F00D300BEFB68002BA6
:1013E00069D07B79072B66D8FB88B3F5005F62D2A2
:1013F000BB680833FA88D2B211461846FFF7BEF828
:10140000BB6803F10C007A79FB885B1103F4FF637E
:1014100013431946FFF7B2F8FB68BA681A60FB6815
:101420001B6808331846FFF7ABF80346BB82FB681E
:101430001B680C331846FFF7A3F80346FB74FB7CCC
:1014400023F00703BB74BB7C9BB25B019AB2BB8ADF
:101450001343BB82FB7C03F00703FB74BA8AFB884F
:101460009A4200D000BEFA7C7B799A4200D000BE3E
:10147000FB681B6810331846FFF782F8034603F039
:101480000203FB7511E0FB681B6804331846FFF785
:1014900077F803467B74FB681B6810331846FFF728
:1014A0006FF8034603F00203FB75FB7D002BEAD1C6
:1014B000FB6800221A7100BF1837BD4680BD80B599
:1014C00086B000AFF860B9607A60FB68002B00D18D
:1014D00000BEBB68002B00D100BE7B68002B00D192
:1014E00000BEFB68002B25D0BB68002B22D07B6898
:1014F000002B1FD000237B6118E0FB681B681033B2
:101500001846FFF73DF8034603F00103FB74FB7C2C
:10151000002BF2D0FB681868BA687B6913441B780B
:101520001946FFF72BF87B6901337B617A697B6889
:101530009A42E2D300BF1837BD4680BD80B586B061
:1015400000AFF860B9607A6000237B61FB68002B14
:1015500000D100BEBB68002B00D100BE7B68002B11
:1015600000D100BEFB68002B2FD0BB68002B2CD015
:101570007B68002B29D0FB681B6810331846FEF7E8
:10158000FFFF034603F00103FB74FB7C002B1CD020
:10159000FB681868BA687B6913441B781946FEF724
:1015A000EDFF7B6901337B61FB681B6810331846D4
:1015B000FEF7E6FF034603F00103FB74FB7C002B00
:1015C00003D07A697B689A42E2D37B691846183760
:1015D000BD4680BD90B589B000AFF860B9607A6053
:1015E0000023BB61FB68002B00D100BEBB68002B51
:1015F00000D100BE7B68002B00D100BEFB68002B31
:1016000043D0BB68002B40D07B68002B3DD000232B
:10161000BB61FB681B6810331846FEF7B1FF034639
:10162000FB75FB681A79FB7D1343DAB2FB681A710C
:10163000FB7D03F00203FB7720E0BA68BB69D41896
:10164000FB681B6804331846FEF79AFF03462370B5
:10165000BB690133BB61FB681B6810331846FEF79A
:101660008FFF0346FB75FB681A79FB7D1343DAB2E3
:10167000FB681A71FB7D03F00203FB77FB7F002BF5
:1016800003D0BA697B689A42D7D3BB69184624371E
:10169000BD4690BD80B485B000AF7860FF23FB737A
:1016A0007B68002B00D100BE7B68002B09D07B68D3
:1016B0001B799B10DBB203F00703FB737B680022EE
:1016C0001A71FB7B18461437BD4680BC704780B545
:1016D00084B000AFF860B9607A603B60FB68BA68BC
:1016E0001A60FB681B68083300211846FEF746FFA6
:1016F000FB681B680C3300211846FEF73FFFFB68B0
:101700001B6879681846FEF709FF3B68002B00D17B
:1017100000BEFB681B68043339681846FEF7FEFEFE
:10172000FB681B68103300211846FEF7F7FEFB68C4
:101730001B68183300211846FEF7F0FEFB681B6893
:10174000203300211846FEF7E9FEFB681B682833AA
:1017500000211846FEF7E2FEFB681B6830330021CB
:101760001846FEF7DBFEFB681B683833002118467D
:10177000FEF7D4FEFB681B68403300211846FEF7D5
:10178000CDFEFB681B68483300211846FEF7C6FEF5
:10179000FB681B68503300211846FEF7BFFEFB684C
:1017A0001B68583300211846FEF7B8FEFB681B681B
:1017B000603300211846FEF7B1FEFB681B686833F2
:1017C00000211846FEF7AAFEFB681B687033002153
:1017D0001846FEF7A3FEFB681B6878330021184605
:1017E000FEF79CFEFB681B68803300211846FEF75D
:1017F00095FEFB681B68883300211846FEF78EFEB5
:1018000000BF1037BD4680BD80B584B000AF7860A2
:101810000B46FB70FB78002B00D100BEFB78102B31
:1018200000D900BEFB78002B32D0FB78102B2FD8CC
:10183000FB78194AD35CFB73FB78082B14D87B68C0
:101840001B6808331846FEF79BFE0346BB73BA7B42
:10185000FB7B1343BB737B681B680833BA7B114661
:101860001846FEF78BFE13E07B681B680C331846A6
:10187000FEF786FE0346BB73BA7BFB7B1343BB7349
:101880007B681B680C33BA7B11461846FEF776FE60
:1018900000BF1037BD4680BDA058002080B584B081
:1018A00000AF78600B46FB70FB78002B00D100BEC8
:1018B000FB78102B00D900BEFB78002B36D0FB78CC
:1018C000102B33D8FB781B4AD35CFB73FB78082BB7
:1018D00016D87B681B6808331846FEF751FE03468E
:1018E000BB73FB7BDB43DAB2BB7B1340BB737B6810
:1018F0001B680833BA7B11461846FEF73FFE15E019
:101900007B681B680C331846FEF73AFE0346BB7330
:10191000FB7BDB43DAB2BB7B1340BB737B681B688A
:101920000C33BA7B11461846FEF728FE00BF10376D
:10193000BD4680BDA058002080B588B000AFF860DB
:101940000B467A60FB72FB7A002B00D100BEFB7A5B
:10195000102B00D900BEFB681B6804331846FEF745
:10196000DFFDF8617A68FB699A4200D900BEFB7A14
:10197000002B3AD0FB7A102B37D87B68002B05D18F
:10198000FB7A1946F868FFF789FF2EE0FB681A68B2
:10199000FB7A184951F82330134400211846FEF70A
:1019A000BDFDFB681A68FB7A134951F823301344D4
:1019B00079681846FEF7B2FDFB7A0F4A52F82330D9
:1019C000BB61FB681A68BB6913441846FEF7D8FD73
:1019D0000346FB757B68DBB2FA7D9A4200D000BEFD
:1019E000FB7A1946F868FFF70FFF00BF2037BD46A6
:1019F00080BD00BFB4580020F858002080B586B0E4
:101A000000AFF860B9601346FB710023FB75BB683B
:101A10003B61FB68BA681A60FB68FA791A710023A7
:101A2000FB75BB683B6109E000213869FEF7A6FD44
:101A30003B6904333B61FB7D0133FB75FB7D1F2B51
:101A4000F2D9FB681B79012B0DD0022B02D0002BA1
:101A50001AD036E0FB681B6880334FF0FF31184620
:101A6000FEF75CFD2FE0FB681B6880334FF6FF71CB
:101A70001846FEF76BFDFB681B6884334FF6FF7159
:101A80001846FEF763FD1EE0FB681B688033FF21EC
:101A90001846FEF773FDFB681B688433FF21184668
:101AA000FEF76CFDFB681B688833FF211846FEF7C4
:101AB00065FDFB681B688C33FF211846FEF75EFD51
:101AC00001E000BE00BF00BF1837BD4680BD80B535
:101AD00086B000AFF8600B467A60FB72FB7A1F2B72
:101AE00000D900BEFB7A1F2B14D8FB681B687B61F2
:101AF000FB7A9B001A467B6913447B61796878699D
:101B0000FEF70CFD7869FEF70BFD02467B689A42F2
:101B100000D000BE00BF1837BD4680BD80B584B080
:101B200000AF78600023FB607B681B79012B0CD031
:101B3000022B02D0002B20D04FE07B681B68A03323
:101B40001846FEF7EDFCF86049E07B681B68A0339F
:101B50001846FEF7FDFC03461A46FB681343FB607C
:101B60007B681B68A4331846FEF7F2FC03461B048F
:101B70001A46FB681343FB6031E07B681B68A033A7
:101B80001846FEF7E5FC03461A46FB681343FB6064
:101B90007B681B68A4331846FEF7DAFC03461B0279
:101BA0001A46FB681343FB607B681B68A833184622
:101BB000FEF7CEFC03461B041A46FB681343FB608A
:101BC0007B681B68AC331846FEF7C2FC03461B0655
:101BD0001A46FB681343FB6001E000BE00BFFB68D0
:101BE00018461037BD4680BD80B586B000AF78601E
:101BF0000B46FB701346BB70FB781F2B00D900BE51
:101C00007B681B79012B33D0022B02D0002B6AD0CA
:101C1000A4E07B681B68A0331846FEF781FC78615E
:101C2000BB78002B09D1FB78012202FA03F3DB43D6
:101C30001A467B6913407B6107E0FB78012202FAB8
:101C400003F31A467B6913437B617B681B68A033EF
:101C500079691846FEF762FC7B681B68A03318465A
:101C6000FEF75EFC02467B699A4279D000BE77E0BF
:101C70007B681B68FA781209D2B292001344A03331
:101C8000FB60F868FEF764FC03467B82BB78002BA0
:101C90000ED1FB7803F00F03012202FA03F31BB20B
:101CA000DB431AB2B7F9123013401BB27B820BE050
:101CB000FB7803F00F03012202FA03F31AB2B7F91B
:101CC000123013431BB27B827B8A1946F868FEF7F9
:101CD0003DFCF868FEF73CFC03461A467B8A9342BB
:101CE00040D000BE3EE07B681B68FA78D208D2B2D2
:101CF00092001344A033BB60B868FEF741FC034672
:101D00007B74BB78002B0ED1FB7803F00703012214
:101D100002FA03F35BB2DB435AB297F91130134076
:101D20005BB27B740BE0FB7803F00703012202FA3D
:101D300003F35AB297F9113013435BB27B747B7C87
:101D40001946B868FEF71AFCB868FEF719FC034696
:101D50001A467B7C934207D000BE05E000BE04E03B
:101D600000BF02E000BF00E000BF00BF1837BD4663
:101D700080BD80B584B000AF78600B46FB707B6897
:101D80001B68FB60FB781F2B00D900BEFB781F2B64
:101D900012D8FB789B001A46FB681344FB60F86876
:101DA000FEF7EEFB0346BB60BB6843F00803BB6075
:101DB000B968F868FEF7E2FB00BF1037BD4680BD8A
:101DC00080B584B000AF78600B46FB707B681B6801
:101DD000FB60FB781F2B00D900BEFB781F2B12D8AD
:101DE000FB789B001A46FB681344FB60F868FEF71B
:101DF000C7FB0346BB60BB6823F00803BB60B96840
:101E0000F868FEF7BBFB00BF1037BD4680BD80B54C
:101E100084B000AF78600B46FB70FB78012202FAB9
:101E200003F3FB607B681B79012B0CD0022B02D0E3
:101E3000002B1AD03FE07B681B688033F968184696
:101E4000FEF76CFB39E07B681B688033F968184645
:101E5000FEF77CFB7B681B6803F18402FB681B0CAC
:101E600019461046FEF772FB27E07B681B6880333B
:101E7000F9681846FEF782FB7B681B6803F1840251
:101E8000FB681B0A19461046FEF778FB7B681B6847
:101E900003F18802FB681B0C19461046FEF76EFB27
:101EA0007B681B6803F18C02FB681B0E1946104609
:101EB000FEF764FB01E000BE00BF00BF1037BD4667
:101EC00080BD000080B500AF00F0FAF8044A044B72
:101ED0005B6943F400735361FEF7ACFA00BF80BD49
:101EE00000ED00E080B588B000AF304BD3F89830FB
:101EF00003F08063FB61FB69002B4CD12B4BD3F8C3
:101F0000983003F48053BB61BB69002B15D1284B7B
:101F1000284A1A60284B274A1A60284B254A1A601B
:101F2000274B284A1A60284B284A1A60284B214A16
:101F30001A60284B1F4A1A6034E0274A3B1D92E87A
:101F4000030083E80300194BD3F89C309B0903F08E
:101F500007037B613A1D7B6913441B78FB74FB7C90
:101F6000012B0AD0022B0DD0002B0FD100F038F836
:101F7000F860F86800F052F814E04FF4004000F008
:101F80004DF80FE0154800F049F80BE0134800F059
:101F900045F800BF06E000F023F8F860F86800F0AC
:101FA0003DF8FFE700BF2037BD4680BD00800340FD
:101FB000C45C0020003B5808C85C0020CC5C0020BA
:101FC000D05C0020C00E1602D45C0020801D2C04C2
:101FD000D85C0020DC5C00203C59002040420F000F
:101FE00080B483B000AF0A4BD3F8503103F0040340
:101FF0003B603B68002B02D1064B7B6001E0064B47
:102000007B607B6818460C37BD4680BC704700BFBC
:102010000080034040787D0180F0FA0280B483B0F4
:1020200000AF78600C4A7B6813600C4A7B681360D1
:102030000B4A7B6813600B4B0B4A1A600B4A7B6898
:1020400013600B4A7B6813600A4A7B68136000BF09
:102050000C37BD4680BC7047C45C0020C85C0020C3
:10206000CC5C0020D05C0020C00E1602D45C0020A6
:10207000D85C0020DC5C002080B483B000AF0E4B45
:10208000D3F84C313B603B684FF60202934203D0D9
:102090000A4A934203D005E001237B6005E0022356
:1020A0007B6002E000237B6000BF7B6818460C3732
:1020B000BD4680BC704700BF0080034002F80100AD
:1020C00080B582B000AFFFF7D7FF78607B68012B47
:1020D00000D002E000F006F800BF00BF0837BD46A0
:1020E00080BD000080B400AF094A094BD3F8983096
:1020F00043F48073C2F89830054A054BD3F8983002
:1021000023F08063C2F8983000BFBD4680BC7047A2
:102110000080034080B483B000AF0346FB710849E0
:1021200097F907305B09FA7902F01F02012000FAE3
:1021300002F241F8232000BF0C37BD4680BC704737
:1021400000E100E080B483B000AF0346FB710949B1
:1021500097F907305B09FA7902F01F02012000FAB3
:1021600002F2203341F8232000BF0C37BD4680BC6B
:10217000704700BF00E100E080B483B000AF0346C9
:10218000FB71094997F907305B09FA7902F01F02E0
:10219000012000FA02F2603341F8232000BF0C371F
:1021A000BD4680BC704700BF00E100E080B483B052
:1021B00000AF03463960FB7197F90730002B0BDA4B
:1021C0000D49FB7903F00F03043B3A68D2B21201C8
:1021D000D2B20B441A7609E0084997F907303A68F9
:1021E000D2B21201D2B20B4483F8002300BF0C37E5
:1021F000BD4680BC704700BF00ED00E000E100E09C
:1022000080B582B000AF0346FB710E20FFF79AFF46
:10221000104A104B9B6C23F0400393644FF0402313
:1022200000225A650C4B0022C3F880210A4B002281
:10223000C3F88821084AFB79C2F884314FF0402363
:1022400001221A610E20FFF797FF00BF0837BD4635
:1022500080BD00BF008003400000084280B400AF92
:10226000034B0122C3F8802100BFBD4680BC7047EC
:102270000000084280B483B000AF78604FF0402285
:102280007B68536000BF0C37BD4680BC70470000C0
:1022900080B500AF044B0122C3F888210E20FFF760
:1022A00039FF00BF80BD00BF0000084280B400AF0E
:1022B0004FF0402301221A61BFF34F8F00BFBD468C
:1022C00080BC704780B588B000AF03F02BF9C548DB
:1022D00000F0BEFA40F2F313FA224FF0A041C248D8
:1022E000FFF7F5F9C82000F073FA01233922BF493E
:1022F000BF48FFF75BF83B4600221A605A601A811C
:10230000BC4800F0A5FAFFF7EDFDBB4800F0A0FACD
:102310000222BA49BA48FFF771FB05220021B848EA
:10232000FFF7D5FB05220121B548FFF7D0FB0522B9
:102330000221B348FFF7CBFB05220321B048FFF78A
:10234000C6FB05220421AE48FFF7C1FB052205218B
:10235000AB48FFF7BCFB05220621A948FFF7B7FBF6
:1023600005220721A648FFF7B2FB43220021A4481B
:10237000FFF7ADFB43220121A148FFF7A8FB432251
:1023800002219F48FFF7A3FB432203219C48FFF74C
:102390009EFB432204219A48FFF799FB4322052123
:1023A0009748FFF794FB432206219548FFF78FFBE0
:1023B000432207219248FFF78AFB00237B61012219
:1023C00000218F48FFF710FC012201218C48FFF704
:1023D0000BFC012202218A48FFF706FC012203219F
:1023E0008748FFF701FC012204218548FFF7FCFB29
:1023F000012205218248FFF7F7FB012206218048D0
:10240000FFF7F2FB012207217D48FFF7EDFB7C4837
:10241000FFF784FB7861002201217348FFF78CFAF3
:10242000012202217048FFF787FA022203216E4839
:10243000FFF782FA734800F00BFA00217048FFF7AB
:1024400098FC01216E48FFF794FC2320FFF762FE01
:102450002420FFF75FFE06212320FFF7A7FE0521BA
:102460002420FFF7A3FE684B1A6813469B00134411
:102470003B610020FFF7C4FE3869FFF7FBFEFFF762
:10248000EDFEFFF705FF614800F0E2F95848FFF75D
:1024900001F90346002BF9D13B460A22194654485C
:1024A000FFF798F8F860FB68002BEFD03B782A2BF9
:1024B000ECD10A2000F08CF9554800F0C9F900234E
:1024C000FB610AE03A46FB6913441B781946514800
:1024D00000F0BEF9FB690133FB61FB69092BF1DDFB
:1024E0004D4800F0B5F90023BB6177E0BB690133CB
:1024F00007F12002134413F8203C302B16D1BB699E
:10250000023307F12002134413F8203C4F2B0DD166
:10251000424800F09DF9FF2202213348FFF70CFAF0
:10252000002200213648FFF75FFB54E0BB6901330E
:1025300007F12002134413F8203C302B16D1BB695D
:10254000023307F12002134413F8203C462B0DD12F
:10255000334800F07DF9002202212348FFF7ECF90F
:10256000012200212648FFF73FFB34E0BB6901331D
:1025700007F12002134413F8203C312B11D1BB6921
:10258000023307F12002134413F8203C4F2B08D1EB
:10259000244800F05DF9002201211948FFF724FBCF
:1025A00019E0BB69013307F12002134413F8203C02
:1025B000312B10D1BB69023307F12002134413F809
:1025C000203C462B07D1184800F042F90122012196
:1025D0000B48FFF709FBBB690133BB61BB69072BE4
:1025E00084DD53E744590020086900200020005092
:1025F000006900207459002090590020001000301C
:10260000F8680020A8590020C85C0020C0590020AC
:10261000E0590020085A00200C5A00202C5A0020B3
:10262000485A0020645A0020805A002080B582B0A9
:1026300000AF01220A490B48FEF780FF78607A68F4
:1026400007490848FEF73BFF02F06CFF064800F020
:10265000FFF8FFF72BFE00BF0837BD4680BD00BF67
:1026600008670020006900209C5A002080B582B0D5
:1026700000AF00212348FFF7A3FB01212148FFF70A
:102680009FFB02F04FFF204800F0E2F81F4A3B4654
:102690001268114619800233120C1A703B4603224D
:1026A00019461B48FEF74AFF3B46032219461848C5
:1026B000FEF705FF00237B6007E03A467B68134482
:1026C00000221A707B6801337B607B68022BF4D98F
:1026D00000210C48FFF79BFB01210A48FFF797FBFD
:1026E0002320FFF749FD00210648FFF742FB0121A7
:1026F0000448FFF73EFB074800F0AAF800BF083780
:10270000BD4680BDF8680020B45A0020E05A002081
:1027100000690020CC5A002080B582B000AF0021B3
:102720002548FFF74DFB01212348FFF749FB234ACA
:102730003B461268114619800233120C1A7002F0DF
:10274000F1FE1F4800F084F83B46032219461D485D
:10275000FEF7F4FE3B46032219461A48FEF7AFFE89
:1027600000237B6007E03A467B68134400221A701E
:102770007B6801337B607B68022BF4D9124800F040
:1027800067F800210C48FFF742FB01210A48FFF7D8
:102790003EFB2320FFF7F0FC00210748FFF7E9FA92
:1027A00001210548FFF7E5FA084800F051F800BF9D
:1027B0000837BD4680BD00BFF86800201C5B0020C4
:1027C000E45A002000690020F85A00200C5B002029
:1027D00080B485B000AF78600023FB6002E0FB6846
:1027E0000133FB607B6841F6641202FB03F2FB6875
:1027F0009A42F4DC00BF1437BD4680BC704700002D
:1028000070B50F4E0F4D761BB61018BF002405D0C3
:10281000013455F8043B9847A642F9D10A4E0B4DB6
:1028200003F034FA761BB61018BF002406D001342A
:1028300055F8043B9847A642F9D170BD70BD00BF62
:10284000A45C0020A45C0020AC5C0020A45C002000
:102850000FB410B5074B82B004AC54F8042B1868C1
:1028600023468168019400F00BF902B0BDE81040E6
:1028700004B07047E05C0020844641EA000313F096
:10288000030349D1403A23D30B6803604B6843608C
:102890008B688360CB68C3600B6903614B694361DC
:1028A0008B698361CB69C3610B6A03624B6A4362C4
:1028B0008B6A8362CB6AC3620B6B03634B6B4363AC
:1028C0008B6B8363CB6BC36340304031403ADBD2C8
:1028D00030320BD30B6803604B6843608B688360B6
:1028E000CB68C36010301031103AF3D20C3205D3EC
:1028F00051F8043B40F8043B043AF9D2043208D0C2
:10290000D2071CBF11F8013B00F8013B01D30B8833
:1029100003806046704700BF082A13D38B07B1D0ED
:1029200010F00303AED0C3F10403D21ADB071CBFBF
:1029300011F8013B00F8013BA4D331F8023B20F829
:10294000023B9FE7043AD9D3013A11F8013B00F862
:10295000013BF9D20B7803704B7843708B7883700E
:102960006046704770B4860746D0541E002A41D096
:10297000CAB2034602E014F1FF343BD303F8012B43
:102980009D07F8D1032C2ED9CDB245EA05250F2C91
:1029900045EA054519D9264603F11002103E0F2ECF
:1029A00042F8105C42F80C5C42F8085C42F8045CA7
:1029B00002F11002F2D8A4F1100222F00F0204F08A
:1029C0000F041032032C13440DD91E462246043A3C
:1029D000032A46F8045BFAD8221F22F003020432CD
:1029E000134404F003042CB1C9B21C4403F8011BC6
:1029F0009C42FBD170BC704714460346C2E700BF3F
:102A00002DE9F84F4B6E93469C042FD593681268BE
:102A100053B30E46074602F1080919E920045FEA9C
:102A20009A0817D00024043D01E0A04510D032469A
:102A300055F8041F384601F0B5F8431C04F10104B1
:102A4000F3D10023CBF80830CBF80430BDE8F88F81
:102A5000DBF808302AF0030AA3EB0A03CBF80830AE
:102A600009F10809002BD8D10020EAE701F004FAA7
:102A70000023CBF80830CBF80430BDE8F88F00BF56
:102A80002DE9F04FADB01D468B469046079306905A
:102A900018B1836B002B00F0F380DBF86430BBF9D6
:102AA0000C00DF0781B202D48E0540F1FC808C045B
:102AB0000AD4DBF8643040F4005123F40053ABF83F
:102AC0000C10CBF8643089B2080740F1B380DBF812
:102AD0001030002B00F0AE8001F01A030A2B00F03A
:102AE000B58000230DF1700AD1460B930393119327
:102AF0001093CDF83CA0CDF810B098F800304446C3
:102B0000FBB1252B02D11CE0252B03D014F8013F8B
:102B1000002BF9D1A4EB08059DB1109B119A01334C
:102B20002A44072BC9F80080C9F804501192109369
:102B30007ADD002A40F0B584D146039B10922B44E5
:102B400003932378002B00F0E58300204FF000036F
:102B500004F101088DF837306278064605460346D1
:102B60004FF0FF3408F10108A2F12001582900F2CA
:102B7000D982DFE811F02802D702D7023002D7024B
:102B8000D702D702D702D702D702A0008802D70205
:102B9000A800B802D702A601AB01AB01AB01AB01A3
:102BA000AB01AB01AB01AB01AB01D702D702D7023E
:102BB000D702D702D702D702D702D702D702B9016C
:102BC000D702D702D702D702D702D702D702D7023D
:102BD000D702D7029E01D702D702D702D702D70267
:102BE000A201D702D7025A02D702D702D702D702D0
:102BF000D702D702D702D702D702D7026102220238
:102C0000D702D702D70276022202D702D7027B026E
:102C1000D702FC0189011002D202D7029502D70225
:102C2000AD00D702D702350209F10809039B2B44F6
:102C3000039386E75946069800F0AAFD18BBBBF837
:102C40000C1001F01A030A2B7FF44BAFBBF90E30C6
:102C5000002BFFF646AFDBF86430DB0705D48F05A9
:102C600003D4DBF8580001F0BDFA2B464246594622
:102C7000069800F049FD039003982DB0BDE8F08F51
:102C800000F0EEFE09E7DBF86430D90704D4BBF8A6
:102C90000C309A0540F1AE844FF0FF330393039854
:102CA0002DB0BDE8F08FDBF8580001F099FABBF9C0
:102CB0000C0081B2FBE607990A460D680432002D2C
:102CC000079202DA6D4243F0040398F8002049E7C6
:102CD00008959E0600F15A840799DD060A4600F120
:102CE000EF83580640F1EC83002701220E8804315F
:102CF00007914FF0000100258DF83710611C00F09E
:102D0000178123F08001029156EA070140F01581F6
:102D1000002C40F05B83002A40F0B68313F00103DF
:102D2000059300F0558430230DF1B00B0BF8413DB5
:102D3000059BA342B8BF234601930DB10133019314
:102D4000029B13F00203099302D0019B023301930B
:102D5000029B13F084030A9340F01582089B019AAA
:102D60009D1A002D40F30F82102D40F38484109B98
:102D7000CE461027A146119AC54E1946069C07E07B
:102D800001F1020C01460EF1080E103D102D11DD6F
:102D9000481C1032072811928EE8C0001090EFDD19
:102DA000002A40F0D981103D102D11464FF0010C42
:102DB000D646EDDC4C466146F1462A44072911927D
:102DC000C9F80060C9F80450109100F3EB829DF837
:102DD000375009F10809481C002D40F0DC81099B9F
:102DE000002B00F0F68102210EAB0A440728119255
:102DF0001090C9F80410C9F8003040F3E681002AA9
:102E000040F095830A9B0120802B1146D14640F06B
:102E1000E481089B019D5E1B002E40F3DE81102E95
:102E200040F33C84CC461027A1469A4D069C07E00F
:102E300001F1020E01460CF1080C103E102E11DDBE
:102E4000481C1032072811928CE8A0001090EFDD8A
:102E5000002A40F09B82103E102E4FF0010E1146CA
:102E6000D446EDDC4C46E1463244BEF1070F1192E8
:102E700089E86000CDF840E000F3668309F10809B5
:102E80000EF101007146A8E1089513F0200240F010
:102E9000898313F0100140F0198313F0400200F011
:102EA000158307980A4601460431068800270791D2
:102EB0001FE7089543F01003E7E7089543F0100378
:102EC00007E743F0800398F800204BE60025A2F1C5
:102ED000300118F8012B05EB850501EB4505A2F142
:102EE00030010929F5D93FE60895002840F0028411
:102EF00043F010039E0600F13D830799DD060A4664
:102F000000F1F082580640F1ED82B1F90060043220
:102F1000F717304639460792002871F10002C0F2D7
:102F20005A83611C9DF837504FF001027FF4E9AEDF
:102F300056EA070100F04B820293012A00F08A82D0
:102F4000022A40F05A82D3460B98330943EA0773AA
:102F5000390906F00F020F461E46835C0BF8013D4F
:102F600056EA0703F1D1AAEB0B030593E0E600282C
:102F700040F0BD83990600F15983DA0600F1E5803F
:102F80005B0640F1E280079A136804320792BDF8AD
:102F90000C201A80B1E5782230210895079D8DF824
:102FA00039202A1D07923C4A2E680B9243F00203F7
:102FB0008DF83810002702229BE60895002899D04A
:102FC0008DF8376096E798F80020002E7FF4CAADA0
:102FD00001202026C6E543F0010398F80020C1E552
:102FE0000895002840F080832B490B919F0600F143
:102FF000E5820798DE06014600F16F825D0640F12A
:103000006C820027043106880791D80740F120829E
:1030100056EA070100F01C8230218DF8392043F078
:1030200002038DF83810022263E60895002840F06C
:1030300055831A490B91D9E701220798114601924D
:1030400002684FF000048DF84820024604320895CB
:103050008DF83740059107920DF1480B029300243B
:103060006EE643F0400398F800207BE598F80020D6
:103070006C2A03BF98F8012043F0200308F10108EF
:1030800043F010036EE598F8002001202B2669E537
:10309000545B0020645B0020385B0020245B002030
:1030A0004FF0000207990895D1F800B08DF837204D
:1030B0000D1DBBF1000F00F0E482671C00F0C3821D
:1030C000224600215846019301F0BEFB019B0028D7
:1030D00000F0E882A0EB0B020795059202939DF8A1
:1030E0003750002424E698F8002008F101072A2A26
:1030F00000F0E982A2F130010929B8464FF000043E
:103100003FF632AD18F8012B04EB840401EB4404C4
:10311000A2F130010929F5D926E543F0200398F8FA
:1031200000201FE50895002840F0DB82002A00F00F
:10313000F18001218DF848204FF0000201918DF8B7
:10314000372005910DF1480B88E7079A1368043280
:103150000792039A1A60D0E40FAA04992046FFF759
:103160004FFC002840F043811099D646119A01F196
:10317000010C0AE60FAA04990698FFF741FC002803
:1031800040F03581D14610999DF83750119A481C6E
:10319000002D3FF424AE01210DF137050A44072824
:1031A00011921090C9F80410C9F8005040F3098139
:1031B000002A40F0AF81099B002B3FF423AE02228E
:1031C0000846D1460EAB1D921C93014609F1080931
:1031D00001300A9B802B3FF41CAE059BE41A002CA7
:1031E0002FDD102C40F32082CE461026B24D069FD4
:1031F000DDF8109006E0881C19460EF1080E103C10
:10320000102C10DD4B1C1032072B11928EE8600041
:103210001093F0DD002A65D1103C102C4FF0010016
:103220001146D646EEDCF146224407281192C9F831
:103230000050C9F80440109000F3858009F1080996
:103240000130059907280A441192C9F800B0C9F85D
:103250000410109040F38280002A40F01881029BF5
:103260001092580735D5089B01995C1A002C40F341
:10327000E780D146102C40F30D82102510998F4E17
:10328000069FDDF810B006E0881C194609F1080910
:10329000103C102C11DD4B1C1032072B1192C9F879
:1032A0000060C9F804501093EEDD42BB103C102CB6
:1032B0004FF001001146D146EDDC2244072811925F
:1032C000C9F80060C9F80440109051DD002A40F0B0
:1032D0009A81039B089A01998A42ACBF9B185B189C
:1032E00003934EE00FAA49463846FFF789FB0028B2
:1032F00040F03E811099D646119A481C7FE70FAAEC
:1033000059463846FFF77CFB60B91099D146119AAF
:10331000481CBDE7119BDDF810B0002B40F0CA81BE
:1033200000231093DBF8643013F0010FBBF80C306E
:1033300002D19A0540F1DD805B063FF5ADAC039804
:103340002DB0BDE8F08F002A40F005810123D14661
:10335000059ACDF870B01D921192109309F10809E9
:10336000029B590704D5089B01995C1A002C81DC4B
:10337000039B089901988142ACBF5B181B1803930B
:1033800072BB0023D1461093FFF7B7BB0FAA049975
:103390002046FFF735FB50BB1099D446119A01F136
:1033A000010E4AE5002A7FF4E5AE9DF837100029AA
:1033B00000F01A810122D14610460DF137011D920D
:1033C0001C91014609F10809013008E5029B012A18
:1033D00000F09780022A0DD1029300260027B2E563
:1033E0000FAA04990698FFF70BFB0028C9D0DDF857
:1033F00010B097E7002600270293514600E0594697
:10340000F20842EA4772F80806F007030746164634
:10341000303356EA070201F8013C01F1FF3BEED1DF
:10342000029AD6077FF59FAD302B3FF49CAD302339
:1034300002390BF8013CAAEB010305938B4677E4B4
:10344000039B089A8A42ACBF9B185B18039398E7CA
:1034500002224EE4002F08BF0A2E51D3D346304635
:1034600039460A22002301F0ABFE30320BF8012D61
:103470003046394600230A2201F0A2FE06460F46D6
:1034800056EA0703EBD16EE50594D34650E40FAA44
:1034900004990698FFF7B4FA0028A8D1D146119AEA
:1034A0005EE70FAA04990698FFF7AAFA00289ED1B2
:1034B000D146FFF7BBBB00BF645B0020545B00201C
:1034C0000431166800270122079112E407980027AB
:1034D00001460431066807910BE40E680431079138
:1034E000002792E516680432F717079230463946EE
:1034F00012E5DBF8580000F075FEBBF80C301BE756
:10350000029B029301230DF1B00B30360BF8416D95
:1035100005930DE40FAA04990698FFF771FA0028A5
:103520007FF465AF1099D146119A481C57E40FAA51
:1035300004990698FFF764FA00287FF458AF1099B1
:10354000D146119A481C44E6002A40F087800120A9
:103550001146D14641E60FAA04990698FFF750FAA2
:1035600000287FF444AF1098D146119A013068E6E4
:10357000CB46D7E6079D073525F0070505F108027C
:10358000D5E90001079206460F46C5E4079D0735B9
:1035900025F0070202F10801D2E900670791012234
:1035A000FFF7A7BB079D073525F0070202F10801C9
:1035B000D2E9006707910022FFF79BBB079D073503
:1035C00025F0070101F108000790D1E900671CE52B
:1035D000D346FFF7ADBB2D25764267EB47078DF845
:1035E00037500122FFF78ABB099BB3B9114601206E
:1035F000D146F2E5DBF8580000F0F4FD4FF0FF3360
:103600000393FFF74CBB0FAA04990698FFF7F8F94C
:1036100000287FF4ECAE119AAAE602220EAB1D92AE
:103620001C930120D146D0E5344DFDE5079A1346A1
:1036300004330793039B1168DD171A462B46C1E933
:103640000023FFF75ABA58460795029301F0BEFBD4
:10365000002405909DF83750FFF76ABB0FAA049924
:103660000698FFF7CDF900287FF4C1AE1099D14636
:10367000119A481CB1E51099119A0131204EFFF7BB
:103680009CBB062C28BF0624079505940194DFF8FF
:1036900074B0E3E410981A4E01300EE68646174DDA
:1036A000FFF7E2BB05940795029304469DF8375057
:1036B000FFF73EBB06980FAA5946FFF7A1F900286D
:1036C0003FF42EAE2EE6079998F801200C680431DD
:1036D00044EAE474B8460791FFF744BA8DF83760BE
:1036E000A7E48DF8376021E58DF837607CE48DF82C
:1036F00037603FE48DF83760FFF7FABB645B00206A
:10370000545B00204C5B00202DE9F0410C464FF04B
:10371000000E4FF48065064617469846626EE389B0
:103720008989ADF58D6D21F002011992ADF80E3049
:10373000E269636AADF80C1016A81AA9CDF818E072
:1037400007920993009104910295059500F044FDBC
:1037500043463A4669463046FFF792F9051E07DBB5
:103760003046694600F024F9002818BF4FF0FF35B5
:10377000BDF80C305B0603D5A38943F04003A38159
:10378000169800F02BFD28460DF58D6DBDE8F081F3
:1037900038B5304B054618680C4610B1836B002BCA
:1037A00038D0B4F90C2093B218070CD52069A8B111
:1037B00013F001021ED000226369A2605B42A36184
:1037C000F0B1002038BDD9063BD5580725D4206973
:1037D00042F00803A3819BB20028E9D103F42072D0
:1037E000B2F5007FE4D02846214600F02BFDA389E6
:1037F0002069DDE7990758BF6269A2600028E0D11F
:10380000B4F90C301A06DDD543F04003A3814FF024
:10381000FF3038BD00F024F9C3E7216B51B104F14A
:103820004003994204D0284600F040FAB4F90C2035
:10383000002323630023206922F0240284E8090086
:10384000C6E7092342F040022B604FF0FF30A2810F
:1038500038BD00BFE05C0020024B13B1024800F00D
:1038600005B8704700000000D93A00200023014647
:103870001A46184601F07CBBB1F90C302DE9F04135
:103880009AB20D46110780463AD46A6843F4006341
:10389000002AAB8170DDAC6A002C4AD000229BB2BA
:1038A000D8F80060C8F8002013F4805268D02A6D60
:1038B0005F0705D569682B6B521A0BB1EB6BD21AF7
:1038C0000023E9694046A047441C3DD00021B5F9DA
:1038D0000C302A6923F40063AB81DB0469602A6041
:1038E00048D4296BC8F8006019B305F14003994228
:1038F00002D0404600F0DAF900202863BDE8F081EC
:103900002E69B6B1910718BF00232C6808BF6B69F8
:103910002E60A41BAB600AE0234632466F6AE96959
:103920004046B8470028A4EB0004064404DD002C00
:10393000F2DC0020BDE8F081AB894FF0FF3043F0AE
:103940004003AB81BDE8F081D8F800401D2CF3D8CE
:10395000164BE340DB4313F00103EDD1B5F90C2026
:10396000296922F40062AA81D2046B602960B8D56B
:10397000002CB6D12865B4E7EA6B002A8BDCD8E7C7
:103980000123E9694046A047431C024602D0AB89A7
:10399000AC6A8DE7D8F80030002BF8D01D2B01D091
:1039A000162BC9D1C8F80060C3E700BF0100402052
:1039B00038B50D46044608B1836BBBB1B5F90C00B0
:1039C00088B16B6EDB0701D4810517D520462946E7
:1039D000FFF752FF6B6E0446DA0702D4AB899B05F2
:1039E00007D5204638BD0446204638BD00F038F8DB
:1039F000E4E7A86D00F0F6FB204638BDA86D00F0A6
:103A0000EFFBE3E7014900F0B1BB00BF59500020D4
:103A1000002310B504468181C28103604360836046
:103A20004366036143618361194608225C30FEF7F7
:103A300099FF07480749084A084B2062E461616220
:103A4000A262E36204F15800BDE8104000F0C4BB7C
:103A5000454D0020694D0020A54D0020C54D00209A
:103A600010B50446144800F0BBFBA26BFAB9032062
:103A7000124904F53B73C4F8E832C4F8E022C4F8F4
:103A8000E402E16360680421FFF7C2FFA06801223D
:103A90000921FFF7BDFFE06802221221FFF7B8FFFE
:103AA00001230548A363BDE8104000F09BBB02481A
:103AB000BDE8104000F096BB18690020053A0020D0
:103AC000014800F08DBB00BF2C690020014800F0C8
:103AD00089BB00BF2C69002038B50A4C0A4D641B15
:103AE000A4100AD004F18043013B05EB8305013C9F
:103AF00055F804399847002CF9D1BDE8384002F058
:103B0000CBB800BFB05C0020AC5C00202DE9F043D6
:103B100083B007468846144600F050FB012833D096
:103B2000424604F15C0301A9384601F0D5F9421C74
:103B3000064622D090B39DF8041000250DF104092B
:103B400008E023685A1C226019700135B54225D25D
:103B500015F80910A368013B002BA360F1DAA269F4
:103B6000934201DB0A29ECD12246384601F05CF988
:103B7000431CEAD103B0BDE8F083A38943F04003BE
:103B8000A38103B0BDE8F08308F1FF33FE2BC7D853
:103B90005FFA88F106468DF80410CEE7404603B080
:103BA000BDE8F08330B5536E144613F0010FB2F93F
:103BB0000C3083B005469AB201D190051CD5900413
:103BC00006D4626E43F4005342F40052A38162664D
:103BD00028462246FFF79AFF636E0546DA0702D4AD
:103BE000A3899B0502D5284603B030BDA06D00F027
:103BF000F9FA284603B030BDA06D019100F0F0FA4B
:103C0000B4F90C3001999AB2D9E700BFF8B50C4667
:103C1000234F064600F0C2FEBB68C4F57E615D68B6
:103C20000F3125F00305294421F47F6121F00F01B4
:103C3000A1F58054B4F5805F07DB0021304601F028
:103C40006FF8BB682B44984204D0304600F0ACFEBD
:103C50000020F8BD6142304601F062F801300DD01D
:103C6000104BBA6819682D1B45F001053046091B39
:103C70005560196000F098FE0120F8BD0021304623
:103C800001F04EF8BA68831A0F2BDEDD064C0549A9
:103C9000246843F00103001B53600860D5E700BFB0
:103CA000806200200C67002088660020002944D034
:103CB0002DE9F0410D46804600F070FE55F8047C79
:103CC0006949A5F1080427F00103E2188E685068DD
:103CD000B24220F003005ED0FE0750600BD455F8CE
:103CE000087C01F1080EE41BA5683B4475456DD0C6
:103CF000E768EF60BD6015186D68ED073ED543F0CD
:103D000001026260E350B3F5007F17D20122DB08A5
:103D100098104D68134451F83370824001EBC30092
:103D20002A430838E060A7604A6041F83340FC60ED
:103D30004046BDE8F04100F037BE70475A0A042AF9
:103D400052D89A0902F13907FF0002F13805C81963
:103D5000CA59083890424FD0516821F003018B4274
:103D600032D292689042F7D1C368A060E3609C6051
:103D7000C4604046BDE8F04100F016BE95683B4F78
:103D80000344BD4240D0D06843F00102E860856042
:103D90006260E350B7E7FF07034407D455F8085CB7
:103DA000641BE268A0682B44C2609060304A43F014
:103DB00001001268606093428C60B9D32D4B40467D
:103DC0001968FFF723FFB3E71046CDE711184968DC
:103DD000C90744D491680344D26843F00100CA6023
:103DE00091606060E350A3E7142A16D802F15C07E3
:103DF000FF0002F15B05AAE70123AA104D6893407A
:103E00002B434B600346B0E743F001024C610C6169
:103E1000E560A5606260E3508AE7542A06D81A0B71
:103E200002F16F07FF0002F16E0590E7B2F5AA7F7D
:103E300006D8DA0B02F17807FF0002F1770586E772
:103E400040F25450824206D89A0C02F17D07FF00DE
:103E500002F17C057BE74FF47E777E2577E743F020
:103E600001016160136063E78062002088620020C6
:103E70008C6600203C6700209368002B71D02DE9F0
:103E8000F04F8B8983B00C4619070090164625D554
:103E900022691AB313F0020035682BD04FF00009E5
:103EA000B0464F46DFF8C0A2002F55D057453B46DD
:103EB0004A4628BF5346E1690098666AB047002821
:103EC00056DDD8F8083081441B1A3F1AC8F808306C
:103ED000002BE9D1002003B0BDE8F08F2146009807
:103EE000FFF756FC002840F03581A389356813F0B0
:103EF0000200D3D113F0010944D14F46019637B3E4
:103F00009A05D4F8088040F185804745C346C0F043
:103F1000AD8013F4906F40F0AE80BA4620685A46E8
:103F2000494600F0D7FCA2682368A2EB08025B4474
:103F3000A2602360019AD1449368A7EB0A07A3EB20
:103F40000A039360002BC5D0A389002FD8D1D5F8E0
:103F500000906F680835D2E7D5F800906F68083593
:103F6000A2E70020704721460098FFF721FD78B3B3
:103F7000B4F90C304FF0FF3043F04003A38103B09D
:103F8000BDE8F08F814633464E46A8469A464D46D8
:103F900056B3002832D0B145CB4628BFB34620687F
:103FA00023695F469842626904D9A36813449B451C
:103FB00000F3A88093454DDB1346676A2A46E16902
:103FC0000098B847071ED3DDB9EB0709CBD0012015
:103FD000DAF808303D44DB1BF61BCAF80830002B2A
:103FE0003FF478AF002ED4D108F1080353F8046CE5
:103FF000984653F8085C0833002EF7D032460A2161
:10400000284600F021FC002800F0A1800130A0EB40
:104010000509C0E720682369984202D863699F4276
:104020005DD2B84528BFB8464946424600F052FC2A
:10403000A3682268A3EB08034244A36022600BB18B
:10404000C24677E721460098FFF7B2FC00288FD1DF
:10405000C2466FE75A46294600F03CFCA268236836
:10406000A2EB0B025B44A2602360ADE7B846BA4600
:10407000BB46206853E762692068216902EB420869
:10408000A0EB010A08EBD8780AF101004FEA6808B2
:1040900038444045424684BF804642465B0544D58D
:1040A0001146009800F018F98346002855D0524672
:1040B0002169FEF7E1FBA38923F4906343F08003B9
:1040C000A3810BEB0A00A8EB0A03C4F810B0C4F8F4
:1040D00014802060A360B846BA46BB461FE76FF065
:1040E0000042BA4228BF3A4692FBF3F2E16903FB71
:1040F00002F300984A46666AB047B0F1000A3FF7FB
:1041000019AF35E71A462946019300F0E3FB226810
:10411000019B21461A4422600098FFF749FC019B4D
:1041200000287FF425AF1F464EE7009800F042FCC0
:1041300083460028C5D1009D21692846FFF7B6FDBA
:104140000C22B4F90C302A6023F0800312E706F148
:10415000010920E74FF0FF30BDE60C220099B4F9C9
:104160000C300A6006E700BF00FCFF7F2DE9F84332
:1041700010F538761ED0884607464FF0000975685E
:10418000B468013D10D4A389013D012B08D9B4F9CD
:104190000E30013304D021463846C04749EA0009B1
:1041A0006B1C04F16804EED13668002EE7D1484656
:1041B000BDE8F883B1464846BDE8F883044B054A9C
:1041C0001B685B6B002B08BF134693F828017047F0
:1041D000E05C002014610020704700BF704700BF02
:1041E000704700BF704700BF70B50C46B1F90E10A4
:1041F00090B0002915461E4614DB01AA00F08EFF80
:1042000000280FDB029A4FF4806302F47042A2F59B
:104210000052B2FA82F24FF40060520932602B6011
:1042200010B070BD0023A289336012F0800004D06A
:10423000402218462A6010B070BD4FF480632B6096
:1042400010B070BD8A890B46920706D5012103F193
:10425000430259611A601A617047F0B583B001AB2F
:104260006A460C460646FFF7BFFF009905463046F2
:1042700000F032F8B4F90C30D8B19DE80600154FC3
:1042800043F08003F763A3812060206161611AB964
:104290002B43A38103B0F0BD3046B4F90E1000F0FB
:1042A00051FFA0B1A38923F0030343F001031BB224
:1042B000EEE79A05EED4012123F0030304F1430253
:1042C00043F00203A381616122602261E2E7B4F955
:1042D0000C30DDE7053A00202DE9F04F01F10B0627
:1042E000162E83B0054640F29E8036F0070600F198
:1042F000BD80B14200F2BA8000F050FBB6F5FC7F01
:10430000C0F08582730A00F0B880042B00F26C8143
:10431000B30903F1390003F1380EC100B84F394435
:104320004C680839A14206D10CE0002A80F2AB802B
:10433000E468A14206D0636823F003039A1B0F2AA6
:10434000F3DD70463C69DFF8CCE2744500F09E81F5
:10435000636823F003039A1B0F2A00F38381002A6A
:10436000C7F814E0C7F810E080F29180B3F5007F41
:1043700080F054810122DB0879684FEAA30C1344D2
:1043800057F8338002FA0CF207EBC30C0A43ACF186
:104390000801E160C4F808807A6047F83340C8F843
:1043A0000C40012483109C4094427DD8144206D1D5
:1043B00020F003006400144200F10400FAD007EB7F
:1043C000C009CC468046DCF80C309C4507D15FE143
:1043D000002A80F26D81DB689C4500F059815968A4
:1043E00021F003018A1B0F2AF2DDDC68D3F808C034
:1043F00046F0010828461E4442F00105C3F8048037
:10440000CCF80C40C4F808C07E613E61C6F80CE0F0
:10441000C6F808E075605A50009300F0C5FA009B9A
:1044200003F108041EE0102920D800F0B7FA102686
:1044300018230220724F3B445C68A3F108029442A7
:1044400000F02F816368E16823F0030323445A6876
:10445000A66842F00102F16028468E605A6000F0C2
:10446000A3FA0834204603B0BDE8F08F00240C23E3
:1044700020462B6003B0BDE8F08F40204FF4007160
:104480004FF03F0E4AE723445A68E168E0E72344CF
:104490005A68284642F001025A60083400F084FA53
:1044A000204603B0BDE8F08FBC68636823F00308C2
:1044B000B04504D3A8EB06030F2B00F38580DFF88B
:1044C0005891504BD9F800201B680132334404EB5B
:1044D000080A00F0548103F580530F3323F47F6BF7
:1044E0002BF00F0B5946284600F01AFC411C0246DF
:1044F00000F0FB80824500F2F680434B1968594476
:10450000196000F04C81D9F8000001301BBFA2EB0C
:104510000A0A5144C9F80020196012F0070100F09E
:104520001481C1F10800C1F580510244083102EB49
:104530000B09C9F30B09A1EB090949462846019368
:10454000009200F0EDFB431C9DE80C0000F042815E
:10455000801A484440F001001968BC424944BA60DE
:104560001960506017D0B8F10F0F40F2FA804FF089
:10457000050C6268A8F10C0020F0070002F00102AF
:1045800004EB000E02430F286260CEF804C0CEF8A0
:1045900008C000F216811D4BBC681A68914288BFA2
:1045A00019601B4B1A689142626888BF196022F03B
:1045B00003029642A2EB060301D80F2B04DC284627
:1045C00000F0F2F900244DE746F0010243F0010348
:1045D000264462602846BE600834736000F0E4F947
:1045E000204603B0BDE8F08F142B70D9542B00F295
:1045F000A280330B03F16F0003F16E0EC1008DE654
:10460000806200203C6700200C6700203467002097
:104610003867002088620020886600205A0A042A31
:104620005BD9142A00F2AE8002F15C01C9005B3252
:1046300007EB010C7958ACF1080C8C4500F0888030
:104640004A6822F00302934273D289688C45F7D1FD
:10465000DCF80C307A68E360C4F808C09C60CCF8E1
:104660000C409EE646F0010C42F001012644C4F8DD
:1046700004C028467E613E61C6F80CE0C6F808E03A
:104680007160E25000F090F90834EBE67A6888E651
:1046900008F1010818F0030F0CF1080C7FF493AE39
:1046A0002DE0DC68A34208BF02303FF44BAEC9E600
:1046B0001C4619444A68DB6854F8086F42F001024E
:1046C0004A602846F3609E6000F06EF9CAE603F186
:1046D0005C0003F15B0EC10020E69A0902F139018A
:1046E000C9003832A4E7BC4254D0BC68626822F0EA
:1046F00003025EE759F80839994540F0868010F0CA
:10470000030F00F1FF30F5D17B6823EA04037B60DF
:1047100064009C423FF6C8AE002C3FF4C5AE1C427C
:1047200040467FF44CAE64001C4200F10400FAD015
:1047300045E68C468CE7B3F5AA7F15D8F30B03F159
:10474000780003F1770EC100E8E54FF48051EEE602
:1047500001217B68921001FA02F21A437A606346E3
:1047600079E7012353602AE740F25452934222D85A
:10477000B30C03F17D0003F17C0EC100CEE503F123
:10478000100BAFE6542A29D81A0B02F16F01C900A9
:104790006E324DE7204B196859441960B3E6CAF3ED
:1047A0000B0000287FF4AFAE08EB0B03BA6843F0B0
:1047B00001035360EFE67F204FF47E714FF07E0ED1
:1047C000ACE504F1080128460093FFF76FFA009B5F
:1047D0001968E0E601204FF00009BDE6B2F5AA7FB6
:1047E00005D8DA0B02F17801C900773220E740F2F0
:1047F00054518A4205D89A0C02F17D01C9007C32DD
:1048000016E74FF47E717E2212E77B6880E7F0089E
:1048100006F108030EE600BF0C67002082B049B124
:104820005AB16BB113780B601278101C18BF0120BD
:1048300002B0704701A9002AF3D1104602B07047B8
:104840006FF00100F4E700BF830770B4CDB23DD034
:10485000541E0AB30378AB421FD0431C05E014F189
:10486000FF3419D30278AA4217D013F0030F184669
:1048700003F10103F3D1032C11D84CB30378AB42FD
:104880000BD00444431C02E00278AA4205D09C42AB
:10489000184603F10103F7D1002070BC70470902EC
:1048A00089B2294341EA0141036806464B40A3F11E
:1048B000013222EA030313F0803F00F1040003D128
:1048C000043C032CF0D8D8E73046D7E71446D2E7AB
:1048D0002046E2E78842F0B50DD98B1898420AD2FB
:1048E0008418002A51D0224613F8014D994202F84B
:1048F000014DF9D1F0BD0F2A48D941EA00039B07C9
:1049000046D1154600F1100401F1100353F8106C64
:10491000103D44F8106C53F80C6C0F2D44F80C6CDF
:1049200053F8086C04F1100444F8186C53F8046C44
:1049300003F1100344F8146CE8D8A2F1100323F03B
:104940000F0302F00F0E1033BEF1030F194403449E
:1049500021D90E4674461D1F56F8047B043C032CD7
:1049600045F8047FF8D8AEF1040424F003040434BD
:104970002144234402F0030262B1013B0A4411F8CE
:10498000014B8A4203F8014FF9D1F0BD0346F3E72A
:104990000346F2E7F0BD7246EEE700BF0148FFF7BD
:1049A0001FBC00BF1C6900200148FFF71BBC00BFF3
:1049B0001C690020002900F094802DE9F04F0C467E
:1049C000154683B0804605F10B06FFF7E7FF54F864
:1049D00004EC162E2EF00307A4F108093CD810228F
:1049E0001646B5423DD8974243DAC64B09EB07005D
:1049F0009968884200F0C380436823F001010144B4
:104A00004968C9074DD51EF0010F00F09B8029466B
:104A10004046FFF761FC054600283BD054F8043CB3
:104A2000A0F1080223F001034B449A4200F02B81CD
:104A30003A1F242A00F21881132A00F2EB80034661
:104A40002246116819605168596092689A6021463F
:104A50004046FFF72BF91DE026F00706002E3246F0
:104A6000BFDA00250C232846C8F8003003B0BDE8A3
:104A7000F08F2546BB1B0F2BD9F804201DD802F060
:104A800001023A4309EB0701C9F804204B6843F0DF
:104A900001034B604046FFF787FF284603B0BDE89F
:104AA000F08F23F00303F91891421DDBC36882687D
:104AB0002546D3600F469A60DCE702F0010209EB5D
:104AC000060143F001033243C9F804204F444B6010
:104AD0007B68083143F001037B604046FFF7E6F84E
:104AE000D8E71146FFF7F8BB1EF0010F8FD154F83D
:104AF000081CA9EB010ADAF8041021F003010B44A9
:104B00003B44934226DB5546C16880683A1FC1602A
:104B1000886055F8080FDAF80C10242AC160886004
:104B200026D8132A40F2818021681B2ACAF808106F
:104B30006168CAF80C1000F2AD8004F108000AF1B7
:104B4000100274E054F8083CA9EB030ADAF80410E8
:104B500021F003017B189342FFF659AF5546DAF86E
:104B60000C1055F8080F3A1F242AC1608860D8D964
:104B7000214628461F46D146FFF7ACFE7AE741683A
:104B800006F1100021F0030BBB44834558DA1EF0F8
:104B9000010F7FF43CAF54F8081CA9EB010ADAF8C6
:104BA000041021F003018B445845D3DC5546DAF854
:104BB0000C1055F8080F3A1F242AC160886000F2D3
:104BC0008D80132A40F2878021681B2ACAF80810BA
:104BD0006168CAF80C1000F2888004F108010AF13B
:104BE0001002086810604868506089689160ABEBFB
:104BF00006020AEB060142F0010299604A60DAF807
:104C00000430404603F001031E43CAF80460FFF776
:104C1000CBFE42E723681B2A03606368436027D802
:104C200000F1080304F108020BE720462A46016858
:104C30001F4611604168D14651608368936019E74F
:104C4000ABEB060B09EB06014BF0010299604A60E1
:104C500054F8043C404603F001031E4344F8046C3E
:104C6000FFF7A2FE254618E72146FFF733FEEEE6E2
:104C7000A368242A8360E368C36018D000F110039E
:104C800004F11002DDE650F8043C254623F003034E
:104C90001F44EFE6A168242ACAF81010E168CAF898
:104CA00014100DD004F110000AF11802BFE72269B8
:104CB00000F118030261616904F118024161C0E664
:104CC000226904F11800CAF8182061690AF120026B
:104CD000CAF81C10ABE721462A4682E7214628463F
:104CE0000193FFF7F7FD019B81E7A168242ACAF829
:104CF0001010E168CAF8141006D004F110010AF18E
:104D000018026EE780620020226904F11801CAF8D7
:104D1000182060690AF12002CAF81C0061E700BF90
:104D200038B50023064C05460846236000F03AFDDE
:104D3000431C00D038BD2368002BFBD02B6038BD4E
:104D40003069002010B50C46B1F90E1000F022FABF
:104D5000002803DB236D0344236510BDA38923F4DE
:104D60008053A38110BD00BF2DE9F0410C46B1F97D
:104D70000C101F46CB051646054607D5B4F90E1094
:104D80000223002200F0F0F9B4F90C1021F4805154
:104D9000A1813B463246B4F90E102846BDE8F041E9
:104DA00000F0D0B810B50C46B1F90E1000F0DCF9E7
:104DB000A389421C0EBF23F4805343F48053206523
:104DC000A38110BDB1F90E1000F034B920F0030139
:104DD00010F00300C0F1000051F8043B00F1040C96
:104DE0004FEACC0C6FF000021CBF22FA0CF2134306
:104DF0004FF0010C4CEA0C2C4CEA0C4CA3EB0C02CF
:104E000022EA030212EACC1204BF51F8043B043038
:104E1000F4D0C2F1000102EA0102B2FA82F2C2F158
:104E20001F0200EBD2007047F8B50D461446064647
:104E300010B1836B002B4BD0B4F90C20A36991B255
:104E40000807A36039D52369002B36D0EDB2890459
:104E50002F4615D522686169D31A8B421CDA0133BB
:104E6000A168501C0139A1602060157062699A42E6
:104E70001AD0A389DB0701D50A2D15D03846F8BD15
:104E8000616E42F4005221F40051A28122686166F1
:104E90006169D31A8B42E2DB21463046FEF788FD7A
:104EA00040B901232268DBE721463046FEF780FD4A
:104EB0000028E3D04FF0FF37E0E721463046FEF709
:104EC00067FC0028F6D1B4F90C20236991B2BDE744
:104ED000FEF7C6FDB0E700BFF0B5064685B01F4639
:104EE00089B1104C104D2468646B002C08BF2C460F
:104EF000D4F8E040A047431C03D100228A233A6043
:104F0000336005B0F0BD0C46064A074D11682246D5
:104F10004C6B01A9002C08BF2C46D4F8E040A047F8
:104F2000E9E700BFE05C00201461002019B1FF2A0E
:104F300003D80A700121084670478A234FF0FF31D9
:104F40000360F8E7F8B50E460025084C1146074601
:104F50001A463046256000F0B5FB431C00D0F8BD72
:104F60002368002BFBD03B60F8BD00BF30690020F8
:104F70002DE9F8432C4D0646286898460F46914681
:104F8000FFF72EF9294B1C68D4F84831002B3ED08E
:104F90005A681F2A1CDC02F1010E76B1012103EBD5
:104FA0008204C4F88890D3F8880191400843022E07
:104FB000C3F88801C4F8088123D00232C3F804E0A2
:104FC000286843F82270FFF70DF90020BDE8F88348
:104FD000174B0BB34FF4C870AFF300800346D8B142
:104FE0000020D4F848114FF0010E586019600246B5
:104FF000C4F84831C3F88801C3F88C01002EDCD016
:10500000CCE7D3F88C010143C3F88C11D5E704F544
:10501000A673C4F84831BBE72868FFF7E3F84FF000
:10502000FF30BDE8F88300BF10610020205B002046
:105030000000000038B50023064C054608462360F2
:1050400000F07CFB431C00D038BD2368002BFBD054
:105050002B6038BD3069002070B559B105460C464B
:1050600010B1836B002B3CD0636ED80705D5B4F923
:105070000C302BB90026304670BDA38999053CD56C
:1050800021462846FEF7F8FBE36A064633B1E1699C
:10509000284698470028B8BF4FF0FF36A3891A0664
:1050A00022D4216B41B104F14003994202D0284639
:1050B000FEF7FCFD00232363616C21B12846FEF757
:1050C000F5FD00236364FEF7FBFC0022636EA28102
:1050D000DB070ED5A06DFFF781F8FEF7F7FC304631
:1050E00070BDFEF7BDFCBFE721692846FEF7DEFD77
:1050F000D7E7A06DFFF776F8ECE7A06DFFF770F843
:10510000B4F90C30002BBBD1666E16F00106B1D19C
:10511000A06DFFF767F8304670BD00BF70B50D4653
:105120000023074C064611462846236000F086FB04
:10513000431C00D070BD2368002BFBD0336070BDD2
:105140003069002038B50023064C05460846236028
:1051500000F082FB431C00D038BD2368002BFBD03D
:105160002B6038BD30690020F8B50E460025084C8C
:10517000114607461A463046256000F0A1FA431C46
:1051800000D0F8BD2368002BFBD03B60F8BD00BF0A
:1051900030690020F8B50E460025084C1146074638
:1051A0001A463046256000F011FA431C00D0F8BDC5
:1051B0002368002BFBD03B60F8BD00BF30690020A6
:1051C00053B94AB9002908BF00281CBF4FF0FF316E
:1051D0004FF0FF3000F07AB9ADF1080C6DE904CE64
:1051E00000F006F8DDF804E0DDE9022304B07047C2
:1051F0002DE9F0478C460E460446089D002B50D101
:105200008A4217466CD9B2FA82FEBEF1000F0BD06B
:10521000CEF1200C01FA0EF620FA0CFC02FA0EF781
:105220004CEA060C00FA0EF43A0CBCFBF2F9BBB2E5
:1052300002FB19CC09FB03FA4FEA144848EA0C4672
:10524000B2450AD9F61909F1FF3180F02581B2453E
:1052500040F22281A9F102093E44A6EB0A06B6FB00
:10526000F2F002FB106600FB03F3A4B244EA06442A
:10527000A34209D9E41900F1FF3280F00B81A34267
:1052800040F2088102383C440021E41A40EA094017
:10529000002D62D0002324FA0EF42C606B60BDE870
:1052A000F0878B4207D9002D55D0002185E84100B9
:1052B0000846BDE8F087B3FA83F1002940F08F80FB
:1052C000B34202D3824200F2FC80841A66EB0306EA
:1052D0000120B446002D40D085E81010BDE8F087CD
:1052E00012B90127B7FBF2F7B7FA87FEBEF1000F3C
:1052F00035D10121F61B4FEA174C1FFA87F8B6FB90
:10530000FCF20CFB126608FB02F0230C43EA064693
:10531000B04207D9F61902F1FF3302D2B04200F2CF
:10532000D2801A46361AB6FBFCF00CFB106608FB5E
:1053300000F8A3B243EA0644A04507D9E41900F1F6
:10534000FF3302D2A04500F2B9801846A4EB08044E
:1053500040EA02409CE729462846BDE8F08707FA64
:105360000EF7CEF1200326FA03F24FEA174CB2FBF8
:10537000FCF11FFA87F80CFB112206FA0EF620FA50
:1053800003F301FB08F933431E0C46EA0246B1451C
:1053900000FA0EF409D9F61901F1FF3280F08C8081
:1053A000B14540F2898002393E44A6EB0906B6FBBE
:1053B000FCF00CFB106200FB08F99EB246EA0246C4
:1053C000B14507D9F61900F1FF3371D2B1456FD954
:1053D00002383E44A6EB090640EA01418FE7C1F1DD
:1053E000200722FA07F88B4048EA030326FA07F45D
:1053F0004FEA134EB4FBFEF91FFA83FC0EFB19446F
:105400008E4020FA07F809FB0CFA48EA06084FEA32
:10541000184646EA0444A24502FA01F200FA01F6EF
:1054200008D9E41809F1FF3044D2A24542D9A9F1C4
:1054300002091C44A4EB0A04B4FBFEF00EFB10446A
:1054400000FB0CFC1FFA88F848EA0444A44507D97D
:10545000E41800F1FF3E29D2A44527D902381C44A4
:1054600040EA0940A0FB0289A4EB0C0CCC45C246E3
:10547000CE4615D312D055B1B6EB0A036CEB0E062F
:1054800006FA07F7CB401F43CE402F606E60002125
:10549000BDE8F0871046F7E68946DEE64645EAD2E3
:1054A000B8EB020A69EB030E0138E4E77046D7E770
:1054B00018468FE78146BDE7114676E702383C443F
:1054C00044E7084606E7023A3E442BE7704700BF30
:1054D0000B4B10B50446186808B1836B4BB1132C05
:1054E0000BD8084850F83430013306D000EBC40024
:1054F00010BDFEF7B5FA132CF3D9002010BD00BF84
:10550000E05C00205067002070B500F0C3F9132460
:105510000546002620463146ABBE04464FF0FF301C
:105520002C6070BD2DE9F04700230327DFF894803D
:1055300084B0CDF804800124039701AE0293204685
:105540003146ABBE814604231B4DCDF80480C5F81F
:1055500000900397029320463146ABBE8246082353
:10556000DFF86490CDF80480C9F800A00397029397
:1055700020463146ABBE0446104B621C1C6016D060
:105580002046D9F8004000234FF0FF310C4A42F882
:1055900033100133142BFAD1002329689460116071
:1055A00010615360D360536104B0BDE8F087D9F84F
:1055B000004020461C60E6E7486700204467002062
:1055C00050670020885C00204C670020F0B585B053
:1055D0000F461646FFF77CFFD8B1036805460297D1
:1055E00006240193039601AF20463946ABBE04461C
:1055F000621C06D06A68341B22446A60204605B0EB
:10560000F0BDFFF781FF431C0446F3D1204605B0EF
:10561000F0BD00F03FF909224FF0FF340260EDE7E2
:105620002DE9F04383B089461446FFF751FF002867
:105630003ED0022C29D8012C064622D0022C12D0B2
:105640004D46E84633680A248DE828002046414646
:10565000ABBE0446631C1FD0002C26DB75602846B9
:1056600003B0BDE8F08303680DF108080C2748F883
:10567000083D38464146ABBE0546691C10D04D4436
:10568000E0E7406819EB0005DBD500F003F91623CD
:105690004FF0FF350360E2E7FFF736FF0446DBE734
:1056A000FFF732FF421C0546E9D14FF0FF35D6E740
:1056B00000F0F0F809234FF0FF350360CFE700BF9B
:1056C000FFF7AEBFF0B585B00F461646FFF700FFF7
:1056D00000282BD003680546029705240193039602
:1056E00001AF20463946ABBE0446631C204617D0A6
:1056F000002818DB6B68341A234486426B6002D0A2
:10570000204605B0F0BD00F0C5F81325064600247C
:1057100028462146ABBE05462046356005B0F0BDA3
:10572000FFF7F2FEE4E74FF0FF34E9E700F0B2F8EC
:1057300009234FF0FF340360E2E700BF70B582B089
:105740000446FFF7C5FE18B3013C012C064611D9EB
:10575000336802AD022445F8043D20462946ABBE1D
:105760000446631C10D014B94FF0FF32326020465B
:1057700002B070BD0A4B9A681B699A42E8D14FF09B
:10578000FF3200240260F2E7FFF7BEFE0446EAE7BC
:1057900000F080F809224FF0FF340260E7E700BF15
:1057A000506700200E4A10B51368ABB16946184423
:1057B000884209D80B490C4C0968A14201D08842A3
:1057C00002D81060184610BD00F064F80C224FF0AB
:1057D000FF330260184610BD04490B461160E5E72F
:1057E0004067002090660020ADDEFECA40690020C0
:1057F00070B50D46FFF76CFEC0B14FF480626B6868
:10580000064643F40053EA626B600C24204631469E
:10581000ABBE0446621C03D02C610024204670BD40
:10582000FFF772FE431C0446F6D1F7E700F032F8AA
:1058300009224FF0FF340260F0E700BF38B53C2288
:105840000C46054608460021FDF78CF821462846FF
:10585000BDE83840FFF7CCBF70B5FFF739FE05460D
:1058600090B1092420462946ABBE0446012C09D03C
:1058700000F010F813250646002428462146ABBE4A
:1058800005463560204670BD00F004F809222C461C
:105890000260F7E7014B1868704700BFE05C00202A
:1058A000000102040810204080010204081020407A
:1058B0008000000000000000100000001800000040
:1058C0002000000028000000300000003800000028
:1058D0004000000048000000500000005800000098
:1058E0006000000068000000700000007800000008
:1058F000800000008800000000000000140000008C
:105900001C000000240000002C00000034000000F7
:105910003C000000440000004C0000005400000067
:105920005C000000640000006C00000074000000D7
:105930007C000000840000008C00000000010001D9
:10594000020203034465627567206D6573736167C6
:105950006573207669612041524D2053656D6968F9
:105960006F7374696E6720696E697469616C697AB6
:1059700065640A00436F726555415254617062203C
:10598000696E697469616C697A65640A0000000077
:105990004D53532054696D657220496E6974696175
:1059A0006C697A65640A0000436F72654750494F1D
:1059B00020636F6E666967757265640A0000000097
:1059C00054696D657220696E697469616C697A6584
:1059D0006420616E6420737461727465640A0000EF
:1059E00054657374204172726179205072696E74CB
:1059F0006F7574206F66205541525420427566665B
:105A000065723A0A00000000256300005072696E5A
:105A1000746F7574206F66206275666665722063A8
:105A20006F6D706C6574653A0A000000466F756EA4
:105A30006420204C45442030204F4E20436F6D6D34
:105A4000616E640A00000000466F756E6420204C91
:105A500045442030204F464620436F6D6D616E6493
:105A60000A000000466F756E6420204C45442031CA
:105A7000204F4E20436F6D6D616E640A0000000080
:105A8000466F756E6420204C45442031204F4646B9
:105A900020436F6D6D616E640A000000426C616EA0
:105AA0006B696E67206D6573736167652073656EE2
:105AB000740A0000425554544F4E203120707265D4
:105AC00073736564202D200A000000004275747411
:105AD0006F6E203120707265737365640A00000078
