:1000000000000120910100007F0300008103000037
:100010008303000085030000870300000000000048
:100020000000000000000000000000008903000044
:100030008B030000000000008D0300008F03000010
:100040009103000093030000E10C0000FD0C000090
:10005000990300009B0300009D0300009F03000024
:10006000A1030000A3030000A5030000A7030000F4
:10007000A9030000AB03000049170000AF03000014
:10008000B1030000B3030000B5030000F105000058
:10009000B9030000BB030000BD030000BF03000064
:1000A000C1030000C3030000C5030000BD0D000034
:1000B000650E0000CB030000CD030000CF0300005D
:1000C000D1030000D3030000D50300006D1700002A
:1000D000C5170000DB030000DD030000DF030000A4
:1000E000E1030000E3030000E5030000E703000074
:1000F000E9030000EB030000ED030000EF03000044
:10010000F1030000F3030000F5030000F703000013
:10011000F9030000FB030000FD030000FF030000E3
:1001200001040000030400000504000007040000AF
:10013000090400000B0400000D0400000F0400007F
:10014000110400001304000015040000170400004F
:10015000190400001B0400001D0400001F0400001F
:1001600021040000230400002504000027040000EF
:10017000290400002B0400002D0400002F040000BF
:100180003104000033040000000000000000000003
:100190004FF0000BDFF8BE020068DFF8B612096806
:1001A00001F0030100F01C00142801D14BF0020BF8
:1001B000002901D04BF0010BBBF1000F05D0A7487F
:1001C000A749DFF8722200F09FF8A64880470BF09D
:1001D000020ABAF1000F0CD0DFF86E02DFF86E12DF
:1001E00002680B680FB44FF000024FF0FF0302608B
:1001F0000B609D4800220123022808D1DFF83E123F
:100200000A60DFF842120A60DFF836120B6001283C
:1002100008D1DFF82E120A60DFF82A120A60DFF830
:100220001E120B609148002809D191489149924AC9
:1002300000F032F891489249924A00F02DF8924825
:100240009249934A00F028F892489349DFF8E62152
:1002500000F05AF8BBF1000F12D090489049DFF837
:10026000DA2100F051F80BF0020ABAF1000F07D0C2
:100270000FBC02600B6000BFAFF30080AFF30080E3
:10028000DFF820020FF2030E00474FF000004FF09E
:100290000001DFF814F2FEE72DE9F841884225D08D
:1002A000B2EB010200D5FEE740EA010313F00303BD
:1002B00002D000F01DF819E04FF000039046121133
:1002C000F7D09A421CBFF0C8F0C103F10103F8D186
:1002D00008F00F08B8F1000F08D004780C7000F196
:1002E000010001F10101B8F10108F6D1BDE8F88182
:1002F00008B54FF0000303780B7000F1010001F125
:100300000101013AF7D108BD884237D000F0030659
:10031000002E14D04FF00405A5EB06044FF008079B
:1003200007FB06F8914669FA08F9002C07D080F817
:10033000009069FA07F900F10100013CF5E74FF080
:1003400000060F46091A88460911914614461546BB
:10035000B14206D018BFA0E8340206F10106B1424E
:10036000F8D108F00F08B8F1000F07D002704FEA7B
:10037000322200F10100B8F10108F4E77047FEE70E
:10038000FEE7FEE7FEE7FEE7FEE7FEE7FEE7FEE745
:10039000FEE7FEE7FEE7FEE7FEE7FEE7FEE7FEE735
:1003A000FEE7FEE7FEE7FEE7FEE7FEE7FEE7FEE725
:1003B000FEE7FEE7FEE7FEE7FEE7FEE7FEE7FEE715
:1003C000FEE7FEE7FEE7FEE7FEE7FEE7FEE7FEE705
:1003D000FEE7FEE7FEE7FEE7FEE7FEE7FEE7FEE7F5
:1003E000FEE7FEE7FEE7FEE7FEE7FEE7FEE7FEE7E5
:1003F000FEE7FEE7FEE7FEE7FEE7FEE7FEE7FEE7D5
:10040000FEE7FEE7FEE7FEE7FEE7FEE7FEE7FEE7C4
:10041000FEE7FEE7FEE7FEE7FEE7FEE7FEE7FEE7B4
:10042000FEE7FEE7FEE7FEE7FEE7FEE7FEE7FEE7A4
:10043000FEE7FEE7704700000000A2A2A2A2008033
:100440000340088003401080034030800340348024
:1004500003403880034018080240000000F00020EC
:1004600000000120851300000000000000000000D3
:10047000000000000000000090010000B004000037
:10048000B0040000C01A0000C01A000000000020E4
:1004900060040020600400201006002010060020E8
:1004A00000F00020E9170000B51400000000000073
:1004B00010B5054C237833B9044B13B10448AFF39E
:1004C00000800123237010BD6004002000000000A4
:1004D000941A00000C4B43B10C4810B50C49AFF313
:1004E00000800C48036823B910BD0A48036833B97B
:1004F0007047094B002BF7D0BDE810401847064B5A
:10050000002BF5D0184700BF00000000941A00002F
:10051000640400200000002000000000016070471B
:10052000006870470EB503FA01F303EA020301689D
:100530006FEA020201EA020141EA030101600EBD15
:10054000006800EA020020FA01F07047018070475D
:10055000008870470EB503FA01F303EA020301882D
:100560006FEA020201EA020141EA030101800EBDC5
:10057000008800EA020020FA01F07047017070471D
:10058000007870470EB503FA01F303EA020301781D
:100590006FEA020201EA020141EA030101700EBDA5
:1005A000007800EA020020FA01F070470B4B10B50A
:1005B0000B4C198823683BB10A4A89B210689847E6
:1005C0000023094A23601370084B1A46196841F04A
:1005D000010119601368DB07FCD410BD9C040020E6
:1005E0008404002094040020A10400200060014045
:1005F000924BF0B55C689A68E4B21440A10785B0EC
:100600001FD4E10701D405B0F0BD8D4D2B78022B2E
:1006100000F09480052B2AD0012B57D0874A894CB3
:10062000936823F00103936023683BB1864A00215D
:10063000106898470023854A2360137000232B70AD
:10064000E1E77F4D1A692B78D0B2052B00F250817B
:10065000DFE813F0CB00D700D700DF00A00089004F
:100660007B4B1A68002A40F0C980E207CBD5794C51
:100670002368002B00F0FC802368002B6BD06F49AF
:1006800026680B68744823F0040307680B604B6806
:1006900003F001030393039A92B1002E00F06781E7
:1006A00000227D1E01E096420AD015F8013F01327A
:1006B0000B614B6803F001030393039B002BF2D102
:1006C000236817449A1A076022609CE7634E3388B8
:1006D0009BB2002B37D0594934880B68DFF88CE186
:1006E00023F00403DEF800700B604B68A4B203F043
:1006F00001030193019A92B1002C00F03C81002289
:10070000781E01E094420AD010F8013F01320B61DB
:100710004B6803F001030193019B002BF2D1338856
:100720009BB2934200F2ED8000224A4B32801B685C
:10073000002B00F0EE8002232B7064E7454C236809
:10074000002B40F0A880414B1B78002B3FF45BAF9F
:10075000FFF72CFF57E70321384A936823F0010382
:10076000936029704FE716043FF57AAF364B354E4C
:100770001A683368507033B110460221984700233D
:10078000324A3360137000232B70E3073FF546AF06
:1007900005B0F0BD17042DD4314A2B4913880E68DB
:1007A0009BB2334413F8013CF12B00F0BD802D497E
:1007B000138809889BB28B4206D217881388BFB270
:1007C00001339BB2F055138013889BB29942DCD160
:1007D0001C4F13883A6899B2002AD4D0304690470B
:1007E00000231A4A3B601370CDE71204CDD5F128DF
:1007F00000F0AB80164B1A68002AC6D01B689847D9
:10080000FFE615047FF5FDAE114B1A68002AF5D1FD
:10081000F7E61304B9D5144B1B789842EAD10023AC
:1008200004210F4A297013801188074E13883668F7
:10083000013389B29BB213807054A6E70060014077
:10084000A00400208404002094040020A1040020BF
:100850007C040020880400209004002082040020F2
:100860009C0400209E040020800400208C040020B2
:10087000424B1B68002B4FD04148984720602368AB
:10088000002B7FF4F9AE03213E4A936823F0010365
:1008900093602970F0E63B4927680B68384823F0DD
:1008A0000403D0F800E00B604B6803F001030293EF
:1008B000029A92B1002F5CD000220EF1FF3601E0C7
:1008C00097420AD016F8013F01320B614B6803F0E2
:1008D00001030293029B002BF2D1236893427FF61F
:1008E0003AAF21680EEB02038A1A036022608AE69F
:1008F000254E3368002B3FF446AF244A0021106890
:100900003CE7338817449A1A92B2CEF800703280CE
:1009100079E603232B7076E61D4B1B78002B3FF402
:10092000ABAEFFF743FEA7E61A4F11881388D7F83E
:1009300000E08AB29BB2B054013BBEF1000F3FF41D
:1009400022AF3A68F05C90471DE700260422124B64
:100950002A701E8019881A8889B2013292B21A80D0
:100960000A4A1B8812689BB25054D6540DE732468F
:10097000A6E63A46B1E72246D1E600BF9804002039
:1009800090040020006001408404002094040020B2
:10099000A10400207C0400209C0400202A4A036853
:1009A00090422DE9F04F1C68D3F81880D3F804C0AA
:1009B000D3F828E01F6B5E6BDD692CD04FF0030B82
:1009C0004FF0080A214A22491346D1F8489080F88E
:1009D00004B002601F4849F48069C1F84890C0F82B
:1009E00080A1886C20F480608864116821F0004147
:1009F000116024F001041C60C3F81880C3F804C01F
:100A00001A6842F001021A60C3F828E01F635E63AF
:100A1000DD61BDE8F08F02234FF004090C490E4A56
:100A200003718B6C02600B4843F400738B64C0F855
:100A30008091886C134620F400708864116821F05E
:100A400000411160D5E700BF4805002000100140BB
:100A50000080034000E100E0001000400268F0B4B4
:100A60009368DD053FD40369C768BB4211D285682E
:100A70002B44EE1901E09E420BD013F8011B51618B
:100A80009468591BE4050161F5D58F4201D9F0BC8A
:100A900070479368DB0511D4C3698569AB4225D2E1
:100AA00046693344354401E09D4207D013F8011BE9
:100AB000516191689C1BC461CC05F5D5436A002B3C
:100AC000E5D0C16983699942E1D3906810F48070E0
:100AD000DDD1202301E0013BD9D050619168C905E7
:100AE000F9D5F0BC70470169C768CEE7436A002BAF
:100AF000EBD1CCE710B590F8803082B0022B0CD04F
:100B0000012B18D003689A68520604D41A6900921F
:100B10009A685206FAD502B010BD0446236803E075
:100B20001969626F00911AB99A685106F8D5F2E70F
:100B300000989047F2E7026893685C06EBD4036B79
:100B4000C16A14699942019404D9826A0199D15405
:100B5000036B02689168013349060363F0D502B064
:100B600010BD00BF70B5036882B01A6A04469207D0
:100B70001D460ED590F88020022A36D0012A9A68A8
:100B800003D190E01A6901929A685206FAD50222BE
:100B9000DA602A6AD60709D594F88020022A28D07C
:100BA0002046FFF75BFF23680122DA602A6AD0063D
:100BB00048D42A6A51075CD42A6A12070BD5DA6A2C
:100BC00094F8801042F008020229DA625CD0012910
:100BD0007FD00822DA602B6A9B060DD402B070BD6C
:100BE0001969626F0191002A59D19A685606F7D5A2
:100BF000CDE7A26F5A61D7E72046FFF77BFF236A54
:100C0000256B002B63D00022102123686262626191
:100C1000A261E261D9609A6A0A439A620026DA6A9E
:100C2000204642F00C022661DA62FFF717FFE36FFD
:100C3000266313B12946A06A984720222368DA6008
:100C400002B070BD2046FFF755FF236A2BB1A06AA2
:100C5000216B98472046FFF701FF012210212368EE
:100C600062629A6A22F010029A62D9602A6A510777
:100C7000A2D5DA6A204642F00402DA62FFF78EFE5D
:100C800004222368DA6097E71A68A16F22F47F02D2
:100C900022F47F4242F480721A60596199E7019808
:100CA00090472368A1E750063FF571AF226BE16AD8
:100CB00018699142019004D9A36A01999954226B51
:100CC00023689968013249062263F0D55FE72368FB
:100CD000A4E7002320462361FFF7C0FE236878E7DE
:100CE000684620F007018D4601B50348FFF73AFF3B
:100CF000BDE801408546704748050020684620F061
:100D000007018D4601B50348FFF72CFFBDE8014000
:100D100085467047C4040020F0B5264CB2F5803FEC
:100D200027684FEA870404EB07054FEAC5164FEA28
:100D3000850506F1844605F1402E0EF5803E06F548
:100D40002016C6F8C431CEF80400CEF80810DEF83C
:100D50000C604FEA16464FEA0646CEF80C601ED8E5
:100D60000021DEF80C0092B2134B0243CEF80C20A7
:100D7000196101250020E3199A0002F1402202F5D1
:100D80008032D168DB0103F1844303F5201341F481
:100D9000E001D160C3F8C051C3F8CC01F0BD064BEF
:100DA000A2F5803201F5803100F580301A61D960FA
:100DB0009860DEE7A8040020AC040020684620F01C
:100DC00007018D4631B50124224D23492A6802EBE3
:100DD00082039B0002F5287003F1402341F8204074
:100DE00003F58033D9682244042A21F4E001D96054
:100DF00008BF0023194C18BF2A60226908BF2B6066
:100E00007AB11749A0680B68042B0CBF002301338B
:100E10000B60237DE168FFF77FFFBDE83140854629
:100E200070472B6803EB83039B0003F1402303F51A
:100E30008033DB6813F4E003EFD1012008496268D6
:100E40002B6020700B60002AE7D09047BDE831404E
:100E500085467047A404002000002842AC0400200E
:100E6000A8040020684620F007018D46264B31B5C6
:100E70001B6813F4706F1CD0244C21688B005A1827
:100E8000D20102F1844202F52012D2F808223AB1CE
:100E900002201F4A5568107015B1A84721688B00C1
:100EA0000B44DB0103F1844303F52013D3F80C3228
:100EB0000BBB154B1B6813F4704F05D00420144B6B
:100EC0005A68187002B19047BDE831400123114AB9
:100ED0001149C2F8C8318546C2F8803AC2F8483490
:100EE000C1F8803AC2F8C836C1F8843AC2F8483925
:100EF000C1F8883A70470320054B5A681870002AD9
:100F0000D7D09047D5E700BF00400140A40400209F
:100F1000AC040020000028420400284220B1072B26
:100F200002D8B2F5005F00D37047F0B50F46154602
:100F30001E46044683B0D1B207F10800FFF71EFB3E
:100F40006A1102F4FF6242EA060107F10C00FFF7A2
:100F500015FB276007F11000FFF712FB82070CD585
:100F600020680430FFF70CFB23688DF8070003F1BD
:100F70001000FFF705FB8307F2D40023237103B0B1
:100F8000F0BD00BF98B191B18AB170B504460D466D
:100F90008E1820681030FFF7F3FAC307F9D515F85B
:100FA000011B2068FFF7EAFAB542F2D170BD704725
:100FB000F8B508B101B112B900252846F8BD0446BC
:100FC0000068174610300E46FFF7DAFA23798207D9
:100FD00043EA00032371EFD50025013E01E0AF4253
:100FE000EBD0206801350430FFF7CAFA06F8010F8C
:100FF00020681030FFF7C4FA237903432371830775
:10100000EDD42846F8BD00BF28B100220379027153
:10101000C3F382007047FF20704700BF38B5104B04
:10102000082905465C5C00680CD90C30FFF7A8FA6B
:101030002B6844EA0001C9B203F10C00BDE8384056
:10104000FFF79CBA0830FFF79BFA2B6844EA0001CF
:10105000C9B203F10800BDE83840FFF78FBA00BFFE
:10106000F419000038B5104B082905465C5C00688F
:101070000CD90C30FFF784FA2B6820EA0401C9B2BE
:1010800003F10C00BDE83840FFF778BA0830FFF7ED
:1010900077FA2B6820EA0401C9B203F10800BDE821
:1010A0003840FFF76BBA00BFF419000070B5044672
:1010B00016461D46016001F108000021FFF75EFAA7
:1010C000206800210C30FFF759FA31462068FFF7FD
:1010D00025FA206829460430FFF720FA206800210D
:1010E0001030FFF71BFA206800211830FFF716FABE
:1010F000206800212030FFF711FA206800212830F5
:10110000FFF70CFA206800213030FFF707FA20685B
:1011100000213830FFF702FA206800214030FFF745
:10112000FDF9206800214830FFF7F8F92068002118
:101130005030FFF7F3F9206800215830FFF7EEF93F
:10114000206800216030FFF7E9F92068002168304D
:10115000FFF7E4F9206800217030FFF7DFF920681D
:1011600000217830FFF7DAF9206800218030FFF79E
:10117000D5F920680021BDE870408830FFF7CEB96E
:1011800070B54C1E0F2C1DD8C2B105460C46164634
:101190000D4B006853F8213000211844FFF7BEF9C9
:1011A0000A4B286853F8243031461844FFF7B6F943
:1011B00021462846BDE87040FFF730BFBDE87040CB
:1011C000FFF750BF70BD00BF4C1A0000081A0000A6
:1011D00070B506460C46027101F18005316020466B
:1011E00000210434FFF7CAF9AC42F8D13379012B5E
:1011F00021D00AD3022B07D130684FF0FF31BDE870
:1012000070408030FFF78AB970BD3068FF218030B0
:10121000FFF7B4F93068FF218430FFF7AFF9306889
:10122000FF218830FFF7AAF93068FF21BDE8704040
:101230008C30FFF7A3B930684FF6FF718030FFF7AD
:1012400085F930684FF6FF71BDE870408430FFF7D4
:101250007DB900BF1F290B4600D9704700681146B1
:1012600000EB8300FFF75AB938B503790446012B28
:101270000D4621D008D3022B05D1BDE838400068C7
:10128000A030FFF74BB938BD0068C9B2A030FFF7F6
:1012900075F92068C5F30721A430FFF76FF92068BE
:1012A000C5F30741A830FFF769F92068290EAC3073
:1012B000BDE83840FFF762B9006889B2A030FFF797
:1012C00045F92068290CA430BDE83840FFF73EB945
:1012D0001F2900D9704710B5046804EB810420462B
:1012E000FFF74EF940F00801C9B22046BDE81040B2
:1012F000FFF744B91F2900D9704710B5046804EB03
:1013000081042046FFF73CF920F008012046BDE8A3
:101310001040FFF733B900BF38B501240379054603
:10132000012B04FA01F420D009D3022B06D1006866
:101330002146BDE838408030FFF7F0B838BD00687E
:1013400021468030FFF71AF92868210A8430FFF718
:1013500015F92868210C8830FFF710F92868210E4C
:101360008C30BDE83840FFF709B90068214680306D
:10137000FFF7ECF82868210C8430BDE83840FFF70F
:10138000E5B800BF4FF602020B4BD3F84C11914267
:101390000BD1D3F8982042F48072C3F89820D3F888
:1013A000982022F08062C3F89820044A536943F4DD
:1013B00000735361FFF73EB80080034000ED00E08A
:1013C000F0B42E4A82B0D2F8983013F0806324D162
:1013D000D2F89810C9043AD50124032102208DF8CF
:1013E00006108DF807108DF800308DF802308DF85A
:1013F00001408DF803408DF804008DF80500D2F807
:101400009C3002A9C3F382130B4413F8083CA34297
:1014100031D002D31A491B4B08E0D2F850111A4AB6
:1014200011F0040F194B18BF134615490B60184FE4
:10143000184E194D194C1A481A4A1B493B60336023
:101440002B6023600360116002B0F0BC7047174B43
:101450000B4A0F4913600B600E4F104E104D114890
:10146000114C0D4A12493B6033602B6004601160DF
:1014700002B0F0BC70474FF40043D6E70080034051
:101480000400002040420F0080F0FA0240787D0105
:101490001400002018000020080000200C0000208C
:1014A000100000201C000020C00E1602003B58084F
:1014B000801D2C04F0B540F69F738BB004224FF0D2
:1014C000A0419448FFF7F2FD00230193019A924B4B
:1014D0009A4205DC019A01320192019A9A42F9DDA1
:1014E00000230093009A8D4B9A4205DC009A01324A
:1014F0000092009A9A42F9DD2022002102A800F011
:101500009BF90123292286498648FFF707FD0C2213
:1015100085498448FFF736FDFFF752FF02228349D1
:101520008348FFF755FE052200218148FFF792FE10
:10153000052201217E48FFF78DFE052202217C480D
:10154000FFF788FE7B4B7A481968FFF78DFE432230
:1015500000217748FFF77EFE432201217448FFF700
:1015600079FE052202217248FFF774FE00217048BF
:10157000FFF7AEFE01216E48FFF7AAFE4FF0080C00
:1015800010224FF0600E50214FF480464FF040255E
:1015900000200127684B634CC3F804C05A60674AB7
:1015A00083F823E3DFF89CC183F824131168C3F8A0
:1015B0008060DCF848E001EB81012EF04002CCF8BD
:1015C00048205F4A6865C2F88001C2F88801C2F805
:1015D00084012F61C3F8806169604E4DC2F880714B
:1015E000C2F888711E602046FFF70EFD18B39DF803
:1015F0000830412B2CD0422B38D0432B44D0442BE5
:1016000050D0452B5CD0472B68D0492B74D04A2B47
:10161000E9D100260122082128468DF80860FFF74D
:10162000AFFD284632460821FFF7AAFD2046FFF706
:10163000EBFC0028DBD1202202A92046FFF7B8FCF2
:101640000028D4D12046FFF7DFFC0028FAD1F2E7CA
:1016500001220026114628468DF80860FFF790FD0C
:10166000324601212846FFF78BFDBCE700262846BD
:10167000012202218DF80860FFF782FD3246022127
:101680002846FFF77DFDAEE700262846012203210C
:101690008DF80860FFF774FD324603212846FFF7F6
:1016A0006FFDA0E700262846012204218DF808607E
:1016B000FFF766FD324604212846FFF761FD92E7F9
:1016C00000262846012205218DF80860FFF758FD05
:1016D000324605212846FFF753FD84E700262846B9
:1016E000012206218DF80860FFF74AFD32460621E7
:1016F0002846FFF745FD76E7002628460122072108
:101700008DF80860FFF73CFD324607212846FFF7B9
:1017100037FD68E7DC0500201FD613004F97310026
:1017200000200050D40500202400002000100030CC
:10173000CC0500202000002000E100E01400002083
:10174000000008420080034008B50C220549064805
:10175000FFF718FC4FF0402301221A61BFF34F8FAF
:1017600008BD00BF24000020D405002000B50021E2
:1017700083B01248FFF7BEFD01211048FFF7BAFD04
:1017800000210E48FFF7C8FD01210C48FFF7C4FDFA
:1017900000210A48FFF79CFD01210848FFF798FD4A
:1017A0000021074A0191019B9342FBDC019B01331D
:1017B0000193019B9342F9DDF4E700BFCC050020C3
:1017C0007FBA8C0100214FF480420448044BC0F8DA
:1017D0008811C3F880200348FFF78CBD0000084241
:1017E00000E100E0CC05002070B50F4E0F4D761BD8
:1017F000B61018BF002405D0013455F8043B9847B3
:10180000A642F9D10A4E0B4D00F044F9761BB610F2
:1018100018BF002406D0013455F8043B9847A6426F
:10182000F9D170BD70BD00BFAC1A0000AC1A000049
:10183000B41A0000AC1A000070B4860746D0541EDB
:10184000002A41D0CAB2034602E014F1FF343BD370
:1018500003F8012B9D07F8D1032C2ED9CDB245EA10
:1018600005250F2C45EA054519D9264603F1100236
:10187000103E0F2E42F8105C42F80C5C42F8085CF7
:1018800042F8045C02F11002F2D8A4F1100222F036
:101890000F0204F00F041032032C13440DD91E461E
:1018A0002246043A032A46F8045BFAD8221F22F0A3
:1018B00003020432134404F003042CB1C9B21C44E3
:1018C00003F8011B9C42FBD170BC704714460346D1
:1018D000C2E700BF024B13B1024800F005B87047E1
:1018E00000000000F5180000002301461A461846C3
:1018F00000F01EB838B50A4C0A4D641BA4100AD07B
:1019000004F18043013B05EB8305013C55F80439A4
:101910009847002CF9D1BDE8384000F0C1B800BFAD
:10192000B81A0000B41A0000704700BF704700BF2B
:101930002DE9F8432C4D0646286898460F469146F7
:10194000FFF7F2FF294B1C68D4F84831002B3ED03A
:101950005A681F2A1CDC02F1010E76B1012103EB4B
:101960008204C4F88890D3F8880191400843022E7D
:10197000C3F88801C4F8088123D00232C3F804E018
:10198000286843F82270FFF7D1FF0020BDE8F883F4
:10199000174B0BB34FF4C870AFF300800346D8B1B8
:1019A0000020D4F848114FF0010E5860196002462B
:1019B000C4F84831C3F88801C3F88C01002EDCD08C
:1019C000CCE7D3F88C010143C3F88C11D5E704F5BB
:1019D000A673C4F84831BBE72868FFF7A7FF4FF0AC
:1019E000FF30BDE8F88300BF58040020901A0000C3
:1019F00000000000000102040810204080010204E1
:101A000008102040800000000000000014000000CA
:101A10001C000000240000002C0000003400000026
:101A20003C000000440000004C0000005400000096
:101A30005C000000640000006C0000007400000006
:101A40007C000000840000008C000000000000000A
:101A50001000000018000000200000002800000016
:101A60003000000038000000400000004800000086
:101A700050000000580000006000000068000000F6
:101A80007000000078000000800000008800000066
:101A900030000020F8B500BFF8BC08BC9E46704777
:101AA000F8B500BFF8BC08BC9E467047D5180000CA
:101AB000D5040000B1040000000000000000000098
:101AC00000000000003B5808801D2C04003B580813
:101AD000003B5808003B5808003B5808C00E16024F
:101AE0000200000048656C6C6F20576F726C6400D8
:101AF000000000001C03002084030020EC030020F1
:101B000000000000000000000000000000000000D5
:101B100000000000000000000000000000000000C5
:101B200000000000000000000000000000000000B5
:101B300000000000000000000000000000000000A5
:101B40000000000000000000000000000000000095
:101B50000000000000000000000000000000000085
:101B60000000000000000000000000000000000075
:101B70000000000000000000000000000000000065
:101B80000000000000000000000000000000000055
:101B90000000000000000000010000000000000044
:101BA0000E33CDAB34126DE6ECDE05000B00000009
:101BB0000000000000000000000000000000000025
:101BC0000000000000000000000000000000000015
:101BD0000000000000000000000000000000000005
:101BE00000000000000000000000000000000000F5
:101F10000000000000000000E005002000000000BC
:040000030000019167
:00000001FF
