:0200000460009A
:1000000000000120910100007F0300008103000037
:100010008303000085030000870300000000000048
:100020000000000000000000000000008903000044
:100030008B030000000000008D0300008F03000010
:1000400091030000930300009D0D0000B90D000016
:10005000990300009B0300009D0300009F03000024
:10006000A1030000A3030000A5030000A7030000F4
:10007000A9030000AB030000AD030000AF030000C4
:10008000B1030000B3030000B503000071070000D6
:10009000B9030000BB030000BD030000BF03000064
:1000A000C1030000C3030000C5030000750E00007B
:1000B000150F0000CB030000CD030000CF030000AC
:1000C000D1030000D3030000D5030000D7030000D4
:1000D000D9030000DB030000DD030000DF030000A4
:1000E000E1030000E3030000E5030000E703000074
:1000F000E9030000EB030000ED030000EF03000044
:10010000F1030000F3030000F5030000F703000013
:10011000F9030000FB030000FD030000FF030000E3
:1001200001040000030400000504000007040000AF
:10013000090400000B0400000D0400000F0400007F
:10014000110400001304000015040000170400004F
:10015000190400001B0400001D0400001F0400001F
:1001600021040000230400002504000027040000EF
:10017000290400002B0400002D0400002F040000BF
:100180003104000033040000000000000000000003
:100190004FF0000BDFF8BE020068DFF8B612096806
:1001A00001F0030100F01C00142801D14BF0020BF8
:1001B000002901D04BF0010BBBF1000F05D0A7487F
:1001C000A749DFF8722200F09FF8A64880470BF09D
:1001D000020ABAF1000F0CD0DFF86E02DFF86E12DF
:1001E00002680B680FB44FF000024FF0FF0302608B
:1001F0000B609D489D4A9E4B022808D1DFF83E12B5
:100200000A60DFF842120A60DFF836120B6001283C
:1002100008D1DFF82E120A60DFF82A120A60DFF830
:100220001E120B609348002809D193489349944AC1
:1002300000F032F893489449944A00F02DF894481D
:100240009449954A00F028F894489549DFF8E6214A
:1002500000F05AF8BBF1000F12D092489249DFF833
:10026000DA2100F051F80BF0020ABAF1000F07D0C2
:100270000FBC02600B6000BFAFF30080AFF30080E3
:10028000DFF828020FF2030E00474FF000004FF096
:100290000001DFF81CF2FEE72DE9F841884225D085
:1002A000B2EB010200D5FEE740EA010313F00303BD
:1002B00002D000F01DF819E04FF000039046121133
:1002C000F7D09A421CBFF0C8F0C103F10103F8D186
:1002D00008F00F08B8F1000F08D004780C7000F196
:1002E000010001F10101B8F10108F6D1BDE8F88182
:1002F00008B54FF0000303780B7000F1010001F125
:100300000101013AF7D108BD884237D000F0030659
:10031000002E14D04FF00405A5EB06044FF008079B
:1003200007FB06F8914669FA08F9002C07D080F817
:10033000009069FA07F900F10100013CF5E74FF080
:1003400000060F46091A88460911914614461546BB
:10035000B14206D018BFA0E8340206F10106B1424E
:10036000F8D108F00F08B8F1000F07D002704FEA7B
:10037000322200F10100B8F10108F4E77047FEE70E
:10038000FEE7FEE7FEE7FEE7FEE7FEE7FEE7FEE745
:10039000FEE7FEE7FEE7FEE7FEE7FEE7FEE7FEE735
:1003A000FEE7FEE7FEE7FEE7FEE7FEE7FEE7FEE725
:1003B000FEE7FEE7FEE7FEE7FEE7FEE7FEE7FEE715
:1003C000FEE7FEE7FEE7FEE7FEE7FEE7FEE7FEE705
:1003D000FEE7FEE7FEE7FEE7FEE7FEE7FEE7FEE7F5
:1003E000FEE7FEE7FEE7FEE7FEE7FEE7FEE7FEE7E5
:1003F000FEE7FEE7FEE7FEE7FEE7FEE7FEE7FEE7D5
:10040000FEE7FEE7FEE7FEE7FEE7FEE7FEE7FEE7C4
:10041000FEE7FEE7FEE7FEE7FEE7FEE7FEE7FEE7B4
:10042000FEE7FEE7FEE7FEE7FEE7FEE7FEE7FEE7A4
:10043000FEE7FEE7704700000000A2A2A2A2008033
:100440000340088003401080034030800340348024
:1004500003403880034018080240000000F00020EC
:1004600000000120B50400000000000000000000B2
:10047000010000000100000000000060000000001A
:1004800090010000F0050060F00500000018000079
:1004900000180060000000206004002060040020BC
:1004A000F0050020F005002000F00020F11500000C
:1004B000A11300004FF602020C4BD3F84C119142ED
:1004C00006D00B4A536943F400735361FFF7B2BF80
:1004D000D3F8982042F48072C3F89820D3F898207B
:1004E00022F08062C3F89820EBE700BF0080034051
:1004F00000ED00E0F0B52E4B83B0D3F89820510109
:1005000017D4D3F89820D2042ED56A462949086812
:10051000496803C2D3F89C2002A9C2F382120A449C
:1005200012F8082C012A36D003D3DFF8BCE0224BA6
:1005300009E0D3F85011214A11F0040F204B18BFE5
:100540001346DFF8A4E01F4F1F4E204D204C2148DA
:10055000214A2249CEF800303B6033602B60236093
:100560000360116003B0F0BD1D4BDFF87CC0DFF805
:1005700054E0154F164E174D1748184C134A194999
:10058000CCF80030CEF800303B6033602B60046064
:10059000116003B0F0BDDFF850E00A4F0A4E0B4D7A
:1005A0000B4C0C480C4A0D494FF40043D2E700BFF6
:1005B00000800340CC17000040420F0080F0FA0298
:1005C00040787D0114000020180000200C0000205D
:1005D000100000200400002008000020C00E1602B9
:1005E000003B5808801D2C041C0000200000000067
:1005F00010B5054C237833B9044B13B10448AFF35D
:1006000000800123237010BD600400200000000062
:10061000DC170000084B10B51BB108480849AFF3C0
:1006200000800848036803B910BD074B002BFBD0BE
:10063000BDE81040184700BF00000000DC170000B4
:1006400064040020000000200000000001607047EA
:10065000006870470EB503FA01F303EA020301686C
:100660006FEA020201EA020141EA030101600EBDE4
:10067000006800EA020020FA01F07047018070472C
:10068000008870470EB503FA01F303EA02030188FC
:100690006FEA020201EA020141EA030101800EBD94
:1006A000008800EA020020FA01F0704701707047EC
:1006B000007870470EB503FA01F303EA02030178EC
:1006C0006FEA020201EA020141EA030101700EBD74
:1006D000007800EA020020FA01F0704730B4124CB2
:1006E00082B0236823F004032360636803F00103EE
:1006F0000193019BABB181B1451E002201E08A420A
:100700000BD015F8013F01322361636803F0010348
:100710000193019B002BF2D11146084602B030BC78
:1007200070471946F9E700BF006001400B4B10B558
:100730000B4C1988236889B233B10A4A106898476C
:10074000094A002313702360084B1A46196841F0C8
:10075000010119601368DB07FCD410BD9C04002064
:1007600098040020A40400208804002000600140B8
:10077000944AF8B553689468DBB21C40A0071DD4B6
:10078000E10700D4F8BD904E3378022B60D0052BE2
:100790002FD0012B4ED08B4A8C4C936823F0010351
:1007A000936023683BB18A4A002110689847894AC0
:1007B00000231370236000233370F8BD1069824E4C
:1007C00020F4FF43327823F07F039DB2C0B2052AA4
:1007D00000F2BB80DFE812F090009C009C00A400B7
:1007E00063004F007C4B1A68002A40F08E80E307BC
:1007F000C8D57A4C236883B9794B1B68002B00F06D
:10080000D180784898472060236833B96D4A032126
:10081000936823F001039360317023686F4C002BC1
:1008200040F0B480674A0321936823F0010393608A
:100830003170F8BD6C4C23889BB2002B40F0928045
:10084000644B1B78002B9DD0BDE8F840FFF76EBFCE
:10085000624C2368002BF3D0624D21682868FFF7B3
:100860003DFF23689842DDD223682A681B1A104492
:1008700023602860F8BD002DB4D1554B534F1A6842
:100880003B6850702BB1104602219847514B3D6098
:100890001D7000233370E2077FF574AF7BE7002DF6
:1008A0002FD1524A4A4913880D689BB22B4413F842
:1008B000013CF12B00F0A5804D49138809889BB2BB
:1008C0008B4206D217881388BFB201339BB2E8551A
:1008D00013801388454A9BB299427FF451AF3B4F36
:1008E00013883A6899B2002AD3D028469047394AEB
:1008F000002313703B60CCE7002DCCD0F12800F032
:100900009080354B1A68002AC5D01B68984737E796
:10091000002D3FF435AF304B1A68002AF5D12FE790
:10092000002DB8D0334B1B789842EAD12F4A0023D0
:1009300013801188264D13882F68013389B29BB22A
:100940000425138078543570A5E7204D2B68002BC3
:100950009FD01F4A0021106898471E4A0023137039
:100960002B6096E7244F21883D6889B22846FFF71F
:10097000B5FE23889BB298421CD30022174B2280DD
:100980001B68002B3AD002233370F8BD154D216847
:100990002868FFF7A3FE2A6823680244181A2A6011
:1009A0002060F8BD0B4B1B78002B3FF436AFFFF7F0
:1009B000BDFE32E7238805441B1A9BB23D602380AD
:1009C000F8BD00BF00600140A8040020980400208A
:1009D000A4040020880400208C040020A00400202F
:1009E0008004002094040020900400209C04002037
:1009F0007C040020A9040020840400200323337019
:100A0000F8BD1188104F13888AB29BB23968A85478
:100A10001D4415F8010C00293FF43BAF3B68984793
:100A200037E70A4B00271F8019881A88084D0132C2
:100A300092B21A801B882D688AB29BB20421A854F6
:100A40003170EF5427E700BF8C0400209C04002085
:100A5000A40400202C4A036890422DE9F04F1C6842
:100A6000D3F81880D3F804C0D3F828E01F6B5E6B6E
:100A7000DD692CD0254A26491346D1F84890DFF885
:100A800098A04FF0030B026080F804B049F480692D
:100A90000820C1F84890CAF88001886C20F4806072
:100AA0008864116821F00041116024F001021A608D
:100AB000C3F81880C3F804C01A6842F001021A6033
:100AC000C3F828E01F635E63DD61BDE8F08F104A64
:100AD0001049936CDFF8409043F400734FF0020B21
:100AE0004FF0040A016080F804B09364C9F880A153
:100AF000D2F84890036829F4007090640A6822F0E4
:100B000000420A60D1E700BF5005002000100140FC
:100B1000008003400010004000E100E0026830B4B3
:100B20009368DD053DD40369C568AB4210D2816886
:100B3000194401E0AB420BD211F8014B013354616F
:100B400094680361E405F5D5AB4201D230BC70472F
:100B50009368DD0510D4C36985699D4224D9416934
:100B6000194401E0AB4207D211F8014B0133546143
:100B70009468C361E405F5D5436A002BE6D0C169EA
:100B800083699942E2D3906810F48070DED120230B
:100B900001E0013BDAD050619168C905F9D530BC5C
:100BA0007047C5680369CFE7436A002BEBD1CDE7F7
:100BB00010B590F8803082B0022B0CD0012B18D0E9
:100BC00003689A68520604D41A6900929A68520619
:100BD000FAD502B010BD0446236803E01969626FBC
:100BE00000911AB99A685106F8D5F2E70098904733
:100BF000F2E7026893685C06EBD4036BC16A146980
:100C00008B42019404D2826A0199D154036B026829
:100C10009168013349060363F0D502B010BD00BFEF
:100C200070B5036882B01A6A044692071D460ED555
:100C300090F88020022A36D0012A9A6803D190E0E9
:100C40001A6901929A685206FAD50222DA602A6A73
:100C5000D60709D594F88020022A28D02046FFF72D
:100C60005DFF23680122DA602A6AD00648D42A6A26
:100C700051075CD42A6A12070BD5DA6A94F88010FF
:100C800042F008020229DA625CD001297FD00822F2
:100C9000DA602B6A9B060DD402B070BD1969626FD1
:100CA0000191002A59D19A685606F7D5CDE7A26F6F
:100CB0005A61D7E72046FFF77BFF236A256B002B9D
:100CC00063D023680022102162626261A261E26146
:100CD000D9609A6A0A439A62DA6A002642F00C02E4
:100CE00026612046DA62FFF719FFE36F266313B12E
:100CF0002946A06A984723682022DA6002B070BDB6
:100D00002046FFF755FF236A2BB1A06A216B984755
:100D10002046FFF703FF236810219A6A012022F082
:100D2000100260629A62D9602A6A5107A2D5DA6A13
:100D3000204642F00402DA62FFF78CFE23680422A8
:100D4000DA6097E71A68A16F22F47F0222F47F42EB
:100D500042F480721A60596199E7019890472368BC
:100D6000A1E750063FF571AF226BE16A1869914225
:100D7000019004D9A36A01999954226B2368996858
:100D8000013249062263F0D55FE72368A4E7002318
:100D900023612046FFF7C2FE236878E7684620F00B
:100DA00007018D4601B50348FFF73AFFBDE8014052
:100DB0008546704750050020684620F007018D46A3
:100DC00001B50348FFF72CFFBDE801408546704799
:100DD000CC0400202DE9F041224CDFF894E0246897
:100DE000214D4FEA840C0CEB04064FEA8608F7010C
:100DF00008F1402606F58036BE44CEF8043045445E
:100E00007060B1606E68B2F5803F4FEA16464FEAF7
:100E100006466E601BD86B6892B214491A430023D1
:100E20006A600B616444104AA3001A445168E401EB
:100E300004F1844303F5201341F4E001012500246B
:100E40005160C3F8C051C3F8CC41BDE8F081074BF5
:100E5000A2F5803201F5803100F580301A61D96049
:100E60009860DFE7C804002008400140AC0400207F
:100E7000C0012842684620F007018D4679B5204818
:100E8000204A0368204C03EB8301890003F5287591
:100E9000012644F825600A4451683344042B08BFF6
:100EA000002321F4E00151600360184B1A697AB104
:100EB0001748016804290CBF0021013101609868BE
:100EC000D9681B7DFFF786FFBDE8794085467047EE
:100ED00002680C4902EB8202920011444A68084CF5
:100EE00012F4E002F0D10A4D5968012022602A6014
:100EF00018700029E8D08847BDE8794085467047DA
:100F0000C40400200840014000002842AC04002036
:100F1000C8040020684620F007018D46244B31B5F7
:100F20001B6813F4706F19D0224C23689900CA18FB
:100F3000D20102F1844202F52012D2F808223AB11D
:100F40001D4A02205568107015B1A8472368990002
:100F50000B441A4ADB011A4453680BBB144B1B6841
:100F600013F4704F05D0144B04205A68187002B166
:100F70009047BDE83140124A12490123C2F8C831F6
:100F80008546C2F8803AC2F84834C1F8803AC2F8BF
:100F9000C836C1F8843AC2F84839C1F8883A70476F
:100FA000054B03205A681870002AD7D09047D5E720
:100FB00000400140C4040020AC0400200802284284
:100FC0000000284204002842F0B5044683B030B146
:100FD000072B1E4603D8B2F5005F154601D303B0B8
:100FE000F0BD0F4601F10800D1B2FFF75FFB05F439
:100FF0007F4146EA511107F10C00FFF757FB2760CC
:1010000007F11000FFF754FB82070CD5206804306D
:10101000FFF74EFB23688DF8070003F11000FFF780
:1010200047FB8307F2D40023237103B0F0BD00BF58
:1010300098B191B18AB170B504460D468E182068FA
:101040001030FFF735FBC307F9D515F8011B2068F1
:10105000FFF72CFBB542F2D170BD7047F8B508B16F
:1010600001B112B900252846F8BD044600681746AC
:1010700010300E46FFF71CFB2379820743EA00037A
:101080002371EFD5013E002501E0BD42EBD0206881
:1010900001350430FFF70CFB06F8010F2068103013
:1010A000FFF706FB2379034323718307EDD428461A
:1010B000F8BD00BF034628B100790022C0F38200CA
:1010C0001A717047FF20704738B5104B0829054644
:1010D0005C5C00680CD90C30FFF7EAFA2B6840EA38
:1010E0000401C9B203F10C00BDE83840FFF7DEBAD5
:1010F0000830FFF7DDFA2B6840EA0401C9B203F1BA
:101100000800BDE83840FFF7D1BA00BF74170000EF
:1011100038B5104B082905465C5C00680CD90C30CA
:10112000FFF7C6FA2B6820EA0401C9B203F10C00EC
:10113000BDE83840FFF7BABA0830FFF7B9FA2B68B4
:1011400020EA0401C9B203F10800BDE83840FFF706
:10115000ADBA00BF7417000070B5044616461D46B0
:10116000016001F108000021FFF7A0FA20680021CA
:101170000C30FFF79BFA31462068FFF767FA2068CA
:1011800029460430FFF762FA206800211030FFF78B
:101190005DFA206800211830FFF758FA2068002116
:1011A0002030FFF753FA206800212830FFF74EFA6D
:1011B000206800213030FFF749FA206800213830DC
:1011C000FFF744FA206800214030FFF73FFA20681B
:1011D00000214830FFF73AFA206800215030FFF72D
:1011E00035FA206800215830FFF730FA20680021D6
:1011F0006030FFF72BFA206800216830FFF726FAED
:10120000206800217030FFF721FA20680021783033
:10121000FFF71CFA206800218030FFF717FA2068DA
:1012200000218830BDE87040FFF710BA70B54C1E41
:101230000F2C04D822B9BDE87040FFF769BF70BD1C
:1012400006460C4615460B4A036852F82100002159
:101250001844FFF7FBF9084A336852F8240029467E
:101260001844FFF7F3F930462146BDE87040FFF718
:101270002BBF00BF881700003017000070B506466E
:101280000C46027101F180053160204600210434D2
:10129000FFF70CFAAC42F8D13379012B21D00AD3F5
:1012A000022B07D130684FF0FF318030BDE870402D
:1012B000FFF7CCB970BD3068FF218030FFF7F6F939
:1012C0003068FF218430FFF7F1F93068FF21883062
:1012D000FFF7ECF93068FF218C30BDE87040FFF774
:1012E000E5B930684FF6FF718030FFF7C7F9306815
:1012F0004FF6FF71BDE870408430FFF7BFB900BF03
:101300001F290B4600D970470068114600EB830087
:10131000FFF79CB938B503790446012B0D4621D05F
:1013200008D3022B05D1BDE838400068A030FFF794
:101330008DB938BD0068C9B2A030FFF7B7F9206891
:10134000C5F30721A430FFF7B1F92068C5F30741C1
:10135000A830FFF7ABF92068290EAC30BDE8384063
:10136000FFF7A4B9006889B2A030FFF787F92068B9
:10137000290CA430BDE83840FFF780B91F29006868
:1013800000D9704710B500EB81042046FFF790F9B3
:1013900040F00801C9B22046BDE81040FFF786B909
:1013A000F0B5884889B04FF0A041042240F69F7301
:1013B000FFF7D2FE00250123834884491A220095B5
:1013C0000195029503950495059506950795FFF7F8
:1013D000FBFD7D487E490C22FFF72AFEFFF78AF8C5
:1013E0007C487D490222FFF749FF294679480522BA
:1013F000FFF786FF774801210522FFF781FF0522CD
:1014000074480221FFF77CFF744B72481968FFF79C
:1014100081FF29466F484322FFF772FF6D48012183
:101420004322FFF76DFF05226A480221FFF768FF9C
:1014300029466848FFF7A2FF66480121FFF79EFF93
:10144000674B0820102760265021664A5860DFF855
:101450009CC15F604FF4804083F8236383F82413BA
:101460001168C3F88000DCF848605F4A4FF04027FD
:1014700026F0400E01EB81010126CCF848E07D65A5
:10148000C2F88051C2F88851C2F884513E61C3F855
:1014900080017960C2F88061C2F8886118604A48AA
:1014A000FFF708FE28B3002CF9D09DF80030412B3F
:1014B00026D0422B32D0432B3ED0442B4AD0452B52
:1014C00056D0472B62D0492B6ED04A2BE7D100254E
:1014D0003C48082101228DF80050FFF7A7FE39484B
:1014E0002A460821FFF7A2FE3748FFF7E3FD002850
:1014F000D9D1354869462022FFF7B0FD0446D2E72E
:1015000001210A4600252F488DF80050FFF78EFE76
:101510002A462C480121FFF789FEC0E7002529480B
:10152000022101228DF80050FFF780FE2A4625484F
:101530000221FFF77BFEB2E70025224803210122AA
:101540008DF80050FFF772FE2A461E480321FFF770
:101550006DFEA4E700251B48042101228DF80050F0
:10156000FFF764FE2A4617480421FFF75FFE96E75F
:1015700000251448052101228DF80050FFF756FE82
:101580002A4610480521FFF751FE88E700250D483F
:10159000062101228DF80050FFF748FE2A4609482F
:1015A0000621FFF743FE7AE70025064807210122BE
:1015B0008DF80050FFF73AFE2A4602480721FFF750
:1015C00035FE6CE7E4050020DC050020002000501B
:1015D00024000020D405002000100030200000204E
:1015E00000E100E0140000200000084200800340F9
:1015F00070B50F4E0F4D761BB61018BF002405D0E6
:10160000013455F8043B9847A642F9D10A4E0B4DD8
:1016100000F0E4F8761BB61018BF002406D00134A1
:1016200055F8043B9847A642F9D170BD70BD00BF84
:10163000F4170000F4170000FC170000F417000076
:10164000024B13B1024800F005B8704700000000DB
:1016500061160000014600200246034600F016B85D
:1016600038B5084B084DED1AAC1018BFED1805D071
:10167000013C55F8043D9847002CF9D1BDE83840AD
:1016800000F0B2B8FC170000001800002DE9F04788
:10169000254C064625688846D5F848419246994625
:1016A000C4B360681F2817DC411C76B104EB8003CB
:1016B000C3F888A0D4F88851012282401543022E35
:1016C000C4F88851C3F808911ED0831C61600020C3
:1016D00044F82380BDE8F087144B03B34FF4C8707F
:1016E000AFF300800446D0B1D5F84831002784E834
:1016F00088003846C5F848410121C4F88871C4F80B
:101700008C71002EE1D0D1E7D4F88C311A43C4F8A3
:101710008C21DAE705F5A674C5F84841C1E74FF01A
:10172000FF30BDE8F08700BFD817000000000000C0
:1017300000000000140000001C0000002400000055
:101740002C000000340000003C00000044000000B9
:101750004C000000540000005C0000006400000029
:101760006C000000740000007C0000008400000099
:101770008C000000000102040810204080010204D7
:101780000810204080000000000000001000000051
:1017900018000000200000002800000030000000B9
:1017A0003800000040000000480000005000000029
:1017B0005800000060000000680000007000000099
:1017C0007800000080000000880000000001000197
:1017D000020203034300000030000020F8B500BF00
:1017E000F8BC08BC9E467047F8B500BFF8BC08BC02
:1017F0009E4670474116000015060000F1050000E6
:1018000000000000003B5808C00E1602801D2C048A
:10181000003B5808003B5808003B5808003B58085C
:101820000200000048656C6C6F20576F726C64009A
:10183000000000001C03002084030020EC030020B3
:101840000000000000000000000000000000000098
:101850000000000000000000000000000000000088
:1018600000000000D417000000000000000000008D
:101870000000000000000000000000000000000068
:101880000000000000000000000000000000000058
:101890000000000000000000000000000000000048
:1018A0000000000000000000000000000000000038
:1018B0000000000000000000000000000000000028
:1018C0000000000000000000000000000000000018
:1018D0000000000000000000010000000000000007
:1018E0000E33CDAB34126DE6ECDE05000B000000CC
:1018F00000000000000000000000000000000000E8
:1019000000000000000000000000000000000000D7
:1019100000000000000000000000000000000000C7
:1019200000000000000000000000000000000000B7
:040000030000019167
:00000001FF
