:1000000000000120910100007F0300008103000037
:100010008303000085030000870300000000000048
:100020000000000000000000000000008903000044
:100030008B030000000000008D0300008F03000010
:1000400091030000930300006D0C0000890C000078
:10005000990300009B0300009D0300009F03000024
:10006000A1030000A3030000A5030000A7030000F4
:10007000A9030000AB0300001D150000AF03000042
:10008000B1030000B3030000B50300004106000007
:10009000B9030000BB030000BD030000BF03000064
:1000A000C1030000C3030000C5030000450D0000AC
:1000B000E50D0000CB030000CD030000CF030000DE
:1000C000D1030000D3030000D5030000F92E000087
:1000D000D9030000DB030000DD030000DF030000A4
:1000E000E1030000E3030000E5030000E703000074
:1000F000E9030000EB030000ED030000EF03000044
:10010000F1030000F3030000F5030000F703000013
:10011000F9030000FB030000FD030000FF030000E3
:1001200001040000030400000504000007040000AF
:10013000090400000B0400000D0400000F0400007F
:10014000110400001304000015040000170400004F
:10015000190400001B0400001D0400001F0400001F
:1001600021040000230400002504000027040000EF
:10017000290400002B0400002D0400002F040000BF
:100180003104000033040000000000000000000003
:100190004FF0000BDFF8BE020068DFF8B612096806
:1001A00001F0030100F01C00142801D14BF0020BF8
:1001B000002901D04BF0010BBBF1000F05D0A7487F
:1001C000A749DFF8722200F09FF8A64880470BF09D
:1001D000020ABAF1000F0CD0DFF86E02DFF86E12DF
:1001E00002680B680FB44FF000024FF0FF0302608B
:1001F0000B609D489D4A9E4B022808D1DFF83E12B5
:100200000A60DFF842120A60DFF836120B6001283C
:1002100008D1DFF82E120A60DFF82A120A60DFF830
:100220001E120B609348002809D193489349944AC1
:1002300000F032F893489449944A00F02DF894481D
:100240009449954A00F028F894489549DFF8E6214A
:1002500000F05AF8BBF1000F12D092489249DFF833
:10026000DA2100F051F80BF0020ABAF1000F07D0C2
:100270000FBC02600B6000BFAFF30080AFF30080E3
:10028000DFF828020FF2030E00474FF000004FF096
:100290000001DFF81CF2FEE72DE9F841884225D085
:1002A000B2EB010200D5FEE740EA010313F00303BD
:1002B00002D000F01DF819E04FF000039046121133
:1002C000F7D09A421CBFF0C8F0C103F10103F8D186
:1002D00008F00F08B8F1000F08D004780C7000F196
:1002E000010001F10101B8F10108F6D1BDE8F88182
:1002F00008B54FF0000303780B7000F1010001F125
:100300000101013AF7D108BD884237D000F0030659
:10031000002E14D04FF00405A5EB06044FF008079B
:1003200007FB06F8914669FA08F9002C07D080F817
:10033000009069FA07F900F10100013CF5E74FF080
:1003400000060F46091A88460911914614461546BB
:10035000B14206D018BFA0E8340206F10106B1424E
:10036000F8D108F00F08B8F1000F07D002704FEA7B
:10037000322200F10100B8F10108F4E77047FEE70E
:10038000FEE7FEE7FEE7FEE7FEE7FEE7FEE7FEE745
:10039000FEE7FEE7FEE7FEE7FEE7FEE7FEE7FEE735
:1003A000FEE7FEE7FEE7FEE7FEE7FEE7FEE7FEE725
:1003B000FEE7FEE7FEE7FEE7FEE7FEE7FEE7FEE715
:1003C000FEE7FEE7FEE7FEE7FEE7FEE7FEE7FEE705
:1003D000FEE7FEE7FEE7FEE7FEE7FEE7FEE7FEE7F5
:1003E000FEE7FEE7FEE7FEE7FEE7FEE7FEE7FEE7E5
:1003F000FEE7FEE7FEE7FEE7FEE7FEE7FEE7FEE7D5
:10040000FEE7FEE7FEE7FEE7FEE7FEE7FEE7FEE7C4
:10041000FEE7FEE7FEE7FEE7FEE7FEE7FEE7FEE7B4
:10042000FEE7FEE7FEE7FEE7FEE7FEE7FEE7FEE7A4
:10043000FEE7FEE7704700000000A2A2A2A2008033
:100440000340088003401080034030800340348024
:1004500003403880034018080240000000F00020EC
:1004600000000120E5130000000000000000000073
:10047000010000000000000000000000000000007B
:1004800090010000C0040000C004000050450000BE
:1004900050450000000000205004002050040020BF
:1004A000E0050020E005002000F0002041430000AE
:1004B0008D3400000000000000000000000000007B
:1004C00010B5054C237833B9044B13B10448AFF38E
:1004D00000800123237010BD5004002000000000A4
:1004E0002C450000084B10B51BB108480849AFF374
:1004F00000800848036803B910BD074B002BFBD0F0
:10050000BDE81040184700BF000000002C45000067
:10051000540400200000002000000000016070472B
:10052000006870470EB503FA01F303EA020301689D
:100530006FEA020201EA020141EA030101600EBD15
:10054000006800EA020020FA01F07047018070475D
:10055000008870470EB503FA01F303EA020301882D
:100560006FEA020201EA020141EA030101800EBDC5
:10057000008800EA020020FA01F07047017070471D
:10058000007870470EB503FA01F303EA020301781D
:100590006FEA020201EA020141EA030101700EBDA5
:1005A000007800EA020020FA01F0704730B4124CE3
:1005B00082B0236823F004032360636803F001031F
:1005C0000193019BABB181B1451E002201E08A423B
:1005D0000BD015F8013F01322361636803F001037A
:1005E0000193019B002BF2D11146084602B030BCAA
:1005F00070471946F9E700BF006001400B4B10B58A
:100600000B4C1988236889B233B10A4A106898479D
:10061000094A002313702360084B1A46196841F0F9
:10062000010119601368DB07FCD410BD8C040020A5
:100630008804002094040020780400200060014019
:10064000944AF8B553689468DBB21C40A0071DD4E7
:10065000E10700D4F8BD904E3378022B60D0052B13
:100660002FD0012B4ED08B4A8C4C936823F0010382
:10067000936023683BB18A4A002110689847894AF1
:1006800000231370236000233370F8BD1069824E7D
:1006900020F4FF43327823F07F039DB2C0B2052AD5
:1006A00000F2BB80DFE812F090009C009C00A400E8
:1006B00063004F007C4B1A68002A40F08E80E307ED
:1006C000C8D57A4C236883B9794B1B68002B00F09E
:1006D000D180784898472060236833B96D4A032158
:1006E000936823F001039360317023686F4C002BF3
:1006F00040F0B480674A0321936823F001039360BC
:100700003170F8BD6C4C23889BB2002B40F0928076
:10071000644B1B78002B9DD0BDE8F840FFF76EBFFF
:10072000624C2368002BF3D0624D21682868FFF7E4
:100730003DFF23689842DDD223682A681B1A1044C3
:1007400023602860F8BD002DB4D1554B534F1A6873
:100750003B6850702BB1104602219847514B3D60C9
:100760001D7000233370E2077FF574AF7BE7002D27
:100770002FD1524A4A4913880D689BB22B4413F873
:10078000013CF12B00F0A5804D49138809889BB2EC
:100790008B4206D217881388BFB201339BB2E8554B
:1007A00013801388454A9BB299427FF451AF3B4F67
:1007B00013883A6899B2002AD3D028469047394A1C
:1007C000002313703B60CCE7002DCCD0F12800F063
:1007D0009080354B1A68002AC5D01B68984737E7C8
:1007E000002D3FF435AF304B1A68002AF5D12FE7C2
:1007F000002DB8D0334B1B789842EAD12F4A002302
:1008000013801188264D13882F68013389B29BB25B
:100810000425138078543570A5E7204D2B68002BF4
:100820009FD01F4A0021106898471E4A002313706A
:100830002B6096E7244F21883D6889B22846FFF750
:10084000B5FE23889BB298421CD30022174B22800E
:100850001B68002B3AD002233370F8BD154D216878
:100860002868FFF7A3FE2A6823680244181A2A6042
:100870002060F8BD0B4B1B78002B3FF436AFFFF721
:10088000BDFE32E7238805441B1A9BB23D602380DE
:10089000F8BD00BF006001409804002088040020DB
:1008A00094040020780400207C04002090040020A0
:1008B0007004002084040020800400208C040020A8
:1008C0006C0400209904002074040020032333707A
:1008D000F8BD1188104F13888AB29BB23968A854AA
:1008E0001D4415F8010C00293FF43BAF3B689847C5
:1008F00037E70A4B00271F8019881A88084D0132F4
:1009000092B21A801B882D688AB29BB20421A85427
:100910003170EF5427E700BF7C0400208C040020D6
:10092000940400202C4A036890422DE9F04F1C6883
:10093000D3F81880D3F804C0D3F828E01F6B5E6B9F
:10094000DD692CD0254A26491346D1F84890DFF8B6
:1009500098A04FF0030B026080F804B049F480695E
:100960000820C1F84890CAF88001886C20F48060A3
:100970008864116821F00041116024F001021A60BE
:10098000C3F81880C3F804C01A6842F001021A6064
:10099000C3F828E01F635E63DD61BDE8F08F104A95
:1009A0001049936CDFF8409043F400734FF0020B52
:1009B0004FF0040A016080F804B09364C9F880A184
:1009C000D2F84890036829F4007090640A6822F015
:1009D00000420A60D1E700BF40050020001001403E
:1009E000008003400010004000E100E0026830B4E5
:1009F0009368DD053DD40369C568AB4210D28168B8
:100A0000194401E0AB420BD211F8014B01335461A0
:100A100094680361E405F5D5AB4201D230BC704760
:100A20009368DD0510D4C36985699D4224D9416965
:100A3000194401E0AB4207D211F8014B0133546174
:100A40009468C361E405F5D5436A002BE6D0C1691B
:100A500083699942E2D3906810F48070DED120233C
:100A600001E0013BDAD050619168C905F9D530BC8D
:100A70007047C5680369CFE7436A002BEBD1CDE728
:100A800010B590F8803082B0022B0CD0012B18D01A
:100A900003689A68520604D41A6900929A6852064A
:100AA000FAD502B010BD0446236803E01969626FED
:100AB00000911AB99A685106F8D5F2E70098904764
:100AC000F2E7026893685C06EBD4036BC16A1469B1
:100AD0008B42019404D2826A0199D154036B02685B
:100AE0009168013349060363F0D502B010BD00BF21
:100AF00070B5036882B01A6A044692071D460ED587
:100B000090F88020022A36D0012A9A6803D190E01A
:100B10001A6901929A685206FAD50222DA602A6AA4
:100B2000D60709D594F88020022A28D02046FFF75E
:100B30005DFF23680122DA602A6AD00648D42A6A57
:100B400051075CD42A6A12070BD5DA6A94F8801030
:100B500042F008020229DA625CD001297FD0082223
:100B6000DA602B6A9B060DD402B070BD1969626F02
:100B70000191002A59D19A685606F7D5CDE7A26FA0
:100B80005A61D7E72046FFF77BFF236A256B002BCE
:100B900063D023680022102162626261A261E26177
:100BA000D9609A6A0A439A62DA6A002642F00C0215
:100BB00026612046DA62FFF719FFE36F266313B15F
:100BC0002946A06A984723682022DA6002B070BDE7
:100BD0002046FFF755FF236A2BB1A06A216B984787
:100BE0002046FFF703FF236810219A6A012022F0B4
:100BF000100260629A62D9602A6A5107A2D5DA6A45
:100C0000204642F00402DA62FFF78CFE23680422D9
:100C1000DA6097E71A68A16F22F47F0222F47F421C
:100C200042F480721A60596199E7019890472368ED
:100C3000A1E750063FF571AF226BE16A1869914256
:100C4000019004D9A36A01999954226B2368996889
:100C5000013249062263F0D55FE72368A4E7002349
:100C600023612046FFF7C2FE236878E7684620F03C
:100C700007018D4601B50348FFF73AFFBDE8014083
:100C80008546704740050020684620F007018D46E4
:100C900001B50348FFF72CFFBDE8014085467047CA
:100CA000BC0400202DE9F041224CDFF894E02468D8
:100CB000214D4FEA840C0CEB04064FEA8608F7013D
:100CC00008F1402606F58036BE44CEF8043045448F
:100CD0007060B1606E68B2F5803F4FEA16464FEA29
:100CE00006466E601BD86B6892B214491A43002303
:100CF0006A600B616444104AA3001A445168E4011D
:100D000004F1844303F5201341F4E001012500249C
:100D10005160C3F8C051C3F8CC41BDE8F081074B26
:100D2000A2F5803201F5803100F580301A61D9607A
:100D30009860DFE7B8040020084001409C040020D0
:100D4000C0012842684620F007018D4679B5204849
:100D5000204A0368204C03EB8301890003F52875C2
:100D6000012644F825600A4451683344042B08BF27
:100D7000002321F4E00151600360184B1A697AB135
:100D80001748016804290CBF0021013101609868EF
:100D9000D9681B7DFFF786FFBDE87940854670471F
:100DA00002680C4902EB8202920011444A68084C26
:100DB00012F4E002F0D10A4D5968012022602A6045
:100DC00018700029E8D08847BDE87940854670470B
:100DD000B404002008400140000028429C04002088
:100DE000B8040020684620F007018D46244B31B539
:100DF0001B6813F4706F19D0224C23689900CA182D
:100E0000D20102F1844202F52012D2F808223AB14E
:100E10001D4A02205568107015B1A8472368990033
:100E20000B441A4ADB011A4453680BBB144B1B6872
:100E300013F4704F05D0144B04205A68187002B197
:100E40009047BDE83140124A12490123C2F8C83127
:100E50008546C2F8803AC2F84834C1F8803AC2F8F0
:100E6000C836C1F8843AC2F84839C1F8883A7047A0
:100E7000054B03205A681870002AD7D09047D5E751
:100E800000400140B40400209C04002008022842D5
:100E90000000284204002842F0B5044683B030B177
:100EA000072B1E4603D8B2F5005F154601D303B0E9
:100EB000F0BD0F4601F10800D1B2FFF75FFB05F46A
:100EC0007F4146EA511107F10C00FFF757FB2760FD
:100ED00007F11000FFF754FB82070CD5206804309F
:100EE000FFF74EFB23688DF8070003F11000FFF7B2
:100EF00047FB8307F2D40023237103B0F0BD00BF8A
:100F000098B191B18AB170B504460D468E1820682B
:100F10001030FFF735FBC307F9D515F8011B206822
:100F2000FFF72CFBB542F2D170BD7047F8B508B1A0
:100F300001B112B900252846F8BD044600681746DD
:100F400010300E46FFF71CFB2379820743EA0003AB
:100F50002371EFD5013E002501E0BD42EBD02068B2
:100F600001350430FFF70CFB06F8010F2068103044
:100F7000FFF706FB2379034323718307EDD428464B
:100F8000F8BD00BF034628B100790022C0F38200FB
:100F90001A717047FF20704738B5104B0829054675
:100FA0005C5C00680CD90C30FFF7EAFA2B6840EA69
:100FB0000401C9B203F10C00BDE83840FFF7DEBA06
:100FC0000830FFF7DDFA2B6840EA0401C9B203F1EB
:100FD0000800BDE83840FFF7D1BA00BFC4440000A4
:100FE00038B5104B082905465C5C00680CD90C30FC
:100FF000FFF7C6FA2B6820EA0401C9B203F10C001E
:10100000BDE83840FFF7BABA0830FFF7B9FA2B68E5
:1010100020EA0401C9B203F10800BDE83840FFF737
:10102000ADBA00BFC444000070B5044616461D4664
:10103000016001F108000021FFF7A0FA20680021FB
:101040000C30FFF79BFA31462068FFF767FA2068FB
:1010500029460430FFF762FA206800211030FFF7BC
:101060005DFA206800211830FFF758FA2068002147
:101070002030FFF753FA206800212830FFF74EFA9E
:10108000206800213030FFF749FA2068002138300D
:10109000FFF744FA206800214030FFF73FFA20684C
:1010A00000214830FFF73AFA206800215030FFF75E
:1010B00035FA206800215830FFF730FA2068002107
:1010C0006030FFF72BFA206800216830FFF726FA1E
:1010D000206800217030FFF721FA20680021783065
:1010E000FFF71CFA206800218030FFF717FA20680C
:1010F00000218830BDE87040FFF710BA4B1E0F2B5F
:1011000001D8FFF76DBF704770B54C1E0F2C04D887
:1011100022B9BDE87040FFF763BF70BD06460C46BC
:1011200015460B4A036852F8210000211844FFF7C6
:10113000F5F9084A336852F8240029461844FFF7A5
:10114000EDF930462146BDE87040FFF725BF00BFEE
:10115000D84400008044000070B506460C46027179
:1011600001F180053160204600210434FFF706FAC2
:10117000AC42F8D13379012B21D00AD3022B07D10D
:1011800030684FF0FF318030BDE87040FFF7C6B9DE
:1011900070BD3068FF218030FFF7F0F93068FF2123
:1011A0008430FFF7EBF93068FF218830FFF7E6F96C
:1011B0003068FF218C30BDE87040FFF7DFB9306840
:1011C0004FF6FF718030FFF7C1F930684FF6FF71BD
:1011D000BDE870408430FFF7B9B900BF1F290B4646
:1011E00000D970470068114600EB8300FFF796B9FD
:1011F00038B503790446012B0D4621D008D3022BC4
:1012000005D1BDE838400068A030FFF787B938BD88
:101210000068C9B2A030FFF7B1F92068C5F3072113
:10122000A430FFF7ABF92068C5F30741A830FFF7FA
:10123000A5F92068290EAC30BDE83840FFF79EB90B
:10124000006889B2A030FFF781F92068290CA4302A
:10125000BDE83840FFF77AB9037970B5012B044631
:1012600024D009D3022B05D1BDE87040006890302E
:10127000FFF756B9002070BD00689030FFF780F985
:10128000054620689430FFF77BF9064620689830C1
:10129000FFF776F92368000440EA062403F19C0076
:1012A000FFF76EF92C4344EA006070BD006890308F
:1012B000FFF74EF9054620689430FFF749F945EAF3
:1012C000004070BD037970B5012B044624D009D3CA
:1012D000022B05D1BDE870400068A030FFF720B9AF
:1012E000002070BD0068A030FFF732F90546206885
:1012F000A430FFF72DF906462068A830FFF728F93B
:101300002368000440EA062403F1AC00FFF720F94B
:101310002C4344EA006070BD0068A030FFF718F964
:1013200005462068A430FFF713F945EA004070BD78
:101330001F29006800D9704710B500EB81042046D2
:10134000FFF71EF940F00801C9B22046BDE8104081
:10135000FFF714B91F29006800D9704710B500EBDA
:1013600081042046FFF70CF920F008012046BDE873
:101370001040FFF703B900BF38B503790124012BF2
:10138000054604FA01F420D009D3022B06D10068E7
:101390002146BDE838408030FFF7C0B838BD00684E
:1013A00021468030FFF7EAF82868210A8430FFF7E9
:1013B000E5F82868210C8830FFF7E0F82868210E4E
:1013C0008C30BDE83840FFF7D9B80068214680303E
:1013D000FFF7BCF82868210C8430BDE83840FFF7DF
:1013E000B5B800BF4FF602020C4BD3F84C11914236
:1013F00006D00B4A536943F400735361FFF71AB8E0
:10140000D3F8982042F48072C3F89820D3F898203B
:1014100022F08062C3F89820EBE700BF0080034011
:1014200000ED00E0F0B52E4B83B0D3F898205101C9
:1014300017D4D3F89820D2042ED56A4629490868D3
:10144000496803C2D3F89C2002A9C2F382120A445D
:1014500012F8082C012A36D003D3DFF8BCE0224B67
:1014600009E0D3F85011214A11F0040F204B18BFA6
:101470001346DFF8A4E01F4F1F4E204D204C21489B
:10148000214A2249CEF800303B6033602B60236054
:101490000360116003B0F0BD1D4BDFF87CC0DFF8C6
:1014A00054E0154F164E174D1748184C134A19495A
:1014B000CCF80030CEF800303B6033602B60046025
:1014C000116003B0F0BDDFF850E00A4F0A4E0B4D3B
:1014D0000B4C0C480C4A0D494FF40043D2E700BFB7
:1014E000008003401C45000040420F0080F0FA02DB
:1014F00040787D0114000020180000200C0000201E
:10150000100000200400002008000020C00E160279
:10151000003B5808801D2C041C00002010B50D4C09
:101520002046FFF7CFFE02460B4B20461A601A6892
:1015300082F007021A601968FFF75AFE0748084947
:101540000222FFF7DDFC4FF0402301221A61BFF3B6
:101550004F8F10BDC405002020000020CC050020C6
:101560002400002000000000012910B50C460AD01C
:10157000022908D0032920D0042904D005292ED01F
:1015800006293AD010BD02F07BFA0022002302F0B7
:1015900019F921A3D3E9002302F0C6FA264B002251
:1015A00002F010F902F0D2FC02F0A4FE2146BDE8E0
:1015B000104002462148FFF7A7BD02F061FA002261
:1015C0001F4B02F0FFF80022002302F0FBF814A3E7
:1015D000D3E9002302F0A8FA00221A4BE0E702F058
:1015E0004FFA0022002302F0EDF80FA3D3E9002305
:1015F00002F09AFA0022144BD2E702F041FA0022DC
:10160000002302F0DFF80AA3D3E9002302F08CFAEA
:1016100000220E4BC4E700BF181818181818C83F4E
:101620001B1B1B1B1B1BCB3F5A5A5A5A5A5ACA3FE9
:10163000D9D8D8D8D8D8C83F00002840D405002031
:10164000008044400000204000002240000026406E
:1016500008B50B480621FFF787FF0A480421FFF76A
:1016600083FF09480521FFF77FFF08480221FFF7A4
:101670007BFFBDE8084006480321FFF775BF00BFA8
:10168000000048420000024300008C420000B842C3
:101690000000F04100B583B0A0B101281CD00228A1
:1016A0001FD0032813D000230193019B0F4A9342BC
:1016B00005DC019B01330193019B9342F9DD03B0EB
:1016C0005DF804FB0A480621FFF74EFFEBE70948E7
:1016D0000621FFF749FFE6E707480621FFF744FF29
:1016E000E1E706480621FFF73FFFDCE787F5040046
:1016F0000000F0420000DC420000024300004842CB
:101700002DE9F043012A83B09046054689461E46DE
:101710002AD02ABB0846294602F0D8FD00B341F67C
:1017200064174C460A9B07FB03F720460B99FFF70B
:101730001BFFCDF80480019B9F4205DD019B013317
:101740000193019B9F42F9DC3146204602F052FC96
:1017500081462846494602F0AFFD08B14C46E4E711
:10176000204603B0BDE8F0830846294602F0A4FDF8
:101770000028F5D041F664174C460A9B4FF000084C
:1017800007FB03F720460B99FFF7EEFECDF800802C
:10179000009B9F4205DD009B01330093009BBB42F1
:1017A000F9DB3146204602F027FC814628464946AF
:1017B00002F08CFD0028D3D04C46E3E710B505229B
:1017C0008AB002238DE80C00544800224FF07E536B
:1017D0005349FFF795FF00230293029B514A93421E
:1017E00005DC029B01330293029B9342F9DD022048
:1017F000FFF750FF0A2203238DE80C004A4801221C
:101800004FF07E534949FFF77BFF00230393039B6F
:10181000444A934205DC039B01330393039B9342A9
:10182000F9DD00230493049B414A934205DC049BA9
:1018300001330493049B9342F9DD0320FFF72AFF51
:1018400000230593059B3B4A934205DC059B01332E
:101850000593059B9342F9DD0A2203238DE80C00D2
:10186000354800224FF07E532F49FFF749FF0023F0
:101870000693069B2B4A934205DC069B0133069395
:10188000069B9342F9DD0A2203238DE80C002648CB
:1018900001224FF07E532849FFF732FF00230793C0
:1018A000079B264A934205DC079B01330793079B5E
:1018B0009342F9DD0220FFF7EDFE00230893089B19
:1018C0001E4A934205DC089B01330893089B934210
:1018D000F9DD0A2403230193134900224FF07E53BC
:1018E00000941248FFF70CFF0223019301224FF0EE
:1018F0007E5300940A480949FFF702FF0023099329
:10190000099B0E4A934205DC099B01330993099B0D
:101910009342F9DDFFF79CFE0AB010BD0000B6420D
:101920000000B8429F2E63000000A0420000F0417A
:101930003FD2DF03FF741903000082424F9731004A
:1019400000B50A2289B002238DE80C00404801222C
:101950004FF07E533F49FFF7D3FE00230293029BD3
:101960003D4A934205DC029B01330293029B934262
:10197000F9DD0A2203238DE80C00384801224FF0DC
:101980007E533749FFF7BCFE00230393039B324A83
:10199000934205DC039B01330393039B9342F9DDE0
:1019A0000A2204238DE80C002E4800224FF07E53BB
:1019B0002D49FFF7A5FE00230493049B264A93427A
:1019C00005DC049B01330493049B9342F9DD03205F
:1019D000FFF760FE00230593059B244A934205DC34
:1019E000059B01330593059B9342F9DD0A220423ED
:1019F0008DE80C001E4800224FF07E531949FFF776
:101A00007FFE00230693069B1A4A934205DC069B41
:101A100001330693069B9342F9DD0A2203238DE8E6
:101A20000C00154800224FF07E530C49FFF768FE6A
:101A300000230793079B084A934205DC079B013369
:101A40000793079B9342F9DD09B05DF804FB00BFE3
:101A50000000E0420000B8424F9731000000C84249
:101A60000000F0410000C442000002436F6D4500D9
:101A70000000C0422FC11D000000704200B50522C9
:101A800087B002238DE80C002D4800224FF07C53D4
:101A90002C49FFF735FE00230293029B2A4A93420A
:101AA00005DC029B01330293029B9342F9DD012284
:101AB00005238DE80C00224800224FF07E53234975
:101AC000FFF71EFE00230393039B214A934205DC8C
:101AD000039B01330393039B9342F9DD0A22042302
:101AE0008DE80C001B4800224FF07E531A49FFF787
:101AF00007FE00230493049B184A934205DC049BD1
:101B000001330493049B9342F9DD0A2203238DE8F9
:101B10000C00134801224FF07E531249FFF7F0FDED
:101B200000230593059B084A934205DC059B01337E
:101B30000593059B9342F9DD07B05DF804FB00BFF8
:101B4000000082420000E0424F97310000008C42CA
:101B50001FD613000000A0420000C0422FC11D008C
:101B60000000A8420000704200B50A2287B003239B
:101B70008DE80C00274801224FF07E532649FFF7DD
:101B8000BFFD00230393039B244A934205DC039B80
:101B900001330393039B9342F9DD052202238DE871
:101BA0000C001F4901224FF07C531E48FFF7A8FD8F
:101BB0000A2203238DE80C001B4800224FF07E53BD
:101BC0001449FFF79DFD00230493049B134A93429D
:101BD00005DC049B01330493049B9342F9DD134815
:101BE0000A2205238DE80C00014600224FF07E53A7
:101BF000FFF786FD00230593059B084A934205DC09
:101C0000059B01330593059B9342F9DD07B05DF811
:101C100004FB00BF0000B4420000A8424F9731000F
:101C200000008242000084420000484200007042EE
:101C300010B51C4884B00A240623014601930122F2
:101C40004FF07E530094FFF75BFD04230193164988
:101C500001224FF07E5300941448FFF751FD0223F8
:101C60000193134901224FF07E5300941148FFF76E
:101C700047FD0323019300224FF07E5300940E484A
:101C80000E49FFF73DFD00230393039B0C4A93424B
:101C900005DC039B01330393039B9342F9DD04B0FE
:101CA00010BD00BF0000DC420000A0420000024363
:101CB000000082420000B8420000F04100004842AB
:101CC0004F97310010B50A2288B002238DE80C002E
:101CD000444800224FF07E534349FFF711FD002393
:101CE0000293029B414A934205DC029B013302931B
:101CF000029B9342F9DD0A2203238DE80C003C4845
:101D000001224FF07E533B49FFF7FAFC0023039377
:101D1000039B364A934205DC039B01330393039BE9
:101D20009342F9DD0A2204238DE80C003248002298
:101D30004FF07E533149FFF7E3FC00230493049BEB
:101D40002A4A934205DC049B01330493049B93428B
:101D5000F9DD0A2203238DE80C00294801224FF007
:101D60007E532349FFF7CCFC00230593059B254AAE
:101D7000934205DC059B01330593059B9342F9DDF6
:101D80000320FFF787FC00230693069B1D4A93421E
:101D900005DC069B01330693069B9342F9DD0A247A
:101DA00004230193144900224FF07E5300940E48FF
:101DB000FFF7A6FC0323019300224FF07E5300940B
:101DC00011480F49FFF79CFC00230793079B074A24
:101DD000934205DC079B01330793079B9342F9DD90
:101DE00008B010BD000082420000B8429F2E630080
:101DF0000000AA420000F0410000C042000002437F
:101E00000000C8426F6D450000008C4200B5002301
:101E100089B00393039B394A934205DC039B01334A
:101E20000393039B9342F9DD052202238DE80C0006
:101E3000334801224FF07E533249FFF761FC002303
:101E40000493049B2D4A934205DC049B01330493C5
:101E5000049B9342F9DD0A2205238DE80C002A48F1
:101E600000224FF07E532949FFF74AFC00230593D7
:101E7000059B274A934205DC059B01330593059B8F
:101E80009342F9DD0A2204238DE80C002148002248
:101E90004FF07E532049FFF733FC00230693069B47
:101EA000164A934205DC069B01330693069B934238
:101EB000F9DD0A2203238DE80C00184801224FF0B7
:101EC0007E531249FFF71CFC00230793079B0B4A24
:101ED000934205DC079B01330793079B9342F9DD8F
:101EE0000A2205238DE80C00074901224FF07E539A
:101EF0000648FFF705FC09B05DF804FB9F2E630060
:101F00000000E042000082420000784200008C4263
:101F10004F9731000000A0420000F44200009E42B2
:101F200000B50A2285B003238DE80C001B4901226D
:101F30004FF07E531A48FFF7E3FB052202238DE89A
:101F40000C00184800224FF07E531749FFF7D8FBCA
:101F500000230293029B154A934205DC029B013346
:101F60000293029B9342F9DD0A2203238DE80C00C1
:101F70000F4800224FF07E530949FFF7C1FB0023B1
:101F80000393039B0B4A934205DC039B01330393AA
:101F9000039B9342F9DD05B05DF804FB00009C4211
:101FA0000000B4420000DA420000E0421FD61300F5
:101FB000000048424F97310010B5214884B00A24F0
:101FC00006230146019301224FF07E530094FFF750
:101FD00097FB042301931B4901224FF07E53009489
:101FE0001948FFF78DFB05230193184901224FF093
:101FF0007E5300941648FFF783FB02230193154993
:1020000001224FF07E5300941348FFF779FB03231E
:10201000019300224FF07E53009410481049FFF7BF
:102020006FFB00230393039B0E4A934205DC039B43
:1020300001330393039B9342F9DD04B010BD00BF4D
:102040000000DC420000A042000002430000784291
:1020500000008C420000DE420000B8420000F04167
:10206000000048424F97310000B50A2289B0022390
:102070008DE80C00454800224FF07C534449FFF79F
:102080003FFB00230293029B424A934205DC029BE2
:1020900001330293029B9342F9DD0A2203238DE868
:1020A0000C003D4801224FF07E533C49FFF728FBCE
:1020B00000230393039B3A4A934205DC039B0133BD
:1020C0000393039B9342F9DD0A2204238DE80C005D
:1020D000314800224FF07E533249FFF711FB0023B5
:1020E0000493049B304A934205DC049B0133049320
:1020F000049B9342F9DD0320FFF7CCFA00230593FC
:10210000059B2A4A934205DC059B01330593059BF9
:102110009342F9DD0F2203238DE80C001E490022B3
:102120004FF07E532248FFF7EBFA0A2204238DE892
:102130000C00204800224FF07E531749FFF7E0FAC9
:1021400000230693069B134A934205DC069B01334A
:102150000693069B9342F9DD0F2203238DE80C00C2
:10216000154800224FF07E531149FFF7C9FA0023AA
:102170000793079B074A934205DC079B01330793AC
:10218000079B9342F9DD09B05DF804FB0000AC4207
:102190000000B8424F9731000000C8420000F041F3
:1021A0005F823B00000002431FD613006F6D4500A5
:1021B0000000A0420000C64200008C4200B50A2286
:1021C00087B002238DE80C00214800224FF07E5397
:1021D0002049FFF795FA00230393039B1E4A93427D
:1021E00005DC039B01330393039B9342F9DD0A2231
:1021F00004238DE80C00194800224FF07E53184943
:10220000FFF77EFA00230493049B164A934205DCF1
:10221000049B01330493049B9342F9DD0F220323B3
:102220008DE80C00104801224FF07E530F49FFF754
:1022300067FA00230593059B0D4A934205DC059B35
:1022400001330593059B9342F9DD07B05DF804FB6C
:10225000000040420000AC425F823B0000009E4212
:102260000000C6424F9731000000A44200008C429B
:102270007F584F0010B50A2286B003238DE80C006A
:10228000304801224FF07E532F49FFF739FA0023DF
:102290000393039B2D4A934205DC039B0133039375
:1022A000039B9342F9DD0A2202238DE80C002848A3
:1022B00001224FF07E532749FFF722FA00230493AF
:1022C000049B224A934205DC049B01330493049B44
:1022D0009342F9DD0A24032301931A4900224FF0A7
:1022E0007E5300941C48FFF70BFA042301931B490B
:1022F00001224FF07E5300941948FFF701FA194864
:1023000005230146019301224FF07E530094FFF70D
:10231000F7F90223019301224FF07E5300941248F3
:102320001249FFF7EDF900230593059B104A9342EC
:1023300005DC059B01330593059B9342F9DD06B04F
:1023400010BD00BF0000B4420000A4421FD613001D
:1023500000004842000040420000F04100009E4260
:102360000000024300008C420000B84200003842E6
:102370004F97310000B50A2289B002238DE80C0086
:10238000404800224FF07E533F49FFF7B9F9002340
:102390000293029B3D4A934205DC029B0133029368
:1023A000029B9342F9DD0A2204238DE80C00384891
:1023B00000224FF07E533749FFF7A2F90023039321
:1023C000039B354A934205DC039B01330393039B34
:1023D0009342F9DD0A2203238DE80C002F480122E5
:1023E0004FF07E532E49FFF78BF900230493049B93
:1023F0002C4A934205DC049B01330493049B9342D3
:10240000F9DD0320FFF746F900230593059B264AD3
:10241000934205DC059B01330593059B9342F9DD4F
:102420000A2204238DE80C00204800224FF07E533E
:102430001749FFF765F900230693069B134A934259
:1024400005DC069B01330693069B9342F9DD0A22C5
:1024500003238DE80C00164800224FF07E530F49ED
:10246000FFF74EF900230793079B084A934205DCC8
:10247000079B01330793079B9342F9DD09B05DF891
:1024800004FB00BF000050420000B8424F973100EB
:102490000000A442000002430FEB09000000B0421C
:1024A0000000F0415F823B006F6D45000000A042DC
:1024B0000000824200B50A2287B002238DE80C009A
:1024C000274801224FF07E532649FFF719F90023D0
:1024D0000293029B244A934205DC029B0133029340
:1024E000029B9342F9DD0A2204238DE80C001F4869
:1024F00000224FF07E531E49FFF702F90023039399
:10250000039B1C4A934205DC039B01330393039B0B
:102510009342F9DD00230493049B174A934205DCA0
:10252000049B01330493049B9342F9DD0A220323A5
:102530008DE80C00114801224FF07E531049FFF73F
:10254000DFF800230593059B074A934205DC059BB2
:1025500001330593059B9342F9DD07B05DF804FB59
:102560000000BE42000050424F97310000008E42F2
:102570000000A0426F6D45001FD6130000009C4272
:102580000000824200B50A2285B003238DE80C00CA
:10259000164801224FF07E531549FFF7B1F800238A
:1025A0000293029B134A934205DC029B0133029380
:1025B000029B9342F9DD052202238DE80C000E48B0
:1025C00001224FF07C530D49FFF79AF80023039343
:1025D000039B0B4A934205DC039B01330393039B4C
:1025E0009342F9DD05B05DF804FB00BF0000AE4288
:1025F00000009C424F9731000000B6420000BE42EE
:102600001FD6130010B5052386B00A24019327496D
:1026100000224FF07E5300942548FFF771F8042301
:10262000019301224FF07E53009422482249FFF784
:1026300067F800230393039B204A934205DC039B26
:1026400001330393039B9342F9DD0A2203238DE8B0
:102650000C001B4800224FF07E531A49FFF750F838
:1026600000230493049B154A934205DC049B013329
:102670000493049B9342F9DD0A2202238DE80C00A7
:10268000114801224FF07E531049FFF739F800231B
:102690000593059B094A934205DC059B013305938D
:1026A000059B9342F9DD06B010BD00BF00008242D9
:1026B000000040420000024300008E424F9731006C
:1026C0000000F0410000AE420000B8420000B642F7
:1026D00000B50A2287B004238DE80C00304901229E
:1026E0004FF07E532F48FFF70BF80523009301931B
:1026F00001224FF07E532C482C49FFF701F80023AC
:102700000293029B2A4A934205DC029B0133029307
:10271000029B9342F9DD05230093019300224FF0C1
:102720007E5324482049FEF7EBFF00230393039BCD
:10273000214A934205DC039B01330393039B93429D
:10274000F9DD05230093019301224FF07E531648D3
:102750001849FEF7D5FF00230493049B164A9342C1
:1027600005DC049B01330493049B9342F9DD0523AC
:102770000093019300224FF07E530C480A49FEF764
:10278000BFFF00230593059B094A934205DC059B87
:1027900001330593059B9342F9DD07B05DF804FB17
:1027A0000000C842000002430000344300007042B1
:1027B0005F823B000000A0404F97310030B50A22F5
:1027C00089B005238DE80C00494801224FF07E5363
:1027D0004849FEF795FF00230293029B464A934225
:1027E00005DC029B01330293029B9342F9DD0A222E
:1027F00004238DE80C00414800224FF07E534049ED
:10280000FEF77EFF00230393039B3B4A934205DCC4
:10281000039B01330393039B9342F9DD0A220323B5
:102820008DE80C00354801224FF07E533149FEF708
:1028300067FF00230493049B324A934205DC049B08
:1028400001330493049B9342F9DD0220FEF722FF3B
:1028500000230593059B284A934205DC059B013321
:102860000593059B9342F9DD0A24032523490122A0
:102870004FF07E538DE830002348FEF741FF0523DB
:1028800001931B4901224FF07E5300941F48FEF72D
:1028900037FF00224FF07E538DE830001C481A4964
:1028A000FEF72EFF00230693069B134A934205DC96
:1028B000069B01330693069B9342F9DD0F480A22DB
:1028C00004238DE80C00014601224FF07E53FEF7F1
:1028D00017FF00230793079B074A934205DC079BDA
:1028E00001330793079B9342F9DD09B030BD00BF68
:1028F00000008C42000070424F9731000000A64259
:1029000000000243EFC594000000B4420000904272
:102910000000484200B50A228BB004238DE80C0069
:102920005C4901224FF07E535B48FEF7E9FE052328
:102930000093019301224FF07E5358485849FEF707
:10294000DFFE00230293029B564A934205DC029B62
:1029500001330293029B9342F9DD05230093019317
:1029600000224FF07E534E484C49FEF7C9FE00232B
:102970000393039B4C4A934205DC039B013303936F
:10298000039B9342F9DD05230093019301224FF04D
:102990007E5346484249FEF7B3FE00230493049B4E
:1029A000414A934205DC049B01330493049B934208
:1029B000F9DD05230093019300224FF07E53384840
:1029C0003A49FEF79DFE00230593059B354A934245
:1029D00005DC059B01330593059B9342F9DD052337
:1029E0000093019301224FF07E532C482C49FEF7AF
:1029F00087FE00230693069B2A4A934205DC069B2A
:102A000001330693069B9342F9DD0523009301935E
:102A100000224FF07E5322482049FEF771FE00232A
:102A20000793079B204A934205DC079B01330793DA
:102A3000079B9342F9DD05230093019301224FF098
:102A40007E531A481649FEF75BFE00230893089B45
:102A5000154A934205DC089B01330893089B934277
:102A6000F9DD05230093019300224FF07E530C48BB
:102A70000E49FEF745FE00230993099B094A93423C
:102A800005DC099B01330993099B9342F9DD0BB0E7
:102A90005DF804FB0000C6420000F04200002A433B
:102AA00000008C425F823B004F97310000002042C3
:102AB00000B50A2289B004238DE80C003F480022AB
:102AC0004FF07E533E49FEF71BFE00230293029B0C
:102AD0003C4A934205DC029B01330293029B9342E2
:102AE000F9DD05230093019300224FF07E53364811
:102AF0003649FEF705FE00230393039B314A9342B8
:102B000005DC039B01330393039B9342F9DD0F2202
:102B100003238DE80C002E4801224FF07E532D49EF
:102B2000FEF7EEFD00230493049B264A934205DC46
:102B3000049B01330493049B9342F9DD0220FEF7CA
:102B4000A9FD00230593059B1E4A934205DC059BC6
:102B500001330593059B9342F9DD052202238DE89D
:102B60000C001D4801224FF07C531949FEF7C8FDA7
:102B700000230693069B134A934205DC069B013310
:102B80000693069B9342F9DD0A2203238DE80C008D
:102B9000124801224FF07E530D49FEF7B1FD00238C
:102BA0000793079B0E4A934205DC079B013307936B
:102BB000079B9342F9DD09B05DF804FB0000A842D1
:102BC0000000F0424F9731000000884200008C4224
:102BD0000000AA42000096420000AC420000B04251
:102BE0001FD6130010B5042384B00A24019315499D
:102BF00001224FF07E5300941348FEF781FD052318
:102C00000193124901224FF07E5300941048FEF7C1
:102C100077FD0323019300224FF07E5300940D486B
:102C20000D49FEF76DFD00230393039B0B4A93426E
:102C300005DC039B01330393039B9342F9DD04B04E
:102C400010BD00BF0000A84200000C4300008842F5
:102C500000008C420000F0410000B0424F9731006C
:102C600030B596488DB00621FEF77EFC052404237E
:102C70000193934900224FF07E5300949148FEF750
:102C80003FFD02250A238DE828008F4901224FF0DD
:102C90007E538E48FEF734FD01224FF07E538C495F
:102CA000009401948B48FEF72BFD2846FEF7F2FCBA
:102CB00000230393039B884A934205DC039B013363
:102CC0000393039B9342F9DD0A2202238DE80C0053
:102CD0007E4901224FF07E537948FEF711FD08220C
:102CE00003238DE80C007D4901224FF07E537C4880
:102CF000FEF706FD052204238DE80C007948012229
:102D00004FF07E536F49FEF7FBFC00230493049BB6
:102D1000714A934205DC049B01330493049B934264
:102D2000F9DD0320FEF7B6FC052300930193012291
:102D30004FF07E5300206749FEF7E2FC0023059325
:102D4000059B654A934205DC059B01330593059B72
:102D50009342F9DD05230093019300224FF07E5347
:102D60005C480021FEF7CCFC00230693069B5A4AE0
:102D7000934205DC069B01330693069B9342F9DDE3
:102D8000082203238DE80C00554900224FF07E53A2
:102D90005248FEF7B5FC052204238DE80C0051498A
:102DA00000224FF07E534B48FEF7AAFC0220FEF7AC
:102DB00071FC00230793079B474A934205DC079B5E
:102DC00001330793079B9342F9DD0A2202238DE822
:102DD0000C00002000224FF07E534349FEF790FC88
:102DE00000230893089B3C4A934205DC089B01336F
:102DF0000893089B9342F9DD0320FEF74BFC052363
:102E00000093019301224FF07E5338480021FEF7D2
:102E100077FC00230993099B2F4A934205DC099B09
:102E200001330993099B9342F9DD05230093019334
:102E300000224FF07E5300202C49FEF761FC002356
:102E40000A930A9B244A934205DC0A9B01330A93A6
:102E50000A9B9342F9DD0220FEF71CFC05240423A3
:102E60000193234901224FF07E5300941448FEF74A
:102E700047FC002100224FF07E5300940194144837
:102E8000FEF73EFC0A2202238DE80C0000210122FD
:102E90004FF07E530C48FEF733FCFEF7D9FB0023BE
:102EA0000B930B9B134A934205DC0B9B01330B9353
:102EB0000B9B9342F9DD0DB030BD00BF0000DC423A
:102EC00000000C43000048420000B8420000C84225
:102ED00000008C42000016431FD613000000F04192
:102EE0000000A0420000F0420000204300003443F4
:102EF000000002434F97310030B5504883B00021A5
:102F0000FEF728FA01214D48FEF724FA4B48FEF758
:102F1000A3F9044604214948FEF76AF9012C17D0A9
:102F2000022C5AD045480021FEF726FA43480121D9
:102F3000FEF722FA424B0822C3F884213F480021C1
:102F4000FEF7F6F93D480121FEF7F2F903B030BD76
:102F50003A480021FEF710FA21463848FEF70CFAED
:102F600036480021FEF7E4F921463448FEF7E0F93F
:102F7000344CFFF775FE00230193019BA34205DC4F
:102F8000019B01330193019BA342F9DD2B48FEF71E
:102F900063F902280546ECD12B480121FEF7AEF873
:102FA00029462948FEF7AAF827480321FEF7A6F884
:102FB00025480421FEF7A2F823480521FEF79EF8D4
:102FC00021480621FEF79AF81F480721FEF796F8D8
:102FD0001D480821FEF792F8A4E718480021FEF7E3
:102FE000CBF916480121FEF7C7F914480021FEF776
:102FF000B1F912480121FEF7ADF913480121FEF79E
:103000007DF821461048FEF779F80F480321FEF7B6
:1030100075F80D480421FEF771F80B480521FEF7FD
:103020006DF809480621FEF769F807480721FEF701
:1030300065F805480821FEF761F8FEE7C4050020A1
:1030400000E100E07FBA8C01D405002000B589B012
:10305000FEF7FEFA0220FEF71DFB00230193019B01
:10306000314A934205DC019B01330193019B93425A
:10307000F9DDFEF765FC00230293029B2A4A934286
:1030800005DC029B01330293029B9342F9DDFEF7BC
:10309000F5FC00230393039B234A934205DC039B27
:1030A00001330393039B9342F9DD0220FEF7F2FA0A
:1030B00000230493049B1C4A934205DC049B0133C8
:1030C0000493049B9342F9DDFEF74EFDFEF7B0FD3D
:1030D00000230593059B154A934205DC059B0133AC
:1030E0000593059B9342F9DDFEF7B2FA00230693A0
:1030F000069B0D4A934205DC069B01330693069B13
:103100009342F9DDFEF7A4FA00230793079B064AD2
:10311000934205DC079B01330793079B9342F9DD3C
:1031200009B05DF804FB00BF4F9731001FD61300B4
:1031300000B587B0FEF78CFA0220FEF7ABFA002349
:103140000093009B2B4A934205DC009B01330093C4
:10315000009B9342F9DDFEF7B5FD00230193019B2F
:10316000244A934205DC019B01330193019B934266
:10317000F9DDFEF74BFE00230293029B1D4A9342AA
:1031800005DC029B01330293029B9342F9DD02208E
:10319000FEF780FAFEF7C4FEFEF70EFF002303934E
:1031A000039B154A934205DC039B01330393039B66
:1031B0009342F9DDFEF74CFA00230493049B0D4A79
:1031C000934205DC049B01330493049B9342F9DD95
:1031D000FEF73EFA00230593059B064A934205DC61
:1031E000059B01330593059B9342F9DD07B05DF81C
:1031F00004FB00BF4F9731001FD6130000B502201B
:1032000087B0FEF747FAFEF72FFF00230193019BDB
:10321000224A934205DC019B01330193019B9342B7
:10322000F9DDFEF7CBFF00230293029B1C4A934279
:1032300005DC029B01330293029B9342F9DD0220DD
:10324000FEF728FA00230393039B144A934205DCFC
:10325000039B01330393039B9342F9DDFFF70AF8C5
:1032600000230493049B0E4A934205DC049B013324
:103270000493049B9342F9DDFEF7EAF900230593DA
:10328000059B074A934205DC059B01330593059B8B
:103290009342F9DD07B05DF804FB00BF9F2E630089
:1032A0004F97310000B5022087B0FEF7F3F9FFF722
:1032B00061F800230093009B294A934205DC009BA0
:1032C00001330093009B9342F9DDFFF7F3F80023ED
:1032D0000193019B224A934205DC019B0133019338
:1032E000019B9342F9DD0220FEF7D4F900230293FB
:1032F000029B1B4A934205DC029B01330293029B13
:103300009342F9DDFFF73EF900230393039B144A30
:10331000934205DC039B01330393039B9342F9DD46
:10332000FFF770F900230493049B0D4A934205DCD8
:10333000049B01330493049B9342F9DDFEF788F963
:1033400000230593059B064A934205DC059B013348
:103350000593059B9342F9DD07B05DF804FB00BFC0
:103360004F97310000B5022087B0FEF793F9FEF7C2
:10337000E7FA00230193019B214A934205DC019B5C
:1033800001330193019B9342F9DDFFF7A1F900237B
:103390000293029B1A4A934205DC029B013302937B
:1033A000029B9342F9DDFFF709FA00230393039B85
:1033B000134A934205DC039B01330393039B93421F
:1033C000F9DDFEF7F9FD00230493049B0C4A9342B8
:1033D00005DC049B01330493049B9342F9DDFEF763
:1033E00037F900230593059B054A934205DC059BAD
:1033F00001330593059B9342F9DD07B05DF804FBAB
:103400004F97310000B5022085B0FEF743F9FEF773
:103410002BFE00230093009B1B4A934205DC009B7C
:1034200001330093009B9342F9DDFFF773FA002309
:103430000193019B144A934205DC019B01330193E4
:10344000019B9342F9DDFFF733FB00230293029BBC
:103450000D4A934205DC029B01330293029B934287
:10346000F9DDFFF7BFFBFEF7F3F800230393039B9F
:10347000054A934205DC039B01330393039B93426C
:10348000F9DD05B05DF804FB4F9731002DE9F041FF
:1034900031228EB040F28F13B0484FF0A041FDF7BB
:1034A000C3FD00230193019AAD4B9A4205DC019ABA
:1034B00001320192019A9A42F9DDAA480621FEF7EB
:1034C00053F8A9480421FEF74FF8A8480521FEF754
:1034D0004BF8A7480221FEF747F8A6480321FEF75C
:1034E00043F800230293029AA34B9A4205DC029A06
:1034F00001320292029A9A42F9DDA0480621FEF7B3
:1035000033F89F480421FEF72FF89E480521FEF767
:103510002BF89D480221FEF727F89C480321FEF76F
:1035200023F800230393039A934B9A4205DC039AF2
:1035300001320392039A9A42F9DD90480621FEF780
:1035400013F88F480421FEF70FF88E480521FEF787
:103550000BF88D480221FEF707F88C480321FEF78F
:1035600003F800230493049A834B9A4205DC049ADF
:1035700001320492049A9A42F9DD0026012384481C
:103580008449252206960796089609960A960B9670
:103590000C960D96FDF780FC7D487F490222FDF7D1
:1035A000AFFCFDF73FFF7D487D490222FDF7D4FDCA
:1035B00031467A480522FDF711FE7A4D7748012100
:1035C0000522FDF70BFE052274480221FDF706FED9
:1035D00029687248FDF70CFE314670484322FDF71A
:1035E000FDFD6E4801214322FDF7F8FD05226B48E1
:1035F0000221FDF7F3FD31466848FDF799FE674863
:103600000121FDF795FE68490822684B4A604FF496
:103610008040DFF8A0811B68C1F88000D8F84870AE
:10362000634A03EB83034FF0402E27F0400C5B000E
:103630000127C8F848C0CEF85460C2F88061C2F8CB
:103640008861C2F88461CEF81070C1F88001CEF8AC
:103650000430C2F88071C2F8887108604F48296848
:10366000FDF7C6FD4A48FDF78DFC00B38CB19DF80F
:103670001830412B22D0422B2AD0432B32D0442B5E
:103680003AD0452B42D0472B4AD0492B52D04A2B17
:103690005AD04FF6E75200230593059B9342DDDC99
:1036A000059B01330593059B9342F9DDD6E7384826
:1036B00006A92022FDF73AFC0446D7E70023374845
:1036C00003218DF81830FDF793FDFFF7BFFCE0E70D
:1036D0000023324803218DF81830FDF789FDFFF7EC
:1036E00027FDD6E700232D4803218DF81830FDF77C
:1036F0007FFDFFF783FDCCE70023284803218DF8E9
:103700001830FDF775FDFFF7CDFDC2E72348012115
:10371000FDF76EFD00238DF81830FFF723FEB8E7A4
:1037200000231E4801218DF81830FDF761FDFFF7D9
:1037300069FEAEE719480621FDF75AFD00238DF812
:103740001830FFF78DFAA4E70023144805218DF8FF
:103750001830FDF74DFDFEF731F89AE7D40500204B
:103760001FD61300000020420000F042000070420B
:103770000000B44200000C424F9731000000484264
:103780000000024300008C420000B8420000F041FB
:10379000CC0500200020005024000020C40500209B
:1037A000001000302000002000E100E014000020A4
:1037B000000008420080034081F0004102E000BFA9
:1037C00083F0004330B54FEA41044FEA430594EAE1
:1037D000050F08BF90EA020F1FBF54EA000C55EA1C
:1037E000020C7FEA645C7FEA655C00F0E2804FEAED
:1037F0005454D4EB5555B8BF6D420CDD2C4480EACF
:10380000020281EA030382EA000083EA010180EAFE
:10381000020281EA0303362D88BF30BD11F0004F4C
:103820004FEA01314FF4801C4CEA113102D0404282
:1038300061EB410113F0004F4FEA03334CEA1333BD
:1038400002D0524263EB430394EA050F00F0A780D5
:10385000A4F10104D5F1200E0DDB02FA0EFC22FAD0
:1038600005F2801841F1000103FA0EF2801843FAC4
:1038700005F359410EE0A5F120050EF1200E012AB5
:1038800003FA0EFC28BF4CF0020C43FA05F3C018F3
:1038900051EBE37101F0004507D54FF0000EDCF16C
:1038A000000C7EEB00006EEB0101B1F5801F1BD315
:1038B000B1F5001F0CD349085FEA30004FEA3C0C19
:1038C00004F101044FEA445212F5800F80F09A800F
:1038D000BCF1004F08BF5FEA500C50F1000041EB13
:1038E000045141EA050130BD5FEA4C0C404141EB17
:1038F000010111F4801FA4F10104E9D191F0000F3E
:1039000004BF01460020B1FA81F308BF2033A3F1C0
:103910000B03B3F120020CDA0C3208DD02F1140CB7
:10392000C2F10C0201FA0CF021FA02F10CE002F1F2
:103930001402D8BFC2F1200C01FA02F120FA0CFCEB
:10394000DCBF41EA0C019040E41AA2BF01EB045134
:10395000294330BD6FEA04041F3C1CDA0C340EDC32
:1039600004F11404C4F1200220FA04F001FA02F375
:1039700040EA030021FA04F345EA030130BDC4F133
:103980000C04C4F1200220FA02F001FA04F340EA28
:103990000300294630BD21FA04F0294630BD94F0D9
:1039A000000F83F4801306BF81F480110134013DC0
:1039B0004EE77FEA645C18BF7FEA655C29D094EA31
:1039C000050F08BF90EA020F05D054EA000C04BFAF
:1039D0001946104630BD91EA030F1EBF002100209A
:1039E00030BD5FEA545C05D14000494128BF41F039
:1039F000004130BD14F580043CBF01F5801130BD9D
:103A000001F0004545F0FE4141F470014FF0000027
:103A100030BD7FEA645C1ABF194610467FEA655CD8
:103A20001CBF0B46024650EA013406BF52EA03357A
:103A300091EA030F41F4002130BD00BF90F0000F68
:103A400004BF0021704730B54FF4806404F13204A4
:103A50004FF000054FF0000150E700BF90F0000F5D
:103A600004BF0021704730B54FF4806404F1320484
:103A700010F0004548BF40424FF000013EE700BF54
:103A800042004FEAE2014FEA31014FEA02701FBFE4
:103A900012F07F4393F07F4F81F06051704792F0B6
:103AA000000F14BF93F07F4F704730B54FF4607430
:103AB00001F0004521F0004120E700BF50EA01027B
:103AC00008BF704730B54FF000050AE050EA010228
:103AD00008BF704730B511F0004502D5404261EB98
:103AE00041014FF4806404F132045FEA915C3FF4D9
:103AF000DCAE4FF003025FEADC0C18BF03325FEA72
:103B0000DC0C18BF033202EBDC02C2F1200300FA26
:103B100003FC20FA02F001FA03FE40EA0E0021FA4B
:103B200002F11444C1E600BF70B54FF0FF0C4CF435
:103B3000E06C1CEA11541DBF1CEA135594EA0C0FEB
:103B400095EA0C0F00F0DEF82C4481EA030621EA26
:103B50004C5123EA4C5350EA013518BF52EA033561
:103B600041F4801143F4801338D0A0FB02CE4FF013
:103B70000005E1FB02E506F00042E0FB03E54FF043
:103B80000006E1FB03569CF0000F18BF4EF0010E3B
:103B9000A4F1FF04B6F5007F64F5407404D25FEA37
:103BA0004E0E6D4146EB060642EAC62141EA5551EA
:103BB0004FEAC52040EA5E504FEACE2EB4F1FD0C2C
:103BC00088BFBCF5E06F1ED8BEF1004F08BF5FEAAA
:103BD000500E50F1000041EB045170BD06F000465C
:103BE00046EA010140EA020081EA0301B4EB5C0409
:103BF000C2BFD4EB0C0541EA045170BD41F4801101
:103C00004FF0000E013C00F3AB8014F1360FDEBF25
:103C1000002001F0004170BDC4F10004203C35DA01
:103C20000C341BDC04F11404C4F1200500FA05F384
:103C300020FA04F001FA05F240EA020001F0004225
:103C400021F0004110EBD37021FA04F642EB06019B
:103C50005EEA430E08BF20EAD37070BDC4F10C04C5
:103C6000C4F1200500FA04F320FA05F001FA04F289
:103C700040EA020001F0004110EBD37041F1000175
:103C80005EEA430E08BF20EAD37070BDC4F1200580
:103C900000FA05F24EEA020E20FA04F301FA05F2E8
:103CA00043EA020321FA04F001F0004121FA04F290
:103CB00020EA020000EBD3705EEA430E08BF20EA60
:103CC000D37070BD94F0000F0FD101F0004640009A
:103CD00041EB010111F4801F08BF013CF7D041EA1C
:103CE000060195F0000F18BF704703F00046520020
:103CF00043EB030313F4801F08BF013DF7D043EAF1
:103D00000603704794EA0C0F0CEA135518BF95EAA6
:103D10000C0F0CD050EA410618BF52EA4306D1D12D
:103D200081EA030101F000414FF0000070BD50EA4C
:103D3000410606BF1046194652EA430619D094EAD6
:103D40000C0F02D150EA013613D195EA0C0F05D1C0
:103D500052EA03361CBF104619460AD181EA030114
:103D600001F0004141F0FE4141F470014FF00000CC
:103D700070BD41F0FE4141F4780170BD70B54FF067
:103D8000FF0C4CF4E06C1CEA11541DBF1CEA1355E7
:103D900094EA0C0F95EA0C0F00F0A7F8A4EB0504C9
:103DA00081EA030E52EA03354FEA013100F08880C0
:103DB0004FEA03334FF0805545EA131343EA126389
:103DC0004FEA022245EA111545EA10654FEA00263E
:103DD0000EF000419D4208BF964244F1FD0404F5F7
:103DE000407402D25B084FEA3202B61A65EB030553
:103DF0005B084FEA32024FF480104FF4002CB6EB10
:103E0000020E75EB030E22BFB61A754640EA0C008F
:103E10005B084FEA3202B6EB020E75EB030E22BFCF
:103E2000B61A754640EA5C005B084FEA3202B6EB10
:103E3000020E75EB030E22BFB61A754640EA9C00CF
:103E40005B084FEA3202B6EB020E75EB030E22BF9F
:103E5000B61A754640EADC0055EA060E18D04FEA5D
:103E6000051545EA16754FEA06164FEAC30343EAFD
:103E700052734FEAC2025FEA1C1CC0D111F4801FCA
:103E80000BD141EA00014FF000004FF0004CB6E7C3
:103E900011F4801F04BF01430020B4F1FD0C88BF62
:103EA000BCF5E06F3FF6AFAEB5EB030C04BFB6EB6D
:103EB000020C5FEA500C50F1000041EB045170BD60
:103EC0000EF0004E4EEA113114EB5C04C2BFD4EB8D
:103ED0000C0541EA045170BD41F480114FF0000E11
:103EE000013C90E645EA060E8DE60CEA135594EA8D
:103EF0000C0F08BF95EA0C0F3FF43BAF94EA0C0F90
:103F00000AD150EA01347FF434AF95EA0C0F7FF404
:103F100025AF104619462CE795EA0C0F06D152EA58
:103F200003353FF4FDAE1046194622E750EA41063C
:103F300018BF52EA43067FF4C5AE50EA41047FF44D
:103F40000DAF52EA43057FF4EBAE12E74FEA4102B0
:103F5000B2F1E04324BFB3F5001CDCF1FE5C0DD9E7
:103F600001F0004C4FEAC0024CEA5070B2F1004F31
:103F700040EB830008BF20F00100704711F0804F34
:103F800021D113F13872BCBF01F00040704741F4F9
:103F900080114FEA5252C2F11802C2F1200C10FAFD
:103FA0000CF320FA02F018BF40F001004FEAC123E1
:103FB0004FEAD32303FA0CFC40EA0C0023FA02F385
:103FC0004FEA4303CCE77FEA625307D150EA01335B
:103FD0001EBF4FF0FE4040F44000704701F000402B
:103FE00040F0FE4040F40000704700BF80F0004009
:103FF00002E000BF81F0004142001FBF5FEA4103C1
:1040000092EA030F7FEA226C7FEA236C6AD04FEAC0
:104010001262D2EB1363C1BFD21841404840414005
:10402000B8BF5B42192B88BF704710F0004F40F4B7
:10403000000020F07F4018BF404211F0004F41F4D3
:10404000000121F07F4118BF494292EA030F3FD09F
:10405000A2F1010241FA03FC10EB0C00C3F12003B2
:1040600001FA03F100F0004302D5494260EB400041
:10407000B0F5000F13D3B0F1807F06D340084FEAAC
:10408000310102F10102FE2A51D2B1F1004F40EBA1
:10409000C25008BF20F0010040EA03007047490009
:1040A00040EB000010F4000FA2F10102EDD1B0FAD4
:1040B00080FCACF1080CB2EB0C0200FA0CF0AABFC9
:1040C00000EBC25052421843BCBFD0401843704767
:1040D00092F0000F81F4000106BF80F4000001326D
:1040E000013BB5E74FEA41037FEA226C18BF7FEA44
:1040F000236C21D092EA030F04D092F0000F08BF86
:104100000846704790EA010F1CBF0020704712F06C
:104110007F4F04D1400028BF40F00040704712F1AB
:1041200000723CBF00F50000704700F0004343F010
:10413000FE4040F4000070477FEA226216BF084646
:104140007FEA23630146420206BF5FEA412390EA09
:10415000010F40F4800070474FF0000304E000BFFF
:1041600010F0004348BF40425FEA000C08BF7047B0
:1041700043F0964301464FF000001CE050EA010274
:1041800008BF70474FF000030AE000BF50EA010289
:1041900008BF704711F0004302D5404261EB410176
:1041A0005FEA010C02BF84460146002043F0B6439B
:1041B00008BFA3F18053A3F50003BCFA8CF2083AC0
:1041C000A3EBC25310DB01FA02FC634400FA02FCC9
:1041D000C2F12002BCF1004F20FA02F243EB0200D0
:1041E00008BF20F00100704702F1200201FA02FC32
:1041F000C2F1200250EA4C0021FA02F243EB020025
:1042000008BF20EADC7070474FF0FF3C06E000BFBB
:104210004FF0010C02E000BF4FF0010C4DF804CD4F
:104220004FEA40024FEA41037FEA226C18BF7FEA5F
:10423000236C11D001B052EA530C18BF90EA010F61
:1042400058BFB2EB030088BFC81738BF6FEAE170F0
:1042500018BF40F0010070477FEA226C02D15FEA8C
:10426000402C05D17FEA236CE4D15FEA412CE1D0F8
:104270005DF8040B704700BF844608466146FFE7BF
:104280000FB5FFF7C9FF002848BF10F1000F0FBDA1
:104290004DF808EDFFF7F4FF0CBF012000205DF89A
:1042A00008FB00BF4DF808EDFFF7EAFF34BF01201F
:1042B00000205DF808FB00BF4DF808EDFFF7E0FFB8
:1042C00094BF012000205DF808FB00BF4DF808ED09
:1042D000FFF7D2FF94BF012000205DF808FB00BF6C
:1042E0004DF808EDFFF7C8FF34BF012000205DF84E
:1042F00008FB00BF4FEA4002B2F1FE4F0FD34FF070
:104300009E03B3EB12620DD94FEA002343F0004342
:1043100010F0004F23FA02F018BF404270474FF0F0
:104320000000704712F1610F01D1420205D110F077
:10433000004008BF6FF0004070474FF0000070472A
:1043400070B50F4E0F4D761BB61018BF002405D068
:10435000013455F8043B9847A642F9D10A4E0B4D5B
:1043600000F0E4F8761BB61018BF002406D0013424
:1043700055F8043B9847A642F9D170BD70BD00BF07
:1043800044450000444500004C4500004445000001
:10439000024B13B1024800F005B87047000000005E
:1043A000B1430000014600200246034600F016B863
:1043B00038B5084B084DED1AAC1018BFED1805D0F4
:1043C000013C55F8043D9847002CF9D1BDE8384030
:1043D00000F0B2B84C450000504500002DE9F04710
:1043E000254C064625688846D5F8484192469946A8
:1043F000C4B360681F2817DC411C76B104EB80034E
:10440000C3F888A0D4F88851012282401543022EB7
:10441000C4F88851C3F808911ED0831C6160002045
:1044200044F82380BDE8F087144B03B34FF4C87001
:10443000AFF300800446D0B1D5F84831002784E8B6
:1044400088003846C5F848410121C4F88871C4F88D
:104450008C71002EE1D0D1E7D4F88C311A43C4F826
:104460008C21DAE705F5A674C5F84841C1E74FF09D
:10447000FF30BDE8F08700BF2845000000000000C5
:1044800000000000140000001C00000024000000D8
:104490002C000000340000003C000000440000003C
:1044A0004C000000540000005C00000064000000AC
:1044B0006C000000740000007C000000840000001C
:1044C0008C0000000001020408102040800102045A
:1044D00008102040800000000000000010000000D4
:1044E000180000002000000028000000300000003C
:1044F00038000000400000004800000050000000AC
:10450000580000006000000068000000700000001B
:104510007800000080000000880000000001000119
:10452000020203034300000028000020F8B500BF8A
:10453000F8BC08BC9E467047F8B500BFF8BC08BC84
:104540009E46704791430000E5040000C10400004E
:1045500000000000003B5808C00E1602801D2C040D
:10456000003B5808003B5808003B5808003B5808DF
:10457000020000004B0000000000000014030020B7
:104580007C030020E4030020000000000000000085
:10459000000000000000000000000000000000001B
:1045A00000000000000000000000000024450000A2
:1045B00000000000000000000000000000000000FB
:1045C00000000000000000000000000000000000EB
:1045D00000000000000000000000000000000000DB
:1045E00000000000000000000000000000000000CB
:1045F00000000000000000000000000000000000BB
:1046000000000000000000000000000000000000AA
:10461000000000000000000000000000000000009A
:1046200001000000000000000E33CDAB34126DE637
:10463000ECDE05000B0000000000000000000000A0
:10464000000000000000000000000000000000006A
:10465000000000000000000000000000000000005A
:10466000000000000000000000000000000000004A
:10467000000000000000000000000000000000003A
:040000030000019167
:00000001FF
