:020000042000DA
:1000000000000120910100207F03002081030020D7
:1000100083030020850300208703002000000000E8
:100020000000000000000000000000008903002024
:100030008B030020000000008D0300208F030020B0
:100040009103002093030020191000203910002094
:10005000990300209B0300209D0300209F030020A4
:10006000A1030020A3030020A5030020A703002074
:10007000A9030020AB030020AD030020AF03002044
:10008000B1030020B3030020B5030020AD0500201C
:10009000B9030020BB030020BD030020BF030020E4
:1000A000C1030020C3030020C5030020A5110020C8
:1000B00099120020CB030020CD030020CF030020A5
:1000C000D1030020D3030020D5030020F119002024
:1000D000291A0020DB030020DD030020DF030020BD
:1000E000E1030020E3030020E5030020E7030020F4
:1000F000E9030020EB030020ED030020EF030020C4
:10010000F1030020F3030020F5030020F703002093
:10011000F9030020FB030020FD030020FF03002063
:10012000010400200304002005040020070400202F
:10013000090400200B0400200D0400200F040020FF
:1001400011040020130400201504002017040020CF
:10015000190400201B0400201D0400201F0400209F
:10016000210400202304002025040020270400206F
:10017000290400202B0400202D0400202F0400203F
:1001800031040020330400200000000000000000C3
:100190004FF0000BDFF8BE020068DFF8B612096806
:1001A00001F0030100F01C00142801D14BF0020BF8
:1001B000002901D04BF0010BBBF1000F05D0A7487F
:1001C000A749DFF8722200F09FF8A64880470BF09D
:1001D000020ABAF1000F0CD0DFF86E02DFF86E12DF
:1001E00002680B680FB44FF000024FF0FF0302608B
:1001F0000B609D489D4A9E4B022808D1DFF83E12B5
:100200000A60DFF842120A60DFF836120B6001283C
:1002100008D1DFF82E120A60DFF82A120A60DFF830
:100220001E120B609348002809D193489349944AC1
:1002300000F032F893489449944A00F02DF894481D
:100240009449954A00F028F894489549DFF8E6214A
:1002500000F05AF8BBF1000F12D092489249DFF833
:10026000DA2100F051F80BF0020ABAF1000F07D0C2
:100270000FBC02600B6000BFAFF30080AFF30080E3
:10028000DFF828020FF2030E00474FF000004FF096
:100290000001DFF81CF2FEE72DE9F841884225D085
:1002A000B2EB010200D5FEE740EA010313F00303BD
:1002B00002D000F01DF819E04FF000039046121133
:1002C000F7D09A421CBFF0C8F0C103F10103F8D186
:1002D00008F00F08B8F1000F08D004780C7000F196
:1002E000010001F10101B8F10108F6D1BDE8F88182
:1002F00008B54FF0000303780B7000F1010001F125
:100300000101013AF7D108BD884237D000F0030659
:10031000002E14D04FF00405A5EB06044FF008079B
:1003200007FB06F8914669FA08F9002C07D080F817
:10033000009069FA07F900F10100013CF5E74FF080
:1003400000060F46091A88460911914614461546BB
:10035000B14206D018BFA0E8340206F10106B1424E
:10036000F8D108F00F08B8F1000F07D002704FEA7B
:10037000322200F10100B8F10108F4E77047FEE70E
:10038000FEE7FEE7FEE7FEE7FEE7FEE7FEE7FEE745
:10039000FEE7FEE7FEE7FEE7FEE7FEE7FEE7FEE735
:1003A000FEE7FEE7FEE7FEE7FEE7FEE7FEE7FEE725
:1003B000FEE7FEE7FEE7FEE7FEE7FEE7FEE7FEE715
:1003C000FEE7FEE7FEE7FEE7FEE7FEE7FEE7FEE705
:1003D000FEE7FEE7FEE7FEE7FEE7FEE7FEE7FEE7F5
:1003E000FEE7FEE7FEE7FEE7FEE7FEE7FEE7FEE7E5
:1003F000FEE7FEE7FEE7FEE7FEE7FEE7FEE7FEE7D5
:10040000FEE7FEE7FEE7FEE7FEE7FEE7FEE7FEE7C4
:10041000FEE7FEE7FEE7FEE7FEE7FEE7FEE7FEE7B4
:10042000FEE7FEE7FEE7FEE7FEE7FEE7FEE7FEE7A4
:10043000FEE7FEE7704700000000A2A2A2A2008033
:100440000340088003401080034030800340348024
:1004500003403880034018080240000000F00020EC
:10046000000001209517002000000000000000009F
:10047000010000000000000000000020000000203B
:1004800090010020C0040020C0040020984D0020EE
:10049000A04D0020A04D0020105600201056002036
:1004A000805800208058002000F00020491A0020C9
:1004B00005190020000000000000000000000000FE
:1004C00010B5054C237833B9044B13B10448AFF38E
:1004D00000800123237010BD105600200000000092
:1004E000644D0020084B10B51BB108480849AFF314
:1004F00000800848036803B910BD074B002BFBD0F0
:10050000BDE81040184700BF00000000644D002007
:1005100014560020A04D002000000000016070472C
:10052000006870470EB503FA01F303EA020301689D
:100530006FEA020201EA020141EA030101600EBD15
:10054000006800EA020020FA01F07047018070475D
:10055000008870470EB503FA01F303EA020301882D
:100560006FEA020201EA020141EA030101800EBDC5
:10057000008800EA020020FA01F07047017070471D
:10058000007870470EB503FA01F303EA020301781D
:100590006FEA020201EA020141EA030101700EBDA5
:1005A000007800EA020020FA01F0704780B582B0BE
:1005B00000AF0F4B5B68FB710D4B9B68DAB2FB79A8
:1005C0001340FB71FB7903F00203BB71BB79002B75
:1005D00001D000F0E7F8FB7903F001037B717B7930
:1005E000002B01D000F006F80837BD4680BD00BFE3
:1005F0000060014080B584B000AF634B1B78022BD4
:100600003FD0052B6BD0012B40F0AD805F4B1B889A
:100610009BB2002B30D05E4B1A685C4B1B889BB2A0
:100620001046194600F006FAF860584B1B889BB23A
:100630001A46FB689A420FD9544B1B889AB2FB6842
:100640009BB2D31A9AB2514B1A80514B1A68FB686D
:1006500013444F4A13600EE04C4B00221A804D4B5E
:100660001B68002B03D0484B02221A7003E0464B54
:1006700003221A7004E003E000BE00F0B5F97FE049
:100680007EE0444B1B68002B24D0434B1A68414B3F
:100690001B681046194600F0CDF9B8603D4B1B6849
:1006A000BA689A420CD23B4B1A68BB68D31A394AD3
:1006B0001360394B1A68BB681344374A13600DE066
:1006C000364A364B9B6823F0010393602E4B03227E
:1006D0001A7003E000BE00F087F951E050E02D4BA6
:1006E0001B68002B1BD12E4B1B68002B14D02C4BEE
:1006F0001B68294898470246264B1A60254B1B6801
:10070000002B0CD1254A254B9B6823F001039360F5
:100710001D4B03221A7002E000BE00F065F91D4B6C
:100720001B68002B09D11D4A1C4B9B6823F0010359
:100730009360154B03221A7022E0174B1A68154B71
:100740001B681046194600F075F97860114B1A685D
:100750007B68D31A0F4A13600F4B1A687B681344E7
:100760000D4A13600CE00D4A0C4B9B6823F001030B
:100770009360002000F018F9034B00221A7000BFAC
:100780001037BD4680BD00BF5156002034560020B2
:10079000305600203C5600203856002000600140B2
:1007A0004C56002080B584B000AF794B1B69FB81AB
:1007B000FB8923F4FF4323F07F03BB81FB89FB729A
:1007C000744B1B78052B00F2D88001A252F823F05D
:1007D000E907002065090020650900204108002084
:1007E0008F08002039090020BB89002B27D0FB7A15
:1007F000F12B06D0FB7ABB72BB7A184600F04CF99D
:100800001DE0654B00221A80644B1B68624A128807
:1008100092B21344FA7A1A705F4B1B889BB2013371
:100820009AB25D4B1A805D4B1B685B4A128892B28C
:10083000134400221A70574B04221A70A4E0A3E05C
:10084000BB89002B22D0FB7A7B72554B1B78DBB225
:100850007A7A9A4215D1504B00221A804F4B1B686E
:100860004D4A128892B213447A7A1A704A4B1B8806
:100870009BB201339AB2484B1A80464B04221A703D
:1008800004E07B7A184600F007F97DE07CE0BB8944
:10089000002B06D0FB7A3B723B7A184600F0FCF83E
:1008A00049E03E4B1A683C4B1B889BB2013B13440A
:1008B0001B78F12B16D1394B1B68374A128892B23C
:1008C0001344FA7A1A70354B1A68334B1B889BB263
:1008D000013B13441B78184600F0DEF82D4B002234
:1008E0001A7028E02C4B1B889AB22E4B1B889A4218
:1008F00010D2FB7AFB71294B1B68274A128892B2EF
:100900001344FA791A70244B1B889BB201339AB2B4
:10091000214B1A80204B1B889AB2224B1B889A428B
:1009200009D11D4B1B889BB2184600F03DF8194BAE
:1009300000221A7028E027E0BB89002B0BD1174B4F
:100940001B680133FA7A1A70022000F02DF8114B5F
:1009500000221A7018E0FB7ABB71BB79184600F0D0
:100960009BF811E0BB89002B06D0FB7A7B717B7969
:10097000184600F091F807E006E0002000F014F8B7
:10098000044B00221A7000BF1037BD4680BD00BF67
:10099000006001405156002046560020405600207D
:1009A0002C5600204456002080B582B000AF03468C
:1009B000FB800A4B1B68002B0DD0084B1B68084AB4
:1009C0001168FA88084611469847044B00221A60BD
:1009D000044B00221A700837BD4680BD48560020DF
:1009E000405600205056002080B582B000AF0E4B1C
:1009F0001B78DBB2002B13D00C4B1B889BB2184624
:100A0000FFF7D2FF0A4A0A4B1B6843F00103136049
:100A1000074B1B6803F001037B607B68002BF7D159
:100A20000837BD4680BD00BF505600204656002006
:100A30000060014080B485B000AF78603960154A2D
:100A4000144B1B6823F0040313600023FB60114B5D
:100A50005B6803F00103BB600DE00E497A68FB6838
:100A600013441B780B61FB680133FB60094B5B6827
:100A700003F00103BB60BB68002B03D0FA683B683E
:100A80009A42EAD3FB6818461437BD465DF8047BEA
:100A9000704700BF0060014080B582B000AF0346E0
:100AA000FB71064B1B68002B04D0044B1B68FA79C2
:100AB000104698470837BD4680BD00BF54560020F9
:100AC00080B483B000AF0346FB71094997F9073042
:100AD0005B09FA7902F01F02012000FA02F260338A
:100AE00041F823200C37BD465DF8047B704700BFFA
:100AF00000E100E080B58AB000AF78607B681B68D9
:100B00001B687B627B681B689B693B627B681B6818
:100B10005B68FB617B681B689B6ABB617B681B68C9
:100B20001B6B7B617B681B685B6B3B617B681B6835
:100B3000DB69FB607B68344A93421DD17B68334A92
:100B40001A607B6802221A71314A314B9B6C43F464
:100B5000007393640220FFF7B3FF2D4A2C4B9B6C6C
:100B600023F4007393647B681B687A6812681268C8
:100B700022F000421A601CE07B68264A1A607B68FB
:100B800003221A71224A224B9B6C43F480639364C4
:100B90000320FFF795FF1E4A1D4B9B6C23F48063D7
:100BA00093647B681B687A681268126822F00042BE
:100BB0001A607B6A23F001037B627B681B687A6A98
:100BC0001A607B681B683A6A9A617B681B68FA69DD
:100BD0005A607B681B687A681268126842F00102EA
:100BE0001A607B681B68BA699A627B681B687A69BD
:100BF0001A637B681B683A695A637B681B68FA68EA
:100C0000DA612837BD4680BDE4570020001000405F
:100C1000008003400010014080B485B000AF7860D0
:100C20000023FB600DE07B681B687A6891687A6836
:100C300012690A4412785A617B681B695A1C7B68E6
:100C40001A617B681B689B6803F48073002B05D1D5
:100C50007B681A697B68DB689A42E4D37B681A690F
:100C60007B68DB689A421BD30DE07B681B687A685F
:100C700051697A68D2690A4412785A617B68DB69E3
:100C80005A1C7B68DA617B681B689B6803F480737D
:100C9000002B05D17B68DA697B689B699A42E4D3B3
:100CA0007B685B6A002B1DD07B681A697B68DB68F8
:100CB0009A4217D37B68DA697B689B699A4211D3A1
:100CC00006E07B681B6800225A61FB680133FB6009
:100CD0007B681B689B6803F48073002B02D1FB6860
:100CE0001F2BEED91437BD465DF8047B704700BF5B
:100CF00080B584B000AF78607B6893F88030022BB9
:100D000015D10CE07B681B681B69FB607B685B6F1F
:100D1000002B04D07B685B6FFA68104698477B68AD
:100D20001B689B6803F04003002BEBD030E07B682E
:100D300093F88030012B1FD116E07B681B681B697C
:100D4000FB607B681A6B7B68DB6A9A4207D27B6820
:100D50009A6A7B681B6B1344FA68D2B21A707B687C
:100D60001B6B5A1C7B681A637B681B689B6803F0CB
:100D70004003002BE1D00BE003E07B681B681B699C
:100D8000FB607B681B689B6803F04003002BF4D07A
:100D90001037BD4680BD00BF80B586B000AF78601B
:100DA0007B681B6820337B617B686C4A934204D06C
:100DB0007B686B4A934200D000BE7B691B6803F0DE
:100DC0000203002B4FD07B6893F88030022B15D1A3
:100DD0000CE07B681B681B69FB607B685B6F002B0A
:100DE00004D07B685B6FFA68104698477B681B6885
:100DF0009B6803F04003002BEBD030E07B6893F856
:100E00008030012B1FD116E07B681B681B69FB60DB
:100E10007B681A6B7B68DB6A9A4207D27B689A6AA6
:100E20007B681B6B1344FA68D2B21A707B681B6B29
:100E30005A1C7B681A637B681B689B6803F040033D
:100E4000002BE1D00BE003E07B681B681B69FB60B3
:100E50007B681B689B6803F04003002BF4D07B6821
:100E60001B680222DA607B691B6803F00103002B18
:100E700011D07B6893F88030022B05D17B681B680A
:100E80007A68926F5A6102E07868FFF7C5FE7B6866
:100E90001B680122DA607B691B6803F01003002BDA
:100EA00021D07868FFF724FF7B681B6A002B0BD0EA
:100EB0007B681B6A7A68916A7A68126B08461146E9
:100EC00098477868FFF7A8FE7B6801225A627B6822
:100ED0001B687A681268926A22F010029A627B6834
:100EE0001B681022DA607B691B6803F00403002B87
:100EF0000ED07B681B687A681268D26A42F00402DE
:100F0000DA627868FFF7F6FD7B681B680422DA6016
:100F10007B691B6803F00803002B32D07B681B68D9
:100F20007A681268D26A42F00802DA627B6893F843
:100F30008030022B16D17B681A687B681B681B689F
:100F400023F47F0323F47F4343F4807313607B68AF
:100F50001B687A68926F5A610FE000BFE457002067
:100F6000605700207B6893F88030012B05D17B68A7
:100F700000221A617868FFF74FFE7B681B68082221
:100F8000DA607B691B6803F02003002B41D078688E
:100F9000FFF7AEFE7B681B6B3B617B681B6A002B17
:100FA00017D07B6800225A627B6800225A617B68F6
:100FB00000229A617B680022DA617B681B6810223C
:100FC000DA607B681B687A681268926A42F01002E5
:100FD0009A627B6800221A617B681B687A681268D3
:100FE000D26A42F00C02DA627868FFF715FE7B687D
:100FF00000221A637B68DB6F002B06D07B68DB6FF7
:101000007A68926A1046396998477B681B68202283
:10101000DA601837BD4680BD684620F007018D466E
:1010200089B500AF0348FFF7B7FEBD46BDE889406C
:1010300085467047E4570020684620F007018D463A
:1010400089B500AF0348FFF7A7FEBD46BDE889405C
:10105000854670476057002090B484B000AFF860B8
:10106000B9607A60FB704B484B4B1A68F9781346AD
:101070009B001344DB01034403F5E07359604749C7
:10108000454B1A6813469B0013449B000B44FA68B7
:101090005A604249404B1A6813469B0013449B0018
:1010A0000B44BA689A603D483B4B19683B4C3A4B3D
:1010B0001A6813469B0013449B00234408335B6863
:1010C0001A0C12040B469B000B449B00034408338C
:1010D0005A607B68B3F5803F0FD97B68A3F58033F6
:1010E0002F4A1361BB6803F580332D4AD360FB6838
:1010F00003F580332A4A936019E02848264B1A6882
:10110000264C254B19680B469B000B449B0023443F
:1011100008335B68796889B2194313469B0013440E
:101120009B000344083359601D4B00221A611B4881
:10113000194B1A68194C184B19680B469B000B4445
:101140009B00234408335B6843F4E00113469B0093
:1011500013449B000344083359600E490E4B1A6830
:1011600013469B001344DB010B4403F5E07301229B
:101170001A600849084B1A6813469B001344DB01A8
:101180000B4403F5E47300225A601037BD4690BC4F
:10119000704700BF00002842705600200040014008
:1011A00058560020684620F007018D4691B500AFE3
:1011B000344A354B1B6803F52873012142F823108C
:1011C0003248314B1A68314C2F4B19680B469B0043
:1011D0000B449B00234408335B6823F4E00113466F
:1011E0009B0013449B00034408335960264B1B6843
:1011F0000133254A1360244B1B68042B02D1224B78
:1012000000221A60224B1B69002B17D0214B1B6850
:10121000042B03D11F4B00221A6004E01D4B1B68F6
:1012200001331C4A13601A4B9868194BD968184B44
:101230001A69174B1B7DFFF70FFF1EE01349124B76
:101240001A6813469B0013449B000B4408335B68E9
:1012500003F4E003002B10D10B4B00221A600D4B5E
:1012600000221A600A4B01221A70094B5B68002B9E
:1012700003D0074B5B6801209847BD46BDE891400D
:101280008546704700002842745600200040014007
:101290005856002070560020684620F007018D4601
:1012A00081B583B000AF384B1B683B603B6803F4EB
:1012B00070633B603B68002B2FD03449344B1A6875
:1012C00013469B001344DB010B4403F502731B68B8
:1012D000002B0AD02F4B02221A702E4B5B68002B7A
:1012E00003D02C4B5B68022098472849284B1A688A
:1012F00013469B001344DB010B4403F502735B6848
:10130000002B0AD0234B03221A70224B5B68002B60
:1013100003D0204B5B68032098471B4B1B683B6046
:101320003B6803F470433B603B68002B0AD0194BC9
:1013300004221A70174B5B68002B03D0154B5B68B7
:101340000420984700237B6014E010497A68134614
:101350009B001344DB010B4403F5E47301221A6084
:101360000A4A7B6803F52873012142F823107B6841
:1013700001337B607B68032BE7D90C37BD46BDE8A2
:1013800081408546704700BF004001400000284270
:10139000745600205856002080B586B000AFF86023
:1013A000B9601346FB710023FB75BB683B61FB68AA
:1013B000BA681A60FB68FA791A710023FB75BB687A
:1013C0003B6109E038690021FFF7D8F83B69043335
:1013D0003B61FB7D0133FB75FB7D1F2BF2D9FB6865
:1013E0001B79012B0DD0022B02D0002B1AD036E036
:1013F000FB681B68803318464FF0FF31FFF78EF80B
:101400002FE0FB681B68803318464FF6FF71FFF72B
:101410009DF8FB681B68843318464FF6FF71FFF791
:1014200095F81EE0FB681B6880331846FF21FFF724
:10143000A5F8FB681B6884331846FF21FFF79EF868
:10144000FB681B6888331846FF21FFF797F8FB6895
:101450001B688C331846FF21FFF790F801E000BEAF
:1014600000BF1837BD4680BD80B586B000AFF860BC
:101470000B467A60FB72FB7A1F2B00D900BEFB7A09
:101480001F2B14D8FB681B687B61FB7A9B001A46F4
:101490007B6913447B6178697968FFF73FF8786965
:1014A000FFF73EF802467B689A4200D000BE18372C
:1014B000BD4680BD80B582B000AF786039607B6882
:1014C0001B79012B0CD0022B02D0002B1DD047E042
:1014D0007B681B68A03318463968FFF71FF841E0A6
:1014E0007B681B68A0333A6892B218461146FFF732
:1014F0002DF87B681B6803F1A4023B681B0C9BB2B0
:1015000010461946FFF722F82CE07B681B68A033D1
:101510003A68D2B218461146FFF730F87B681B686C
:1015200003F1A4023B681B0ADBB210461946FFF721
:1015300025F87B681B6803F1A8023B681B0CDBB233
:1015400010461946FFF71AF87B681B6803F1AC02D6
:101550003B681B0EDBB210461946FFF70FF801E09F
:1015600000BE00BF786800F009F802463B689A4266
:1015700000D000BE0837BD4680BD00BF80B584B036
:1015800000AF78600023FB607B681B79012B0CD0D7
:10159000022B02D0002B20D04FE07B681B68A033C9
:1015A0001846FEF7BDFFF86049E07B681B68A03372
:1015B0001846FEF7CDFF03461A46FB681343FB604F
:1015C0007B681B68A4331846FEF7C2FF03461B0462
:1015D0001A46FB681343FB6031E07B681B68A0334D
:1015E0001846FEF7B5FF03461A46FB681343FB6037
:1015F0007B681B68A4331846FEF7AAFF03461B024C
:101600001A46FB681343FB607B681B68A8331846C7
:10161000FEF79EFF03461B041A46FB681343FB605C
:101620007B681B68AC331846FEF792FF03461B0627
:101630001A46FB681343FB6001E000BE00BFFB6875
:1016400018461037BD4680BD80B584B000AF7860C5
:101650000B46FB707B681B68FB60FB781F2B00D977
:1016600000BEFB781F2B12D8FB789B001A46FB6844
:101670001344FB60F868FEF783FF0346BB60BB685A
:1016800043F00803BB60F868B968FEF777FF1037CE
:10169000BD4680BD80B584B000AF78600B46FB705E
:1016A0007B681B68FB60FB781F2B00D900BEFB78B2
:1016B0001F2B12D8FB789B001A46FB681344FB6073
:1016C000F868FEF75DFF0346BB60BB6823F00803C4
:1016D000BB60F868B968FEF751FF1037BD4680BDA2
:1016E00080B584B000AF78600B46FB70FB780122B8
:1016F00002FA03F3FB607B681B79012B0CD0022BF1
:1017000002D0002B1AD03FE07B681B68803318465C
:10171000F968FEF703FF39E07B681B6880331846E1
:10172000F968FEF713FF7B681B6803F18402FB680E
:101730001B0C10461946FEF709FF27E07B681B6863
:1017400080331846F968FEF719FF7B681B6803F1C0
:101750008402FB681B0A10461946FEF70FFF7B68E0
:101760001B6803F18802FB681B0C10461946FEF744
:1017700005FF7B681B6803F18C02FB681B0E10469B
:101780001946FEF7FBFE01E000BE00BF1037BD4664
:1017900080BD00BF80B500AF00F030F8044A044BB4
:1017A0005B6943F400735361FEF744FE80BD00BFE4
:1017B00000ED00E080B483B000AF0E4BD3F84C31A5
:1017C0003B603B684FF60202934203D00A4A9342C1
:1017D00003D005E001237B6005E002237B6002E08B
:1017E00000237B6000BF7B6818460C37BD465DF860
:1017F000047B70470080034002F8010080B582B08E
:1018000000AFFFF7D7FF78607B68012B00D002E0C4
:1018100000F004F800BF0837BD4680BD80B400AFBB
:10182000094A094BD3F8983043F48073C2F89830D2
:10183000054A054BD3F8983023F08063C2F89830FE
:10184000BD465DF8047B70470080034080B483B0E0
:1018500000AF0346FB71084997F907305B09FA7935
:1018600002F01F02012000FA02F241F823200C3797
:10187000BD465DF8047B704700E100E080B483B0B2
:1018800000AF0346FB71094997F907305B09FA7904
:1018900002F01F02012000FA02F2603341F8232017
:1018A0000C37BD465DF8047B704700BF00E100E0E7
:1018B00080B483B000AF03463960FB7197F90730FD
:1018C000002B0BDA0D49FB7903F00F03043B3A6858
:1018D000D2B21201D2B20B441A7609E0084997F944
:1018E00007303A68D2B21201D2B20B4483F8002317
:1018F0000C37BD465DF8047B704700BF00ED00E08B
:1019000000E100E080B582B000AF02F0EBFF3348A9
:1019100000F0C2F823200621FFF7CAFF242005218A
:10192000FFF7C6FF2320FFF7A9FF2420FFF7A6FF3C
:101930002B482C490222FFF72FFD294800210322C2
:10194000FFF792FD264801214322FFF78DFD244831
:1019500002210522FFF788FD02F0C4FF224800F0B3
:101960009BF81F480021FFF76FFE1D480121FFF77C
:101970006BFE2320FFF76AFF2420FFF767FF1B4B56
:101980004FF400221A60194B1B68013B174A136081
:10199000164B1B68002B1FDC11480021FFF77AFE55
:1019A0000F480121FFF776FE104B4FF400221A601A
:1019B0000B48FFF7E3FD78607B6883F003037B60EF
:1019C00007487968FFF776FD05480021FFF73CFEE0
:1019D00003480121FFF738FED5E700BF5C4C00202B
:1019E0006858002000100030844C002078560020F9
:1019F00080B500AF02F076FF094800F04DF80948C5
:101A00000221FFF757FD07480021FFF769FE05484F
:101A10000121FFF765FE2320FFF730FF80BD00BFE7
:101A20009C4C00206858002080B500AF02F05AFF9F
:101A3000034800F031F803480521FFF73BFDFAE7C2
:101A4000BC4C00206858002070B50F4E0F4D761B1F
:101A5000B61018BF002405D0013455F8043B984750
:101A6000A642F9D10A4E0B4D03F07CF9761BB61055
:101A700018BF002406D0013455F8043B9847A6420D
:101A8000F9D170BD70BD00BF7C4D00207C4D0020A1
:101A9000844D00207C4D00200FB410B5074B82B060
:101AA00004AC54F8042B186823468168019400F0B4
:101AB00007F902B0BDE8104004B07047D0510020D3
:101AC000844641EA000313F0030349D1403A23D38B
:101AD0000B6803604B6843608B688360CB68C360AE
:101AE0000B6903614B6943618B698361CB69C36196
:101AF0000B6A03624B6A43628B6A8362CB6AC3627E
:101B00000B6B03634B6B43638B6B8363CB6BC36365
:101B100040304031403ADBD230320BD30B680360A7
:101B20004B6843608B688360CB68C36010301031B2
:101B3000103AF3D20C3205D351F8043B40F8043B81
:101B4000043AF9D2043208D0D2071CBF11F8013B85
:101B500000F8013B01D30B8803806046704700BF4B
:101B6000082A13D38B07B1D010F00303AED0C3F112
:101B70000403D21ADB071CBF11F8013B00F8013B3C
:101B8000A4D331F8023B20F8023B9FE7043AD9D3B3
:101B9000013A11F8013B00F8013BF9D20B780370D0
:101BA0004B7843708B7883706046704770B48407BD
:101BB00046D0541E002A41D0CDB2034602E0621E38
:101BC000E4B3144603F8015B9A07F8D1032C2ED92D
:101BD000CDB245EA05250F2C45EA054519D926461B
:101BE00003F11002103E0F2E42F8105C42F80C5C1C
:101BF00042F8085C42F8045C02F11002F2D8A4F149
:101C0000100222F00F0204F00F041032032C1344D0
:101C10000DD91E462246043A032A46F8045BFAD838
:101C2000221F22F003020432134404F003042CB1F7
:101C3000C9B21C4403F8011BA342FBD170BC70471E
:101C400014460346C2E700BF4B6E2DE9F0479C04E3
:101C50000F4692462BD59368126833B3804602F143
:101C6000080919E96000B60817D0043D002401E016
:101C7000A64210D0404655F8041F3A4601F088F8B5
:101C8000431C04F10104F3D10023CAF80830CAF858
:101C90000430BDE8F087DAF80830A3EB8603CAF811
:101CA000083009F10809002BDBD10020ECE701F036
:101CB000A7F90023CAF80830CAF80430BDE8F08755
:101CC0002DE9F04FABB01C46009193460493019070
:101CD00018B1836B002B00F0E380009B99898AB2D6
:101CE000900408D418465B6E41F4005223F400536C
:101CF0008281436692B2110740F1B280009B1B695A
:101D0000002B00F0AD8002F01A020A2A00F0B48025
:101D10000DF1680A54460023099302930F930E9322
:101D2000CDF834A09BF80030002B00F0A384252BC5
:101D300000F0A0845A4601E0252B03D012F8013FA1
:101D4000002BF9D1CBEB0206154696B10E9B0F9AEC
:101D500001333244072BC4F800B066600F920E9333
:101D600079DD002A40F0AD845446029B0E92334444
:101D700002932B78002B00F05F834FF000030021CB
:101D80004FF0FF3C8DF82F30681C6B7888460D466D
:101D9000664600F1010BA3F12002582A00F2AA8244
:101DA000DFE812F09A02A802A802A202A802A80282
:101DB000A802A802A802A80254026002A8020D010B
:101DC0006C02A80229012F012F012F012F012F01E1
:101DD0002F012F012F012F01A802A802A802A8029B
:101DE000A802A802A802A802A802A8023D01A8020F
:101DF000A802A802A802A802A802A802A802A80293
:101E0000A8027401A802A802A802A802A8028B01D5
:101E1000A802A802A301A802A802A802A802A80278
:101E2000A802A802A802A802A802C701DA01A80213
:101E3000A802A8022301DA01A802A8024B02A80204
:101E400088021301F4010702A8020D02A802810012
:101E5000A802A80232020834029B3344029388E7A6
:101E60000198009900F072FDA8B9009B9A8902F0D0
:101E70001A020A2A7FF44CAF009BB3F90E30002BF4
:101E8000FFF646AF019800995A46234600F020FD20
:101E90002BB0BDE8F08F4FF0FF302BB0BDE8F08FD6
:101EA00000F0FEFE19E718F0200F0395B44600F08D
:101EB0000C81049B073323F0070303F10802D3E9E5
:101EC0000067049201234FF00002E1468DF82F20B5
:101ED0000025BCF1000FA8BF28F0800856EA0702D1
:101EE00040F0C480BCF1000F00F08083012B00F0B3
:101EF000C580022B00F086835146F20842EA477201
:101F0000F80806F0070307461646303356EA07027C
:101F100001F8013DF1D118F0010F079140F0FA836B
:101F2000C1EB0A09E1454E46B8BF664605B1013628
:101F300018F00203059318BF023618F084030693C5
:101F400040F0F981039B9D1B002D40F3F481102D7F
:101F500040F38A842046DDF838E064460F9AC44F87
:101F600010237146844607E001F1020E01460CF190
:101F7000080C103D102D13DD481C103207280F925D
:101F8000CCF80070CCF804300E90EDDD002A40F063
:101F9000C281103D102D11464FF0010ED446EBDCEE
:101FA00063467146A4461C462A4407290F922760BF
:101FB00065600E9100F346830834481CBEE1584624
:101FC00048F004089BF80030E3E618F0200303957E
:101FD000B44662D0049B073323F0070303F10802E1
:101FE000D3E90067049200236DE748F040089BF8AE
:101FF00000305846CDE648F080089BF8003058463F
:10200000C7E6A3F1300200251BF8013B05EB85056F
:1020100002EB4505A3F13002092AF5D9BBE648F0E9
:10202000100818F0200F0395B4468DF82F1000F01B
:102030009B800499073121F00701D1E9002316465E
:102040001F4608310491002A73F10003C0F2A483F3
:10205000BCF1000FA8BF28F0800856EA07029DF8DF
:102060002F50E1464FF001033FF43CAF012B7FF4CA
:1020700040AF002F08BF0A2E80F032832AAB3036E3
:1020800003F8416DC3EB0A0907934BE748F01008CA
:1020900018F020030395B4469CD118F0100240F0CC
:1020A000F78218F0400300F0F382049913460A46C1
:1020B00004320E880027049205E748F0100818F053
:1020C000200F0395B4467FF4F4AE049A18F0100F75
:1020D000134640F0E48218F0400F00F0E0821688CA
:1020E0000432002701230492EDE6624A18F0200F23
:1020F0000395B4468DF82F10099200F08F80049A52
:10210000073222F0070202F108010491D2E90067C8
:1021100018F0010F00F08F8256EA070200F08B8260
:1021200030228DF8313048F002088DF8302002233B
:10213000C9E6049A012613684FF000018DF840307B
:102140001346B1460433049310AB03958DF82F105A
:1021500007934FF0000CEBE618F0200F0395B44600
:102160008DF82F107FF465AF049A18F0100F134606
:1021700040F0A08218F0400F00F09C82B2F900609D
:102180000433F717049332463B465CE704997823FF
:102190008DF83130384BB44630220E680431099343
:1021A000039548F00208049100278DF8302002239F
:1021B00089E648F020089BF800305846E9E54FF0E2
:1021C0000001049A03951368B44607938DF82F1005
:1021D000151D002B00F04E83002EC0F22983079EB0
:1021E000624630460021CDF810C001F0C1FBDDF899
:1021F00010C0002800F04E830495C6EB00099DF83E
:102200002F504FF0000C8DE61B4A18F0200F03955D
:10221000B44609928DF82F107FF471AF049918F02D
:10222000100F0A4640F0418218F0400F00F03D8246
:1022300004320E88002704926AE79BF800306C2B6A
:1022400000F0E98248F010085846A2E5049A1346C7
:1022500015680433002DC0F2E68204939BF8003029
:10226000584696E59BF8003058462B2191E500BF73
:10227000504D0020204D0020344D00209BF80030B0
:102280000BF101002A2B00F00F83A3F13002092A81
:1022900083464FF000063FF67EAD1BF8013B06EB90
:1022A000860602EB4606A3F13002092AF5D946EA72
:1022B000E67670E518F0200F8DF82F1000F083827D
:1022C000049A134604330493029B1168DF171A46DD
:1022D0003B46C1E9002325E558469BF8003000291C
:1022E0007FF457AD202154E548F0010858469BF88B
:1022F00000304EE503958DF82F10002B00F09C80E8
:102300008DF840304FF0000301268DF82F3010ABD0
:10231000B14607931DE7019800990DAA0893FFF7AE
:1023200093FC002840F08F800E99D4460F9A01F15B
:10233000010E089B1DE60E990F9A481C9DF82F3040
:102340006BB101320DF12F03012107280F920E907E
:102350002360616000F33481014608340130059B3D
:1023600063B102320CA9022307280F920E9084E871
:102370000A0000F33481014608340130069B802BAB
:1023800000F0D480C9EB0C07002F2BDD102FAB4DD4
:102390001FDDA6461023019C07E001F1020C014657
:1023A0000EF1080E103F102F11DD481C10320728C7
:1023B0000F92CEF80050CEF804300E90EDDD6ABBDF
:1023C000103F102F4FF0010C1146D646EDDC74463D
:1023D00060463A4407280F9284E8A0000E903BDC48
:1023E0000834013002EB0903079A07280F9384E8A9
:1023F00004020E903DDD002B40F03F8118F0040FE9
:102400000E9340F03081029B039A9642ACBF9B1919
:102410009B18029300230E93544683E420460099B0
:102420000DAA0593FFF710FC68B90E99D6460F9ACE
:1024300001F1010C059BB5E70F9B23B101980099B1
:102440000DAAFFF701FC009B9B895B063FF523ADBE
:1024500002982BB0BDE8F08F002A40F090814B46E7
:10246000544607990122CDF86C90CDF83C901A9112
:102470000E9204F1080218F0040F39D003998D1B55
:10248000002D35DD102D40F300820E986C4F102486
:10249000DDF80480DDF8009006E000F1020E084649
:1024A0000832103D102D10DD411C103307290F9309
:1024B000176054600E91F0DD002B2AD1103D102DD5
:1024C0004FF0010E18465246EEDC2B44BEF1070FCA
:1024D0000F9317605560CDF838E009DD002B92D0DE
:1024E000019800990DAAFFF7AFFB0028ABD10F9B15
:1024F000029A03998E42ACBF921952180292002B95
:1025000088D0019800990DAAFFF79EFB002881D082
:1025100099E7404649460DAAFFF796FB002892D15D
:102520000E9852460F9B00F1010EBAE7039B9F1BCA
:10253000002F7FF727AF102F40F3B38120463F4D88
:1025400064461023844607E001F1020E01460CF1B7
:10255000080C103F102F11DD481C103207280F9275
:10256000CCF80050CCF804300E90EDDDC2B9103F2D
:10257000102F4FF0010E1146D446EDDC6346A44601
:102580001C463A44BEF1070F0F9284E8A000CDF834
:1025900038E000F3EE8008340EF101007146F1E6F8
:1025A000019800990DAA0593FFF74EFB00287FF4D0
:1025B0004AAF0E99D4460F9A01F1010E059BC8E768
:1025C000002A40F0C580059B002B00F085800CAAF6
:1025D00002231A9208461B931A465446CBE6002A59
:1025E00040F0A580012011465446C7E603BB18F011
:1025F000010F1DD02AAB302203F8412DC3EB0A098D
:1026000007938FE4D1460998330943EA07733909E0
:1026100006F00F020F461E46835C09F8013D56EA9C
:102620000703F1D14B46CDF81C90C3EB0A0979E4BE
:10263000CDF81CA076E4022345E400BF104D002035
:10264000504D0020002A40F0D5809DF82F30002BFF
:1026500000F0AC8001230DF12F0118461B931A46A0
:102660001A91544678E6039A951B002D52463FF77F
:1026700009AFC8E65D46FFF77CBB019800990DAA3B
:10268000FFF7E2FA00287FF4DEAE52460F9BF2E637
:10269000049900270A4604320E68049213E40432B7
:1026A0001E680027012304920DE416680432049288
:1026B00000272DE51E680433F717049332463B4686
:1026C000C1E4019800990DAAFFF7BEFA00287FF433
:1026D000BAAE5446FFF7C0BB0846544611464DE615
:1026E000D146CDF814C0304639460A22002301F005
:1026F000F7FD30323046394609F8012D00230A2211
:1027000001F0EEFD06460F4656EA0703EBD1DDF871
:1027100014C087E7302B079B87D0013B1A460793ED
:102720003023C2EB0A0901F8013CFFF7FBBB01981B
:1027300000990DAACDF814C0FFF786FA00287FF49F
:1027400082AE0E9954460F9A481CDDF814C015E667
:10275000019800990DAACDF820C0FFF775FA00285E
:102760007FF471AE0E9954460F9A481CDDF820C0D4
:10277000F5E5002A67D101201146544602E601988A
:1027800000990DAAFFF760FA00287FF45CAE0E985E
:1027900054460F9A013025E62D25764267EB470710
:1027A0008DF82F50E1460123FFF793BB059B11469F
:1027B00001205446002B3FF4E5AD0CAA02238AE821
:1027C0000C001A46D7E518F0100F0BD118F0400F87
:1027D00008D0049A136804320492BDF808201A80C5
:1027E000FFF7A0BA049A136804320492029A1A609E
:1027F000FFF798BA019800990DAACDF820C0FFF70D
:1028000023FA00287FF41FAE0E9954460F9A481CF5
:10281000DDF820C092E548F020080BF101009BF89C
:102820000130FFF7B6BA6D4204935846FFF7C8BBB4
:102830000798049501F092FB9DF82F5081464FF0C8
:10284000000CFFF76FBB019800990DAACDF814C0DA
:10285000FFF7FAF900287FF4F6AD0E9954460F9A67
:10286000481CDDF814C08DE50E990F9A0131154F03
:10287000FFF79ABB062E144B28BF4FF0060CE1461B
:1028800004952CEAEC76079363E40E990D4F01F161
:10289000010E1AE6E146049584469DF82F50FFF795
:1028A00041BB8646094D6CE6049A9BF801301668D8
:1028B0000432002E0492BFF66CAA4FF0FF36FFF7E9
:1028C00068BA00BF504D0020484D0020104D002038
:1028D0002DE9F04588464F6EADF26C4D1997D8F84A
:1028E0001C70B1F80CE0B1F80EA00797D8F824706E
:1028F0001AAC4FF480652EF0020E00266946009453
:10290000049402950595ADF80CE0ADF80EA009977A
:1029100006960546FFF7D4F9041E07DB28466946EC
:1029200000F02AF9B04218BF4FF0FF34BDF80C3068
:102930005B0605D5B8F80C3043F04003A8F80C301E
:1029400020460DF26C4DBDE8F08500BF38B52F4B29
:10295000054618680C4610B1836B002B36D0A2894F
:1029600093B218070CD52069A8B113F001021ED04C
:10297000636900225B42A361A260F0B1002038BD10
:10298000D9063AD5580724D4206942F00803A38118
:102990009BB20028E9D103F42072B2F5007FE4D0A5
:1029A0002846214600F0EEFCA3892069DDE799075F
:1029B00058BF6269A2600028E0D1A3891A06DED55B
:1029C00043F04003A3814FF0FF3038BD00F068F9B9
:1029D000C5E7216B49B104F14003994203D0284671
:1029E00000F036FAA28900232363206922F0240232
:1029F000002392B284E80900C7E742F040020923AD
:102A00002B604FF0FF30A28138BD00BFD0510020B5
:102A1000024B13B1024800F005B8704700000000F7
:102A2000B52C0020014600200246034601F064BB9D
:102A30008B892DE9F0419AB20D46110780463CD4AE
:102A40006A6843F40063002AAB8165DDAE6A002E3C
:102A50004BD09BB203F48052002192B2D8F80040D0
:102A6000C8F80010002A5BD02A6D5F0705D5696899
:102A70002B6B521A0BB1EB6BD21A4046E96900235B
:102A8000B047461C56D0AB892A6923F400639BB239
:102A900000212A60DA04AB8169603BD4296BC8F855
:102AA000004011B305F14003994202D0404600F0C6
:102AB000CFF900202863BDE8F0812E69AEB19107FF
:102AC0002C680CBF6B6900232E60A41BAB600AE06E
:102AD000324623466F6A4046E969B8470028A4EBAE
:102AE0000004064404DD002CF2DC0020BDE8F08187
:102AF000AB894FF0FF3043F04003AB81BDE8F0817C
:102B0000AB892A6923F400639BB2AB81DB04696063
:102B10002A60C3D52865C1E7EA6B002A96DCE4E7A2
:102B200001234046E969B047431C024619D0AB89EE
:102B3000AE6A9AE7D8F800100029E1D01D2907D025
:102B4000162905D0AB8943F04003AB81BDE8F08185
:102B5000AB89296923F400630022AB8185E8060074
:102B60009CE7D8F80030002BE1D01D2B01D0162BAC
:102B7000BED1C8F80040B8E710B5044682B008B12D
:102B8000836B53B1B1F90C0008B902B010BD2046F7
:102B900002B0BDE81040FFF74BBF019100F080F894
:102BA0000199EFE7014900F0BBBB00BFC141002024
:102BB0002DE9F04F074635487D68002407F53B7244
:102BC00004230321F863C7F8E412C7F8E822C7F822
:102BD000E04283B02C606C60AC606C66EC812C6170
:102BE0006C61AC61AB81214605F15C000822FEF707
:102BF000DDFFDFF89CB0BE68DFF898A0DFF89890A2
:102C0000DFF8988001230922C5F820B0C5F824A078
:102C1000C5F82890C5F82C80ED612146F381B2817A
:102C200006F15C0034607460B46074663461746191
:102C3000B46108220193FEF7B9FFFD681220022259
:102C4000F661C6F820B0C6F824A0C6F82890C6F8E9
:102C50002C802146A881EA812C606C60AC606C6697
:102C60002C616C61AC6105F15C000822FEF79EFFEF
:102C7000019BED61C5F820B0C5F824A0C5F82890E7
:102C8000C5F82C80BB6303B0BDE8F08FA52B0020F6
:102C9000D93E0020FD3E0020353F0020553F00205A
:102CA000836B03B17047FFF783BF00BF704700BF5E
:102CB000704700BF38B5084B084DED1AAC1018BF6F
:102CC000ED1805D0013C55F8043D9847002CF9D18A
:102CD000BDE8384002F04CB8844D0020884D0020FB
:102CE0002DE9F04182B007460E46144600F044FB41
:102CF000012840D0384601A9324604F15C0301F0B6
:102D0000AFF9B0F1FF3F80462ED000283BD09DF8B0
:102D10000410002509E0236819702368013323603B
:102D20000135A8452FD901AB595DA368013B002BA4
:102D3000A360F0DAA269934206DB23681970236866
:102D4000197801330A29EAD13846224601F034F9CC
:102D5000A0F1FF30B0FA80F040090028E0D04FF039
:102D6000FF3002B0BDE8F081A38943F04003A381A6
:102D700002B0BDE8F081731EFE2BBBD8F1B28046D5
:102D80008DF80410C5E7304602B0BDE8F08100BF01
:102D9000938913F4005F0BD110B4546E43F40053C5
:102DA00044F40054546693815DF8044BFFF798BFD8
:102DB000FFF796BFF8B50C46224F064600F086FE98
:102DC000BB685D6825F00305291B01F6EF7121F44E
:102DD0007F6121F00F01A1F58054B4F5805F07DB1E
:102DE0003046002101F066F8BB682B44984204D0BD
:102DF000304600F06DFE0020F8BD3046614201F023
:102E000059F801300DD0104BBA6819682D1B45F0E8
:102E100001053046091B5560196000F059FE01207C
:102E2000F8BD3046002101F045F8BA68831A0F2B2F
:102E3000DEDD064C0449246843F00103001B5360A7
:102E40000860D5E7F851002088560020045600207D
:102E500000294ED02DE9F0410C46804600F036FEA8
:102E600054F8047C6249A4F1080527F00102AB186C
:102E70008E6858689E4220F003005AD0FE075860C2
:102E80000BD454F8087C01F1080EED1BAC683A44F1
:102E9000744567D0EF68E760BC601C186468E4079D
:102EA0000CD4544F9C680244BC427CD0D86842F099
:102EB0000103E06084606B60AA5003E042F001030C
:102EC0006B60AA50B2F5007F14D2D20801EBC203A6
:102ED00001244868921004FA02F29C681043AC6026
:102EE000EB6048609D60E5604046BDE8F04100F061
:102EF000EFBD7047530A042B47D8930903F13804F8
:102F0000600001EB800083683949834243D05968EF
:102F100021F00301914202D99B689842F7D1DA6807
:102F2000EA60AB6040469560DD60BDE8F04100F0CE
:102F3000CFBDFF07024407D454F8084C2D1BEB68A3
:102F4000A8682244C36098602B4B42F001001B68C4
:102F500068609A428D60C7D3284B40461968FFF7D6
:102F600029FFC1E719184968C90709D4D96802447B
:102F70009B6842F00100D9608B606860AA50B3E79B
:102F800042F001036B60AA50AEE7142B14D803F192
:102F90005B046000B5E74A68A4100120A04002432A
:102FA0004A601A46BCE742F001034D610D61EC60D6
:102FB000AC606B60AA5097E7542B04D8130B03F155
:102FC0006E0460009DE7B3F5AA7F04D8D30B03F12C
:102FD0007704600095E740F25450834204D8930C84
:102FE00003F17C0460008CE7FC207E2489E700BFAD
:102FF000F851002000520020005600208456002086
:103000009368002B00F0B1802DE9F04FB1F80CE08F
:1030100083B01EF0080F0C468146164628D00B6977
:1030200033B30EF002081FFA88F0356880B34FF012
:10303000000BD846DFF8E4A2B8F1000F00F08F8053
:10304000D0454346484628BF5346E1695A46676A19
:10305000B847002840F3A880B36883441B1AC0EB2C
:103060000808B360002BE7D1002003B0BDE8F08F63
:1030700048462146FFF76AFC002840F04681B4F834
:103080000CE035680EF002081FFA88F00028CED157
:103090001EF0010B40F09180D846B8F1000F58D0D7
:1030A0001EF4007FA76862D0B845BA46C0F0C2805F
:1030B0001EF4906F00F0C08067692169236807EBF8
:1030C00047075B1A07EBD777581C7F1040448742AD
:1030D0003A463CBF07463A461EF4806F009300F024
:1030E000FB801146484600F0BDF9009B824600284F
:1030F00000F00E811A4621690093FEF7E1FCA289D7
:10310000009B22F4906242F08002A2810AEB03004D
:10311000C4F810A0FB1A6761C24647462060A3604E
:103120005246594600F06EFCA0682268C01BA060A1
:10313000404602EB0A032360B36883441B1AC0EBCA
:103140000808B360002B8FD0B4F80CE0B8F1000F82
:10315000A6D1D5F800B0D5F8048008359DE7D5F89C
:1031600000B0D5F80480083566E700207047206875
:103170002369984203D86269904580F0858047456D
:1031800028BF474659463A4600F03CFCA3682268EF
:10319000DB1B3A44A3602260002B49D148462146FC
:1031A000FFF7EAFC002843D0A38943F040034FF027
:1031B000FF30A38103B0BDE8F08F8046834682468E
:1031C0000090BAF1000F2BD0009B002B4FD0D045C0
:1031D000434628BF5346206821691F468842D4F8D9
:1031E00008E0626903D90EEB020C63455EDC934292
:1031F00024DB1346676A4846E1695A46B847071E0A
:10320000D2DDB8EB070829D0B368BB44DB1BC7EBA2
:103210000A0AB360002B3FF427AFBAF1000FD3D1F5
:103220000023D5F800B0D5F804A000930835C8E70E
:10323000384681E74746C246206871E71A46594634
:10324000019300F0DFFBA2682168019BB8EB07083F
:10325000A2EB03020B44A2602360D5D1484621466D
:10326000FFF78AFC00289FD1CDF80080CCE75846B4
:103270000A21524600F07CFB002841D00130012396
:10328000CBEB00080093A2E76FF00043434528BF53
:10329000434693FBF2F3676A03FB02F34846E16996
:1032A0005A46B84700283FF747AF7DE76246594680
:1032B000CDF804C000F0A6FB2368DDF804C0484642
:1032C000634423602146FFF757FCDDF804C0002863
:1032D0007FF46AAF674694E7484600F0FBFB009B2B
:1032E000824600287FF412AF48462169FFF7B0FDFF
:1032F000A3890C2223F080039BB2C9F8002054E775
:1033000001230AF10108009361E74FF0FF30ACE6BA
:103310000C23C9F80030A38947E700BF00FCFF7FFA
:103320002DE9F84310F538761ED0884607464FF051
:1033300000097568B468013D10D4A389013D012BD3
:1033400008D9B4F90E30013304D038462146C047BD
:1033500049EA00096B1C04F16804EED13668002EBE
:10336000E7D14846BDE8F883B1464846BDE8F88352
:1033700000487047D4510020014B1868704700BFC7
:10338000F45100208B899AB212F0020F3CD1F0B5B3
:103390000C46B1F90E1091B00029054619DB01AABF
:1033A00000F050FF002812DB029B03F47043A3F5EA
:1033B0000057B7FA87F7B3F5004F4FEA57172AD0EF
:1033C000A3894FF4806643F40063A3810BE0A389D3
:1033D0009AB212F0800F43F40063A3810CBF4FF444
:1033E0008066402600272846314600F03BF8A38936
:1033F00040B31A4A43F08003EA63A381206020614E
:1034000066619FB911B0F0BD01F1430301220B6069
:103410000B614A617047124BA26A9A42D0D1A389CC
:103420004FF480663343A381E664DCE72846B4F9B1
:103430000E1000F01BFF0028E4D0A38943F0010325
:10344000A381DFE79A05DDD404F1430243F00203D0
:103450000121A381226022616161D3E7A52B0020B5
:10346000353F00202DE9F04F01F10B05162D83B0FB
:10347000064627D935F0070500F1B680A94200F2CB
:10348000B38000F023FBB5F5FC7F22D2BC4FE808E7
:1034900007EBC003DC689C4200F0BC816368E16814
:1034A00023F0030323445A68A56842F00102E9604F
:1034B00030468D605A6000F00BFB0834204603B0A4
:1034C000BDE8F08F102900F28F8000F0FFFA102580
:1034D000DCE7680A00F08F80042800F24781A80921
:1034E00038304100A64F07EB8101CC68A14206D1DC
:1034F0000CE0002A80F28280E468A14206D0636872
:1035000023F003035A1B0F2AF3DD013801309C49D5
:103510003C6901F1080E744500F07181636823F085
:1035200003035A1B0F2A00F35781002AC1F814E045
:10353000C1F810E066DAB3F5007F80F02D81DB087A
:1035400001EBC3084FEAA30C4A68012303FA0CF30A
:10355000D8F808C01343C4F808C0C4F80C804B6006
:10356000C8F80840CCF80C408210012494409C42DA
:1035700055D8234206D120F003006400234200F115
:103580000400FAD007EBC008C4468146DCF80C30D2
:103590009C4507D135E1002980F24581DB689C45D7
:1035A00000F02F815A6822F00302511B0F29F2DD2F
:1035B0001C46DA6854F808CF45F0010941F00108CB
:1035C0001D44C3F804903046CCF80C20C2F808C063
:1035D0007D613D61C5F80CE0C5F808E0C5F80480E0
:1035E000695000F075FA69E7002420460C23336027
:1035F00003B0BDE8F08F7E213F2073E723445A6873
:10360000E16851E723445A68304642F001025A60AB
:10361000083400F05DFA204603B0BDE8F08FBC68C6
:10362000636823F00308454504D8C5EB08030F2B56
:1036300000F38C80534BDFF85CA11A68DAF8003095
:103640002A44013304EB080B00F0518102F580524B
:103650000F3222F47F6222F00F02114630460192AF
:1036600000F028FCB0F1FF3F8146019A00F048814C
:10367000834500F2EF80444BCB4519681144196033
:1036800000F04381DAF80000DFF808E101301BBFE9
:10369000CBEB090B5944CEF80090196019F00701E3
:1036A00000F00881C1F10800C1F580518144083162
:1036B0004A44C2F30B02C2EB010A51463046019361
:1036C00000F0F8FB431C019B00F02D81C9EB0002C8
:1036D000524442F001021968BC425144C7F80890B4
:1036E0001960C9F80420DFF8A0A016D0B8F10F0FB8
:1036F00040F2EF806268A8F10C0323F0070302F0A8
:103700000102E0184FF0050E1A430F2B6260C0F85B
:1037100004E0C0F808E000F20A811C4BBC681A689B
:10372000914288BF19601A4B1A689142626888BF3B
:10373000196022F003029542A2EB050301D80F2B7A
:1037400004DC304600F0C4F90024B7E645F001027D
:1037500043F00103254462603046BD6008346B606D
:1037600000F0B6F9204603B0BDE8F08F142869D9FF
:10377000542800F29880280B6E304100B2E600BF5A
:10378000F8510020845600208856002080560020E2
:103790007C560020045600205A0A042A55D9142ABF
:1037A00000F2A7805B324FEA420C07EB8C0CDCF88E
:1037B0000810DFF8B88161457FD04A6822F0030223
:1037C000934202D289688C45F7D1CA687B68E2606F
:1037D000A1609460CC60C7E645F0010742F00103A8
:1037E0002544676030464D610D61C5F80CE0C5F8B1
:1037F00008E06B60AA50083400F06AF95EE64B6896
:10380000B2E609F1010919F0030F0CF1080C7FF47D
:10381000BDAE2CE004F108036469A34208BF023086
:103820003FF475AE3AE61C461A445168DB6854F81A
:10383000085F41F0010151603046EB609D6000F08F
:1038400047F93BE65B3041004CE69A0938324FEAD3
:10385000420CAAE7BC42454B3FF40DAF9C6862683E
:1038600022F0030267E7D8F8008098457CD110F079
:10387000030FA8F1080300F1FF30F4D17B6823EABD
:1038800004037B6064009C423FF6C9AE002C3FF409
:10389000C6AE234248467FF475AE6400234200F171
:1038A0000400FAD06EE6B0F5AA7F18D8E80B77309E
:1038B000410017E64FF48051FAE6D8F80430921030
:1038C0004FF0010C0CFA02F21343C8F804300A4618
:1038D0007DE70123C9F804304C4600222BE740F273
:1038E000545398421CD8A80C7C304100FAE51032A1
:1038F000B3E6542A23D81A0B6E324FEA420C54E72F
:10390000BC68626822F0030215E7CBF30B000028C5
:103910007FF4B8AE4244BB6842F001025A60FCE654
:10392000FC217E20DEE501224FF0000AD3E604F1FF
:1039300008013046FFF78CFADAF80010EDE6B2F530
:10394000AA7F04D8DA0B77324FEA420C2DE740F217
:1039500054518A4204D89A0C7C324FEA420C24E734
:103960004FF0FC0C7E2220E77B688BE7F8510020AB
:10397000830770B4C9B240D0541E002A3FD00378E8
:103980008B4218BF431C05D11CE0ECB10278013C0E
:103990008A4217D013F0030F184603F10103F4D144
:1039A000032C14D884B103788B420BD00519431C27
:1039B00002E002788A4205D0AB42184603F10103C7
:1039C000F7D1002070BC7047204670BC704702469B
:1039D00041EA012646EA0646136810467340A3F101
:1039E000013525EA030313F0803F02F10402D9D127
:1039F000043C032C1046EFD8D4E71446D0E7104619
:103A0000E0E700BF8842F0B50DD98B1898420AD282
:103A10008118002A54D09A1A13F8014D934201F8E4
:103A2000014DF9D1F0BD0F2A48D940EA01039B07A7
:103A300047D1154600F1100401F1100353F8106C42
:103A4000103D44F8106C53F80C6C0F2D44F80C6CBE
:103A500053F8086C04F1100444F8186C53F8046C23
:103A600003F1100344F8146CE8D8A2F1100323F01A
:103A70000F0302F00F0E1033BEF1030F194403447D
:103A800021D90E4674461D1F56F8047B043C032CB6
:103A900045F8047FF8D8AEF1040424F0030404349C
:103AA0002344214402F0030252B1013B0A4411F8BD
:103AB000014B914203F8014FF9D1F0BD0346F3E702
:103AC000F0BD0346F1E77246EEE700BF704700BF66
:103AD000704700BF2DE9F04F174683B00D4600290F
:103AE00000F0E280814607F10B04FFF7EFFF55F885
:103AF000043C162C23F00306A5F108084BD810222D
:103B00001446A7424CD8964251DADFF8A4B308EB2A
:103B10000601DBF80800884200F0D380486820F0F6
:103B2000010E8E44DEF804E01EF0010F54D120F0A7
:103B300003003044904280F2BD80DB0700F19080AA
:103B400055F8083CC3EB080ADAF8043023F0030305
:103B500000EB030E964549DB5746CB688968321F58
:103B6000CB60996057F8081FDAF80C30242ACB6034
:103B7000996000F23381132A40F2FA802B681B2AE5
:103B8000CAF808306B68CAF80C3000F23B8108357F
:103B90000AF11003EDE024F00704002C2246B0DA0D
:103BA0000C230020C9F8003003B0BDE8F08F2F4689
:103BB000321B0F2A03F0010340D83343C8F8043006
:103BC0004644736843F0010373604846FFF780FF83
:103BD000384603B0BDE8F08FD90741D455F8083C0A
:103BE000C3EB080ADAF8043023F0030333449342AA
:103BF00036DB5746DAF80C1057F8080F321F242A24
:103C0000C160886000F2F580132A40F2F0802968D4
:103C10001B2ACAF808106968CAF80C1000F207815C
:103C200008350AF1100229681E4611606968D046FD
:103C30005160AB689360DAF80430B9E708EB04012F
:103C4000234342F00100C8F804300A444860536836
:103C5000083143F0010353604846FFF7F9F8B4E731
:103C600039464846FFF7FEFB07460028ADD055F819
:103C7000043CA0F1080123F001024244914200F00B
:103C8000A680321F242A00F29380132A65D80346A7
:103C90002A46116819605168596092689A602946ED
:103CA0004846FFF7D5F890E7114603B0BDE8F04F5E
:103CB000FFF7D8BBCA6889682F46CA60064691607C
:103CC00076E7416804F1100021F00301314481429C
:103CD0005ADADB07C4D455F8083CC3EB080ADAF813
:103CE000043023F0030301EB030C60453FF77EAF84
:103CF0005746DAF80C3057F8081F321F242ACB60D9
:103D0000996000F2B680132A40F2A7802B681B2A24
:103D1000CAF808306B68CAF80C3000F2B380083576
:103D20000AF110032A681A606A685A60AA689A60E1
:103D3000C4EB0C030AEB040243F00103CBF80820A8
:103D40005360DAF80430484603F001031C43CAF814
:103D50000440FFF7BDFE38463BE72B681B2A036093
:103D60006B68436028D800F1080305F1080290E76A
:103D70003B462A6876461A606A68D0465A60AA6846
:103D80009A60DAF8043013E70B1B08EB040243F0E7
:103D90000103CBF80820536055F8043C484603F073
:103DA00001031C4345F8044CFFF792FE284610E738
:103DB0002946FFF727FE72E7AB68242A8360EB6889
:103DC000C3602BD000F1100305F1100261E750F839
:103DD000042C2F4622F003021644E9E62946384611
:103DE0007646D046FFF70EFEDAF80430E0E63A46B3
:103DF00019E7294638461E46D046FFF703FEDAF893
:103E00000430D5E6AB68242ACAF81030EB68CAF84B
:103E1000143018D010350AF11803AAE72A6900F106
:103E200018030261696905F11802416131E7A96867
:103E3000242ACAF81010E968CAF814100FD01035F7
:103E40000AF11802EFE62A690AF12003CAF81820DD
:103E50006A691835CAF81C208BE73B4662E7296976
:103E60000AF12002CAF8181069691835CAF81C103E
:103E7000D9E629463846CDF804C0FFF7C3FDDDF882
:103E800004C055E7AB68242ACAF81030EB68CAF8BA
:103E9000143003D010350AF1180343E72A690AF1F8
:103EA0002003CAF818206A691835CAF81C2039E7B7
:103EB000F851002038B5074C00230546084623601A
:103EC00000F050FE431C00D038BD2368002BFBD00F
:103ED0002B6038BD7058002010B50C46B1F90E109B
:103EE00000F0EAF9002803DB236D0344236510BDCD
:103EF000A38923F48053A38110BD00BF2DE9F041B5
:103F00000C4689891D46CB051646074606D5B4F9E9
:103F10000E100022022300F0BBF9A18921F4805188
:103F2000A1813846B4F90E1032462B46BDE8F04167
:103F300000F0CEB810B50C46B1F90E1000F0A8F99B
:103F4000A389421C0EBF23F4805343F480532065A1
:103F5000A38110BDB1F90E1000F020B920F00301CB
:103F600010F00300C0F1000051F8043B00F1040C14
:103F70004FEACC0C6FF000021CBF22FA0CF2134384
:103F80004FF0010C4CEA0C2C4CEA0C4CA3EB0C024D
:103F900022EA030212EACC1204BF51F8043B0430B7
:103FA000F4D0C2F1000102EA0102B2FA82F2C2F1D7
:103FB0001F0200EBD200704770B50D46144606464E
:103FC00010B1836B002B48D0A289A36991B2080776
:103FD000A36038D52369002B35D08904EDB215D5FF
:103FE00022686169D31A8B421CDA0133A168501C24
:103FF0000139A1602060157062699A421AD0A389C4
:10400000DB0701D50A2D15D0284670BD616E42F43C
:10401000005221F40051A281226861666169D31ABD
:104020008B42E2DB30462146FEF7A6FD40B922680E
:104030000123DBE730462146FEF79EFD0028E3D052
:104040004FF0FF3070BD30462146FEF77FFC002860
:10405000F6D1A289236991B2BFE7FEF721FEB3E74B
:104060002DE9F041054686B01E460C46A1B1104B25
:104070001746D3F80080FFF77BF9009603462146E8
:104080003A462846C047431C03D100228A233260A7
:104090002B6006B0BDE8F081054B1F68FFF768F99B
:1040A000009603462246284603A9B847EBE700BF1F
:1040B0000856002021B1FF2A04D80A700120704759
:1040C000084670478A2303604FF0FF30704700BFF7
:1040D00070B5084C06460025084611461A4625606C
:1040E00000F0E0FC431C00D070BD2368002BFBD027
:1040F000336070BD705800202DE9F047254C06460E
:1041000025688846D5F8484192469946C4B3606808
:104110001F2817DC411C76B104EB8003C3F888A08C
:10412000D4F88851012282401543022EC4F88851E8
:10413000C3F808911ED0831C6160002044F82380DE
:10414000BDE8F087144B03B34FF4C870AFF30080A1
:104150000446D0B1D5F84831002784E888003846B5
:10416000C5F848410121C4F88871C4F88C71002E4B
:10417000E1D0D1E7D4F88C311A43C4F88C21DAE7C6
:1041800005F5A674C5F84841C1E74FF0FF30BDE81A
:10419000F08700BF0C4D00200000000038B5074C30
:1041A000002305460846236000F0A8FC431C00D00D
:1041B00038BD2368002BFBD02B6038BD7058002021
:1041C00000293DD070B505460C4608B1836B7BB322
:1041D000B4F90C300BB9002070BD28462146FEF71B
:1041E00027FCE36A064633B12846E1699847002870
:1041F000B8BF4FF0FF36A3891B061CD4216B41B119
:1042000004F14003994202D02846FEF721FE002324
:104210002363616C21B12846FEF71AFE0023636414
:10422000FEF744FD0023A381FEF742FD304670BD3A
:10423000FEF736FDCCE728462169FEF709FEDDE7EB
:104240000020704738B5084C002305460846114643
:10425000236000F0D1FC431C00D038BD2368002B44
:10426000FBD02B6038BD00BF7058002038B5074C1C
:10427000002305460846236000F0CCFC431C00D018
:1042800038BD2368002BFBD02B6038BD7058002050
:1042900070B5084C06460025084611461A462560AA
:1042A00000F0EAFB431C00D070BD2368002BFBD05C
:1042B000336070BD7058002070B5084C064600256C
:1042C000084611461A46256000F072FB431C00D0D8
:1042D00070BD2368002BFBD0336070BD7058002088
:1042E00053B94AB9002908BF00281CBF4FF0FF315D
:1042F0004FF0FF3000F03CB882B0EC462DE90050A2
:1043000000F01EF8DDF804E002B00CBC704700BFFE
:104310002DE9F041069C904606460F461D4600F0EA
:1043200029F808FB01FCA8FB002300FB05C5B21A15
:104330002B4467EB03038646C4E90023BDE8F08104
:104340002DE9F843089E1746804689461D4600F031
:1043500067F900FB05F3A0FB074507FB0137B8EB46
:1043600004043D4469EB0505C6E90045BDE8F88352
:10437000704700BF00292DE9F043C0F2A880002655
:10438000002BC0F29E8081468E4690469C46174682
:1043900004460D46002B3DD18A4259D9B2FA82F328
:1043A0003BB1C3F120029D4020FA02F29F40154329
:1043B0009C40390CB5FBF1F01FFA87FE01FB10554C
:1043C0000EFB00F3220C42EA0545AB4209D9ED1978
:1043D00000F1FF3280F00B81AB4240F208810238DD
:1043E0003D44ED1AB5FBF1F301FB13550EFB03FE43
:1043F000A4B244EA0545AE4508D9ED1903F1FF32F0
:1044000080F0F780AE4540F2F480023B43EA00437F
:10441000002203E08B420FD900221346341C18BF40
:10442000012460424FF0000565EB450158405140C2
:1044300000196941BDE8F083B3FA83F2002A40F025
:1044400089808B4202D3804500F2E2800123E5E7B8
:1044500012B90123B3FBF2F7B7FA87F8B8F1000FEE
:104460003BD1ED1B4FEA174C1FFA87FE0122B5FB2B
:10447000FCF00CFB10550EFB00F3210C41EA054546
:10448000AB4207D9ED1900F1FF3102D2AB4200F285
:10449000C3800846ED1AB5FBFCF30CFB13550EFB6D
:1044A00003FEA4B244EA0545AE4507D9ED1903F170
:1044B000FF3102D2AE4500F2AD800B4643EA004325
:1044C000ACE752426FEA060663EB43035BE7404208
:1044D00061EB41014FF0FF3652E707FA08F7C8F1E8
:1044E000200225FA02F34FEA174CB3FBFCF11FFA46
:1044F00087FE0CFB113324FA02F205FA08F50EFBD5
:1045000001F92A43100C40EA0343994504FA08F4E0
:1045100007D9DB1901F1FF3078D2994576D90239F4
:104520003B44C9EB0303B3FBFCF00CFB10330EFB65
:1045300000F592B242EA03439D4207D9DB1900F12C
:10454000FF325FD29D425DD902383B445D1B40EA99
:1045500001428CE7C2F1200328FA03F10CFA02FCB5
:1045600041EA0C0C4FEA1C402EFA03F1B1FBF0F5C6
:104570001FFA8CF700FB151129FA03F30EFA02FE5D
:1045800007FB05F943EA0E0E4FEA1E4343EA0141D9
:10459000894508FA02F808D911EB0C0105F1FF333F
:1045A00032D2894530D9023D6144C9EB0101B1FBEA
:1045B000F0F300FB131107FB03F71FFA8EFE4EEA20
:1045C000014E774508D91EEB0C0E03F1FF3117D2CF
:1045D000774515D9023BE64443EA0543A3FB088926
:1045E000C7EB0E0ECE4509D305D0002216E71046C4
:1045F000F7E613460AE794404445F6D2013BF4E758
:104600000B46E9E71046A1E71D46CEE7014688E7DD
:10461000134603E7023B51E702383D443AE700BF47
:104620002DE9F043002B44D18A42154604464FD968
:10463000B2FA82F70E464FB1C7F12003B94020FA13
:1046400003F602FA07F50E4300FA07F42F0CB6FB47
:10465000F7F01FFA85FE07FB10620EFB00F1260C37
:1046600046EA0243994209D95B1900F1FF3280F012
:10467000EE80994240F2EB8002382B44591AB1FB8C
:10468000F7F307FB13110EFB03FEA4B244EA01414A
:104690008E4508D9491903F1FF3280F0DA808E4542
:1046A00040F2D780023B43EA004000263146BDE895
:1046B000F0838B4247D8B3FA83F6002E48D18B4261
:1046C00002D3824200F2CF8001203146BDE8F08360
:1046D00012B90125B5FBF2F5B5FA85FCBCF1000F66
:1046E00078D1491B2F0C1FFA85FE0126B1FBF7F08C
:1046F00007FB10110EFB00F2230C43EA01418A4232
:1047000007D9491900F1FF3302D28A4200F2BC8076
:104710001846891AB1FBF7F307FB13110EFB03FED2
:10472000A4B244EA0142964508D9521903F1FF3177
:1047300080F09180964540F28E80023B43EA004033
:104740003146BDE8F083002630463146BDE8F083AF
:10475000C6F1200422FA04F5B3402B4321FA04F7F2
:104760004FEA1348B7FBF8FC1FFA83F908FB1C77E4
:1047700020FA04FE01FA06F509FB0CF44EEA0505E1
:104780004FEA154E4EEA0747BC4202FA06F204D938
:10479000FF180CF1FF3168D38C463F1BB7FBF8F4D0
:1047A00008FB147709FB04F9ADB245EA07418945D6
:1047B00004D9C91804F1FF355DD32C4644EA0C44F2
:1047C000A4FB0223C9EB0101994249D345D02046FD
:1047D00000266BE7CCF1200405FA0CF521FA04F36E
:1047E0002A0CB3FBF2F61FFA85FE02FB163820FAFC
:1047F00004F701FA0CF10EFB06F90F433C0C44EAF6
:104800000843994500FA0CF407D95B1906F1FF310A
:1048100038D2994536D9023E2B44C9EB0303B3FB8A
:10482000F2F002FB10330EFB00F1BFB247EA034384
:10483000994207D95B1900F1FF3721D299421FD95C
:1048400002382B441746591A40EA06464EE71046EE
:1048500014E7134627E70B4670E7B0409042B6D204
:10486000601E002622E7304620E7BC4294D9ACF116
:10487000020C1F4491E789459FD9023C19449DE7EA
:104880003846DFE70E46C8E70238294441E700BF53
:104890000B4B10B50446186808B1836B4BB1132C51
:1048A0000BD8084850F83430013306D000EBC40070
:1048B00010BDFEF7F5F9132CF3D9002010BD00BF91
:1048C000D0510020C056002070B500F0C1F913246B
:1048D0000546002620463146ABBE04464FF0FF3069
:1048E0002C6070BD2DE9F047DFF8948084B0032779
:1048F0000023CDF804800124039701AE02932046E3
:104900003146ABBE81461B4D0423CDF80480C5F86B
:1049100000900397029320463146ABBE8246DFF8F3
:1049200064900823CDF80480C9F800A0039702938F
:1049300020463146ABBE04460F4BD9F80060621CDE
:104940001C6008BF34460D4808BF1E604FF0FF31A1
:10495000002340F833100133142B084AF9D1296899
:1049600000231160966014615360D360536104B0FA
:10497000BDE8F087B8560020BC560020C056002085
:10498000604D0020B056002030B585B001900291F6
:104990000392062401AD20462946ABBE0446631CA3
:1049A00002D0204605B030BDFFF78EFF05B030BD08
:1049B00070B50E461546FFF76BFF044658B13146F9
:1049C00000682A46FFF7E0FF431C03D06368281AFB
:1049D0000344636070BD00F03BF9092303604FF0AE
:1049E000FF3070BDF0B583B00D461446FFF750FFA1
:1049F0000646002839D0022C26D8012C21D0022CC2
:104A000011D06F4633680A248DE8280020463946C5
:104A1000ABBE0446631C1ED02046002822DB28467D
:104A2000756003B0F0BD036802AF0C2447F8083D81
:104A300020463946ABBE0446611C0FD020460544D3
:104A4000E0E74368ED18DCD500F002F916230360B7
:104A50004FF0FF30E5E7FFF737FFDEE7FFF734FF02
:104A6000421CECD14FF0FF30DBE700F0F1F80923F6
:104A700003604FF0FF30D4E7FFF7B4BF30B585B027
:104A8000019002910392052401AD20462946ABBE58
:104A90000446631C02D0204605B030BDFFF714FF6A
:104AA00005B030BD70B50E461546FFF7F1FE044661
:104AB000E0B12A4631460068FFF7E0FF021E12DB34
:104AC0006368A81A03449542636000D070BD00F08B
:104AD000BFF813250646002428462146ABBE0546EE
:104AE0003560204670BD4FF0FF30EFE700F0B0F8C2
:104AF000092303604FF0FF3070BD00BF70B582B076
:104B00000446FFF7C5FE064618B3013C012C11D937
:104B1000336802AD022445F8043D20462946ABBE69
:104B20000446631C10D0204610B94FF0FF333360A9
:104B300002B070BD0A4B9A681B699A42E8D14FF0E7
:104B4000FF3303600020F3E7FFF7BEFE0028EFD13C
:104B5000EBE700F07DF8092303604FF0FF30E7E753
:104B6000C05600200E4A0346106810B598B1694639
:104B700003448B4208D80B490B4C0968A14201D071
:104B80008B4201D8136010BD00F062F80C23036063
:104B90004FF0FF3010BD054908461160E7E700BF40
:104BA000B45600200C560020ADDEFECA805800200E
:104BB00070B50D46FFF76CFE0646B0B16B684FF45A
:104BC000806243F400536B60EA620C242046314655
:104BD000ABBE0446621C03D020462861002070BD95
:104BE000FFF772FE431CF8D170BD00F031F80923C5
:104BF00003604FF0FF3070BD38B50C46054600210C
:104C000020463C22FCF7D2FF28462146BDE838402A
:104C1000FFF7CEBF70B5FFF73BFE044690B1092504
:104C200028462146ABBE0446012C09D000F010F8FE
:104C300013250646002428462146ABBE05463560AE
:104C4000204670BD00F004F809230360F8E700BFB8
:104C5000014B1868704700BFD05100205346325FA7
:104C6000474E555F5343345F696E74657272757059
:104C7000745F626C696E6B5F70726F6A6563740AF1
:104C800000000000436F72654750494F20496E692C
:104C90007469616C697A65640A000000537769740D
:104CA000636820312070726573736564202D20461F
:104CB0006162726963495271310A00005377697405
:104CC000636820322070726573736564202D2046FE
:104CD0006162726963495271323B2052657374613B
:104CE00072742074686520646562756767657220F8
:104CF000746F2072756E20746865206170706C69C5
:104D0000636174696F6E0A0043000000A84D0020C3
:104D10003030303030303030303030303030303093
:104D200030313233343536373839414243444546E1
:104D300000000000303132333435363738396162A3
:104D40006364656600000000286E756C6C290000C5
:104D50002020202020202020202020202020202053
:104D60003A747400F8B500BFF8BC08BC9E467047A2
:104D7000F8B500BFF8BC08BC9E467047112A002059
:104D8000E5040020C1040020000000000000000035
:084D9000E4F5FF7F01000000C3
:104DA00000000000000000000000000094500020FF
:104DB000FC500020645100200000000000000000B2
:104DC00000000000000000000000000000000000E3
:104DD000000000000000000000000000084D00205E
:104DE00000000000000000000000000000000000C3
:104DF00000000000000000000000000000000000B3
:104E000000000000000000000000000000000000A2
:104E10000000000000000000000000000000000092
:104E20000000000000000000000000000000000082
:104E30000000000000000000000000000000000072
:104E40000000000000000000000000000000000062
:104E500001000000000000000E33CDAB34126DE6FF
:104E6000ECDE05000B000000000000000000000068
:104E70000000000000000000000000000000000032
:104E80000000000000000000000000000000000022
:104E90000000000000000000000000000000000012
:104EA0000000000000000000000000000000000002
:1051D000A84D002041534349490000000000000051
:1051E00000000000000000000000000000000000BF
:1051F00000000000010000000000000000000000AE
:10520000F8510020F85100200052002000520020E8
:105210000852002008520020105200201052002096
:105220001852002018520020205200202052002046
:1052300028520020285200203052002030520020F6
:1052400038520020385200204052002040520020A6
:105250004852002048520020505200205052002056
:105260005852002058520020605200206052002006
:1052700068520020685200207052002070520020B6
:105280007852002078520020805200208052002066
:105290008852002088520020905200209052002016
:1052A0009852002098520020A0520020A0520020C6
:1052B000A8520020A8520020B0520020B052002076
:1052C000B8520020B8520020C0520020C052002026
:1052D000C8520020C8520020D0520020D0520020D6
:1052E000D8520020D8520020E0520020E052002086
:1052F000E8520020E8520020F0520020F052002036
:10530000F8520020F85200200053002000530020E3
:105310000853002008530020105300201053002091
:105320001853002018530020205300202053002041
:1053300028530020285300203053002030530020F1
:1053400038530020385300204053002040530020A1
:105350004853002048530020505300205053002051
:105360005853002058530020605300206053002001
:1053700068530020685300207053002070530020B1
:105380007853002078530020805300208053002061
:105390008853002088530020905300209053002011
:1053A0009853002098530020A0530020A0530020C1
:1053B000A8530020A8530020B0530020B053002071
:1053C000B8530020B8530020C0530020C053002021
:1053D000C8530020C8530020D0530020D0530020D1
:1053E000D8530020D8530020E0530020E053002081
:1053F000E8530020E8530020F0530020F053002031
:10540000F8530020F85300200054002000540020DE
:10541000085400200854002010540020105400208C
:10542000185400201854002020540020205400203C
:1054300028540020285400203054002030540020EC
:10544000385400203854002040540020405400209C
:10545000485400204854002050540020505400204C
:1054600058540020585400206054002060540020FC
:1054700068540020685400207054002070540020AC
:10548000785400207854002080540020805400205C
:10549000885400208854002090540020905400200C
:1054A0009854002098540020A0540020A0540020BC
:1054B000A8540020A8540020B0540020B05400206C
:1054C000B8540020B8540020C0540020C05400201C
:1054D000C8540020C8540020D0540020D0540020CC
:1054E000D8540020D8540020E0540020E05400207C
:1054F000E8540020E8540020F0540020F05400202C
:10550000F8540020F85400200055002000550020D9
:105510000855002008550020105500201055002087
:105520001855002018550020205500202055002037
:1055300028550020285500203055002030550020E7
:105540003855002038550020405500204055002097
:105550004855002048550020505500205055002047
:1055600058550020585500206055002060550020F7
:1055700068550020685500207055002070550020A7
:105580007855002078550020805500208055002057
:105590008855002088550020905500209055002007
:1055A0009855002098550020A0550020A0550020B7
:1055B000A8550020A8550020B0550020B055002067
:1055C000B8550020B8550020C0550020C055002017
:1055D000C8550020C8550020D0550020D0550020C7
:1055E000D8550020D8550020E0550020E055002077
:1055F000E8550020E8550020F0550020F055002027
:1056000000000200FFFFFFFFB5400020ADDEFECA34
:040000052000019145
:00000001FF
