:020000042000DA
:1000000000000120910100207F03002081030020D7
:1000100083030020850300208703002000000000E8
:100020000000000000000000000000008903002024
:100030008B030020000000008D0300208F030020B0
:100040009103002093030020191000203910002094
:10005000990300209B0300209D0300209F030020A4
:10006000A1030020A3030020A5030020A703002074
:10007000A9030020AB03002069250020AF03002066
:10008000B1030020B3030020B5030020AD0500201C
:10009000B9030020BB030020BD030020BF030020E4
:1000A000C1030020C3030020C5030020A5110020C8
:1000B00099120020CB030020CD030020CF030020A5
:1000C000D1030020D3030020D5030020B125002058
:1000D000D9030020DB030020DD030020DF03002024
:1000E000E1030020E3030020E5030020E7030020F4
:1000F000E9030020EB030020ED030020EF030020C4
:10010000F1030020F3030020F5030020F703002093
:10011000F9030020FB030020FD030020FF03002063
:10012000010400200304002005040020070400202F
:10013000090400200B0400200D0400200F040020FF
:1001400011040020130400201504002017040020CF
:10015000190400201B0400201D0400201F0400209F
:10016000210400202304002025040020270400206F
:10017000290400202B0400202D0400202F0400203F
:1001800031040020330400200000000000000000C3
:100190004FF0000BDFF8BE020068DFF8B612096806
:1001A00001F0030100F01C00142801D14BF0020BF8
:1001B000002901D04BF0010BBBF1000F05D0A7487F
:1001C000A749DFF8722200F09FF8A64880470BF09D
:1001D000020ABAF1000F0CD0DFF86E02DFF86E12DF
:1001E00002680B680FB44FF000024FF0FF0302608B
:1001F0000B609D489D4A9E4B022808D1DFF83E12B5
:100200000A60DFF842120A60DFF836120B6001283C
:1002100008D1DFF82E120A60DFF82A120A60DFF830
:100220001E120B609348002809D193489349944AC1
:1002300000F032F893489449944A00F02DF894481D
:100240009449954A00F028F894489549DFF8E6214A
:1002500000F05AF8BBF1000F12D092489249DFF833
:10026000DA2100F051F80BF0020ABAF1000F07D0C2
:100270000FBC02600B6000BFAFF30080AFF30080E3
:10028000DFF828020FF2030E00474FF000004FF096
:100290000001DFF81CF2FEE72DE9F841884225D085
:1002A000B2EB010200D5FEE740EA010313F00303BD
:1002B00002D000F01DF819E04FF000039046121133
:1002C000F7D09A421CBFF0C8F0C103F10103F8D186
:1002D00008F00F08B8F1000F08D004780C7000F196
:1002E000010001F10101B8F10108F6D1BDE8F88182
:1002F00008B54FF0000303780B7000F1010001F125
:100300000101013AF7D108BD884237D000F0030659
:10031000002E14D04FF00405A5EB06044FF008079B
:1003200007FB06F8914669FA08F9002C07D080F817
:10033000009069FA07F900F10100013CF5E74FF080
:1003400000060F46091A88460911914614461546BB
:10035000B14206D018BFA0E8340206F10106B1424E
:10036000F8D108F00F08B8F1000F07D002704FEA7B
:10037000322200F10100B8F10108F4E77047FEE70E
:10038000FEE7FEE7FEE7FEE7FEE7FEE7FEE7FEE745
:10039000FEE7FEE7FEE7FEE7FEE7FEE7FEE7FEE735
:1003A000FEE7FEE7FEE7FEE7FEE7FEE7FEE7FEE725
:1003B000FEE7FEE7FEE7FEE7FEE7FEE7FEE7FEE715
:1003C000FEE7FEE7FEE7FEE7FEE7FEE7FEE7FEE705
:1003D000FEE7FEE7FEE7FEE7FEE7FEE7FEE7FEE7F5
:1003E000FEE7FEE7FEE7FEE7FEE7FEE7FEE7FEE7E5
:1003F000FEE7FEE7FEE7FEE7FEE7FEE7FEE7FEE7D5
:10040000FEE7FEE7FEE7FEE7FEE7FEE7FEE7FEE7C4
:10041000FEE7FEE7FEE7FEE7FEE7FEE7FEE7FEE7B4
:10042000FEE7FEE7FEE7FEE7FEE7FEE7FEE7FEE7A4
:10043000FEE7FEE7704700000000A2A2A2A2008033
:100440000340088003401080034030800340348024
:1004500003403880034018080240000000F00020EC
:1004600000000120211E002000000000000000000C
:10047000010000000000000000000020000000203B
:1004800090010020C0040020C0040020E88100206A
:10049000F0810020F0810020808A0020808A0020E6
:1004A000F08C0020F08C002000F00020D94A0020C1
:1004B000BD2100200000000000000000000000003E
:1004C00010B5054C237833B9044B13B10448AFF38E
:1004D00000800123237010BD808A002000000000EE
:1004E000B0810020084B10B51BB108480849AFF394
:1004F00000800848036803B910BD074B002BFBD0F0
:10050000BDE81040184700BF00000000B081002087
:10051000848A0020F0810020000000000160704704
:10052000006870470EB503FA01F303EA020301689D
:100530006FEA020201EA020141EA030101600EBD15
:10054000006800EA020020FA01F07047018070475D
:10055000008870470EB503FA01F303EA020301882D
:100560006FEA020201EA020141EA030101800EBDC5
:10057000008800EA020020FA01F07047017070471D
:10058000007870470EB503FA01F303EA020301781D
:100590006FEA020201EA020141EA030101700EBDA5
:1005A000007800EA020020FA01F0704780B582B0BE
:1005B00000AF0F4B5B68FB710D4B9B68DAB2FB79A8
:1005C0001340FB71FB7903F00203BB71BB79002B75
:1005D00001D000F0E7F8FB7903F001037B717B7930
:1005E000002B01D000F006F80837BD4680BD00BFE3
:1005F0000060014080B584B000AF634B1B78022BD4
:100600003FD0052B6BD0012B40F0AD805F4B1B889A
:100610009BB2002B30D05E4B1A685C4B1B889BB2A0
:100620001046194600F006FAF860584B1B889BB23A
:100630001A46FB689A420FD9544B1B889AB2FB6842
:100640009BB2D31A9AB2514B1A80514B1A68FB686D
:1006500013444F4A13600EE04C4B00221A804D4B5E
:100660001B68002B03D0484B02221A7003E0464B54
:1006700003221A7004E003E000BE00F0B5F97FE049
:100680007EE0444B1B68002B24D0434B1A68414B3F
:100690001B681046194600F0CDF9B8603D4B1B6849
:1006A000BA689A420CD23B4B1A68BB68D31A394AD3
:1006B0001360394B1A68BB681344374A13600DE066
:1006C000364A364B9B6823F0010393602E4B03227E
:1006D0001A7003E000BE00F087F951E050E02D4BA6
:1006E0001B68002B1BD12E4B1B68002B14D02C4BEE
:1006F0001B68294898470246264B1A60254B1B6801
:10070000002B0CD1254A254B9B6823F001039360F5
:100710001D4B03221A7002E000BE00F065F91D4B6C
:100720001B68002B09D11D4A1C4B9B6823F0010359
:100730009360154B03221A7022E0174B1A68154B71
:100740001B681046194600F075F97860114B1A685D
:100750007B68D31A0F4A13600F4B1A687B681344E7
:100760000D4A13600CE00D4A0C4B9B6823F001030B
:100770009360002000F018F9034B00221A7000BFAC
:100780001037BD4680BD00BFC18A0020A48A00206A
:10079000A08A0020AC8A0020A88A002000600140C6
:1007A000BC8A002080B584B000AF794B1B69FB8107
:1007B000FB8923F4FF4323F07F03BB81FB89FB729A
:1007C000744B1B78052B00F2D88001A252F823F05D
:1007D000E907002065090020650900204108002084
:1007E0008F08002039090020BB89002B27D0FB7A15
:1007F000F12B06D0FB7ABB72BB7A184600F04CF99D
:100800001DE0654B00221A80644B1B68624A128807
:1008100092B21344FA7A1A705F4B1B889BB2013371
:100820009AB25D4B1A805D4B1B685B4A128892B28C
:10083000134400221A70574B04221A70A4E0A3E05C
:10084000BB89002B22D0FB7A7B72554B1B78DBB225
:100850007A7A9A4215D1504B00221A804F4B1B686E
:100860004D4A128892B213447A7A1A704A4B1B8806
:100870009BB201339AB2484B1A80464B04221A703D
:1008800004E07B7A184600F007F97DE07CE0BB8944
:10089000002B06D0FB7A3B723B7A184600F0FCF83E
:1008A00049E03E4B1A683C4B1B889BB2013B13440A
:1008B0001B78F12B16D1394B1B68374A128892B23C
:1008C0001344FA7A1A70354B1A68334B1B889BB263
:1008D000013B13441B78184600F0DEF82D4B002234
:1008E0001A7028E02C4B1B889AB22E4B1B889A4218
:1008F00010D2FB7AFB71294B1B68274A128892B2EF
:100900001344FA791A70244B1B889BB201339AB2B4
:10091000214B1A80204B1B889AB2224B1B889A428B
:1009200009D11D4B1B889BB2184600F03DF8194BAE
:1009300000221A7028E027E0BB89002B0BD1174B4F
:100940001B680133FA7A1A70022000F02DF8114B5F
:1009500000221A7018E0FB7ABB71BB79184600F0D0
:100960009BF811E0BB89002B06D0FB7A7B717B7969
:10097000184600F091F807E006E0002000F014F8B7
:10098000044B00221A7000BF1037BD4680BD00BF67
:1009900000600140C18A0020B68A0020B08A002091
:1009A0009C8A0020B48A002080B582B000AF034644
:1009B000FB800A4B1B68002B0DD0084B1B68084AB4
:1009C0001168FA88084611469847044B00221A60BD
:1009D000044B00221A700837BD4680BDB88A00203B
:1009E000B08A0020C08A002080B582B000AF0E4BD4
:1009F0001B78DBB2002B13D00C4B1B889BB2184624
:100A0000FFF7D2FF0A4A0A4B1B6843F00103136049
:100A1000074B1B6803F001037B607B68002BF7D159
:100A20000837BD4680BD00BFC08A0020B68A0020BE
:100A30000060014080B485B000AF78603960154A2D
:100A4000144B1B6823F0040313600023FB60114B5D
:100A50005B6803F00103BB600DE00E497A68FB6838
:100A600013441B780B61FB680133FB60094B5B6827
:100A700003F00103BB60BB68002B03D0FA683B683E
:100A80009A42EAD3FB6818461437BD465DF8047BEA
:100A9000704700BF0060014080B582B000AF0346E0
:100AA000FB71064B1B68002B04D0044B1B68FA79C2
:100AB000104698470837BD4680BD00BFC48A002055
:100AC00080B483B000AF0346FB71094997F9073042
:100AD0005B09FA7902F01F02012000FA02F260338A
:100AE00041F823200C37BD465DF8047B704700BFFA
:100AF00000E100E080B58AB000AF78607B681B68D9
:100B00001B687B627B681B689B693B627B681B6818
:100B10005B68FB617B681B689B6ABB617B681B68C9
:100B20001B6B7B617B681B685B6B3B617B681B6835
:100B3000DB69FB607B68344A93421DD17B68334A92
:100B40001A607B6802221A71314A314B9B6C43F464
:100B5000007393640220FFF7B3FF2D4A2C4B9B6C6C
:100B600023F4007393647B681B687A6812681268C8
:100B700022F000421A601CE07B68264A1A607B68FB
:100B800003221A71224A224B9B6C43F480639364C4
:100B90000320FFF795FF1E4A1D4B9B6C23F48063D7
:100BA00093647B681B687A681268126822F00042BE
:100BB0001A607B6A23F001037B627B681B687A6A98
:100BC0001A607B681B683A6A9A617B681B68FA69DD
:100BD0005A607B681B687A681268126842F00102EA
:100BE0001A607B681B68BA699A627B681B687A69BD
:100BF0001A637B681B683A695A637B681B68FA68EA
:100C0000DA612837BD4680BD508C002000100040BE
:100C1000008003400010014080B485B000AF7860D0
:100C20000023FB600DE07B681B687A6891687A6836
:100C300012690A4412785A617B681B695A1C7B68E6
:100C40001A617B681B689B6803F48073002B05D1D5
:100C50007B681A697B68DB689A42E4D37B681A690F
:100C60007B68DB689A421BD30DE07B681B687A685F
:100C700051697A68D2690A4412785A617B68DB69E3
:100C80005A1C7B68DA617B681B689B6803F480737D
:100C9000002B05D17B68DA697B689B699A42E4D3B3
:100CA0007B685B6A002B1DD07B681A697B68DB68F8
:100CB0009A4217D37B68DA697B689B699A4211D3A1
:100CC00006E07B681B6800225A61FB680133FB6009
:100CD0007B681B689B6803F48073002B02D1FB6860
:100CE0001F2BEED91437BD465DF8047B704700BF5B
:100CF00080B584B000AF78607B6893F88030022BB9
:100D000015D10CE07B681B681B69FB607B685B6F1F
:100D1000002B04D07B685B6FFA68104698477B68AD
:100D20001B689B6803F04003002BEBD030E07B682E
:100D300093F88030012B1FD116E07B681B681B697C
:100D4000FB607B681A6B7B68DB6A9A4207D27B6820
:100D50009A6A7B681B6B1344FA68D2B21A707B687C
:100D60001B6B5A1C7B681A637B681B689B6803F0CB
:100D70004003002BE1D00BE003E07B681B681B699C
:100D8000FB607B681B689B6803F04003002BF4D07A
:100D90001037BD4680BD00BF80B586B000AF78601B
:100DA0007B681B6820337B617B686C4A934204D06C
:100DB0007B686B4A934200D000BE7B691B6803F0DE
:100DC0000203002B4FD07B6893F88030022B15D1A3
:100DD0000CE07B681B681B69FB607B685B6F002B0A
:100DE00004D07B685B6FFA68104698477B681B6885
:100DF0009B6803F04003002BEBD030E07B6893F856
:100E00008030012B1FD116E07B681B681B69FB60DB
:100E10007B681A6B7B68DB6A9A4207D27B689A6AA6
:100E20007B681B6B1344FA68D2B21A707B681B6B29
:100E30005A1C7B681A637B681B689B6803F040033D
:100E4000002BE1D00BE003E07B681B681B69FB60B3
:100E50007B681B689B6803F04003002BF4D07B6821
:100E60001B680222DA607B691B6803F00103002B18
:100E700011D07B6893F88030022B05D17B681B680A
:100E80007A68926F5A6102E07868FFF7C5FE7B6866
:100E90001B680122DA607B691B6803F01003002BDA
:100EA00021D07868FFF724FF7B681B6A002B0BD0EA
:100EB0007B681B6A7A68916A7A68126B08461146E9
:100EC00098477868FFF7A8FE7B6801225A627B6822
:100ED0001B687A681268926A22F010029A627B6834
:100EE0001B681022DA607B691B6803F00403002B87
:100EF0000ED07B681B687A681268D26A42F00402DE
:100F0000DA627868FFF7F6FD7B681B680422DA6016
:100F10007B691B6803F00803002B32D07B681B68D9
:100F20007A681268D26A42F00802DA627B6893F843
:100F30008030022B16D17B681A687B681B681B689F
:100F400023F47F0323F47F4343F4807313607B68AF
:100F50001B687A68926F5A610FE000BF508C0020C6
:100F6000CC8B00207B6893F88030012B05D17B6807
:100F700000221A617868FFF74FFE7B681B68082221
:100F8000DA607B691B6803F02003002B41D078688E
:100F9000FFF7AEFE7B681B6B3B617B681B6A002B17
:100FA00017D07B6800225A627B6800225A617B68F6
:100FB00000229A617B680022DA617B681B6810223C
:100FC000DA607B681B687A681268926A42F01002E5
:100FD0009A627B6800221A617B681B687A681268D3
:100FE000D26A42F00C02DA627868FFF715FE7B687D
:100FF00000221A637B68DB6F002B06D07B68DB6FF7
:101000007A68926A1046396998477B681B68202283
:10101000DA601837BD4680BD684620F007018D466E
:1010200089B500AF0348FFF7B7FEBD46BDE889406C
:1010300085467047508C0020684620F007018D4699
:1010400089B500AF0348FFF7A7FEBD46BDE889405C
:1010500085467047CC8B002090B484B000AFF86018
:10106000B9607A60FB704B484B4B1A68F9781346AD
:101070009B001344DB01034403F5E07359604749C7
:10108000454B1A6813469B0013449B000B44FA68B7
:101090005A604249404B1A6813469B0013449B0018
:1010A0000B44BA689A603D483B4B19683B4C3A4B3D
:1010B0001A6813469B0013449B00234408335B6863
:1010C0001A0C12040B469B000B449B00034408338C
:1010D0005A607B68B3F5803F0FD97B68A3F58033F6
:1010E0002F4A1361BB6803F580332D4AD360FB6838
:1010F00003F580332A4A936019E02848264B1A6882
:10110000264C254B19680B469B000B449B0023443F
:1011100008335B68796889B2194313469B0013440E
:101120009B000344083359601D4B00221A611B4881
:10113000194B1A68194C184B19680B469B000B4445
:101140009B00234408335B6843F4E00113469B0093
:1011500013449B000344083359600E490E4B1A6830
:1011600013469B001344DB010B4403F5E07301229B
:101170001A600849084B1A6813469B001344DB01A8
:101180000B4403F5E47300225A601037BD4690BC4F
:10119000704700BF00002842E08A00200040014064
:1011A000C88A0020684620F007018D4691B500AF3F
:1011B000344A354B1B6803F52873012142F823108C
:1011C0003248314B1A68314C2F4B19680B469B0043
:1011D0000B449B00234408335B6823F4E00113466F
:1011E0009B0013449B00034408335960264B1B6843
:1011F0000133254A1360244B1B68042B02D1224B78
:1012000000221A60224B1B69002B17D0214B1B6850
:10121000042B03D11F4B00221A6004E01D4B1B68F6
:1012200001331C4A13601A4B9868194BD968184B44
:101230001A69174B1B7DFFF70FFF1EE01349124B76
:101240001A6813469B0013449B000B4408335B68E9
:1012500003F4E003002B10D10B4B00221A600D4B5E
:1012600000221A600A4B01221A70094B5B68002B9E
:1012700003D0074B5B6801209847BD46BDE891400D
:101280008546704700002842E48A00200040014063
:10129000C88A0020E08A0020684620F007018D46B9
:1012A00081B583B000AF384B1B683B603B6803F4EB
:1012B00070633B603B68002B2FD03449344B1A6875
:1012C00013469B001344DB010B4403F502731B68B8
:1012D000002B0AD02F4B02221A702E4B5B68002B7A
:1012E00003D02C4B5B68022098472849284B1A688A
:1012F00013469B001344DB010B4403F502735B6848
:10130000002B0AD0234B03221A70224B5B68002B60
:1013100003D0204B5B68032098471B4B1B683B6046
:101320003B6803F470433B603B68002B0AD0194BC9
:1013300004221A70174B5B68002B03D0154B5B68B7
:101340000420984700237B6014E010497A68134614
:101350009B001344DB010B4403F5E47301221A6084
:101360000A4A7B6803F52873012142F823107B6841
:1013700001337B607B68032BE7D90C37BD46BDE8A2
:1013800081408546704700BF004001400000284270
:10139000E48A0020C88A002080B586B000AFF860DB
:1013A000B96011461A460B46FB8013467B71FB68F9
:1013B000002B00D100BE7B79072B00D900BEFB8833
:1013C000B3F5005F00D300BEFB68002B6BD07B79C8
:1013D000072B68D8FB88B3F5005F64D2BB6803F1C4
:1013E0000802FB88DBB210461946FFF7C7F8BB6856
:1013F00003F10C017B79FA8802F47F425211134306
:1014000008461946FFF7BAF8FB68BA681A60FB6825
:101410001B6808331846FFF7B3F80346BB82FB6826
:101420001B680C331846FFF7ABF80346FB74FB7CD4
:1014300023F00703BB74BB7C9BB25B019AB2BB8AEF
:101440001343BB82FB7C03F00703FB74BA8AFB885F
:101450009A4200D000BEFA7C7B799A4200D000BE4E
:10146000FB681B6810331846FFF78AF8034603F041
:101470000203FB7511E0FB681B6804331846FFF795
:101480007FF803467B74FB681B6810331846FFF730
:1014900077F8034603F00203FB75FB7D002BEAD1CE
:1014A000FB6800221A711837BD4680BD80B586B032
:1014B00000AFF860B9607A60FB68002B00D100BE15
:1014C000BB68002B00D100BE7B68002B00D100BEA2
:1014D000FB68002B26D0BB68002B23D07B68002B39
:1014E00020D000237B6119E0FB681B68103318468D
:1014F000FFF746F8034603F00103FB74FB7C002B67
:10150000F2D0FB681968BA687B6913441B780846F7
:101510001946FFF733F87B6901337B617A697B6891
:101520009A42E1D31837BD4680BD00BF90B589B05F
:1015300000AFF860B9607A600023BB61FB68002BE4
:1015400000D100BEBB68002B00D100BE7B68002B21
:1015500000D100BEFB68002B43D0BB68002B40D0FD
:101560007B68002B3DD00023BB61FB681B681033F8
:101570001846FFF705F80346FB75FB681A79FB7DF3
:101580001343DAB2FB681A71FB7D03F00203FB77A9
:1015900020E0BA68BB69D418FB681B68043318469E
:1015A000FEF7EEFF03462370BB690133BB61FB68A6
:1015B0001B6810331846FEF7E3FF0346FB75FB6814
:1015C0001A79FB7D1343DAB2FB681A71FB7D03F0D5
:1015D0000203FB77FB7F002B03D0BA697B689A423A
:1015E000D7D3BB6918462437BD4690BD80B485B0BB
:1015F00000AF7860FF23FB737B68002B00D100BE37
:101600007B68002B08D07B681B7903F01C039B10C0
:10161000FB737B6800221A71FB7B18461437BD46AA
:101620005DF8047B704700BF80B584B000AFF86000
:10163000B9607A603B60FB68BA681A60FB681B6837
:10164000083318460021FEF799FFFB681B680C332E
:1016500018460021FEF792FFFB681B681846796860
:10166000FEF75CFF3B68002B00D100BEFB681B68E7
:10167000043318463968FEF751FFFB681B681033C6
:1016800018460021FEF74AFFFB681B68183318460E
:101690000021FEF743FFFB681B682033184600213A
:1016A000FEF73CFFFB681B68283318460021FEF755
:1016B00035FFFB681B68303318460021FEF72EFF0C
:1016C000FB681B68383318460021FEF727FFFB68CC
:1016D0001B68403318460021FEF720FFFB681B689B
:1016E000483318460021FEF719FFFB681B6850338A
:1016F00018460021FEF712FFFB681B685833184696
:101700000021FEF70BFFFB681B68603318460021C1
:10171000FEF704FFFB681B68683318460021FEF7DC
:10172000FDFEFB681B68703318460021FEF7F6FECD
:10173000FB681B68783318460021FEF7EFFEFB6854
:101740001B68803318460021FEF7E8FEFB681B6823
:10175000883318460021FEF7E1FE1037BD4680BDF4
:1017600080B584B000AF78600B46FB70FB78002B2F
:1017700000D100BEFB78102B00D900BEFB78002BF7
:1017800034D0FB78102B31D8FB781A4AD35CFB732A
:10179000FB78082B15D87B681B6808331846FEF7C2
:1017A000EFFE0346BB73BA7BFB7B1343BB737B68C3
:1017B0001B6803F10802BB7B10461946FEF7DEFEEC
:1017C00014E07B681B680C331846FEF7D9FE03460D
:1017D000BB73BA7BFB7B1343BB737B681B6803F152
:1017E0000C02BB7B10461946FEF7C8FE1037BD46FB
:1017F00080BD00BFEC7C002080B584B000AF786075
:101800000B46FB70FB78002B00D100BEFB78102B41
:1018100000D900BEFB78002B38D0FB78102B35D8D0
:10182000FB781C4AD35CFB73FB78082B17D87B68CA
:101830001B6808331846FEF7A3FE0346BB73FB7B09
:10184000DB43DAB2BB7B1340BB737B681B6803F1DD
:101850000802BB7B10461946FEF790FE16E07B6837
:101860001B680C331846FEF78BFE0346BB73FB7BED
:10187000DB43DAB2BB7B1340BB737B681B6803F1AD
:101880000C02BB7B10461946FEF778FE1037BD46AA
:1018900080BD00BFEC7C002080B588B000AFF86050
:1018A0000B467A60FB72FB7A002B00D100BEFB7AFC
:1018B000102B00D900BEFB681B6804331846FEF7E6
:1018C0002FFEF8617A68FB699A4200D900BEFB7A64
:1018D000002B3AD0FB7A102B37D87B68002B05D130
:1018E000FB7AF8681946FFF787FF2EE0FB681A6855
:1018F000FB7A174951F82330134418460021FEF7AC
:101900000DFEFB681A68FB7A124951F82330134424
:1019100018467968FEF702FEFB7A0E4A52F8233029
:10192000BB61FB681A68BB6913441846FEF728FEC2
:101930000346FB757B68DBB2FA7D9A4200D000BE9D
:10194000FB7AF8681946FFF70BFF2037BD4680BDCC
:10195000007D0020447D002080B586B000AFF86097
:10196000B9601346FB710023FB75BB683B61FB68E4
:10197000BA681A60FB68FA791A710023FB75BB68B4
:101980003B6109E038690021FEF7F8FD3B6904334B
:101990003B61FB7D0133FB75FB7D1F2BF2D9FB689F
:1019A0001B79012B0DD0022B02D0002B1AD036E070
:1019B000FB681B68803318464FF0FF31FEF7AEFD21
:1019C0002FE0FB681B68803318464FF6FF71FEF767
:1019D000BDFDFB681B68843318464FF6FF71FEF7A8
:1019E000B5FD1EE0FB681B6880331846FF21FEF73B
:1019F000C5FDFB681B6884331846FF21FEF7BEFD5A
:101A0000FB681B6888331846FF21FEF7B7FDFB68AB
:101A10001B688C331846FF21FEF7B0FD01E000BEC5
:101A200000BF1837BD4680BD80B586B000AFF860F6
:101A30000B467A60FB72FB7A1F2B00D900BEFB7A43
:101A40001F2B14D8FB681B687B61FB7A9B001A462E
:101A50007B6913447B6178697968FEF75FFD78697B
:101A6000FEF75EFD02467B689A4200D000BE183742
:101A7000BD4680BD80B582B000AF786039607B68BC
:101A80001B79012B0CD0022B02D0002B1DD047E07C
:101A90007B681B68A03318463968FEF73FFD41E0BC
:101AA0007B681B68A0333A6892B218461146FEF76D
:101AB0004DFD7B681B6803F1A4023B681B0C9BB2C5
:101AC00010461946FEF742FD2CE07B681B68A033E8
:101AD0003A68D2B218461146FEF750FD7B681B6883
:101AE00003F1A4023B681B0ADBB210461946FEF75D
:101AF00045FD7B681B6803F1A8023B681B0CDBB249
:101B000010461946FEF73AFD7B681B6803F1AC02EC
:101B10003B681B0EDBB210461946FEF72FFD01E0B5
:101B200000BE00BF786800F06FF802463B689A423A
:101B300000D000BE0837BD4680BD00BF80B584B070
:101B400000AF78600023FB607B681B79012B0CD011
:101B5000022B02D0002B20D04FE07B681B68903313
:101B60001846FEF7DDFCF86049E07B681B6890339F
:101B70001846FEF7EDFC03461A46FB681343FB606C
:101B80007B681B6894331846FEF7E2FC03461B048F
:101B90001A46FB681343FB6031E07B681B68903397
:101BA0001846FEF7EDFC03461A46FB681343FB603C
:101BB0007B681B6894331846FEF7E2FC03461B0261
:101BC0001A46FB681343FB607B681B689833184612
:101BD000FEF7D6FC03461B041A46FB681343FB6062
:101BE0007B681B689C331846FEF7CAFC03461B063D
:101BF0001A46FB681343FB6001E000BE00BFFB68B0
:101C000018461037BD4680BD80B584B000AF7860FF
:101C10000023FB607B681B79012B0CD0022B02D0C8
:101C2000002B20D04FE07B681B68A0331846FEF7DE
:101C300077FCF86049E07B681B68A0331846FEF724
:101C400087FC03461A46FB681343FB607B681B68EE
:101C5000A4331846FEF77CFC03461B041A46FB68B7
:101C60001343FB6031E07B681B68A0331846FEF726
:101C70006FFC03461A46FB681343FB607B681B68D6
:101C8000A4331846FEF764FC03461B021A46FB68A1
:101C90001343FB607B681B68A8331846FEF758FCAB
:101CA00003461B041A46FB681343FB607B681B68F2
:101CB000AC331846FEF74CFC03461B061A46FB687D
:101CC0001343FB6001E000BE00BFFB6818461037FD
:101CD000BD4680BD80B584B000AF78600B46FB7018
:101CE0007B681B68FB60FB781F2B00D900BEFB786C
:101CF0001F2B12D8FB789B001A46FB681344FB602D
:101D0000F868FEF73DFC0346BB60BB6843F0080380
:101D1000BB60F868B968FEF731FC1037BD4680BD7E
:101D200080B584B000AF78600B46FB707B681B68A1
:101D3000FB60FB781F2B00D900BEFB781F2B12D84D
:101D4000FB789B001A46FB681344FB60F868FEF7BB
:101D500017FC0346BB60BB6823F00803BB60F86850
:101D6000B968FEF70BFC1037BD4680BD80B584B066
:101D700000AF78600B46FB70FB78012202FA03F398
:101D8000FB607B681B79012B0CD0022B02D0002B4F
:101D90001AD03FE07B681B6880331846F968FEF76D
:101DA000BDFB39E07B681B6880331846F968FEF795
:101DB000CDFB7B681B6803F18402FB681B0C10469B
:101DC0001946FEF7C3FB27E07B681B688033184683
:101DD000F968FEF7D3FB7B681B6803F18402FB689C
:101DE0001B0A10461946FEF7C9FB7B681B6803F106
:101DF0008802FB681B0C10461946FEF7BFFB7B6888
:101E00001B6803F18C02FB681B0E10461946FEF797
:101E1000B5FB01E000BE00BF1037BD4680BD00BF6E
:101E200080B500AF00F0F8F8044A044B5B6943F456
:101E300000735361FEF7FEFA80BD00BF00ED00E0C5
:101E400080B588B000AF2F4BD3F8983003F0806393
:101E5000FB61FB69002B4BD12A4BD3F8983003F47C
:101E60008053BB61BB69002B15D1274B274A1A60F1
:101E7000274B264A1A60274B244A1A60264B274ACA
:101E80001A60274B274A1A60274B204A1A60274BB3
:101E90001E4A1A602BE0264A3B1D1068516803C396
:101EA000184BD3F89C309B0903F007037B613A1D64
:101EB0007B6913441B78FB74FB7C012B0AD0022B3B
:101EC0000DD0002B0FD100F037F8F860F86800F063
:101ED00051F80CE04FF4004000F04CF807E01548D2
:101EE00000F048F803E0134800F044F800BF05E0B4
:101EF00000F022F8F860F86800F03CF82037BD46A2
:101F000080BD00BF00800340F4810020003B5808E2
:101F1000F8810020FC81002000820020C00E160203
:101F200004820020801D2C04088200200C820020E6
:101F3000887D002040420F0080B483B000AF0A4B80
:101F4000D3F8503103F004033B603B68002B02D10F
:101F5000064B7B6001E0064B7B607B6818460C37C4
:101F6000BD465DF8047B70470080034040787D01EA
:101F700080F0FA0280B483B000AF78600C4A7B68CE
:101F800013600C4A7B6813600B4A7B6813600B4B31
:101F90000B4A1A600B4A7B6813600B4A7B6813601C
:101FA0000A4A7B6813600C37BD465DF8047B7047B6
:101FB000F4810020F8810020FC81002000820020B4
:101FC000C00E160204820020088200200C8200202D
:101FD00080B483B000AF0E4BD3F84C313B603B680C
:101FE0004FF60202934203D00A4A934203D005E01F
:101FF00001237B6005E002237B6002E000237B601D
:1020000000BF7B6818460C37BD465DF8047B7047FF
:102010000080034002F8010080B582B000AFFFF7F6
:10202000D7FF78607B68012B00D002E000F004F855
:1020300000BF0837BD4680BD80B400AF094A094BD8
:10204000D3F8983043F48073C2F89830054A054BB2
:10205000D3F8983023F08063C2F89830BD465DF81D
:10206000047B70470080034080B483B000AF034618
:10207000FB71084997F907305B09FA7902F01F02F2
:10208000012000FA02F241F823200C37BD465DF82A
:10209000047B704700E100E080B483B000AF0346EA
:1020A000FB71094997F907305B09FA7902F01F02C1
:1020B000012000FA02F2203341F823200C37BD46FC
:1020C0005DF8047B704700BF00E100E080B483B09E
:1020D00000AF0346FB71094997F907305B09FA79AC
:1020E00002F01F02012000FA02F2603341F82320BF
:1020F0000C37BD465DF8047B704700BF00E100E08F
:1021000080B582B000AF0346FB710E20FFF7C4FF1D
:102110000F4A0F4B9B6C23F0400393644FF0402316
:1021200000225A650B4B0022C3F88021094B002284
:10213000C3F88821074AFB79C2F884314FF0402365
:1021400001221A610E20FFF7C1FF0837BD4680BD8E
:10215000008003400000084280B400AF034B01221E
:10216000C3F88021BD465DF8047B7047000008423B
:1021700080B483B000AF78604FF040227B6853603A
:102180000C37BD465DF8047B704700BF80B500AFDB
:10219000034B0122C3F888210E20FFF765FF80BDA5
:1021A0000000084280B400AF4FF0402301221A61C2
:1021B000BFF34F8FBD465DF8047B704780B58AB092
:1021C00000AF05F0D7FBBB4802F0AEFCBA484FF0B9
:1021D000A041312240F28F13FFF726FAC82000F009
:1021E000B1FAB648062100F0C7FAB548042100F05C
:1021F000C3FAB448052100F0BFFAB348022100F049
:10220000BBFAB248032100F0B7FAAF48072100F04B
:10221000B3FAAF48082100F0AFFA4FF4FA7000F0BB
:1022200091FAAC48062100F0A7FAAB48042100F06F
:10223000A3FAAA48052100F09FFAA948022100F05C
:102240009BFAA848032100F097FAA748072100F05D
:1022500093FAA548082100F08FFA4FF4FA7000F0C5
:1022600071FA9C48062100F087FA9B48042100F08F
:1022700083FA9A48052100F07FFA9948022100F07C
:102280007BFA9848032100F077FA9748072100F07D
:1022900073FA9548082100F06FFA944802F044FC64
:1022A0004FF4FA7000F04EFA3B4600221A600433F5
:1022B00000221A60043300221A60043300221A60DC
:1022C000043300221A60043300221A60043300220F
:1022D0001A60043300221A60043385488549252298
:1022E0000123FFF759F8844802F01EFC8048834917
:1022F0000222FFF7DBF8FFF7A3FD814881490222A4
:10230000FFF72AFB7E4800210522FFF78DFB7C4862
:1023100001210522FFF788FB794802210522FFF7FA
:1023200083FB794B1B6876481946FFF7A3FB74487B
:1023300000214322FFF778FB714801214322FFF778
:1023400073FB6F4802210522FFF76EFB6F4802F016
:10235000EBFB6B480021FFF7BDFC69480121FFF74B
:10236000B9FC2320FFF780FE694B1A6813469B00D7
:1023700013445B003B620020FFF7C2FE386AFFF7A0
:10238000F7FEFFF7E9FEFFF701FF624802F0CCFB22
:102390005D4B1B685A481946FFF76CFB5448FFF722
:1023A00025F90346002B06D13B4651481946202209
:1023B000FFF7BCF878627B6A002B0ED03B78412B8C
:1023C0000BD1554802F0B0FB00233B704C48032171
:1023D000FFF750FB01F0C6FCBDE07B6A002B0ED07E
:1023E0003B78422B0BD14D4802F09EFB00233B7003
:1023F00043480321FFF73EFB01F0E6FCABE07B6ABC
:10240000002B0ED03B78432B0BD1454802F08CFBC0
:1024100000233B703A480321FFF72CFB01F002FD3B
:1024200099E07B6A002B0ED03B78442B0BD13D48C2
:1024300002F07AFB00233B7031480321FFF71AFBBF
:1024400001F016FD87E07B6A002B0ED03B78452B10
:102450000BD1354802F068FB29480121FFF70AFB40
:1024600000233B7001F030FD75E07B6A002B0ED03D
:102470003B78472B0BD12D4802F056FB00233B70D5
:102480001F480121FFF7F6FA01F042FD63E07B6A85
:10249000002B4FD03B78492B4CD1254802F044FB10
:1024A00017480621FFF7E6FA00233B7001F052FBC4
:1024B00051E000BF907D0020E48C0020000020420D
:1024C0000000F042000070420000B44200000C42E4
:1024D0000000C841000048420000024300008C4256
:1024E0000000B8420000F0410000C842C07D00205A
:1024F000DC8C002000200050F87D0020108200209D
:10250000D48C00200010003014820020147E0020A3
:10251000F88100202C7E00204C7E0020807E002050
:10252000B47E0020E87E0020287F0020607F00200D
:10253000987F00207B6A002B0DD03B784A2B0AD174
:10254000074802F0F1FA00233B7006480521FFF727
:1025500091FA00F041FB0A2000F0F4F818E700BF00
:10256000D47F0020D48C002080B500AF0C48FFF74A
:102570004BFB02460B4B1A600A4B1B6883F00703A8
:10258000084A1360074B1B6805481946FFF772FAA3
:10259000054806490222FEF789FFFFF703FE80BDCA
:1025A000D48C002014820020DC8C002010820020BB
:1025B00080B582B000AF00237B605A480021FFF74E
:1025C000AFFB58480121FFF7ABFB5648FFF7B6FABF
:1025D000786005F0CFF9544802F0A6FA514804217A
:1025E000FFF748FA7B68012B45D1504802F09CFA6E
:1025F0004C480021FFF7BAFB4A480121FFF7B6FB20
:1026000048480021FFF766FB46480121FFF762FBBF
:10261000474802F089FA01F09DFA4FF47A6000F021
:1026200091F84048FFF78AFA78607B68022B21D145
:1026300040480121FFF7E0F83E480221FFF7DCF8AF
:102640003C480321FFF7D8F83A480421FFF7D4F8B3
:1026500038480521FFF7D0F836480621FFF7CCF8B7
:1026600034480721FFF7C8F832480821FFF7C4F8BB
:1026700000BF3DE0CCE77B68022B33D12E4802F04F
:1026800053FA28480021FFF771FB26480121FFF784
:102690006DFB24480021FFF743FB22480121FFF78F
:1026A0003FFB24480121FFF7A7F822480221FFF74A
:1026B000A3F820480321FFF79FF81E480421FFF7E5
:1026C0009BF81C480521FFF797F81A480621FFF7E9
:1026D00093F818480721FFF78FF816480821FFF7ED
:1026E0008BF8FEE77B68032B02D1144802F01CFA3A
:1026F0000C480021FFF73AFB0A480121FFF736FB9F
:102700002320FFF7E3FC07480021FFF7E3FA054821
:102710000121FFF7DFFA0A4802F006FA0837BD4642
:1027200080BD00BFD48C00201880002034800020A1
:102730005C800020E48C0020B0800020E08000203D
:102740000081002080B485B000AF78600023FB607A
:1027500002E0FB680133FB607B6841F6641202FB18
:1027600003F2FB689A42F4DC1437BD465DF8047B43
:10277000704700BF0000000080B584B000AF7860F3
:1027800039603B68012B30D1786801F045FD024685
:102790000B46104619464FF000024FF0000301F0BF
:1027A000DDFB02460B4610461946CBA3D3E90023B6
:1027B00001F086FD02460B46104619464FF0000216
:1027C000CD4B01F0CBFB02460B461046194601F0FB
:1027D00089FF0346FB60F86802F058F90346C748D2
:1027E00001211A46FFF758F873E13B68022B30D1FC
:1027F000786801F011FD02460B46104619464FF06D
:1028000000024FF0000301F0A9FB02460B46104600
:102810001946B1A3D3E9002301F052FD02460B464D
:10282000104619464FF00002B34B01F097FB0246E9
:102830000B461046194601F055FF0346FB60F86849
:1028400002F024F90346AD4802211A46FFF724F8A6
:102850003FE13B68032B39D1786801F0DDFC02468B
:102860000B46104619464FF00002A54B01F076FBCF
:1028700002460B46104619464FF000024FF0000387
:1028800001F06CFB02460B461046194694A3D3E9AF
:10289000002301F015FD02460B46104619464FF085
:1028A0000002984B01F05AFB02460B4610461946AF
:1028B00001F018FF0346FB60F86802F0E7F80346F2
:1028C0008E4803211A46FEF7E7FF02E13B68042B1E
:1028D00030D1786801F0A0FC02460B46104619463C
:1028E0004FF000024FF0000301F038FB02460B46A8
:1028F0001046194678A3D3E9002301F0E1FC024613
:102900000B46104619464FF000027B4B01F026FBA8
:1029100002460B461046194601F0E4FE0346FB60F2
:10292000F86802F0B3F80346744804211A46FEF72B
:10293000B3FFCEE03B68052B30D1786801F06CFC2A
:1029400002460B46104619464FF000024FF00003B6
:1029500001F004FB02460B461046194662A3D3E978
:10296000002301F0ADFC02460B46104619464FF01D
:102970000002654B01F0F2FA02460B46104619467A
:1029800001F0B0FE0346FB60F86802F07FF80346F2
:102990005A4805211A46FEF77FFF9AE03B68062B4E
:1029A00030D1786801F038FC02460B4610461946D3
:1029B0004FF000024FF0000301F0D0FA02460B4640
:1029C000104619464AA3D3E9002301F079FC0246D8
:1029D0000B46104619464FF000024C4B01F0BEFA70
:1029E00002460B461046194601F07CFE0346FB608A
:1029F000F86802F04BF80346404806211A46FEF7F5
:102A00004BFF66E03B68062B30D1786801F004FC90
:102A100002460B46104619464FF000024FF00003E5
:102A200001F09CFA02460B46104619462AA3D3E948
:102A3000002301F045FC02460B46104619464FF0B4
:102A400000022D4B01F08AFA02460B461046194649
:102A500001F048FE0346FB60F86802F017F80346F1
:102A6000264807211A46FEF717FF32E03B68062B7F
:102A70002FD1786801F0D0FB02460B46104619466C
:102A80004FF000024FF0000301F068FA02460B46D7
:102A90001046194610A3D3E9002301F011FC0246A9
:102AA0000B46104619464FF00002134B01F056FA40
:102AB00002460B461046194601F014FE0346FB6021
:102AC000F86801F0E3FF03460C4808211A46FEF7B8
:102AD000E3FE1037BD4680BD181818181818C83FF7
:102AE0001B1B1B1B1B1BCB3F5A5A5A5A5A5ACA3F15
:102AF000D9D8D8D8D8D8C83F00002840E48C0020C6
:102B00000080444000002040000022400000264099
:102B100080B500AF10480621FFF72EFE0F480421B4
:102B2000FFF72AFE0E480521FFF726FE0D48022179
:102B3000FFF722FE0C480321FFF71EFE0B4807217A
:102B4000FFF71AFE09480821FFF716FE04F012FFEE
:102B5000074801F0E9FF80BD000048420000024341
:102B600000008C420000B8420000F0410000C84262
:102B70004081002080B582B000AF78607B68002B78
:102B800004D111480621FFF7F7FD16E07B68012B01
:102B900004D10E480621FFF7EFFD0EE07B68022B03
:102BA00004D10B480621FFF7E7FD06E07B68032B05
:102BB00003D108480621FFF7DFFD3220FFF7C2FDF1
:102BC0000837BD4680BD00BF0000F0420000024350
:102BD000000048420000DC4280B582B002AF05230D
:102BE0000093022301933948394900224FF07E5364
:102BF00000F078F84FF47A70FFF7A4FD0220FFF799
:102C0000B9FF0A230093032301933248324901227A
:102C10004FF07E5300F066F84FF47A70FFF792FDA4
:102C200042F21070FFF78EFD0320FFF7A3FF4FF471
:102C3000FA50FFF787FD0A230093032301932748E7
:102C4000244900224FF07E5300F04CF84FF47A7084
:102C5000FFF778FD0A230093032301931D481F49C2
:102C600001224FF07E5300F03DF84FF4FA70FFF769
:102C700069FD0220FFF77EFF4FF4FA70FFF762FD57
:102C80000A230093032301931348124900224FF0B3
:102C90007E5300F027F80A230093022301930C4887
:102CA0000A4901224FF07E5300F01CF80C4807211E
:102CB000FFF762FD0A480821FFF75EFD4FF4FA7046
:102CC000FFF740FDFFF724FFBD4680BD0000B64280
:102CD0000000B8420000A0420000F0410000824223
:102CE0000000C84280B588B000AFF860B9607A6073
:102CF0003B607B68012B19D1BB68BB610EE0B869F2
:102D0000F96AFFF739FDB86AFFF71CFDBB69FB6183
:102D1000B869396801F03CFD0346BB61B869F968E0
:102D200001F096FE0346002BE9D11BE07B68002BE7
:102D300018D1BB687B610EE07869F96AFFF71CFD6A
:102D4000B86AFFF7FFFC7B69FB617869396801F0BD
:102D50001DFD03467B617869F96801F083FE034637
:102D6000002BE9D1FB6918462037BD4680BD00BF66
:102D700080B582B002AF0A23009302230193284852
:102D8000284901224FF07E53FFF7ACFF4FF4FA7051
:102D9000FFF7D8FC0A230093032301932248234919
:102DA00001224FF07E53FFF79DFF4FF4FA70FFF7BB
:102DB000C9FC0A230093042301931D481D490022E6
:102DC0004FF07E53FFF78EFF4FF4FA70FFF7BAFC17
:102DD0000320FFF7CFFE4FF42F70FFF7B3FC0A2359
:102DE0000093042301931448114900224FF07E53AD
:102DF000FFF778FF4FF49670FFF7A4FC0A230093C7
:102E0000032301930D48084900224FF07E53FFF73A
:102E100069FF4FF4FA70FFF795FCBD4680BD00BF17
:102E20000000E0420000B8420000C8420000F0414B
:102E30000000C442000002430000C0420000704293
:102E400080B582B002AF05230093022301931C4892
:102E50001C4900224FF07C53FFF744FF4FF4FA70F7
:102E6000FFF770FC012300930523019314481649D2
:102E700000224FF07E53FFF735FFC820FFF762FCBA
:102E80000A230093042301931048114900224FF0B4
:102E90007E53FFF727FF4FF49670FFF753FC0A238A
:102EA0000093032301930B480B4901224FF07E53FB
:102EB000FFF718FF4FF4FA70FFF744FCBD4680BDE2
:102EC000000082420000E04200008C420000A0426C
:102ED0000000C0420000A8420000704280B582B0ED
:102EE00002AF0A230093032301931B481B490122CD
:102EF0004FF07E53FFF7F6FE4FF4FA70FFF722FC17
:102F000005230093022301931548164901224FF02F
:102F10007C53FFF7E7FE0A23009303230193124833
:102F20000D4900224FF07E53FFF7DCFE4FF4FA709C
:102F3000FFF708FC0A230093052301930B480B4974
:102F400000224FF07E53FFF7CDFE4FF4FA70FFF7EB
:102F5000F9FBBD4680BD00BF0000B4420000A8429E
:102F6000000084420000824200004842000070429B
:102F700080B582B002AF0A230093062301931B4859
:102F80001A4901224FF07E53FFF7ACFE0A2300934B
:102F9000042301931648174901224FF07E53FFF78F
:102FA000A1FE0A230093022301931348134901222F
:102FB0004FF07E53FFF796FE0A23009303230193FD
:102FC0000F48104900224FF07E53FFF78BFE0E484A
:102FD0000721FFF7D1FB0C480821FFF7CDFB4FF489
:102FE000FA70FFF7AFFBBD4680BD00BF0000DC42BA
:102FF000000002430000A0420000B84200008242EC
:103000000000F041000048420000C84280B582B094
:1030100002AF0A230093022301932D482D49002279
:103020004FF07E53FFF75EFE4FF47A70FFF78AFB96
:103030000A230093032301932748284901224FF0D4
:103040007E53FFF74FFE4FF47A70FFF77BFB0A23A6
:103050000093042301932248224900224FF07E531B
:10306000FFF740FE4FF47A70FFF76CFB0A230093E2
:10307000032301931C48184901224FF07E53FFF7A8
:1030800031FE4FF42F70FFF75DFB0320FFF772FD59
:103090004FF42F70FFF756FB0A230093042301938C
:1030A0000C480F4900224FF07E53FFF71BFE0A2306
:1030B0000093032301930D480B4900224FF07E53E8
:1030C000FFF710FE4FF47A70FFF73CFBBD4680BD62
:1030D000000082420000B8420000AA420000F04115
:1030E0000000C042000002430000C84200008C42C1
:1030F00080B582B002AF4FF47A70FFF723FB05234F
:103100000093022301932248224901224FF07E536B
:10311000FFF7E8FD4FF47A70FFF714FB0A230093E2
:10312000052301931C481D4900224FF07E53FFF7F1
:10313000D9FD4FF4FA70FFF705FB0A23009304232F
:1031400001931748174900224FF07E53FFF7CAFD3D
:103150004FF47A70FFF7F6FA0A23009303230193E2
:1031600011480E4901224FF07E53FFF7BBFD4FF48B
:103170007A70FFF7E7FA0A230093052301930748C3
:10318000054901224FF07E53FFF7ACFDBD4680BDDF
:103190000000E042000082420000784200008C42C1
:1031A0000000A0420000F44200009E4280B582B0C0
:1031B00002AF0A230093032301931348134901220A
:1031C0004FF07E53FFF78EFD0523009302230193FA
:1031D0000F48104900224FF07E53FFF783FDC820AF
:1031E000FFF7B0FA0A230093032301930A48064924
:1031F00000224FF07E53FFF775FD4FF4FA70FFF792
:10320000A1FABD4680BD00BF0000B44200009C4250
:103210000000DA420000E0420000484280B582B07F
:1032200002AF0A2300930623019320481F4901227D
:103230004FF07E53FFF756FD0A23009304230193BA
:103240001B481C4901224FF07E53FFF74BFD0A2318
:103250000093052301931848184901224FF07E532B
:10326000FFF740FD0A2300930223019314481549F8
:1032700001224FF07E53FFF735FD0A23009303230D
:1032800001931148114900224FF07E53FFF72AFDA8
:103290000F480721FFF770FA0D480821FFF76CFA75
:1032A0004FF4FA70FFF74EFABD4680BD0000DC42D5
:1032B000000002430000A04200008C42000078425F
:1032C0000000B8420000DE420000F0410000484229
:1032D0000000C84280B582B002AF0A2300930223E7
:1032E00001932D482D4900224FF07C53FFF7FAFC43
:1032F0004FF4FA70FFF726FA0A2300930323019391
:103300002748284901224FF07E53FFF7EBFC4FF48A
:103310001670FFF717FA0A2300930423019320483D
:10332000214900224FF07E53FFF7DCFCC820FFF755
:1033300009FA0320FFF71EFC4FF42F70FFF702FA83
:103340000F230093032301931848154900224FF0DF
:103350007E53FFF7C7FC0A2300930423019314480C
:103360000F4900224FF07E53FFF7BCFC4FF4FA7078
:10337000FFF7E8F90F230093032301930D480B494E
:1033800000224FF07E53FFF7ADFC4FF4FA70FFF7C9
:10339000D9F9BD4680BD00BF0000AC420000B84274
:1033A0000000C8420000F041000002430000A042BB
:1033B0000000C64200008C4280B582B002AF0A23F2
:1033C0000093022301931548154900224FF07E53C4
:1033D000FFF788FC4FF41670FFF7B4F90A23009347
:1033E000042301930F48104900224FF07E53FFF74A
:1033F00079FC4FF4FA70FFF7A5F90F23009303232C
:1034000001930A480A4901224FF07E53FFF76AFCF4
:103410004FF44870FFF796F9BD4680BD000040426A
:103420000000AC4200009E420000C6420000A442E0
:1034300000008C4280B582B002AF0A2300930323C0
:1034400001932548254901224FF07E53FFF74AFC9E
:10345000C820FFF777F90A2300930223019320483D
:10346000204901224FF07E53FFF73CFCC820FFF7B4
:1034700069F90A230093032301931B48164900228C
:103480004FF07E53FFF72EFC0A2300930423019391
:103490001648174901224FF07E53FFF723FC0A23F9
:1034A0000093052301931348124901224FF07E53E4
:1034B000FFF718FC0A230093022301930E480F49DB
:1034C00001224FF07E53FFF70DFC4FF4FA70FFF727
:1034D00039F9BD4680BD00BF0000B4420000A442DF
:1034E00000004842000040420000F041000002435A
:1034F00000009E4200008C420000B84200003842AA
:1035000080B582B002AF0A230093022301932748BB
:10351000274900224FF07E53FFF7E4FB4FF4FA7087
:10352000FFF710F90A23009304230193214822494D
:1035300000224FF07E53FFF7D5FB6420FFF702F91E
:103540000A230093032301931C481D4901224FF0D5
:103550007E53FFF7C7FB4FF41670FFF7F3F8032015
:10356000FFF708FB4FF42F70FFF7ECF80A230093E6
:103570000423019313480F4900224FF07E53FFF7B5
:10358000B1FB4FF4FA70FFF7DDF80A230093032331
:1035900001930D48094900224FF07E53FFF7A2FB2B
:1035A0004FF4FA70FFF7CEF8BD4680BD00005042E0
:1035B0000000B8420000A442000002430000B042F4
:1035C0000000F0410000A0420000824280B582B0BD
:1035D00002AF0A23009302230193174817490122DF
:1035E0004FF07E53FFF77EFB4FF4FA70FFF7AAF817
:1035F0000A230093042301931148124900224FF03B
:103600007E53FFF76FFB4FF42F70FFF79BF8C82036
:10361000FFF798F80A230093032301930A480B4904
:1036200001224FF07E53FFF75DFB4FF4FA70FFF776
:1036300089F8BD4680BD00BF0000BE420000504278
:1036400000008E420000A04200009C420000824226
:1036500080B582B002AF0A230093032301930D4883
:103660000D4901224FF07E53FFF73CFB4FF4FA70F7
:10367000FFF768F8052300930223019307480849E0
:1036800001224FF07C53FFF72DFBC820FFF75AF8BB
:10369000BD4680BD0000AE4200009C420000B64224
:1036A0000000BE4280B582B002AF0A23009305231A
:1036B00001931B481B4900224FF07E53FFF712FB7A
:1036C0000A230093042301931748184901224FF05D
:1036D0007E53FFF707FB4FF4FA70FFF733F80A2326
:1036E0000093032301931248124900224FF07E53A6
:1036F000FFF7F8FA4FF4FA70FFF724F80A23009363
:10370000022301930C480D4901224FF07E53FFF72D
:10371000E9FA4FF4FA70FFF715F8BD4680BD00BF17
:1037200000004042000082420000024300008E423E
:103730000000F0410000AE420000B8420000B64276
:1037400080B582B002AF0A2300930423019322487C
:10375000224901224FF07E53FFF7C4FA052300935C
:10376000052301931E481F4901224FF07E53FFF7A6
:10377000B9FA4FF41670FEF7E5FF05230093052311
:1037800001931948164900224FF07E53FFF7AAFA19
:103790004FF4FA70FEF7D6FF05230093052301933B
:1037A0000F48114901224FF07E53FFF79BFA4FF467
:1037B000FA70FEF7C7FF052300930523019309481C
:1037C000074900224FF07E53FFF78CFA4FF4167032
:1037D000FEF7B8FFBD4680BD000002430000C842AE
:1037E00000003443000070420000A04080B582B069
:1037F00002AF0A2300930523019333483349012282
:103800004FF07E53FFF76EFA4FF4FA70FEF79AFF0F
:103810000A230093042301932D482E4900224FF0E0
:103820007E53FFF75FFA4FF4FA70FEF78BFF0A231F
:103830000093032301932648244901224FF07E532D
:10384000FFF750FA40F2DC50FEF77CFF0220FFF752
:1038500091F94FF4FA70FEF775FF0A2300930323E2
:1038600001931D481A4901224FF07E53FFF73AFA9F
:103870000A230093052301931848134901224FF0AE
:103880007E53FFF72FFA0A23009303230193144872
:10389000114900224FF07E53FFF724FA4FF4FA70DB
:1038A000FEF750FF0A2300930423019308480849B8
:1038B00001224FF07E53FFF715FA4FF4FA70FEF72E
:1038C00041FFBD4680BD00BF00008C420000704239
:1038D0000000A642000002430000B44200009042F3
:1038E0000000484280B582B002AF0A23009304234F
:1038F00001934048404901224FF07E53FFF7F2F90F
:1039000005230093052301933C483D4901224FF0D4
:103910007E53FFF7E7F94FF41670FEF713FF052308
:103920000093052301933648344900224FF07E531B
:10393000FFF7D8F94FF4FA70FEF704FF0523009360
:10394000052301932F482E4901224FF07E53FFF7A4
:10395000C9F94FF4FA70FEF7F5FE0523009305232D
:1039600001932748274900224FF07E53FFF7BAF909
:103970004FF41670FEF7E6FE05230093052301932E
:103980001E481F4901224FF07E53FFF7ABF94FF459
:103990001670FEF7D7FE0523009305230193184800
:1039A000164900224FF07E53FFF79CF94FF4FA704E
:1039B000FEF7C8FE05230093052301931148104923
:1039C00001224FF07E53FFF78DF94FF4FA70FEF7A6
:1039D000B9FE0523009305230193094809490022F4
:1039E0004FF07E53FFF77EF94FF41670FEF7AAFEF4
:1039F000BD4680BD0000F0420000C64200002A43E0
:103A000000008C420000204280B582B002AF0A2341
:103A10000093042301932748274900224FF07E5347
:103A2000FFF760F94FF4FA70FEF78CFE0523009360
:103A3000052301932148224900224FF07E53FFF7CE
:103A400051F94FF4FA70FEF77DFE0F230093032324
:103A500001931C481C4901224FF07E53FFF742F9A5
:103A60004FF4FA70FEF76EFE0220FFF783F84FF472
:103A7000FA70FEF767FE05230093022301931348B3
:103A8000104901224FF07C53FFF72CF94FF4FA70E4
:103A9000FEF758FE0A230093032301930C480949BB
:103AA00001224FF07E53FFF71DF9C820FEF74AFEB2
:103AB000BD4680BD0000A8420000F04200008842E0
:103AC00000008C420000AA42000096420000AC4276
:103AD0000000B04280B582B002AF0A2300930423F5
:103AE00001931548154901224FF07E53FFF7FAF86C
:103AF0000A230093052301931148124901224FF034
:103B00007E53FFF7EFF80A230093032301930E4837
:103B10000E4900224FF07E53FFF7E4F80C480721CE
:103B2000FEF72AFE0A480821FEF726FE4FF4FA7037
:103B3000FEF708FEBD4680BD00000C430000A84211
:103B400000008C42000088420000F0410000B042BA
:103B50000000C84280B582B002AF75480621FEF76A
:103B60000BFE05230093042301937248724900223F
:103B70004FF07E53FFF7B6F80A2300930223019318
:103B80006E486F4901224FF07E53FFF7ABF80523D3
:103B90000093052301936B486B4901224FF07E533C
:103BA000FFF7A0F80220FEF7E5FFC820FEF7CAFDE8
:103BB0000A230093022301935F48604901224FF0DA
:103BC0007E53FFF78FF808230093032301935F4888
:103BD0005F4901224FF07E53FFF784F805230093DD
:103BE000042301935B48534901224FF07E53FFF7B2
:103BF00079F8C820FEF7A6FD0320FEF7BBFF0523DA
:103C00000093052301934FF000004E4901224FF02D
:103C10007E53FFF767F8C820FEF794FD0523009355
:103C20000523019347484FF0000100224FF07E53D7
:103C3000FFF758F8C820FEF785FD082300930323FB
:103C400001934348414900224FF07E53FFF74AF861
:103C500005230093042301933A483E4900224FF084
:103C60007E53FFF73FF80220FEF784FFC820FEF7DF
:103C700069FD0A230093022301934FF000003649A7
:103C800000224FF07E53FFF72DF8C820FEF75AFDB3
:103C90000320FEF76FFF05230093052301932F48B0
:103CA0004FF0000101224FF07E53FFF71BF8C820B0
:103CB000FEF748FD05230093052301934FF0000014
:103CC000264900224FF07E53FFF70CF8C820FEF77C
:103CD00039FD0220FEF74EFF0523009304230193D4
:103CE00015481F4901224FF07E53FEF7FBFF0523C5
:103CF00000930523019314484FF0000100224FF078
:103D00007E53FEF7EFFF0A230093022301930C4832
:103D10004FF0000101224FF07E53FEF7E3FFFEF764
:103D2000F7FE4FF4FA70FEF70DFDBD4680BD00BFF3
:103D30000000DC420000484200000C430000C84282
:103D40000000B8420000164300008C420000A04270
:103D50000000F0410000F042000020430000344326
:103D60000000024380B500AFFEF7D2FE0220FEF74E
:103D700001FF4FF4FA70FEF7E5FCFEF7F9FF4FF490
:103D8000FA70FEF7DFFCFFF75BF84FF4FA70FEF70E
:103D9000D9FC0220FEF7EEFE4FF4FA70FEF7D2FCDB
:103DA000FFF79CF8FFF7E4F8C820FEF7CBFCFEF71E
:103DB000AFFE4FF4FA70FEF7C5FCFEF7A9FE4FF414
:103DC000FA70FEF7BFFC80BD80B500AFFEF7A0FE25
:103DD0000220FEF7CFFE4FF4FA70FEF7B3FCFFF7B8
:103DE00015F94FF4FA70FEF7ADFCFFF781F94FF4C7
:103DF000FA70FEF7A7FC0220FEF7BCFEFFF7D6F92B
:103E0000FFF70CFAC820FEF79DFCFEF781FE4FF489
:103E1000FA70FEF797FCFEF77BFE4FF4FA70FEF7A0
:103E200091FC80BD80B500AF0220FEF7A3FEFFF736
:103E300051FA4FF47A70FEF785FCFFF7BDFA4FF4A4
:103E4000FA70FEF77FFC0220FEF794FE4FF47A70C2
:103E5000FEF778FCFFF7EEFA4FF4FA70FEF772FC0B
:103E6000FEF756FE4FF4FA70FEF76CFC80BD00BF03
:103E700080B500AF0220FEF77DFEFFF741FB4FF457
:103E8000FA70FEF75FFCFFF7A1FB4FF4FA70FEF744
:103E900059FC0220FEF76EFE4FF4FA70FEF752FC5A
:103EA000FFF7D6FB4FF4FA70FEF74CFCFFF7FAFB76
:103EB0004FF4FA70FEF746FCFEF72AFE4FF4FA7054
:103EC000FEF740FC80BD00BF80B500AF0220FEF7CA
:103ED00051FEFEF74DFF4FF4FA70FEF733FCFFF78B
:103EE0002FFC4FF4FA70FEF72DFCFFF77FFC4FF428
:103EF000FA70FEF727FCFFF791F94FF4FA70FEF71E
:103F000021FCFEF705FE4FF4FA70FEF71BFC80BDA6
:103F100080B500AF0220FEF72DFEFFF7DBF94FF46E
:103F2000FA70FEF70FFCFFF7DDFC4FF4FA70FEF7B6
:103F300009FCFFF769FD4FF4FA70FEF703FCFFF789
:103F4000C9FDFEF7E5FD4FF4FA70FEF7FBFB80BDFF
:103F500081F0004102E000BF83F0004330B54FEA3A
:103F600041044FEA430594EA050F08BF90EA020FA7
:103F70001FBF54EA000C55EA020C7FEA645C7FEA3A
:103F8000655C00F0E2804FEA5454D4EB5555B8BF5D
:103F90006D420CDD2C4480EA020281EA030382EACE
:103FA000000083EA010180EA020281EA0303362D60
:103FB00088BF30BD11F0004F4FEA01314FF4801C33
:103FC0004CEA113102D0404261EB410113F0004F45
:103FD0004FEA03334CEA133302D0524263EB4303FC
:103FE00094EA050F00F0A780A4F10104D5F1200E9A
:103FF0000DDB02FA0EFC22FA05F2801841F10001F5
:1040000003FA0EF2801843FA05F359410EE0A5F1C8
:1040100020050EF1200E012A03FA0EFC28BF4CF0F9
:10402000020C43FA05F3C01851EBE37101F00045AF
:1040300007D54FF0000EDCF1000C7EEB00006EEBBC
:104040000101B1F5801F1BD3B1F5001F0CD3490846
:104050005FEA30004FEA3C0C04F101044FEA44529D
:1040600012F5800F80F09A80BCF1004F08BF5FEA24
:10407000500C50F1000041EB045141EA050130BD04
:104080005FEA4C0C404141EB010111F4801FA4F1A7
:104090000104E9D191F0000F04BF01460020B1FAFC
:1040A00081F308BF2033A3F10B03B3F120020CDA34
:1040B0000C3208DD02F1140CC2F10C0201FA0CF012
:1040C00021FA02F10CE002F11402D8BFC2F1200C77
:1040D00001FA02F120FA0CFCDCBF41EA0C0190402D
:1040E000E41AA2BF01EB0451294330BD6FEA040476
:1040F0001F3C1CDA0C340EDC04F11404C4F1200261
:1041000020FA04F001FA02F340EA030021FA04F372
:1041100045EA030130BDC4F10C04C4F1200220FAC9
:1041200002F001FA04F340EA0300294630BD21FA07
:1041300004F0294630BD94F0000F83F4801306BFCD
:1041400081F480110134013D4EE77FEA645C18BFC1
:104150007FEA655C29D094EA050F08BF90EA020F58
:1041600005D054EA000C04BF1946104630BD91EA50
:10417000030F1EBF0021002030BD5FEA545C05D153
:104180004000494128BF41F0004130BD14F5800492
:104190003CBF01F5801130BD01F0004545F0FE4106
:1041A00041F470014FF0000030BD7FEA645C1ABF3B
:1041B000194610467FEA655C1CBF0B46024650EA72
:1041C000013406BF52EA033591EA030F41F400219E
:1041D00030BD00BF90F0000F04BF0021704730B524
:1041E0004FF4806404F132044FF000054FF00001F9
:1041F00050E700BF90F0000F04BF0021704730B5BA
:104200004FF4806404F1320410F0004548BF40428E
:104210004FF000013EE700BF42004FEAE2014FEAE3
:1042200031014FEA02701FBF12F07F4393F07F4FBE
:1042300081F06051704792F0000F14BF93F07F4FF0
:10424000704730B54FF4607401F0004521F0004133
:1042500020E700BF50EA010208BF704730B54FF0B9
:1042600000050AE050EA010208BF704730B511F0BE
:10427000004502D5404261EB41014FF4806404F1F6
:1042800032045FEA915C3FF4DCAE4FF003025FEA78
:10429000DC0C18BF03325FEADC0C18BF033202EB00
:1042A000DC02C2F1200300FA03FC20FA02F001FA5A
:1042B00003FE40EA0E0021FA02F11444C1E600BFF9
:1042C00070B54FF0FF0C4CF4E06C1CEA11541DBFAC
:1042D0001CEA135594EA0C0F95EA0C0F00F0DEF877
:1042E0002C4481EA030621EA4C5123EA4C5350EA5C
:1042F000013518BF52EA033541F4801143F48013AD
:1043000038D0A0FB02CE4FF00005E1FB02E506F03D
:104310000042E0FB03E54FF00006E1FB03569CF092
:10432000000F18BF4EF0010EA4F1FF04B6F5007F98
:1043300064F5407404D25FEA4E0E6D4146EB06060A
:1043400042EAC62141EA55514FEAC52040EA5E5093
:104350004FEACE2EB4F1FD0C88BFBCF5E06F1ED83D
:10436000BEF1004F08BF5FEA500E50F1000041EB74
:10437000045170BD06F0004646EA010140EA020021
:1043800081EA0301B4EB5C04C2BFD4EB0C0541EA43
:10439000045170BD41F480114FF0000E013C00F358
:1043A000AB8014F1360FDEBF002001F0004170BD7C
:1043B000C4F10004203C35DA0C341BDC04F1140495
:1043C000C4F1200500FA05F320FA04F001FA05F221
:1043D00040EA020001F0004221F0004110EBD370EE
:1043E00021FA04F642EB06015EEA430E08BF20EA1A
:1043F000D37070BDC4F10C04C4F1200500FA04F3BD
:1044000020FA05F001FA04F240EA020001F000414E
:1044100010EBD37041F100015EEA430E08BF20EAC1
:10442000D37070BDC4F1200500FA05F24EEA020E09
:1044300020FA04F301FA05F243EA020321FA04F038
:1044400001F0004121FA04F220EA020000EBD370EF
:104450005EEA430E08BF20EAD37070BD94F0000FEF
:104460000FD101F00046400041EB010111F4801F23
:1044700008BF013CF7D041EA060195F0000F18BFD4
:10448000704703F00046520043EB030313F4801F10
:1044900008BF013DF7D043EA0603704794EA0C0FCA
:1044A0000CEA135518BF95EA0C0F0CD050EA4106E0
:1044B00018BF52EA4306D1D181EA030101F000415D
:1044C0004FF0000070BD50EA410606BF1046194685
:1044D00052EA430619D094EA0C0F02D150EA013691
:1044E00013D195EA0C0F05D152EA03361CBF1046D2
:1044F00019460AD181EA030101F0004141F0FE4171
:1045000041F470014FF0000070BD41F0FE4141F4F4
:10451000780170BD70B54FF0FF0C4CF4E06C1CEAF4
:1045200011541DBF1CEA135594EA0C0F95EA0C0FA9
:1045300000F0A7F8A4EB050481EA030E52EA033564
:104540004FEA013100F088804FEA03334FF0805585
:1045500045EA131343EA12634FEA022245EA1115B2
:1045600045EA10654FEA00260EF000419D4208BF63
:10457000964244F1FD0404F5407402D25B084FEA10
:104580003202B61A65EB03055B084FEA32024FF4BC
:1045900080104FF4002CB6EB020E75EB030E22BF19
:1045A000B61A754640EA0C005B084FEA3202B6EBD9
:1045B000020E75EB030E22BFB61A754640EA5C0088
:1045C0005B084FEA3202B6EB020E75EB030E22BF18
:1045D000B61A754640EA9C005B084FEA3202B6EB19
:1045E000020E75EB030E22BFB61A754640EADC00D8
:1045F00055EA060E18D04FEA051545EA16754FEA3A
:1046000006164FEAC30343EA52734FEAC2025FEA57
:104610001C1CC0D111F4801F0BD141EA00014FF0E6
:1046200000004FF0004CB6E711F4801F04BF0143B7
:104630000020B4F1FD0C88BFBCF5E06F3FF6AFAED3
:10464000B5EB030C04BFB6EB020C5FEA500C50F163
:10465000000041EB045170BD0EF0004E4EEA1131E6
:1046600014EB5C04C2BFD4EB0C0541EA045170BDED
:1046700041F480114FF0000E013C90E645EA060E31
:104680008DE60CEA135594EA0C0F08BF95EA0C0F5F
:104690003FF43BAF94EA0C0F0AD150EA01347FF4A7
:1046A00034AF95EA0C0F7FF425AF104619462CE77E
:1046B00095EA0C0F06D152EA03353FF4FDAE1046E1
:1046C000194622E750EA410618BF52EA43067FF432
:1046D000C5AE50EA41047FF40DAF52EA43057FF4C2
:1046E000EBAE12E74FEA4102B2F1E04324BFB3F56B
:1046F000001CDCF1FE5C0DD901F0004C4FEAC00259
:104700004CEA5070B2F1004F40EB830008BF20F03C
:104710000100704711F0804F21D113F13872BCBFF6
:1047200001F00040704741F480114FEA5252C2F14B
:104730001802C2F1200C10FA0CF320FA02F018BF94
:1047400040F001004FEAC1234FEAD32303FA0CFCE7
:1047500040EA0C0023FA02F34FEA4303CCE77FEA76
:10476000625307D150EA01331EBF4FF0FE4040F4C0
:104770004000704701F0004040F0FE4040F400006F
:10478000704700BF80F0004002E000BF81F00041B0
:1047900042001FBF5FEA410392EA030F7FEA226CE7
:1047A0007FEA236C6AD04FEA1262D2EB1363C1BF77
:1047B000D218414048404140B8BF5B42192B88BFE6
:1047C000704710F0004F40F4000020F07F4018BF09
:1047D000404211F0004F41F4000121F07F4118BF29
:1047E000494292EA030F3FD0A2F1010241FA03FCD1
:1047F00010EB0C00C3F1200301FA03F100F00043B9
:1048000002D5494260EB4000B0F5000F13D3B0F180
:10481000807F06D340084FEA310102F10102FE2AEF
:1048200051D2B1F1004F40EBC25008BF20F001005F
:1048300040EA03007047490040EB000010F4000F0D
:10484000A2F10102EDD1B0FA80FCACF1080CB2EBA0
:104850000C0200FA0CF0AABF00EBC25052421843FF
:10486000BCBFD0401843704792F0000F81F40001A4
:1048700006BF80F400000132013BB5E74FEA410377
:104880007FEA226C18BF7FEA236C21D092EA030FE3
:1048900004D092F0000F08BF0846704790EA010F5D
:1048A0001CBF0020704712F07F4F04D1400028BF8A
:1048B00040F00040704712F100723CBF00F500006C
:1048C000704700F0004343F0FE4040F400007047A2
:1048D0007FEA226216BF08467FEA2363014642024E
:1048E00006BF5FEA412390EA010F40F48000704761
:1048F0004FF0000304E000BF10F0004348BF404207
:104900005FEA000C08BF704743F0964301464FF042
:1049100000001CE050EA010208BF70474FF000039E
:104920000AE000BF50EA010208BF704711F00043DF
:1049300002D5404261EB41015FEA010C02BF8446AF
:104940000146002043F0B64308BFA3F18053A3F50E
:104950000003BCFA8CF2083AA3EBC25310DB01FA55
:1049600002FC634400FA02FCC2F12002BCF1004FD9
:1049700020FA02F243EB020008BF20F0010070476A
:1049800002F1200201FA02FCC2F1200250EA4C00BE
:1049900021FA02F243EB020008BF20EADC70704704
:1049A0004FF0FF3C06E000BF4FF0010C02E000BFFB
:1049B0004FF0010C4DF804CD4FEA40024FEA41039D
:1049C0007FEA226C18BF7FEA236C11D001B052EA53
:1049D000530C18BF90EA010F58BFB2EB030088BF19
:1049E000C81738BF6FEAE17018BF40F00100704788
:1049F0007FEA226C02D15FEA402C05D17FEA236C6A
:104A0000E4D15FEA412CE1D05DF8040B704700BFB0
:104A1000844608466146FFE70FB5FFF7C9FF002847
:104A200048BF10F1000F0FBD4DF808EDFFF7F4FF80
:104A30000CBF012000205DF808FB00BF4DF808ED19
:104A4000FFF7EAFF34BF012000205DF808FB00BF3C
:104A50004DF808EDFFF7E0FF94BF012000205DF85E
:104A600008FB00BF4DF808EDFFF7D2FF94BF01200F
:104A700000205DF808FB00BF4DF808EDFFF7C8FF08
:104A800034BF012000205DF808FB00BF4FEA400260
:104A9000B2F1FE4F0FD34FF09E03B3EB12620DD96C
:104AA0004FEA002343F0004310F0004F23FA02F0D6
:104AB00018BF404270474FF00000704712F1610F7D
:104AC00001D1420205D110F0004008BF6FF0004054
:104AD00070474FF00000704770B50F4E0F4D761BBA
:104AE000B61018BF002405D0013455F8043B984790
:104AF000A642F9D10A4E0B4D03F05AFB761BB610B5
:104B000018BF002406D0013455F8043B9847A6424C
:104B1000F9D170BD70BD00BFC8810020C8810020E0
:104B2000D0810020C88100200FB410B5074B82B09F
:104B300004AC54F8042B186823468168019400F0F3
:104B400007F902B0BDE8104004B07047408600206D
:104B5000844641EA000313F0030349D1403A23D3CA
:104B60000B6803604B6843608B688360CB68C360ED
:104B70000B6903614B6943618B698361CB69C361D5
:104B80000B6A03624B6A43628B6A8362CB6AC362BD
:104B90000B6B03634B6B43638B6B8363CB6BC363A5
:104BA00040304031403ADBD230320BD30B680360E7
:104BB0004B6843608B688360CB68C36010301031F2
:104BC000103AF3D20C3205D351F8043B40F8043BC1
:104BD000043AF9D2043208D0D2071CBF11F8013BC5
:104BE00000F8013B01D30B8803806046704700BF8B
:104BF000082A13D38B07B1D010F00303AED0C3F152
:104C00000403D21ADB071CBF11F8013B00F8013B7B
:104C1000A4D331F8023B20F8023B9FE7043AD9D3F2
:104C2000013A11F8013B00F8013BF9D20B7803700F
:104C30004B7843708B7883706046704770B48407FC
:104C400046D0541E002A41D0CDB2034602E0621E77
:104C5000E4B3144603F8015B9A07F8D1032C2ED96C
:104C6000CDB245EA05250F2C45EA054519D926465A
:104C700003F11002103E0F2E42F8105C42F80C5C5B
:104C800042F8085C42F8045C02F11002F2D8A4F188
:104C9000100222F00F0204F00F041032032C134410
:104CA0000DD91E462246043A032A46F8045BFAD878
:104CB000221F22F003020432134404F003042CB137
:104CC000C9B21C4403F8011BA342FBD170BC70475E
:104CD00014460346C2E700BF4B6E2DE9F0479C0423
:104CE0000F4692462BD59368126833B3804602F183
:104CF000080919E96000B60817D0043D002401E056
:104D0000A64210D0404655F8041F3A4601F088F8F4
:104D1000431C04F10104F3D10023CAF80830CAF897
:104D20000430BDE8F087DAF80830A3EB8603CAF850
:104D3000083009F10809002BDBD10020ECE701F075
:104D4000A7F90023CAF80830CAF80430BDE8F08794
:104D50002DE9F04FABB01C460091934604930190AF
:104D600018B1836B002B00F0E380009B99898AB215
:104D7000900408D418465B6E41F4005223F40053AB
:104D80008281436692B2110740F1B280009B1B6999
:104D9000002B00F0AD8002F01A020A2A00F0B48065
:104DA0000DF1680A54460023099302930F930E9362
:104DB000CDF834A09BF80030002B00F0A384252B05
:104DC00000F0A0845A4601E0252B03D012F8013FE1
:104DD000002BF9D1CBEB0206154696B10E9B0F9A2C
:104DE00001333244072BC4F800B066600F920E9373
:104DF00079DD002A40F0AD845446029B0E92334484
:104E000002932B78002B00F05F834FF0000300210A
:104E10004FF0FF3C8DF82F30681C6B7888460D46AC
:104E2000664600F1010BA3F12002582A00F2AA8283
:104E3000DFE812F09A02A802A802A202A802A802C1
:104E4000A802A802A802A80254026002A8020D014A
:104E50006C02A80229012F012F012F012F012F0120
:104E60002F012F012F012F01A802A802A802A802DA
:104E7000A802A802A802A802A802A8023D01A8024E
:104E8000A802A802A802A802A802A802A802A802D2
:104E9000A8027401A802A802A802A802A8028B0115
:104EA000A802A802A301A802A802A802A802A802B8
:104EB000A802A802A802A802A802C701DA01A80253
:104EC000A802A8022301DA01A802A8024B02A80244
:104ED00088021301F4010702A8020D02A802810052
:104EE000A802A80232020834029B3344029388E7E6
:104EF0000198009900F072FDA8B9009B9A8902F010
:104F00001A020A2A7FF44CAF009BB3F90E30002B33
:104F1000FFF646AF019800995A46234600F020FD5F
:104F20002BB0BDE8F08F4FF0FF302BB0BDE8F08F15
:104F300000F0FEFE19E718F0200F0395B44600F0CC
:104F40000C81049B073323F0070303F10802D3E924
:104F50000067049201234FF00002E1468DF82F20F4
:104F60000025BCF1000FA8BF28F0800856EA070210
:104F700040F0C480BCF1000F00F08083012B00F0F2
:104F8000C580022B00F086835146F20842EA477240
:104F9000F80806F0070307461646303356EA0702BC
:104FA00001F8013DF1D118F0010F079140F0FA83AB
:104FB000C1EB0A09E1454E46B8BF664605B1013668
:104FC00018F00203059318BF023618F08403069305
:104FD00040F0F981039B9D1B002D40F3F481102DBF
:104FE00040F38A842046DDF838E064460F9AC44FC7
:104FF00010237146844607E001F1020E01460CF1D0
:10500000080C103D102D13DD481C103207280F929C
:10501000CCF80070CCF804300E90EDDD002A40F0A2
:10502000C281103D102D11464FF0010ED446EBDC2D
:1050300063467146A4461C462A4407290F922760FE
:1050400065600E9100F346830834481CBEE1584663
:1050500048F004089BF80030E3E618F020030395BD
:10506000B44662D0049B073323F0070303F1080220
:10507000D3E90067049200236DE748F040089BF8ED
:1050800000305846CDE648F080089BF8003058467E
:10509000C7E6A3F1300200251BF8013B05EB8505AF
:1050A00002EB4505A3F13002092AF5D9BBE648F029
:1050B000100818F0200F0395B4468DF82F1000F05B
:1050C0009B800499073121F00701D1E9002316469E
:1050D0001F4608310491002A73F10003C0F2A48333
:1050E000BCF1000FA8BF28F0800856EA07029DF81F
:1050F0002F50E1464FF001033FF43CAF012B7FF40A
:1051000040AF002F08BF0A2E80F032832AAB303622
:1051100003F8416DC3EB0A0907934BE748F0100809
:1051200018F020030395B4469CD118F0100240F00B
:10513000F78218F0400300F0F382049913460A4600
:1051400004320E880027049205E748F0100818F092
:10515000200F0395B4467FF4F4AE049A18F0100FB4
:10516000134640F0E48218F0400F00F0E082168809
:105170000432002701230492EDE6624A18F0200F62
:105180000395B4468DF82F10099200F08F80049A91
:10519000073222F0070202F108010491D2E9006708
:1051A00018F0010F00F08F8256EA070200F08B82A0
:1051B00030228DF8313048F002088DF8302002237B
:1051C000C9E6049A012613684FF000018DF84030BB
:1051D0001346B1460433049310AB03958DF82F109A
:1051E00007934FF0000CEBE618F0200F0395B44640
:1051F0008DF82F107FF465AF049A18F0100F134646
:1052000040F0A08218F0400F00F09C82B2F90060DC
:105210000433F717049332463B465CE7049978233E
:105220008DF83130384BB44630220E680431099382
:10523000039548F00208049100278DF830200223DE
:1052400089E648F020089BF800305846E9E54FF021
:105250000001049A03951368B44607938DF82F1044
:10526000151D002B00F04E83002EC0F22983079EEF
:10527000624630460021CDF810C001F0C1FBDDF8D8
:1052800010C0002800F04E830495C6EB00099DF87D
:105290002F504FF0000C8DE61B4A18F0200F03959D
:1052A000B44609928DF82F107FF471AF049918F06D
:1052B000100F0A4640F0418218F0400F00F03D8286
:1052C00004320E88002704926AE79BF800306C2BAA
:1052D00000F0E98248F010085846A2E5049A134607
:1052E00015680433002DC0F2E68204939BF8003069
:1052F000584696E59BF8003058462B2191E500BFB3
:105300009C8100206C810020808100209BF800306F
:105310000BF101002A2B00F00F83A3F13002092AC0
:1053200083464FF000063FF67EAD1BF8013B06EBCF
:10533000860602EB4606A3F13002092AF5D946EAB1
:10534000E67670E518F0200F8DF82F1000F08382BC
:10535000049A134604330493029B1168DF171A461C
:105360003B46C1E9002325E558469BF8003000295B
:105370007FF457AD202154E548F0010858469BF8CA
:1053800000304EE503958DF82F10002B00F09C8027
:105390008DF840304FF0000301268DF82F3010AB10
:1053A000B14607931DE7019800990DAA0893FFF7EE
:1053B00093FC002840F08F800E99D4460F9A01F19B
:1053C000010E089B1DE60E990F9A481C9DF82F3080
:1053D0006BB101320DF12F03012107280F920E90BE
:1053E0002360616000F33481014608340130059B7D
:1053F00063B102320CA9022307280F920E9084E8B1
:105400000A0000F33481014608340130069B802BEA
:1054100000F0D480C9EB0C07002F2BDD102FAB4D13
:105420001FDDA6461023019C07E001F1020C014696
:105430000EF1080E103F102F11DD481C1032072806
:105440000F92CEF80050CEF804300E90EDDD6ABB1E
:10545000103F102F4FF0010C1146D646EDDC74467C
:1054600060463A4407280F9284E8A0000E903BDC87
:105470000834013002EB0903079A07280F9384E8E8
:1054800004020E903DDD002B40F03F8118F0040F28
:105490000E9340F03081029B039A9642ACBF9B1959
:1054A0009B18029300230E93544683E420460099F0
:1054B0000DAA0593FFF710FC68B90E99D6460F9A0E
:1054C00001F1010C059BB5E70F9B23B101980099F1
:1054D0000DAAFFF701FC009B9B895B063FF523ADFE
:1054E00002982BB0BDE8F08F002A40F090814B4627
:1054F000544607990122CDF86C90CDF83C901A9152
:105500000E9204F1080218F0040F39D003998D1B94
:10551000002D35DD102D40F300820E986C4F1024C5
:10552000DDF80480DDF8009006E000F1020E084688
:105530000832103D102D10DD411C103307290F9348
:10554000176054600E91F0DD002B2AD1103D102D14
:105550004FF0010E18465246EEDC2B44BEF1070F09
:105560000F9317605560CDF838E009DD002B92D01D
:10557000019800990DAAFFF7AFFB0028ABD10F9B54
:10558000029A03998E42ACBF921952180292002BD4
:1055900088D0019800990DAAFFF79EFB002881D0C2
:1055A00099E7404649460DAAFFF796FB002892D19D
:1055B0000E9852460F9B00F1010EBAE7039B9F1B0A
:1055C000002F7FF727AF102F40F3B38120463F4DC8
:1055D00064461023844607E001F1020E01460CF1F7
:1055E000080C103F102F11DD481C103207280F92B5
:1055F000CCF80050CCF804300E90EDDDC2B9103F6D
:10560000102F4FF0010E1146D446EDDC6346A44640
:105610001C463A44BEF1070F0F9284E8A000CDF873
:1056200038E000F3EE8008340EF101007146F1E637
:10563000019800990DAA0593FFF74EFB00287FF40F
:105640004AAF0E99D4460F9A01F1010E059BC8E7A7
:10565000002A40F0C580059B002B00F085800CAA35
:1056600002231A9208461B931A465446CBE6002A98
:1056700040F0A580012011465446C7E603BB18F050
:10568000010F1DD02AAB302203F8412DC3EB0A09CC
:1056900007938FE4D1460998330943EA0773390920
:1056A00006F00F020F461E46835C09F8013D56EADC
:1056B0000703F1D14B46CDF81C90C3EB0A0979E4FE
:1056C000CDF81CA076E4022345E400BF5C810020F5
:1056D0009C810020002A40F0D5809DF82F30002BBF
:1056E00000F0AC8001230DF12F0118461B931A46E0
:1056F0001A91544678E6039A951B002D52463FF7BF
:1057000009AFC8E65D46FFF77CBB019800990DAA7A
:10571000FFF7E2FA00287FF4DEAE52460F9BF2E676
:10572000049900270A4604320E68049213E40432F6
:105730001E680027012304920DE4166804320492C7
:1057400000272DE51E680433F717049332463B46C5
:10575000C1E4019800990DAAFFF7BEFA00287FF472
:10576000BAAE5446FFF7C0BB0846544611464DE654
:10577000D146CDF814C0304639460A22002301F044
:10578000F7FD30323046394609F8012D00230A2250
:1057900001F0EEFD06460F4656EA0703EBD1DDF8B1
:1057A00014C087E7302B079B87D0013B1A4607932D
:1057B0003023C2EB0A0901F8013CFFF7FBBB01985B
:1057C00000990DAACDF814C0FFF786FA00287FF4DF
:1057D00082AE0E9954460F9A481CDDF814C015E6A7
:1057E000019800990DAACDF820C0FFF775FA00289E
:1057F0007FF471AE0E9954460F9A481CDDF820C014
:10580000F5E5002A67D101201146544602E60198C9
:1058100000990DAAFFF760FA00287FF45CAE0E989D
:1058200054460F9A013025E62D25764267EB47074F
:105830008DF82F50E1460123FFF793BB059B1146DE
:1058400001205446002B3FF4E5AD0CAA02238AE860
:105850000C001A46D7E518F0100F0BD118F0400FC6
:1058600008D0049A136804320492BDF808201A8004
:10587000FFF7A0BA049A136804320492029A1A60DD
:10588000FFF798BA019800990DAACDF820C0FFF74C
:1058900023FA00287FF41FAE0E9954460F9A481C35
:1058A000DDF820C092E548F020080BF101009BF8DC
:1058B0000130FFF7B6BA6D4204935846FFF7C8BBF4
:1058C0000798049501F092FB9DF82F5081464FF008
:1058D000000CFFF76FBB019800990DAACDF814C01A
:1058E000FFF7FAF900287FF4F6AD0E9954460F9AA7
:1058F000481CDDF814C08DE50E990F9A0131154F43
:10590000FFF79ABB062E144B28BF4FF0060CE1465A
:1059100004952CEAEC76079363E40E990D4F01F1A0
:10592000010E1AE6E146049584469DF82F50FFF7D4
:1059300041BB8646094D6CE6049A9BF80130166817
:105940000432002E0492BFF66CAA4FF0FF36FFF728
:1059500068BA00BF9C810020948100205C810020F7
:105960002DE9F04588464F6EADF26C4D1997D8F889
:105970001C70B1F80CE0B1F80EA00797D8F82470AD
:105980001AAC4FF480652EF0020E00266946009492
:10599000049402950595ADF80CE0ADF80EA00997BA
:1059A00006960546FFF7D4F9041E07DB284669462C
:1059B00000F02AF9B04218BF4FF0FF34BDF80C30A8
:1059C0005B0605D5B8F80C3043F04003A8F80C305E
:1059D00020460DF26C4DBDE8F08500BF38B52F4B69
:1059E000054618680C4610B1836B002B36D0A2898F
:1059F00093B218070CD52069A8B113F001021ED08C
:105A0000636900225B42A361A260F0B1002038BD4F
:105A1000D9063AD5580724D4206942F00803A38157
:105A20009BB20028E9D103F42072B2F5007FE4D0E4
:105A30002846214600F0EEFCA3892069DDE799079E
:105A400058BF6269A2600028E0D1A3891A06DED59A
:105A500043F04003A3814FF0FF3038BD00F068F9F8
:105A6000C5E7216B49B104F14003994203D02846B0
:105A700000F036FAA28900232363206922F0240271
:105A8000002392B284E80900C7E742F040020923EC
:105A90002B604FF0FF30A28138BD00BF4086002050
:105AA000024B13B1024800F005B870470000000037
:105AB000455D0020014600200246034601F064BB1C
:105AC0008B892DE9F0419AB20D46110780463CD4EE
:105AD0006A6843F40063002AAB8165DDAE6A002E7C
